{
  "contractName": "Ownable",
  "abi": [
    {
      "inputs": [],
      "stateMutability": "nonpayable",
      "type": "constructor"
    },
    {
      "anonymous": false,
      "inputs": [
        {
          "indexed": false,
          "internalType": "address",
          "name": "previousOwner",
          "type": "address"
        },
        {
          "indexed": false,
          "internalType": "address",
          "name": "newOwner",
          "type": "address"
        }
      ],
      "name": "OwnershipTransferred",
      "type": "event"
    },
    {
      "inputs": [],
      "name": "owner",
      "outputs": [
        {
          "internalType": "address payable",
          "name": "",
          "type": "address"
        }
      ],
      "stateMutability": "view",
      "type": "function"
    },
    {
      "inputs": [
        {
          "internalType": "address payable",
          "name": "newOwner",
          "type": "address"
        }
      ],
      "name": "transferOwnership",
      "outputs": [],
      "stateMutability": "nonpayable",
      "type": "function"
    },
    {
      "inputs": [],
      "name": "acceptOwnership",
      "outputs": [
        {
          "internalType": "address",
          "name": "",
          "type": "address"
        }
      ],
      "stateMutability": "nonpayable",
      "type": "function"
    }
  ],
  "bytecode": "0x608060405234801561001057600080fd5b50336000806101000a81548173ffffffffffffffffffffffffffffffffffffffff021916908373ffffffffffffffffffffffffffffffffffffffff1602179055506106ef806100606000396000f3fe608060405234801561001057600080fd5b50600436106100415760003560e01c806379ba5097146100465780638da5cb5b14610064578063f2fde38b14610082575b600080fd5b61004e61009e565b60405161005b9190610427565b60405180910390f35b61006c610275565b6040516100799190610463565b60405180910390f35b61009c600480360381019061009791906104af565b610299565b005b6000600160009054906101000a900473ffffffffffffffffffffffffffffffffffffffff1673ffffffffffffffffffffffffffffffffffffffff163373ffffffffffffffffffffffffffffffffffffffff1614610130576040517f08c379a000000000000000000000000000000000000000000000000000000000815260040161012790610539565b60405180910390fd5b7f8be0079c531659141344cd1fd0a4f28419497f9722a3daafe3b4186f6b6457e060008054906101000a900473ffffffffffffffffffffffffffffffffffffffff16600160009054906101000a900473ffffffffffffffffffffffffffffffffffffffff166040516101a39291906105b8565b60405180910390a1600160009054906101000a900473ffffffffffffffffffffffffffffffffffffffff166000806101000a81548173ffffffffffffffffffffffffffffffffffffffff021916908373ffffffffffffffffffffffffffffffffffffffff1602179055506000600160006101000a81548173ffffffffffffffffffffffffffffffffffffffff021916908373ffffffffffffffffffffffffffffffffffffffff16021790555060008054906101000a900473ffffffffffffffffffffffffffffffffffffffff16905090565b60008054906101000a900473ffffffffffffffffffffffffffffffffffffffff1681565b60008054906101000a900473ffffffffffffffffffffffffffffffffffffffff1673ffffffffffffffffffffffffffffffffffffffff163373ffffffffffffffffffffffffffffffffffffffff1614610327576040517f08c379a000000000000000000000000000000000000000000000000000000000815260040161031e9061062d565b60405180910390fd5b600073ffffffffffffffffffffffffffffffffffffffff168173ffffffffffffffffffffffffffffffffffffffff1603610396576040517f08c379a000000000000000000000000000000000000000000000000000000000815260040161038d90610699565b60405180910390fd5b61039f816103a2565b50565b80600160006101000a81548173ffffffffffffffffffffffffffffffffffffffff021916908373ffffffffffffffffffffffffffffffffffffffff16021790555050565b600073ffffffffffffffffffffffffffffffffffffffff82169050919050565b6000610411826103e6565b9050919050565b61042181610406565b82525050565b600060208201905061043c6000830184610418565b92915050565b600061044d826103e6565b9050919050565b61045d81610442565b82525050565b60006020820190506104786000830184610454565b92915050565b600080fd5b61048c81610442565b811461049757600080fd5b50565b6000813590506104a981610483565b92915050565b6000602082840312156104c5576104c461047e565b5b60006104d38482850161049a565b91505092915050565b600082825260208201905092915050565b7f496e76616c6964206e6577206f776e6572000000000000000000000000000000600082015250565b60006105236011836104dc565b915061052e826104ed565b602082019050919050565b6000602082019050818103600083015261055281610516565b9050919050565b6000819050919050565b600061057e610579610574846103e6565b610559565b6103e6565b9050919050565b600061059082610563565b9050919050565b60006105a282610585565b9050919050565b6105b281610597565b82525050565b60006040820190506105cd60008301856105a9565b6105da60208301846105a9565b9392505050565b7f4e6f74204f776e65720000000000000000000000000000000000000000000000600082015250565b60006106176009836104dc565b9150610622826105e1565b602082019050919050565b600060208201905081810360008301526106468161060a565b9050919050565b7f496e76616c696420416464726573730000000000000000000000000000000000600082015250565b6000610683600f836104dc565b915061068e8261064d565b602082019050919050565b600060208201905081810360008301526106b281610676565b905091905056fea264697066735822122004e550d27e5ef443d29ab78be7ccc726fb471210e669566c8f70bfe98774c16c64736f6c634300080e0033",
  "immutableReferences": {},
  "source": "// SPDX-License-Identifier: UNLICENSED\r\npragma solidity ^0.8.0;\r\n/**\r\n *Submitted for verification at BscScan.com on 2022-05-10\r\n*/\r\n\r\n\r\nlibrary SafeMath {\r\n\r\n    function add(uint256 a, uint256 b) internal pure returns (uint256) {\r\n        uint256 c = a + b;\r\n        require(c >= a, \"SafeMath: addition overflow\");\r\n\r\n        return c;\r\n    }\r\n\r\n    function sub(uint256 a, uint256 b) internal pure returns (uint256) {\r\n        require(b <= a, \"SafeMath: subtraction overflow\");\r\n        uint256 c = a - b;\r\n\r\n        return c;\r\n    }\r\n\r\n    function mul(uint256 a, uint256 b) internal pure returns (uint256) {\r\n        if (a == 0) {\r\n            return 0;\r\n        }\r\n\r\n        uint256 c = a * b;\r\n        require(c / a == b, \"SafeMath: multiplication overflow\");\r\n\r\n        return c;\r\n    }\r\n\r\n    function div(uint256 a, uint256 b) internal pure returns (uint256) {\r\n        require(b > 0, \"SafeMath: division by zero\");\r\n        uint256 c = a / b;\r\n\r\n        return c;\r\n    }\r\n}\r\n\r\nabstract contract ERC20Interface {\r\n    function totalSupply() \r\n\t\tpublic \r\n\t\tvirtual \r\n\t\treturns (uint256);\r\n\r\n    function balanceOf(address tokenOwner) \r\n\t\tpublic \r\n\t\tvirtual \r\n\t\treturns (uint256 balance);\r\n    \r\n\tfunction allowance\r\n\t\t(address tokenOwner, address spender) \r\n\t\tpublic \r\n\t\tvirtual \r\n\t\treturns (uint256 remaining);\r\n\r\n    function transfer(address to, uint256 tokens) public virtual\r\n\t\treturns (bool success);\r\n    \r\n\tfunction approve(address spender, uint256 tokens) public virtual\r\n\t\treturns (bool success);\r\n\r\n    function transferFrom \r\n\t\t(address from, address to, uint256 tokens) public virtual\r\n\t\treturns (bool success);\r\n\r\n\r\n    event Transfer(address indexed from, address indexed to, uint256 tokens);\r\n    event Approval(address indexed tokenOwner, address indexed spender, uint256 tokens);\r\n}\r\n\r\ncontract Ownable {\r\n\r\n  // Owner of the contract\r\n  address payable public owner;\r\n  address payable internal _newOwner;\r\n\r\n    constructor() {\r\n        owner = payable(address(msg.sender));\r\n    }\r\n\r\n  /**\r\n  * @dev Event to show ownership has been transferred\r\n  * @param previousOwner representing the address of the previous owner\r\n  * @param newOwner representing the address of the new owner\r\n  */\r\n  event OwnershipTransferred(address previousOwner, address newOwner);\r\n\r\n\r\n  /**\r\n   * @dev Sets a new owner address\r\n   */\r\n  function setOwner(address payable newOwner) internal {\r\n    _newOwner = newOwner;\r\n  }\r\n\r\n  /**\r\n  * @dev Throws if called by any account other than the owner.\r\n  */\r\n  modifier onlyOwner() {\r\n    require(msg.sender == owner, \"Not Owner\");\r\n    _;\r\n  }\r\n\r\n  /**\r\n   * @dev Allows the current owner to transfer control of the contract to a newOwner.\r\n   * @param newOwner The address to transfer ownership to.\r\n   */\r\n  function transferOwnership(address payable newOwner) public onlyOwner {\r\n    require(newOwner != address(0), \"Invalid Address\");\r\n    setOwner(newOwner);\r\n  }\r\n\r\n  //this flow is to prevent transferring ownership to wrong wallet by mistake\r\n  function acceptOwnership() public returns (address){\r\n      require(msg.sender == _newOwner,\"Invalid new owner\");\r\n      emit OwnershipTransferred(owner, _newOwner);\r\n      owner = _newOwner;\r\n      _newOwner = payable(address(0));\r\n      return owner;\r\n  }\r\n}\r\n\r\ncontract ViccStaking is Ownable {\r\n    using SafeMath for uint256;\r\n\r\n    uint256 constant public PERCENTS_DIVIDER = 100;\r\n\tuint256 constant public DAILY_ROI = 15;\r\n    uint256 constant public REFERRAL_PERCENTS = 12; // 12%\r\n    uint256 constant public TIME_STEP = 1 days;\r\n    uint256 constant public MIN_STAKE_AMOUNT = 1000 * (10**18);\r\n\t\r\n\tERC20Interface VictoryCoin;\r\n\r\n    uint256 public totalUsers;\r\n    uint256 public totalInvested;\r\n    uint256 public totalWithdrawn;\r\n    uint256 public totalDeposits;\r\n\r\n    struct Deposit {\r\n        uint256 amount;\r\n        uint256 withdrawn;\r\n        uint256 start;\r\n    }\r\n\r\n    struct User {\r\n        Deposit[] deposits;\r\n        uint256 checkpoint;\r\n        uint256 bonus;\r\n        address referrer;\r\n        uint256 referralCount;\r\n    }\r\n\r\n    mapping (address => User) internal users;\r\n\r\n    modifier onlyhodler() {\r\n        require(getUserDividends(msg.sender) > 0, \"Not Holder\");\r\n        _;\r\n    }\r\n\r\n    event Newbie(address user);\r\n    event NewDeposit(address indexed user, uint256 amount);\r\n    event Withdrawn(address indexed user, uint256 amount);\r\n    event onReinvestment(address indexed user, uint256 reinvestAmount);\r\n    event RefBonus(address indexed referrer, address indexed referral, uint256 amount);\r\n\r\n    constructor(address _VictoryCoin) {\r\n        VictoryCoin = ERC20Interface(_VictoryCoin);\r\n    }\r\n\r\n    receive() external payable {}\r\n\r\n    function invest(address referrer, uint256 amount) public {\r\n\t\tVictoryCoin.transferFrom(msg.sender, address(this), amount);\r\n\t\t\r\n        User storage user = users[msg.sender];\r\n\r\n        if (user.referrer == address(0) && users[referrer].deposits.length > 0 && referrer != msg.sender) {\r\n            user.referrer = referrer;\r\n        }\r\n\r\n        if (user.referrer != address(0)) {\r\n            address upline = user.referrer;\r\n\t\t\tif (upline != address(0)) {\r\n\t\t\t\tuint256 _amount = amount.mul(REFERRAL_PERCENTS).div(PERCENTS_DIVIDER);\r\n\t\t\t\tusers[upline].bonus = users[upline].bonus.add(_amount);\r\n                users[upline].referralCount.add(1);\r\n\t\t\t\temit RefBonus(upline, msg.sender, _amount);\r\n\t\t\t}\r\n        }\r\n\r\n        if (user.deposits.length == 0) {\r\n            user.checkpoint = block.timestamp;\r\n            totalUsers = totalUsers.add(1);\r\n            emit Newbie(msg.sender);\r\n        }\r\n\r\n        user.deposits.push(Deposit(amount, 0, block.timestamp));\r\n\r\n        totalInvested = totalInvested.add(amount);\r\n        totalDeposits = totalDeposits.add(1);\r\n\r\n        emit NewDeposit(msg.sender, amount);\r\n    }\r\n\r\n    function withdraw() public {\r\n        User storage user = users[msg.sender];\r\n\r\n        uint256 totalAmount;\r\n        uint256 dividends;\r\n\r\n        for (uint256 i = 0; i < user.deposits.length; i++) {\r\n            if (user.deposits[i].withdrawn < user.deposits[i].amount.mul(365).div(100)) {\r\n                if (user.deposits[i].start > user.checkpoint) {\r\n                    dividends = (user.deposits[i].amount.mul(DAILY_ROI).div(PERCENTS_DIVIDER))\r\n\t\t\t\t\t\t.mul(block.timestamp.sub(user.deposits[i].start))\r\n\t\t\t\t\t\t.div(TIME_STEP);\r\n                } else {\r\n                    dividends = (user.deposits[i].amount.mul(DAILY_ROI).div(PERCENTS_DIVIDER))\r\n                        .mul(block.timestamp.sub(user.checkpoint))\r\n                        .div(TIME_STEP);\r\n                }\r\n\r\n                if (user.deposits[i].withdrawn.add(dividends) > user.deposits[i].amount.mul(365).div(100)) {\r\n                    dividends = (user.deposits[i].amount.mul(365).div(100)).sub(user.deposits[i].withdrawn);\r\n                }\r\n\r\n                user.deposits[i].withdrawn = user.deposits[i].withdrawn.add(dividends); /// changing of storage data\r\n                totalAmount = totalAmount.add(dividends);\r\n            }\r\n        }\r\n\r\n        uint256 referralBonus = getUserReferralBonus(msg.sender);\r\n        if (referralBonus > 0) {\r\n            totalAmount = totalAmount.add(referralBonus);\r\n            user.bonus = 0;\r\n        }\r\n\r\n        require(totalAmount > 0, \"User has no dividends\");\r\n\r\n        uint256 contractBalance = VictoryCoin.balanceOf(address(this));\r\n        if (contractBalance < totalAmount) {\r\n            totalAmount = contractBalance;\r\n        }\r\n\r\n        user.checkpoint = block.timestamp;\r\n\t\t\r\n\t\tVictoryCoin.transfer(msg.sender, totalAmount);\r\n\r\n        totalWithdrawn = totalWithdrawn.add(totalAmount);\r\n\r\n        emit Withdrawn(msg.sender, totalAmount);\r\n    }\r\n\r\n    function reinvest() onlyhodler() public\r\n    {\r\n        User storage user = users[msg.sender];\r\n        // fetch dividends\r\n        uint256 _dividends = getUserDividends(msg.sender); // retrieve ref. bonus later in the code\r\n        uint256 totalAmount;\r\n        uint256 dividends;\r\n\r\n        user.deposits.push(Deposit(_dividends, 0, block.timestamp));\r\n\r\n        for (uint256 i = 0; i < user.deposits.length; i++) {\r\n            if (user.deposits[i].withdrawn < user.deposits[i].amount.mul(365).div(100)) {\r\n                if (user.deposits[i].start > user.checkpoint) {\r\n                    dividends = (user.deposits[i].amount.mul(DAILY_ROI).div(PERCENTS_DIVIDER))\r\n\t\t\t\t\t\t.mul(block.timestamp.sub(user.deposits[i].start))\r\n\t\t\t\t\t\t.div(TIME_STEP);\r\n                } else {\r\n                    dividends = (user.deposits[i].amount.mul(DAILY_ROI).div(PERCENTS_DIVIDER))\r\n                        .mul(block.timestamp.sub(user.checkpoint))\r\n                        .div(TIME_STEP);\r\n                }\r\n\r\n                if (user.deposits[i].withdrawn.add(dividends) > user.deposits[i].amount.mul(365).div(100)) {\r\n                    dividends = (user.deposits[i].amount.mul(365).div(100)).sub(user.deposits[i].withdrawn);\r\n                }\r\n\r\n                user.deposits[i].withdrawn = user.deposits[i].withdrawn.add(dividends); /// changing of storage data\r\n                totalAmount = totalAmount.add(dividends);\r\n            }\r\n        }\r\n\r\n        user.checkpoint = block.timestamp;\r\n\r\n        totalInvested = totalInvested.add(_dividends);\r\n        totalDeposits = totalDeposits.add(1);\r\n        totalWithdrawn = totalWithdrawn.add(totalAmount);\r\n        // fire event\r\n        emit onReinvestment(msg.sender, _dividends);\r\n    }\r\n\r\n\r\n    function getUserDividends(address userAddress) public view returns (uint256) {\r\n        User storage user = users[userAddress];\r\n\r\n        uint256 totalDividends;\r\n        uint256 dividends;\r\n\r\n        for (uint256 i = 0; i < user.deposits.length; i++) {\r\n\r\n            if (user.deposits[i].withdrawn < user.deposits[i].amount.mul(365).div(100)) {\r\n\r\n                if (user.deposits[i].start > user.checkpoint) {\r\n\r\n                    dividends = (user.deposits[i].amount.mul(DAILY_ROI).div(PERCENTS_DIVIDER))\r\n\t\t\t\t\t\t.mul(block.timestamp.sub(user.deposits[i].start))\r\n\t\t\t\t\t\t.div(TIME_STEP);\r\n\r\n                } else {\r\n\r\n                    dividends = (user.deposits[i].amount.mul(DAILY_ROI).div(PERCENTS_DIVIDER))\r\n\t\t\t\t\t\t.mul(block.timestamp.sub(user.checkpoint))\r\n\t\t\t\t\t\t.div(TIME_STEP);\r\n                }\r\n\r\n                if (user.deposits[i].withdrawn.add(dividends) > user.deposits[i].amount.mul(365).div(100)) {\r\n                    dividends = (user.deposits[i].amount.mul(365).div(100)).sub(user.deposits[i].withdrawn);\r\n                }\r\n\r\n                totalDividends = totalDividends.add(dividends);\r\n            }\r\n        }\r\n\r\n        return totalDividends;\r\n    }\r\n\r\n    function minimumStakeValue() public view returns(uint256) {\r\n        return MIN_STAKE_AMOUNT;\r\n    }\r\n\r\n    function getUserReferralBonus(address userAddress) public view returns(uint256) {\r\n        return users[userAddress].bonus;\r\n    }\r\n\r\n    function getUserReferralCount(address referrer) public view returns(uint256) {\r\n        return users[referrer].referralCount;\r\n    }\r\n\r\n    function getUserReferrer(address userAddress) public view returns(address) {\r\n        return users[userAddress].referrer;\r\n    }\r\n\r\n    function getUserCheckpoint(address userAddress) public view returns(uint256) {\r\n        return users[userAddress].checkpoint;\r\n    }\r\n\r\n    function getUserAvailable(address userAddress) public view returns(uint256) {\r\n        return getUserReferralBonus(userAddress).add(getUserDividends(userAddress));\r\n    }\r\n\r\n    function isActive(address userAddress) public view returns (bool) {\r\n        User storage user = users[userAddress];\r\n\r\n        if (user.deposits.length > 0) {\r\n            if (user.deposits[user.deposits.length-1].withdrawn < user.deposits[user.deposits.length-1].amount.mul(365).div(100)) {\r\n                return true;\r\n            }\r\n        }\r\n    }\r\n\r\n    function getUserDepositInfo(address userAddress, uint256 index) public view returns(uint256, uint256, uint256) {\r\n        User storage user = users[userAddress];\r\n\r\n        return (user.deposits[index].amount, user.deposits[index].withdrawn, user.deposits[index].start);\r\n    }\r\n\r\n    function getUserAmountOfDeposits(address userAddress) public view returns(uint256) {\r\n        return users[userAddress].deposits.length;\r\n    }\r\n\r\n    function getUserTotalDeposits(address userAddress) public view returns(uint256) {\r\n        User storage user = users[userAddress];\r\n\r\n        uint256 amount;\r\n\r\n        for (uint256 i = 0; i < user.deposits.length; i++) {\r\n            amount = amount.add(user.deposits[i].amount);\r\n        }\r\n\r\n        return amount;\r\n    }\r\n\r\n    function getUserTotalWithdrawn(address userAddress) public view returns(uint256) {\r\n        User storage user = users[userAddress];\r\n\r\n        uint256 amount;\r\n\r\n        for (uint256 i = 0; i < user.deposits.length; i++) {\r\n            amount = amount.add(user.deposits[i].withdrawn);\r\n        }\r\n\r\n        return amount;\r\n    }\r\n}",
  "sourcePath": "D:\\Work\\VictoryCoinStake\\src\\Contract\\contracts\\ViccStaking.sol",
  "compiler": {
    "name": "solc",
    "version": "0.8.14+commit.80d49f37.Emscripten.clang"
  },
  "schemaVersion": "3.4.7",
  "updatedAt": "2022-06-16T02:14:14.567Z",
  "devdoc": {
    "events": {
      "OwnershipTransferred(address,address)": {
        "details": "Event to show ownership has been transferred",
        "params": {
          "newOwner": "representing the address of the new owner",
          "previousOwner": "representing the address of the previous owner"
        }
      }
    },
    "kind": "dev",
    "methods": {
      "transferOwnership(address)": {
        "details": "Allows the current owner to transfer control of the contract to a newOwner.",
        "params": {
          "newOwner": "The address to transfer ownership to."
        }
      }
    },
    "version": 1
  },
  "userdoc": {
    "kind": "user",
    "methods": {},
    "version": 1
  }
}