{
  "contractName": "ViccStaking",
  "abi": [
    {
      "inputs": [
        {
          "internalType": "address",
          "name": "_VictoryCoin",
          "type": "address"
        }
      ],
      "stateMutability": "nonpayable",
      "type": "constructor"
    },
    {
      "anonymous": false,
      "inputs": [
        {
          "indexed": true,
          "internalType": "address",
          "name": "user",
          "type": "address"
        },
        {
          "indexed": false,
          "internalType": "uint256",
          "name": "amount",
          "type": "uint256"
        }
      ],
      "name": "NewDeposit",
      "type": "event"
    },
    {
      "anonymous": false,
      "inputs": [
        {
          "indexed": false,
          "internalType": "address",
          "name": "user",
          "type": "address"
        }
      ],
      "name": "Newbie",
      "type": "event"
    },
    {
      "anonymous": false,
      "inputs": [
        {
          "indexed": false,
          "internalType": "address",
          "name": "previousOwner",
          "type": "address"
        },
        {
          "indexed": false,
          "internalType": "address",
          "name": "newOwner",
          "type": "address"
        }
      ],
      "name": "OwnershipTransferred",
      "type": "event"
    },
    {
      "anonymous": false,
      "inputs": [
        {
          "indexed": true,
          "internalType": "address",
          "name": "referrer",
          "type": "address"
        },
        {
          "indexed": true,
          "internalType": "address",
          "name": "referral",
          "type": "address"
        },
        {
          "indexed": false,
          "internalType": "uint256",
          "name": "amount",
          "type": "uint256"
        }
      ],
      "name": "RefBonus",
      "type": "event"
    },
    {
      "anonymous": false,
      "inputs": [
        {
          "indexed": true,
          "internalType": "address",
          "name": "user",
          "type": "address"
        },
        {
          "indexed": false,
          "internalType": "uint256",
          "name": "amount",
          "type": "uint256"
        }
      ],
      "name": "Withdrawn",
      "type": "event"
    },
    {
      "anonymous": false,
      "inputs": [
        {
          "indexed": true,
          "internalType": "address",
          "name": "user",
          "type": "address"
        },
        {
          "indexed": false,
          "internalType": "uint256",
          "name": "reinvestAmount",
          "type": "uint256"
        }
      ],
      "name": "onReinvestment",
      "type": "event"
    },
    {
      "inputs": [],
      "name": "DAILY_ROI",
      "outputs": [
        {
          "internalType": "uint256",
          "name": "",
          "type": "uint256"
        }
      ],
      "stateMutability": "view",
      "type": "function",
      "constant": true
    },
    {
      "inputs": [],
      "name": "FEE_PERCENTS",
      "outputs": [
        {
          "internalType": "uint256",
          "name": "",
          "type": "uint256"
        }
      ],
      "stateMutability": "view",
      "type": "function",
      "constant": true
    },
    {
      "inputs": [],
      "name": "LIMIT_REWARD_PERCENTS",
      "outputs": [
        {
          "internalType": "uint256",
          "name": "",
          "type": "uint256"
        }
      ],
      "stateMutability": "view",
      "type": "function",
      "constant": true
    },
    {
      "inputs": [],
      "name": "MIN_STAKE_AMOUNT",
      "outputs": [
        {
          "internalType": "uint256",
          "name": "",
          "type": "uint256"
        }
      ],
      "stateMutability": "view",
      "type": "function",
      "constant": true
    },
    {
      "inputs": [],
      "name": "PERCENTS_DIVIDER",
      "outputs": [
        {
          "internalType": "uint256",
          "name": "",
          "type": "uint256"
        }
      ],
      "stateMutability": "view",
      "type": "function",
      "constant": true
    },
    {
      "inputs": [],
      "name": "REFERRAL_PERCENTS",
      "outputs": [
        {
          "internalType": "uint256",
          "name": "",
          "type": "uint256"
        }
      ],
      "stateMutability": "view",
      "type": "function",
      "constant": true
    },
    {
      "inputs": [],
      "name": "STAKERS_SHARE_PERCENTS_OF_FEE",
      "outputs": [
        {
          "internalType": "uint256",
          "name": "",
          "type": "uint256"
        }
      ],
      "stateMutability": "view",
      "type": "function",
      "constant": true
    },
    {
      "inputs": [],
      "name": "TIME_STEP",
      "outputs": [
        {
          "internalType": "uint256",
          "name": "",
          "type": "uint256"
        }
      ],
      "stateMutability": "view",
      "type": "function",
      "constant": true
    },
    {
      "inputs": [],
      "name": "acceptOwnership",
      "outputs": [
        {
          "internalType": "address",
          "name": "",
          "type": "address"
        }
      ],
      "stateMutability": "nonpayable",
      "type": "function"
    },
    {
      "inputs": [],
      "name": "owner",
      "outputs": [
        {
          "internalType": "address payable",
          "name": "",
          "type": "address"
        }
      ],
      "stateMutability": "view",
      "type": "function",
      "constant": true
    },
    {
      "inputs": [],
      "name": "totalDeposits",
      "outputs": [
        {
          "internalType": "uint256",
          "name": "",
          "type": "uint256"
        }
      ],
      "stateMutability": "view",
      "type": "function",
      "constant": true
    },
    {
      "inputs": [],
      "name": "totalInvested",
      "outputs": [
        {
          "internalType": "uint256",
          "name": "",
          "type": "uint256"
        }
      ],
      "stateMutability": "view",
      "type": "function",
      "constant": true
    },
    {
      "inputs": [],
      "name": "totalWithdrawn",
      "outputs": [
        {
          "internalType": "uint256",
          "name": "",
          "type": "uint256"
        }
      ],
      "stateMutability": "view",
      "type": "function",
      "constant": true
    },
    {
      "inputs": [],
      "name": "totalWithdrawnForInvested",
      "outputs": [
        {
          "internalType": "uint256",
          "name": "",
          "type": "uint256"
        }
      ],
      "stateMutability": "view",
      "type": "function",
      "constant": true
    },
    {
      "inputs": [
        {
          "internalType": "address payable",
          "name": "newOwner",
          "type": "address"
        }
      ],
      "name": "transferOwnership",
      "outputs": [],
      "stateMutability": "nonpayable",
      "type": "function"
    },
    {
      "stateMutability": "payable",
      "type": "receive",
      "payable": true
    },
    {
      "inputs": [
        {
          "internalType": "address",
          "name": "referrer",
          "type": "address"
        },
        {
          "internalType": "uint256",
          "name": "amount",
          "type": "uint256"
        }
      ],
      "name": "invest",
      "outputs": [],
      "stateMutability": "nonpayable",
      "type": "function"
    },
    {
      "inputs": [],
      "name": "withdraw",
      "outputs": [],
      "stateMutability": "nonpayable",
      "type": "function"
    },
    {
      "inputs": [],
      "name": "reinvest",
      "outputs": [],
      "stateMutability": "nonpayable",
      "type": "function"
    },
    {
      "inputs": [
        {
          "internalType": "address",
          "name": "userAddress",
          "type": "address"
        }
      ],
      "name": "getSumOfDividends",
      "outputs": [
        {
          "internalType": "uint256",
          "name": "",
          "type": "uint256"
        }
      ],
      "stateMutability": "view",
      "type": "function",
      "constant": true
    },
    {
      "inputs": [
        {
          "internalType": "address",
          "name": "userAddress",
          "type": "address"
        }
      ],
      "name": "updateWithdrawns",
      "outputs": [
        {
          "internalType": "uint256",
          "name": "",
          "type": "uint256"
        }
      ],
      "stateMutability": "nonpayable",
      "type": "function"
    },
    {
      "inputs": [],
      "name": "minimumStakeValue",
      "outputs": [
        {
          "internalType": "uint256",
          "name": "",
          "type": "uint256"
        }
      ],
      "stateMutability": "pure",
      "type": "function",
      "constant": true
    },
    {
      "inputs": [
        {
          "internalType": "address",
          "name": "userAddress",
          "type": "address"
        }
      ],
      "name": "getUserReferralBonus",
      "outputs": [
        {
          "internalType": "uint256",
          "name": "",
          "type": "uint256"
        }
      ],
      "stateMutability": "view",
      "type": "function",
      "constant": true
    },
    {
      "inputs": [
        {
          "internalType": "address",
          "name": "referrer",
          "type": "address"
        }
      ],
      "name": "getUserReferralCount",
      "outputs": [
        {
          "internalType": "uint256",
          "name": "",
          "type": "uint256"
        }
      ],
      "stateMutability": "view",
      "type": "function",
      "constant": true
    },
    {
      "inputs": [
        {
          "internalType": "address",
          "name": "userAddress",
          "type": "address"
        }
      ],
      "name": "getUserReferrer",
      "outputs": [
        {
          "internalType": "address",
          "name": "",
          "type": "address"
        }
      ],
      "stateMutability": "view",
      "type": "function",
      "constant": true
    },
    {
      "inputs": [
        {
          "internalType": "address",
          "name": "userAddress",
          "type": "address"
        }
      ],
      "name": "getUserCheckpoint",
      "outputs": [
        {
          "internalType": "uint256",
          "name": "",
          "type": "uint256"
        }
      ],
      "stateMutability": "view",
      "type": "function",
      "constant": true
    },
    {
      "inputs": [
        {
          "internalType": "address",
          "name": "userAddress",
          "type": "address"
        }
      ],
      "name": "getUserAvailable",
      "outputs": [
        {
          "internalType": "uint256",
          "name": "",
          "type": "uint256"
        }
      ],
      "stateMutability": "view",
      "type": "function",
      "constant": true
    },
    {
      "inputs": [
        {
          "internalType": "address",
          "name": "userAddress",
          "type": "address"
        }
      ],
      "name": "isActive",
      "outputs": [
        {
          "internalType": "bool",
          "name": "",
          "type": "bool"
        }
      ],
      "stateMutability": "view",
      "type": "function",
      "constant": true
    },
    {
      "inputs": [
        {
          "internalType": "address",
          "name": "userAddress",
          "type": "address"
        },
        {
          "internalType": "uint256",
          "name": "index",
          "type": "uint256"
        }
      ],
      "name": "getUserDepositInfo",
      "outputs": [
        {
          "internalType": "uint256",
          "name": "",
          "type": "uint256"
        },
        {
          "internalType": "uint256",
          "name": "",
          "type": "uint256"
        },
        {
          "internalType": "uint256",
          "name": "",
          "type": "uint256"
        }
      ],
      "stateMutability": "view",
      "type": "function",
      "constant": true
    },
    {
      "inputs": [
        {
          "internalType": "address",
          "name": "userAddress",
          "type": "address"
        }
      ],
      "name": "getUserAmountOfDeposits",
      "outputs": [
        {
          "internalType": "uint256",
          "name": "",
          "type": "uint256"
        }
      ],
      "stateMutability": "view",
      "type": "function",
      "constant": true
    },
    {
      "inputs": [
        {
          "internalType": "address",
          "name": "userAddress",
          "type": "address"
        }
      ],
      "name": "getUserTotalDeposits",
      "outputs": [
        {
          "internalType": "uint256",
          "name": "",
          "type": "uint256"
        }
      ],
      "stateMutability": "view",
      "type": "function",
      "constant": true
    },
    {
      "inputs": [
        {
          "internalType": "address",
          "name": "userAddress",
          "type": "address"
        }
      ],
      "name": "getUserTotalWithdrawn",
      "outputs": [
        {
          "internalType": "uint256",
          "name": "",
          "type": "uint256"
        }
      ],
      "stateMutability": "view",
      "type": "function",
      "constant": true
    }
  ],
  "bytecode": "0x60806040523480156200001157600080fd5b506040516200396a3803806200396a833981810160405281019062000037919062000129565b336000806101000a81548173ffffffffffffffffffffffffffffffffffffffff021916908373ffffffffffffffffffffffffffffffffffffffff16021790555080600260006101000a81548173ffffffffffffffffffffffffffffffffffffffff021916908373ffffffffffffffffffffffffffffffffffffffff160217905550506200015b565b600080fd5b600073ffffffffffffffffffffffffffffffffffffffff82169050919050565b6000620000f182620000c4565b9050919050565b6200010381620000e4565b81146200010f57600080fd5b50565b6000815190506200012381620000f8565b92915050565b600060208284031215620001425762000141620000bf565b5b6000620001528482850162000112565b91505092915050565b6137ff806200016b6000396000f3fe6080604052600436106101dc5760003560e01c80637e3abeea11610102578063c0806b0311610095578063e85abe0911610064578063e85abe0914610711578063f2fde38b1461074e578063fb4cb32b14610777578063fdb5a03e146107b4576101e3565b8063c0806b031461062d578063c8a22eb41461066c578063d7ffca91146106a9578063e083fc9f146106e6576101e3565b8063a8aeb6c2116100d1578063a8aeb6c214610571578063a93520d8146105ae578063ab8a3c6b146105d9578063b9b8c24614610604576101e3565b80637e3abeea1461048f5780638932fe79146104cc5780638da5cb5b146105095780639f8a13d714610534576101e3565b80633ccfd60b1161017a5780636683e49e116101495780636683e49e146103e357806368c2fbb31461040e57806379ba5097146104395780637d88209714610464576101e3565b80633ccfd60b1461034b57806344038f90146103625780634b3197131461038d5780635216aeec146103b8576101e3565b806318e1fbfc116101b657806318e1fbfc1461028d57806327ed7188146102b857806332bc298c146102e357806336144c9a1461030e576101e3565b806301c234a8146101e85780630d4c84cf14610213578063153ab9df14610250576101e3565b366101e357005b600080fd5b3480156101f457600080fd5b506101fd6107cb565b60405161020a9190612d15565b60405180910390f35b34801561021f57600080fd5b5061023a60048036038101906102359190612d93565b6107d2565b6040516102479190612d15565b60405180910390f35b34801561025c57600080fd5b5061027760048036038101906102729190612d93565b610b73565b6040516102849190612d15565b60405180910390f35b34801561029957600080fd5b506102a2610b9f565b6040516102af9190612d15565b60405180910390f35b3480156102c457600080fd5b506102cd610bb0565b6040516102da9190612d15565b60405180910390f35b3480156102ef57600080fd5b506102f8610bbd565b6040516103059190612d15565b60405180910390f35b34801561031a57600080fd5b5061033560048036038101906103309190612d93565b610bc4565b6040516103429190612dcf565b60405180910390f35b34801561035757600080fd5b50610360610c30565b005b34801561036e57600080fd5b50610377611103565b6040516103849190612d15565b60405180910390f35b34801561039957600080fd5b506103a261110a565b6040516103af9190612d15565b60405180910390f35b3480156103c457600080fd5b506103cd611110565b6040516103da9190612d15565b60405180910390f35b3480156103ef57600080fd5b506103f8611116565b6040516104059190612d15565b60405180910390f35b34801561041a57600080fd5b5061042361111c565b6040516104309190612d15565b60405180910390f35b34801561044557600080fd5b5061044e611122565b60405161045b9190612dcf565b60405180910390f35b34801561047057600080fd5b506104796112f9565b6040516104869190612d15565b60405180910390f35b34801561049b57600080fd5b506104b660048036038101906104b19190612d93565b6112ff565b6040516104c39190612d15565b60405180910390f35b3480156104d857600080fd5b506104f360048036038101906104ee9190612d93565b6113b4565b6040516105009190612d15565b60405180910390f35b34801561051557600080fd5b5061051e6117ba565b60405161052b9190612e0b565b60405180910390f35b34801561054057600080fd5b5061055b60048036038101906105569190612d93565b6117de565b6040516105689190612e41565b60405180910390f35b34801561057d57600080fd5b5061059860048036038101906105939190612d93565b6118eb565b6040516105a59190612d15565b60405180910390f35b3480156105ba57600080fd5b506105c361193a565b6040516105d09190612d15565b60405180910390f35b3480156105e557600080fd5b506105ee611941565b6040516105fb9190612d15565b60405180910390f35b34801561061057600080fd5b5061062b60048036038101906106269190612e88565b611947565b005b34801561063957600080fd5b50610654600480360381019061064f9190612e88565b6120b4565b60405161066393929190612ec8565b60405180910390f35b34801561067857600080fd5b50610693600480360381019061068e9190612d93565b612181565b6040516106a09190612d15565b60405180910390f35b3480156106b557600080fd5b506106d060048036038101906106cb9190612d93565b6121cd565b6040516106dd9190612d15565b60405180910390f35b3480156106f257600080fd5b506106fb612219565b6040516107089190612d15565b60405180910390f35b34801561071d57600080fd5b5061073860048036038101906107339190612d93565b61221f565b6040516107459190612d15565b60405180910390f35b34801561075a57600080fd5b5061077560048036038101906107709190612f2b565b61226b565b005b34801561078357600080fd5b5061079e60048036038101906107999190612d93565b612374565b6040516107ab9190612d15565b60405180910390f35b3480156107c057600080fd5b506107c9612429565b005b620f424081565b600080600760008473ffffffffffffffffffffffffffffffffffffffff1673ffffffffffffffffffffffffffffffffffffffff168152602001908152602001600020905060008060005b8360000180549050811015610b675761087a606461086c61016d87600001858154811061084c5761084b612f58565b5b90600052602060002090600302016000015461267f90919063ffffffff16565b6126f990919063ffffffff16565b8460000182815481106108905761088f612f58565b5b9060005260206000209060030201600101541015610b545783600301548460000182815481106108c3576108c2612f58565b5b90600052602060002090600302016002015411156109935761098c6201518061097e61091f8760000185815481106108fe576108fd612f58565b5b9060005260206000209060030201600201544261275790919063ffffffff16565b610970620f4240610962613a988b600001898154811061094257610941612f58565b5b90600052602060002090600302016000015461267f90919063ffffffff16565b6126f990919063ffffffff16565b61267f90919063ffffffff16565b6126f990919063ffffffff16565b9150610a24565b610a2162015180610a136109b487600301544261275790919063ffffffff16565b610a05620f42406109f7613a988b60000189815481106109d7576109d6612f58565b5b90600052602060002090600302016000015461267f90919063ffffffff16565b6126f990919063ffffffff16565b61267f90919063ffffffff16565b6126f990919063ffffffff16565b91505b610a736064610a6561016d876000018581548110610a4557610a44612f58565b5b90600052602060002090600302016000015461267f90919063ffffffff16565b6126f990919063ffffffff16565b610aad83866000018481548110610a8d57610a8c612f58565b5b9060005260206000209060030201600101546127b690919063ffffffff16565b1115610b3e57610b3b846000018281548110610acc57610acb612f58565b5b906000526020600020906003020160010154610b2d6064610b1f61016d896000018781548110610aff57610afe612f58565b5b90600052602060002090600302016000015461267f90919063ffffffff16565b6126f990919063ffffffff16565b61275790919063ffffffff16565b91505b610b5182846127b690919063ffffffff16565b92505b8080610b5f90612fb6565b91505061081c565b50819350505050919050565b6000610b98610b81836107d2565b610b8a8461221f565b6127b690919063ffffffff16565b9050919050565b6000683635c9adc5dea00000905090565b683635c9adc5dea0000081565b6201518081565b6000600760008373ffffffffffffffffffffffffffffffffffffffff1673ffffffffffffffffffffffffffffffffffffffff16815260200190815260200160002060060160009054906101000a900473ffffffffffffffffffffffffffffffffffffffff169050919050565b6000600760003373ffffffffffffffffffffffffffffffffffffffff1673ffffffffffffffffffffffffffffffffffffffff16815260200190815260200160002090506000610c7e336113b4565b90506000600260009054906101000a900473ffffffffffffffffffffffffffffffffffffffff1673ffffffffffffffffffffffffffffffffffffffff166370a08231306040518263ffffffff1660e01b8152600401610cdd9190612dcf565b6020604051808303816000875af1158015610cfc573d6000803e3d6000fd5b505050506040513d601f19601f82011682018060405250810190610d209190613013565b9050600082821115610e1d57610d438385600201546127b690919063ffffffff16565b50610d59836005546127b690919063ffffffff16565b600581905550610d7b610d6c3385612814565b8461275790919063ffffffff16565b92506000610d883361221f565b90506000811115610db357610da681856127b690919063ffffffff16565b9350600085600401819055505b60008411610df6576040517f08c379a0000000000000000000000000000000000000000000000000000000008152600401610ded9061309d565b60405180910390fd5b83831015610e1757610e11838561275790919063ffffffff16565b91508293505b50610e79565b8183610e2991906130bd565b9050819250610e43836005546127b690919063ffffffff16565b600581905550610e533384612814565b83610e5e91906130bd565b9250610e778285600201546127b690919063ffffffff16565b505b600060018560000180549050610e8f91906130bd565b90505b60008110610fe9576000856000018281548110610eb257610eb1612f58565b5b9060005260206000209060030201600101541115610fd65781856000018281548110610ee157610ee0612f58565b5b9060005260206000209060030201600101541015610f67576000856000018281548110610f1157610f10612f58565b5b906000526020600020906003020160010181905550610f60856000018281548110610f3f57610f3e612f58565b5b9060005260206000209060030201600101548361275790919063ffffffff16565b9150610fd5565b610fa182866000018381548110610f8157610f80612f58565b5b90600052602060002090600302016001015461275790919063ffffffff16565b856000018281548110610fb757610fb6612f58565b5b90600052602060002090600302016001018190555060009150610fe9565b5b8080610fe1906130f1565b915050610e92565b50428460030181905550600260009054906101000a900473ffffffffffffffffffffffffffffffffffffffff1673ffffffffffffffffffffffffffffffffffffffff1663a9059cbb33856040518363ffffffff1660e01b815260040161105092919061311a565b6020604051808303816000875af115801561106f573d6000803e3d6000fd5b505050506040513d601f19601f82011682018060405250810190611093919061316f565b506110a9836004546127b690919063ffffffff16565b6004819055503373ffffffffffffffffffffffffffffffffffffffff167f7084f5476618d8e60b11ef0d7d3f06914655adb8793e28ff7f018d4c76d505d5846040516110f59190612d15565b60405180910390a250505050565b6201d4c081565b60045481565b60035481565b614e2081565b61ea6081565b6000600160009054906101000a900473ffffffffffffffffffffffffffffffffffffffff1673ffffffffffffffffffffffffffffffffffffffff163373ffffffffffffffffffffffffffffffffffffffff16146111b4576040517f08c379a00000000000000000000000000000000000000000000000000000000081526004016111ab906131e8565b60405180910390fd5b7f8be0079c531659141344cd1fd0a4f28419497f9722a3daafe3b4186f6b6457e060008054906101000a900473ffffffffffffffffffffffffffffffffffffffff16600160009054906101000a900473ffffffffffffffffffffffffffffffffffffffff16604051611227929190613267565b60405180910390a1600160009054906101000a900473ffffffffffffffffffffffffffffffffffffffff166000806101000a81548173ffffffffffffffffffffffffffffffffffffffff021916908373ffffffffffffffffffffffffffffffffffffffff1602179055506000600160006101000a81548173ffffffffffffffffffffffffffffffffffffffff021916908373ffffffffffffffffffffffffffffffffffffffff16021790555060008054906101000a900473ffffffffffffffffffffffffffffffffffffffff16905090565b60065481565b600080600760008473ffffffffffffffffffffffffffffffffffffffff1673ffffffffffffffffffffffffffffffffffffffff1681526020019081526020016000209050600080600090505b82600001805490508110156113a95761139483600001828154811061137357611372612f58565b5b906000526020600020906003020160000154836127b690919063ffffffff16565b915080806113a190612fb6565b91505061134b565b508092505050919050565b600080600760008473ffffffffffffffffffffffffffffffffffffffff1673ffffffffffffffffffffffffffffffffffffffff168152602001908152602001600020905060008060005b83600001805490508110156117ae5761145c606461144e61016d87600001858154811061142e5761142d612f58565b5b90600052602060002090600302016000015461267f90919063ffffffff16565b6126f990919063ffffffff16565b84600001828154811061147257611471612f58565b5b906000526020600020906003020160010154101561179b5783600301548460000182815481106114a5576114a4612f58565b5b90600052602060002090600302016002015411156115755761156e620151806115606115018760000185815481106114e0576114df612f58565b5b9060005260206000209060030201600201544261275790919063ffffffff16565b611552620f4240611544613a988b600001898154811061152457611523612f58565b5b90600052602060002090600302016000015461267f90919063ffffffff16565b6126f990919063ffffffff16565b61267f90919063ffffffff16565b6126f990919063ffffffff16565b9150611606565b611603620151806115f561159687600301544261275790919063ffffffff16565b6115e7620f42406115d9613a988b60000189815481106115b9576115b8612f58565b5b90600052602060002090600302016000015461267f90919063ffffffff16565b6126f990919063ffffffff16565b61267f90919063ffffffff16565b6126f990919063ffffffff16565b91505b611655606461164761016d87600001858154811061162757611626612f58565b5b90600052602060002090600302016000015461267f90919063ffffffff16565b6126f990919063ffffffff16565b61168f8386600001848154811061166f5761166e612f58565b5b9060005260206000209060030201600101546127b690919063ffffffff16565b11156117205761171d8460000182815481106116ae576116ad612f58565b5b90600052602060002090600302016001015461170f606461170161016d8960000187815481106116e1576116e0612f58565b5b90600052602060002090600302016000015461267f90919063ffffffff16565b6126f990919063ffffffff16565b61275790919063ffffffff16565b91505b61175a8285600001838154811061173a57611739612f58565b5b9060005260206000209060030201600101546127b690919063ffffffff16565b8460000182815481106117705761176f612f58565b5b90600052602060002090600302016001018190555061179882846127b690919063ffffffff16565b92505b80806117a690612fb6565b9150506113fe565b50819350505050919050565b60008054906101000a900473ffffffffffffffffffffffffffffffffffffffff1681565b600080600760008473ffffffffffffffffffffffffffffffffffffffff1673ffffffffffffffffffffffffffffffffffffffff16815260200190815260200160002090506000816000018054905011156118e057611894606461188661016d846000016001866000018054905061185591906130bd565b8154811061186657611865612f58565b5b90600052602060002090600302016000015461267f90919063ffffffff16565b6126f990919063ffffffff16565b81600001600183600001805490506118ac91906130bd565b815481106118bd576118bc612f58565b5b90600052602060002090600302016001015410156118df5760019150506118e6565b5b60009150505b919050565b6000600760008373ffffffffffffffffffffffffffffffffffffffff1673ffffffffffffffffffffffffffffffffffffffff168152602001908152602001600020600001805490509050919050565b620591c881565b613a9881565b600073ffffffffffffffffffffffffffffffffffffffff163373ffffffffffffffffffffffffffffffffffffffff16036119b6576040517f08c379a00000000000000000000000000000000000000000000000000000000081526004016119ad906132dc565b60405180910390fd5b3073ffffffffffffffffffffffffffffffffffffffff163373ffffffffffffffffffffffffffffffffffffffff1603611a24576040517f08c379a0000000000000000000000000000000000000000000000000000000008152600401611a1b906132dc565b60405180910390fd5b683635c9adc5dea000008111611a6f576040517f08c379a0000000000000000000000000000000000000000000000000000000008152600401611a6690613348565b60405180910390fd5b600260009054906101000a900473ffffffffffffffffffffffffffffffffffffffff1673ffffffffffffffffffffffffffffffffffffffff166323b872dd3330846040518463ffffffff1660e01b8152600401611ace93929190613368565b6020604051808303816000875af1158015611aed573d6000803e3d6000fd5b505050506040513d601f19601f82011682018060405250810190611b11919061316f565b506000600760003373ffffffffffffffffffffffffffffffffffffffff1673ffffffffffffffffffffffffffffffffffffffff1681526020019081526020016000209050611b6c8282600101546127b690919063ffffffff16565b506000611b793384612814565b90506000611b90828561275790919063ffffffff16565b9050600073ffffffffffffffffffffffffffffffffffffffff168360060160009054906101000a900473ffffffffffffffffffffffffffffffffffffffff1673ffffffffffffffffffffffffffffffffffffffff16148015611c3757506000600760008773ffffffffffffffffffffffffffffffffffffffff1673ffffffffffffffffffffffffffffffffffffffff16815260200190815260200160002060000180549050115b8015611c6f57503373ffffffffffffffffffffffffffffffffffffffff168573ffffffffffffffffffffffffffffffffffffffff1614155b15611cb857848360060160006101000a81548173ffffffffffffffffffffffffffffffffffffffff021916908373ffffffffffffffffffffffffffffffffffffffff1602179055505b600073ffffffffffffffffffffffffffffffffffffffff168360060160009054906101000a900473ffffffffffffffffffffffffffffffffffffffff1673ffffffffffffffffffffffffffffffffffffffff1614611f0c5760008360060160009054906101000a900473ffffffffffffffffffffffffffffffffffffffff169050600073ffffffffffffffffffffffffffffffffffffffff168173ffffffffffffffffffffffffffffffffffffffff1614611f0a576000611d9a620f4240611d8c6201d4c08661267f90919063ffffffff16565b6126f990919063ffffffff16565b9050611daf818461275790919063ffffffff16565b9250611e0681600760008573ffffffffffffffffffffffffffffffffffffffff1673ffffffffffffffffffffffffffffffffffffffff168152602001908152602001600020600401546127b690919063ffffffff16565b600760008473ffffffffffffffffffffffffffffffffffffffff1673ffffffffffffffffffffffffffffffffffffffff16815260200190815260200160002060040181905550611ea26001600760008573ffffffffffffffffffffffffffffffffffffffff1673ffffffffffffffffffffffffffffffffffffffff168152602001908152602001600020600701546127b690919063ffffffff16565b503373ffffffffffffffffffffffffffffffffffffffff168273ffffffffffffffffffffffffffffffffffffffff167f328838ddfc48ad5ae5531b1ad95dfb22b42ff1866853e474375ffef2c63d8e5083604051611f009190612d15565b60405180910390a3505b505b6000836000018054905003611f5c574283600301819055507f9fd565cd14c3c391679eb0cad12a14dcf7534e9d3462bcb9b67a098a9bbbc24a33604051611f539190612dcf565b60405180910390a15b8260000160405180606001604052808381526020016000815260200142815250908060018154018082558091505060019003906000526020600020906003020160009091909190915060008201518160000155602082015181600101556040820151816002015550506008339080600181540180825580915050600190039060005260206000200160009091909190916101000a81548173ffffffffffffffffffffffffffffffffffffffff021916908373ffffffffffffffffffffffffffffffffffffffff16021790555061203d816003546127b690919063ffffffff16565b60038190555061205960016006546127b690919063ffffffff16565b6006819055503373ffffffffffffffffffffffffffffffffffffffff167f2cb77763bc1e8490c1a904905c4d74b4269919aca114464f4bb4d911e60de364826040516120a59190612d15565b60405180910390a25050505050565b600080600080600760008773ffffffffffffffffffffffffffffffffffffffff1673ffffffffffffffffffffffffffffffffffffffff168152602001908152602001600020905080600001858154811061211157612110612f58565b5b90600052602060002090600302016000015481600001868154811061213957612138612f58565b5b90600052602060002090600302016001015482600001878154811061216157612160612f58565b5b906000526020600020906003020160020154935093509350509250925092565b6000600760008373ffffffffffffffffffffffffffffffffffffffff1673ffffffffffffffffffffffffffffffffffffffff168152602001908152602001600020600701549050919050565b6000600760008373ffffffffffffffffffffffffffffffffffffffff1673ffffffffffffffffffffffffffffffffffffffff168152602001908152602001600020600301549050919050565b60055481565b6000600760008373ffffffffffffffffffffffffffffffffffffffff1673ffffffffffffffffffffffffffffffffffffffff168152602001908152602001600020600401549050919050565b60008054906101000a900473ffffffffffffffffffffffffffffffffffffffff1673ffffffffffffffffffffffffffffffffffffffff163373ffffffffffffffffffffffffffffffffffffffff16146122f9576040517f08c379a00000000000000000000000000000000000000000000000000000000081526004016122f0906133eb565b60405180910390fd5b600073ffffffffffffffffffffffffffffffffffffffff168173ffffffffffffffffffffffffffffffffffffffff1603612368576040517f08c379a000000000000000000000000000000000000000000000000000000000815260040161235f90613457565b60405180910390fd5b61237181612cb8565b50565b600080600760008473ffffffffffffffffffffffffffffffffffffffff1673ffffffffffffffffffffffffffffffffffffffff1681526020019081526020016000209050600080600090505b826000018054905081101561241e576124098360000182815481106123e8576123e7612f58565b5b906000526020600020906003020160010154836127b690919063ffffffff16565b9150808061241690612fb6565b9150506123c0565b508092505050919050565b6000600760003373ffffffffffffffffffffffffffffffffffffffff1673ffffffffffffffffffffffffffffffffffffffff16815260200190815260200160002060020154600760003373ffffffffffffffffffffffffffffffffffffffff1673ffffffffffffffffffffffffffffffffffffffff168152602001908152602001600020600101546124bb91906130bd565b116124fb576040517f08c379a00000000000000000000000000000000000000000000000000000000081526004016124f2906134c3565b60405180910390fd5b6000600760003373ffffffffffffffffffffffffffffffffffffffff1673ffffffffffffffffffffffffffffffffffffffff16815260200190815260200160002090506000612549336113b4565b90506125676125583383612814565b8261275790919063ffffffff16565b90508160000160405180606001604052808381526020016000815260200142815250908060018154018082558091505060019003906000526020600020906003020160009091909190915060008201518160000155602082015181600101556040820151816002015550504282600301819055506125f0816003546127b690919063ffffffff16565b60038190555061260c60016006546127b690919063ffffffff16565b600681905550612627816004546127b690919063ffffffff16565b6004819055503373ffffffffffffffffffffffffffffffffffffffff167f5d511c2070e5a2dbcc6fbfbb3fd6704a11ab5fa74b793b81aacece2c7cc29405826040516126739190612d15565b60405180910390a25050565b600080830361269157600090506126f3565b6000828461269f91906134e3565b90508284826126ae919061356c565b146126ee576040517f08c379a00000000000000000000000000000000000000000000000000000000081526004016126e59061360f565b60405180910390fd5b809150505b92915050565b600080821161273d576040517f08c379a00000000000000000000000000000000000000000000000000000000081526004016127349061367b565b60405180910390fd5b6000828461274b919061356c565b90508091505092915050565b60008282111561279c576040517f08c379a0000000000000000000000000000000000000000000000000000000008152600401612793906136e7565b60405180910390fd5b600082846127aa91906130bd565b90508091505092915050565b60008082846127c59190613707565b90508381101561280a576040517f08c379a0000000000000000000000000000000000000000000000000000000008152600401612801906137a9565b60405180910390fd5b8091505092915050565b600080612841620f424061283361ea608661267f90919063ffffffff16565b6126f990919063ffffffff16565b9050600061286f620f4240612861614e208761267f90919063ffffffff16565b6126f990919063ffffffff16565b9050600061288a60055460035461275790919063ffffffff16565b90506000810361289f57829350505050612cb2565b60005b600880549050811015612caa57600073ffffffffffffffffffffffffffffffffffffffff16600882815481106128db576128da612f58565b5b9060005260206000200160009054906101000a900473ffffffffffffffffffffffffffffffffffffffff1673ffffffffffffffffffffffffffffffffffffffff16148061299157508673ffffffffffffffffffffffffffffffffffffffff166008828154811061294e5761294d612f58565b5b9060005260206000200160009054906101000a900473ffffffffffffffffffffffffffffffffffffffff1673ffffffffffffffffffffffffffffffffffffffff16145b612c97576000612aaa60076000600885815481106129b2576129b1612f58565b5b9060005260206000200160009054906101000a900473ffffffffffffffffffffffffffffffffffffffff1673ffffffffffffffffffffffffffffffffffffffff1673ffffffffffffffffffffffffffffffffffffffff168152602001908152602001600020600201546007600060088681548110612a3357612a32612f58565b5b9060005260206000200160009054906101000a900473ffffffffffffffffffffffffffffffffffffffff1673ffffffffffffffffffffffffffffffffffffffff1673ffffffffffffffffffffffffffffffffffffffff1681526020019081526020016000206001015461275790919063ffffffff16565b9050683635c9adc5dea00000811015612ac35750612c97565b612aeb83612add620f42408461267f90919063ffffffff16565b6126f990919063ffffffff16565b6007600060088581548110612b0357612b02612f58565b5b9060005260206000200160009054906101000a900473ffffffffffffffffffffffffffffffffffffffff1673ffffffffffffffffffffffffffffffffffffffff1673ffffffffffffffffffffffffffffffffffffffff16815260200190815260200160002060080181905550612c94612c05856007600060088781548110612b8e57612b8d612f58565b5b9060005260206000200160009054906101000a900473ffffffffffffffffffffffffffffffffffffffff1673ffffffffffffffffffffffffffffffffffffffff1673ffffffffffffffffffffffffffffffffffffffff1681526020019081526020016000206008015461267f90919063ffffffff16565b6007600060088681548110612c1d57612c1c612f58565b5b9060005260206000200160009054906101000a900473ffffffffffffffffffffffffffffffffffffffff1673ffffffffffffffffffffffffffffffffffffffff1673ffffffffffffffffffffffffffffffffffffffff168152602001908152602001600020600501546127b690919063ffffffff16565b50505b8080612ca290612fb6565b9150506128a2565b508293505050505b92915050565b80600160006101000a81548173ffffffffffffffffffffffffffffffffffffffff021916908373ffffffffffffffffffffffffffffffffffffffff16021790555050565b6000819050919050565b612d0f81612cfc565b82525050565b6000602082019050612d2a6000830184612d06565b92915050565b600080fd5b600073ffffffffffffffffffffffffffffffffffffffff82169050919050565b6000612d6082612d35565b9050919050565b612d7081612d55565b8114612d7b57600080fd5b50565b600081359050612d8d81612d67565b92915050565b600060208284031215612da957612da8612d30565b5b6000612db784828501612d7e565b91505092915050565b612dc981612d55565b82525050565b6000602082019050612de46000830184612dc0565b92915050565b6000612df582612d35565b9050919050565b612e0581612dea565b82525050565b6000602082019050612e206000830184612dfc565b92915050565b60008115159050919050565b612e3b81612e26565b82525050565b6000602082019050612e566000830184612e32565b92915050565b612e6581612cfc565b8114612e7057600080fd5b50565b600081359050612e8281612e5c565b92915050565b60008060408385031215612e9f57612e9e612d30565b5b6000612ead85828601612d7e565b9250506020612ebe85828601612e73565b9150509250929050565b6000606082019050612edd6000830186612d06565b612eea6020830185612d06565b612ef76040830184612d06565b949350505050565b612f0881612dea565b8114612f1357600080fd5b50565b600081359050612f2581612eff565b92915050565b600060208284031215612f4157612f40612d30565b5b6000612f4f84828501612f16565b91505092915050565b7f4e487b7100000000000000000000000000000000000000000000000000000000600052603260045260246000fd5b7f4e487b7100000000000000000000000000000000000000000000000000000000600052601160045260246000fd5b6000612fc182612cfc565b91507fffffffffffffffffffffffffffffffffffffffffffffffffffffffffffffffff8203612ff357612ff2612f87565b5b600182019050919050565b60008151905061300d81612e5c565b92915050565b60006020828403121561302957613028612d30565b5b600061303784828501612ffe565b91505092915050565b600082825260208201905092915050565b7f5573657220686173206e6f206469766964656e64730000000000000000000000600082015250565b6000613087601583613040565b915061309282613051565b602082019050919050565b600060208201905081810360008301526130b68161307a565b9050919050565b60006130c882612cfc565b91506130d383612cfc565b9250828210156130e6576130e5612f87565b5b828203905092915050565b60006130fc82612cfc565b91506000820361310f5761310e612f87565b5b600182039050919050565b600060408201905061312f6000830185612dc0565b61313c6020830184612d06565b9392505050565b61314c81612e26565b811461315757600080fd5b50565b60008151905061316981613143565b92915050565b60006020828403121561318557613184612d30565b5b60006131938482850161315a565b91505092915050565b7f496e76616c6964206e6577206f776e6572000000000000000000000000000000600082015250565b60006131d2601183613040565b91506131dd8261319c565b602082019050919050565b60006020820190508181036000830152613201816131c5565b9050919050565b6000819050919050565b600061322d61322861322384612d35565b613208565b612d35565b9050919050565b600061323f82613212565b9050919050565b600061325182613234565b9050919050565b61326181613246565b82525050565b600060408201905061327c6000830185613258565b6132896020830184613258565b9392505050565b7f496e76616c696420757365720000000000000000000000000000000000000000600082015250565b60006132c6600c83613040565b91506132d182613290565b602082019050919050565b600060208201905081810360008301526132f5816132b9565b9050919050565b7f546f6f20736d616c6c20696e7665737465640000000000000000000000000000600082015250565b6000613332601283613040565b915061333d826132fc565b602082019050919050565b6000602082019050818103600083015261336181613325565b9050919050565b600060608201905061337d6000830186612dc0565b61338a6020830185612dc0565b6133976040830184612d06565b949350505050565b7f4e6f74204f776e65720000000000000000000000000000000000000000000000600082015250565b60006133d5600983613040565b91506133e08261339f565b602082019050919050565b60006020820190508181036000830152613404816133c8565b9050919050565b7f496e76616c696420416464726573730000000000000000000000000000000000600082015250565b6000613441600f83613040565b915061344c8261340b565b602082019050919050565b6000602082019050818103600083015261347081613434565b9050919050565b7f4e6f7420486f6c64657200000000000000000000000000000000000000000000600082015250565b60006134ad600a83613040565b91506134b882613477565b602082019050919050565b600060208201905081810360008301526134dc816134a0565b9050919050565b60006134ee82612cfc565b91506134f983612cfc565b9250817fffffffffffffffffffffffffffffffffffffffffffffffffffffffffffffffff048311821515161561353257613531612f87565b5b828202905092915050565b7f4e487b7100000000000000000000000000000000000000000000000000000000600052601260045260246000fd5b600061357782612cfc565b915061358283612cfc565b9250826135925761359161353d565b5b828204905092915050565b7f536166654d6174683a206d756c7469706c69636174696f6e206f766572666c6f60008201527f7700000000000000000000000000000000000000000000000000000000000000602082015250565b60006135f9602183613040565b91506136048261359d565b604082019050919050565b60006020820190508181036000830152613628816135ec565b9050919050565b7f536166654d6174683a206469766973696f6e206279207a65726f000000000000600082015250565b6000613665601a83613040565b91506136708261362f565b602082019050919050565b6000602082019050818103600083015261369481613658565b9050919050565b7f536166654d6174683a207375627472616374696f6e206f766572666c6f770000600082015250565b60006136d1601e83613040565b91506136dc8261369b565b602082019050919050565b60006020820190508181036000830152613700816136c4565b9050919050565b600061371282612cfc565b915061371d83612cfc565b9250827fffffffffffffffffffffffffffffffffffffffffffffffffffffffffffffffff0382111561375257613751612f87565b5b828201905092915050565b7f536166654d6174683a206164646974696f6e206f766572666c6f770000000000600082015250565b6000613793601b83613040565b915061379e8261375d565b602082019050919050565b600060208201905081810360008301526137c281613786565b905091905056fea2646970667358221220cd70bcd360282a3c072ab19ecc9e1d738c15731ca4a8d73b1734658b165680ef64736f6c634300080e0033",
  "immutableReferences": {},
  "source": "// SPDX-License-Identifier: UNLICENSED\r\npragma solidity ^0.8.0;\r\n/**\r\n *Submitted for verification at BscScan.com on 2022-05-10\r\n*/\r\n\r\n\r\nlibrary SafeMath {\r\n\r\n    function add(uint256 a, uint256 b) internal pure returns (uint256) {\r\n        uint256 c = a + b;\r\n        require(c >= a, \"SafeMath: addition overflow\");\r\n\r\n        return c;\r\n    }\r\n\r\n    function sub(uint256 a, uint256 b) internal pure returns (uint256) {\r\n        require(b <= a, \"SafeMath: subtraction overflow\");\r\n        uint256 c = a - b;\r\n\r\n        return c;\r\n    }\r\n\r\n    function mul(uint256 a, uint256 b) internal pure returns (uint256) {\r\n        if (a == 0) {\r\n            return 0;\r\n        }\r\n\r\n        uint256 c = a * b;\r\n        require(c / a == b, \"SafeMath: multiplication overflow\");\r\n\r\n        return c;\r\n    }\r\n\r\n    function div(uint256 a, uint256 b) internal pure returns (uint256) {\r\n        require(b > 0, \"SafeMath: division by zero\");\r\n        uint256 c = a / b;\r\n\r\n        return c;\r\n    }\r\n}\r\n\r\nabstract contract ERC20Interface {\r\n    function totalSupply() \r\n\t\tpublic \r\n\t\tvirtual \r\n\t\treturns (uint256);\r\n\r\n    function balanceOf(address tokenOwner) \r\n\t\tpublic \r\n\t\tvirtual \r\n\t\treturns (uint256 balance);\r\n    \r\n\tfunction allowance\r\n\t\t(address tokenOwner, address spender) \r\n\t\tpublic \r\n\t\tvirtual \r\n\t\treturns (uint256 remaining);\r\n\r\n    function transfer(address to, uint256 tokens) public virtual\r\n\t\treturns (bool success);\r\n    \r\n\tfunction approve(address spender, uint256 tokens) public virtual\r\n\t\treturns (bool success);\r\n\r\n    function transferFrom \r\n\t\t(address from, address to, uint256 tokens) public virtual\r\n\t\treturns (bool success);\r\n\r\n\r\n    event Transfer(address indexed from, address indexed to, uint256 tokens);\r\n    event Approval(address indexed tokenOwner, address indexed spender, uint256 tokens);\r\n}\r\n\r\ncontract Ownable {\r\n\r\n  // Owner of the contract\r\n  address payable public owner;\r\n  address payable internal _newOwner;\r\n\r\n    constructor() {\r\n        owner = payable(address(msg.sender));\r\n    }\r\n\r\n  /**\r\n  * @dev Event to show ownership has been transferred\r\n  * @param previousOwner representing the address of the previous owner\r\n  * @param newOwner representing the address of the new owner\r\n  */\r\n  event OwnershipTransferred(address previousOwner, address newOwner);\r\n\r\n\r\n  /**\r\n   * @dev Sets a new owner address\r\n   */\r\n  function setOwner(address payable newOwner) internal {\r\n    _newOwner = newOwner;\r\n  }\r\n\r\n  /**\r\n  * @dev Throws if called by any account other than the owner.\r\n  */\r\n  modifier onlyOwner() {\r\n    require(msg.sender == owner, \"Not Owner\");\r\n    _;\r\n  }\r\n\r\n  /**\r\n   * @dev Allows the current owner to transfer control of the contract to a newOwner.\r\n   * @param newOwner The address to transfer ownership to.\r\n   */\r\n  function transferOwnership(address payable newOwner) public onlyOwner {\r\n    require(newOwner != address(0), \"Invalid Address\");\r\n    setOwner(newOwner);\r\n  }\r\n\r\n  //this flow is to prevent transferring ownership to wrong wallet by mistake\r\n  function acceptOwnership() public returns (address){\r\n      require(msg.sender == _newOwner,\"Invalid new owner\");\r\n      emit OwnershipTransferred(owner, _newOwner);\r\n      owner = _newOwner;\r\n      _newOwner = payable(address(0));\r\n      return owner;\r\n  }\r\n}\r\n\r\ncontract ViccStaking is Ownable {\r\n    using SafeMath for uint256;\r\n\r\n    uint256 constant public PERCENTS_DIVIDER = 10**6;\r\n\tuint256 constant public DAILY_ROI = 15000;                  // 1.5%\r\n    uint256 constant public REFERRAL_PERCENTS = 120000;         // 12%\r\n    uint256 constant public FEE_PERCENTS = 60000;               // 6%\r\n    uint256 constant public STAKERS_SHARE_PERCENTS_OF_FEE = 20000;    // 2%\r\n    uint256 constant public TIME_STEP = 1 days;\r\n    uint256 constant public MIN_STAKE_AMOUNT = 1000 * (10**18);\r\n    uint256 constant public LIMIT_REWARD_PERCENTS = 365000;\r\n\t\r\n\tERC20Interface VictoryCoin;\r\n\r\n    uint256 public totalInvested;\r\n    uint256 public totalWithdrawn;\r\n    uint256 public totalWithdrawnForInvested;\r\n    uint256 public totalDeposits;\r\n\r\n    struct Deposit {\r\n        uint256 amount;\r\n        uint256 withdrawn;\r\n        uint256 start;\r\n    }\r\n\r\n    struct User {\r\n        Deposit[] deposits;\r\n        uint256 invested;\r\n        uint256 withdrawn;\r\n        uint256 checkpoint;\r\n        uint256 bonus;\r\n        uint256 rewardFromFee;\r\n        address referrer;\r\n        uint256 referralCount;\r\n        uint256 sharePercents;\r\n    }\r\n\r\n    mapping (address => User) internal users;\r\n    address[] availableUsers;\r\n\r\n    modifier onlyValidUser() {\r\n        require(msg.sender != address(0), \"Invalid user\");\r\n        require(msg.sender != address(this), \"Invalid user\");\r\n        _;\r\n    }\r\n\r\n    modifier onlyHodler() {\r\n        require(users[msg.sender].invested - users[msg.sender].withdrawn > 0, \"Not Holder\");\r\n        _;\r\n    }\r\n\r\n    event Newbie(address user);\r\n    event NewDeposit(address indexed user, uint256 amount);\r\n    event Withdrawn(address indexed user, uint256 amount);\r\n    event onReinvestment(address indexed user, uint256 reinvestAmount);\r\n    event RefBonus(address indexed referrer, address indexed referral, uint256 amount);\r\n\r\n    constructor(address _VictoryCoin) {\r\n        VictoryCoin = ERC20Interface(_VictoryCoin);\r\n    }\r\n\r\n    receive() external payable {}\r\n\r\n    function _distributeFee(address txSender, uint256 txAmount) internal returns(uint256) {\r\n        uint256 totalFee = txAmount.mul(FEE_PERCENTS).div(PERCENTS_DIVIDER);\r\n\r\n        uint256 totalStakerShare = txAmount.mul(STAKERS_SHARE_PERCENTS_OF_FEE).div(PERCENTS_DIVIDER);\r\n        uint256 totalBalanceInvested = totalInvested.sub(totalWithdrawnForInvested);\r\n        if (totalBalanceInvested == 0) {\r\n            return totalFee;\r\n        }\r\n        for (uint256 i = 0; i < availableUsers.length; i++) {\r\n            if (availableUsers[i] == address(0) || availableUsers[i] == txSender) {\r\n                continue;\r\n            }\r\n            uint256 balanceInvested = users[availableUsers[i]].invested.sub(users[availableUsers[i]].withdrawn);\r\n            if (balanceInvested < MIN_STAKE_AMOUNT) {\r\n                continue;\r\n            }\r\n            users[availableUsers[i]].sharePercents = balanceInvested.mul(PERCENTS_DIVIDER).div(totalBalanceInvested);\r\n            users[availableUsers[i]].rewardFromFee.add(users[availableUsers[i]].sharePercents.mul(totalStakerShare));\r\n        }\r\n        return totalFee;\r\n    }\r\n\r\n    function invest(address referrer, uint256 amount) onlyValidUser public {\r\n        require(amount > MIN_STAKE_AMOUNT, \"Too small invested\");\r\n\t\tVictoryCoin.transferFrom(msg.sender, address(this), amount);\r\n\r\n        User storage user = users[msg.sender];\r\n        user.invested.add(amount);\r\n\r\n        uint256 fee = _distributeFee(msg.sender, amount);\r\n\r\n        uint256 realInvestingAmount = amount.sub(fee);\r\n\t\t\r\n\r\n        if (user.referrer == address(0) && users[referrer].deposits.length > 0 && referrer != msg.sender) {\r\n            user.referrer = referrer;\r\n        }\r\n\r\n        // Calculate referral bonus for referrer\r\n        if (user.referrer != address(0)) {\r\n            address upline = user.referrer;\r\n\t\t\tif (upline != address(0)) {\r\n\t\t\t\tuint256 _referralBonus = realInvestingAmount.mul(REFERRAL_PERCENTS).div(PERCENTS_DIVIDER);\r\n                realInvestingAmount = realInvestingAmount.sub(_referralBonus);\r\n\t\t\t\tusers[upline].bonus = users[upline].bonus.add(_referralBonus);\r\n                users[upline].referralCount.add(1);\r\n\t\t\t\temit RefBonus(upline, msg.sender, _referralBonus);\r\n\t\t\t}\r\n        }\r\n\r\n\r\n        if (user.deposits.length == 0) {\r\n            user.checkpoint = block.timestamp;\r\n            emit Newbie(msg.sender);\r\n        }\r\n\r\n        user.deposits.push(Deposit(realInvestingAmount, 0, block.timestamp));\r\n\r\n        availableUsers.push(msg.sender);\r\n\r\n        totalInvested = totalInvested.add(realInvestingAmount);\r\n        totalDeposits = totalDeposits.add(1);\r\n\r\n        emit NewDeposit(msg.sender, realInvestingAmount);\r\n    }\r\n\r\n    function withdraw() public {\r\n        User storage user = users[msg.sender];\r\n\r\n        uint256 totalAmount = updateWithdrawns(msg.sender);\r\n\r\n        uint256 contractBalance = VictoryCoin.balanceOf(address(this));\r\n        uint256 miswithdrawnAmount = 0;\r\n\r\n        if (contractBalance > totalAmount) {\r\n            user.withdrawn.add(totalAmount);\r\n            totalWithdrawnForInvested = totalWithdrawnForInvested.add(totalAmount);\r\n            totalAmount = totalAmount.sub(_distributeFee(msg.sender, totalAmount));\r\n            uint256 referralBonus = getUserReferralBonus(msg.sender);\r\n            if (referralBonus > 0) {\r\n                totalAmount = totalAmount.add(referralBonus);\r\n                user.bonus = 0;\r\n            }\r\n            require(totalAmount > 0, \"User has no dividends\");\r\n            if (contractBalance < totalAmount) {\r\n                miswithdrawnAmount = totalAmount.sub(contractBalance);\r\n                totalAmount = contractBalance;\r\n\r\n            }\r\n        } else {\r\n            miswithdrawnAmount = totalAmount - contractBalance;\r\n            totalAmount = contractBalance;\r\n            totalWithdrawnForInvested = totalWithdrawnForInvested.add(totalAmount);\r\n            totalAmount -= _distributeFee(msg.sender, totalAmount);\r\n            user.withdrawn.add(contractBalance);\r\n        }\r\n        // Propagate rollbacks to each deposits for invest\r\n        for (uint256 i = user.deposits.length - 1; i >= 0; i--) {\r\n            if (user.deposits[i].withdrawn > 0) {\r\n                if (user.deposits[i].withdrawn < miswithdrawnAmount) {\r\n                    user.deposits[i].withdrawn = 0;\r\n                    miswithdrawnAmount = miswithdrawnAmount.sub(user.deposits[i].withdrawn);\r\n                } else {\r\n                    user.deposits[i].withdrawn = user.deposits[i].withdrawn.sub(miswithdrawnAmount);\r\n                    miswithdrawnAmount = 0;\r\n                    break; // Need to continue propagation no longer\r\n                }\r\n            }\r\n        }\r\n\r\n        user.checkpoint = block.timestamp;\r\n\t\t\r\n\t\tVictoryCoin.transfer(msg.sender, totalAmount);\r\n\r\n        totalWithdrawn = totalWithdrawn.add(totalAmount);\r\n\r\n        emit Withdrawn(msg.sender, totalAmount);\r\n    }\r\n\r\n    function reinvest() onlyHodler public\r\n    {\r\n        User storage user = users[msg.sender];\r\n        // fetch dividends\r\n        uint256 dividends = updateWithdrawns(msg.sender); // retrieve ref. bonus later in the code\r\n\r\n        dividends = dividends.sub(_distributeFee(msg.sender, dividends));\r\n\r\n        user.deposits.push(Deposit(dividends, 0, block.timestamp));\r\n\r\n        // updateWithdrawns(msg.sender);\r\n\r\n        user.checkpoint = block.timestamp;\r\n\r\n        totalInvested = totalInvested.add(dividends);\r\n        totalDeposits = totalDeposits.add(1);\r\n        totalWithdrawn = totalWithdrawn.add(dividends);\r\n        // fire event\r\n        emit onReinvestment(msg.sender, dividends);\r\n    }\r\n\r\n\r\n    function getSumOfDividends(address userAddress) public view returns (uint256) {\r\n        User storage user = users[userAddress];\r\n\r\n        uint256 totalDividends;\r\n        uint256 dividends;\r\n\r\n        for (uint256 i = 0; i < user.deposits.length; i++) {\r\n\r\n            if (user.deposits[i].withdrawn < user.deposits[i].amount.mul(365).div(100)) {\r\n\r\n                if (user.deposits[i].start > user.checkpoint) {\r\n\r\n                    dividends = (user.deposits[i].amount.mul(DAILY_ROI).div(PERCENTS_DIVIDER))\r\n                        .mul(block.timestamp.sub(user.deposits[i].start))\r\n                        .div(TIME_STEP);\r\n\r\n                } else {\r\n\r\n                    dividends = (user.deposits[i].amount.mul(DAILY_ROI).div(PERCENTS_DIVIDER))\r\n                        .mul(block.timestamp.sub(user.checkpoint))\r\n                        .div(TIME_STEP);\r\n                }\r\n\r\n                if (user.deposits[i].withdrawn.add(dividends) > user.deposits[i].amount.mul(365).div(100)) {\r\n                    dividends = (user.deposits[i].amount.mul(365).div(100)).sub(user.deposits[i].withdrawn);\r\n                }\r\n                totalDividends = totalDividends.add(dividends);\r\n            }\r\n        }\r\n\r\n        return totalDividends;\r\n    }\r\n\r\n    function updateWithdrawns(address userAddress) public returns (uint256) {\r\n        User storage user = users[userAddress];\r\n\r\n        uint256 totalDividends;\r\n        uint256 dividends;\r\n\r\n        for (uint256 i = 0; i < user.deposits.length; i++) {\r\n\r\n            if (user.deposits[i].withdrawn < user.deposits[i].amount.mul(365).div(100)) {\r\n\r\n                if (user.deposits[i].start > user.checkpoint) {\r\n\r\n                    dividends = (user.deposits[i].amount.mul(DAILY_ROI).div(PERCENTS_DIVIDER))\r\n                        .mul(block.timestamp.sub(user.deposits[i].start))\r\n                        .div(TIME_STEP);\r\n\r\n                } else {\r\n\r\n                    dividends = (user.deposits[i].amount.mul(DAILY_ROI).div(PERCENTS_DIVIDER))\r\n                        .mul(block.timestamp.sub(user.checkpoint))\r\n                        .div(TIME_STEP);\r\n                }\r\n\r\n                if (user.deposits[i].withdrawn.add(dividends) > user.deposits[i].amount.mul(365).div(100)) {\r\n                    dividends = (user.deposits[i].amount.mul(365).div(100)).sub(user.deposits[i].withdrawn);\r\n                }\r\n                user.deposits[i].withdrawn = user.deposits[i].withdrawn.add(dividends); /// changing of storage data\r\n                totalDividends = totalDividends.add(dividends);\r\n            }\r\n        }\r\n\r\n        return totalDividends;\r\n    }\r\n\r\n    function minimumStakeValue() public pure returns(uint256) {\r\n        return MIN_STAKE_AMOUNT;\r\n    }\r\n\r\n    function getUserReferralBonus(address userAddress) public view returns(uint256) {\r\n        return users[userAddress].bonus;\r\n    }\r\n\r\n    function getUserReferralCount(address referrer) public view returns(uint256) {\r\n        return users[referrer].referralCount;\r\n    }\r\n\r\n    function getUserReferrer(address userAddress) public view returns(address) {\r\n        return users[userAddress].referrer;\r\n    }\r\n\r\n    function getUserCheckpoint(address userAddress) public view returns(uint256) {\r\n        return users[userAddress].checkpoint;\r\n    }\r\n\r\n    function getUserAvailable(address userAddress) public view returns(uint256) {\r\n        return getUserReferralBonus(userAddress).add(getSumOfDividends(userAddress));\r\n    }\r\n\r\n    function isActive(address userAddress) public view returns (bool) {\r\n        User storage user = users[userAddress];\r\n\r\n        if (user.deposits.length > 0) {\r\n            if (user.deposits[user.deposits.length-1].withdrawn < user.deposits[user.deposits.length-1].amount.mul(365).div(100)) {\r\n                return true;\r\n            }\r\n        }\r\n        return false;\r\n    }\r\n\r\n    function getUserDepositInfo(address userAddress, uint256 index) public view returns(uint256, uint256, uint256) {\r\n        User storage user = users[userAddress];\r\n\r\n        return (user.deposits[index].amount, user.deposits[index].withdrawn, user.deposits[index].start);\r\n    }\r\n\r\n    function getUserAmountOfDeposits(address userAddress) public view returns(uint256) {\r\n        return users[userAddress].deposits.length;\r\n    }\r\n\r\n    function getUserTotalDeposits(address userAddress) public view returns(uint256) {\r\n        User storage user = users[userAddress];\r\n\r\n        uint256 amount;\r\n\r\n        for (uint256 i = 0; i < user.deposits.length; i++) {\r\n            amount = amount.add(user.deposits[i].amount);\r\n        }\r\n\r\n        return amount;\r\n    }\r\n\r\n    function getUserTotalWithdrawn(address userAddress) public view returns(uint256) {\r\n        User storage user = users[userAddress];\r\n\r\n        uint256 amount;\r\n\r\n        for (uint256 i = 0; i < user.deposits.length; i++) {\r\n            amount = amount.add(user.deposits[i].withdrawn);\r\n        }\r\n\r\n        return amount;\r\n    }\r\n}",
  "sourcePath": "D:\\Work\\VictoryCoinStake\\src\\Contract\\contracts\\ViccStaking.sol",
  "compiler": {
    "name": "solc",
    "version": "0.8.14+commit.80d49f37.Emscripten.clang"
  },
  "schemaVersion": "3.4.7",
  "updatedAt": "2022-06-17T04:16:52.206Z",
  "networkType": "ethereum",
  "devdoc": {
    "kind": "dev",
    "methods": {
      "transferOwnership(address)": {
        "details": "Allows the current owner to transfer control of the contract to a newOwner.",
        "params": {
          "newOwner": "The address to transfer ownership to."
        }
      }
    },
    "version": 1
  },
  "userdoc": {
    "kind": "user",
    "methods": {},
    "version": 1
  }
}