{
  "contractName": "ViccAdmin",
  "abi": [
    {
      "inputs": [],
      "stateMutability": "nonpayable",
      "type": "constructor"
    },
    {
      "inputs": [
        {
          "internalType": "address",
          "name": "_admin",
          "type": "address"
        }
      ],
      "name": "addAdmin",
      "outputs": [],
      "stateMutability": "nonpayable",
      "type": "function"
    },
    {
      "inputs": [
        {
          "internalType": "address",
          "name": "_address",
          "type": "address"
        }
      ],
      "name": "isAdmin",
      "outputs": [
        {
          "internalType": "bool",
          "name": "yes",
          "type": "bool"
        }
      ],
      "stateMutability": "view",
      "type": "function"
    }
  ],
  "bytecode": "0x608060405234801561001057600080fd5b50336001806101000a81548173ffffffffffffffffffffffffffffffffffffffff021916908373ffffffffffffffffffffffffffffffffffffffff1602179055506100603361006560201b60201c565b61044a565b600073ffffffffffffffffffffffffffffffffffffffff1660018054906101000a900473ffffffffffffffffffffffffffffffffffffffff1673ffffffffffffffffffffffffffffffffffffffff16036100f4576040517f08c379a00000000000000000000000000000000000000000000000000000000081526004016100eb906102df565b60405180910390fd5b60018054906101000a900473ffffffffffffffffffffffffffffffffffffffff1673ffffffffffffffffffffffffffffffffffffffff163373ffffffffffffffffffffffffffffffffffffffff1614610182576040517f08c379a00000000000000000000000000000000000000000000000000000000081526004016101799061034b565b60405180910390fd5b80600073ffffffffffffffffffffffffffffffffffffffff168173ffffffffffffffffffffffffffffffffffffffff16036101f2576040517f08c379a00000000000000000000000000000000000000000000000000000000081526004016101e9906103b7565b60405180910390fd5b60016000808473ffffffffffffffffffffffffffffffffffffffff1673ffffffffffffffffffffffffffffffffffffffff16815260200190815260200160002060006101000a81548160ff02191690831515021790555060018060009054906101000a900460ff166102649190610413565b600160006101000a81548160ff021916908360ff1602179055505050565b600082825260208201905092915050565b7f496e76616c69642063726561746f722061646472657373000000000000000000600082015250565b60006102c9601783610282565b91506102d482610293565b602082019050919050565b600060208201905081810360008301526102f8816102bc565b9050919050565b7f466f722063616c6c65722065787065637465642062652063726561746f720000600082015250565b6000610335601e83610282565b9150610340826102ff565b602082019050919050565b6000602082019050818103600083015261036481610328565b9050919050565b7f4578706563746564206e6f6e2d7a65726f206164647265737300000000000000600082015250565b60006103a1601983610282565b91506103ac8261036b565b602082019050919050565b600060208201905081810360008301526103d081610394565b9050919050565b600060ff82169050919050565b7f4e487b7100000000000000000000000000000000000000000000000000000000600052601160045260246000fd5b600061041e826103d7565b9150610429836103d7565b92508260ff0382111561043f5761043e6103e4565b5b828201905092915050565b6105bd806104596000396000f3fe608060405234801561001057600080fd5b50600436106100365760003560e01c806324d7806c1461003b578063704802751461006b575b600080fd5b6100556004803603810190610050919061035c565b610087565b60405161006291906103a4565b60405180910390f35b6100856004803603810190610080919061035c565b6100dc565b005b60008060008373ffffffffffffffffffffffffffffffffffffffff1673ffffffffffffffffffffffffffffffffffffffff16815260200190815260200160002060009054906101000a900460ff169050919050565b600073ffffffffffffffffffffffffffffffffffffffff1660018054906101000a900473ffffffffffffffffffffffffffffffffffffffff1673ffffffffffffffffffffffffffffffffffffffff160361016b576040517f08c379a00000000000000000000000000000000000000000000000000000000081526004016101629061041c565b60405180910390fd5b60018054906101000a900473ffffffffffffffffffffffffffffffffffffffff1673ffffffffffffffffffffffffffffffffffffffff163373ffffffffffffffffffffffffffffffffffffffff16146101f9576040517f08c379a00000000000000000000000000000000000000000000000000000000081526004016101f090610488565b60405180910390fd5b80600073ffffffffffffffffffffffffffffffffffffffff168173ffffffffffffffffffffffffffffffffffffffff1603610269576040517f08c379a0000000000000000000000000000000000000000000000000000000008152600401610260906104f4565b60405180910390fd5b60016000808473ffffffffffffffffffffffffffffffffffffffff1673ffffffffffffffffffffffffffffffffffffffff16815260200190815260200160002060006101000a81548160ff02191690831515021790555060018060009054906101000a900460ff166102db9190610550565b600160006101000a81548160ff021916908360ff1602179055505050565b600080fd5b600073ffffffffffffffffffffffffffffffffffffffff82169050919050565b6000610329826102fe565b9050919050565b6103398161031e565b811461034457600080fd5b50565b60008135905061035681610330565b92915050565b600060208284031215610372576103716102f9565b5b600061038084828501610347565b91505092915050565b60008115159050919050565b61039e81610389565b82525050565b60006020820190506103b96000830184610395565b92915050565b600082825260208201905092915050565b7f496e76616c69642063726561746f722061646472657373000000000000000000600082015250565b60006104066017836103bf565b9150610411826103d0565b602082019050919050565b60006020820190508181036000830152610435816103f9565b9050919050565b7f466f722063616c6c65722065787065637465642062652063726561746f720000600082015250565b6000610472601e836103bf565b915061047d8261043c565b602082019050919050565b600060208201905081810360008301526104a181610465565b9050919050565b7f4578706563746564206e6f6e2d7a65726f206164647265737300000000000000600082015250565b60006104de6019836103bf565b91506104e9826104a8565b602082019050919050565b6000602082019050818103600083015261050d816104d1565b9050919050565b600060ff82169050919050565b7f4e487b7100000000000000000000000000000000000000000000000000000000600052601160045260246000fd5b600061055b82610514565b915061056683610514565b92508260ff0382111561057c5761057b610521565b5b82820190509291505056fea26469706673582212208606f19ecf0e1245fb13c42fbe985b7412cc448fe4fb2e68eed44f931954512364736f6c634300080e0033",
  "immutableReferences": {},
  "source": "// SPDX-License-Identifier: MIT\r\npragma solidity ^0.8.0;\r\n\r\ncontract ViccAdmin {\r\n    mapping(address => bool) internal adminGroup;\r\n    uint8                    internal adminCount;\r\n    address payable          internal creator;\r\n\r\n    constructor() {\r\n        creator = payable(msg.sender);\r\n        addAdmin(msg.sender);\r\n\t}\r\n\r\n    modifier onlyCreator virtual {\r\n        require(creator != address(0), \"Invalid creator address\");\r\n        require(msg.sender == creator, \"For caller expected be creator\");\r\n        _;\r\n    }\r\n    modifier onlyValidAddress(address _address) virtual {\r\n        require(_address != address(0), \"Expected non-zero address\");\r\n        _;\r\n    }\r\n    modifier onlyAdmin virtual {\r\n        require(msg.sender != address(0), \"Invalid creator address\");\r\n        require(adminGroup[msg.sender], \"Must be admin\");\r\n        _;\r\n    }\r\n\r\n    function addAdmin(address _admin) public virtual\r\n    onlyCreator onlyValidAddress(_admin) {\r\n        adminGroup[_admin] = true;\r\n        adminCount = adminCount + 1;\r\n    }\r\n\r\n    function isAdmin(address _address) public view virtual \r\n    returns(bool yes) {\r\n        yes = adminGroup[_address];\r\n    }\r\n}",
  "sourcePath": "F:\\Workspace\\Orders\\VictoryCoinStake\\src\\Contract\\contracts\\ViccAdmin.sol",
  "compiler": {
    "name": "solc",
    "version": "0.8.14+commit.80d49f37.Emscripten.clang"
  },
  "schemaVersion": "3.4.7",
  "updatedAt": "2022-06-05T06:21:49.380Z",
  "devdoc": {
    "kind": "dev",
    "methods": {},
    "version": 1
  },
  "userdoc": {
    "kind": "user",
    "methods": {},
    "version": 1
  }
}