{
  "contractName": "ViccStaking",
  "abi": [
    {
      "inputs": [
        {
          "internalType": "address",
          "name": "_VictoryCoin",
          "type": "address"
        }
      ],
      "stateMutability": "nonpayable",
      "type": "constructor"
    },
    {
      "anonymous": false,
      "inputs": [
        {
          "indexed": true,
          "internalType": "address",
          "name": "user",
          "type": "address"
        },
        {
          "indexed": false,
          "internalType": "uint256",
          "name": "amount",
          "type": "uint256"
        }
      ],
      "name": "NewDeposit",
      "type": "event"
    },
    {
      "anonymous": false,
      "inputs": [
        {
          "indexed": false,
          "internalType": "address",
          "name": "user",
          "type": "address"
        }
      ],
      "name": "Newbie",
      "type": "event"
    },
    {
      "anonymous": false,
      "inputs": [
        {
          "indexed": false,
          "internalType": "address",
          "name": "previousOwner",
          "type": "address"
        },
        {
          "indexed": false,
          "internalType": "address",
          "name": "newOwner",
          "type": "address"
        }
      ],
      "name": "OwnershipTransferred",
      "type": "event"
    },
    {
      "anonymous": false,
      "inputs": [
        {
          "indexed": true,
          "internalType": "address",
          "name": "referrer",
          "type": "address"
        },
        {
          "indexed": true,
          "internalType": "address",
          "name": "referral",
          "type": "address"
        },
        {
          "indexed": false,
          "internalType": "uint256",
          "name": "amount",
          "type": "uint256"
        }
      ],
      "name": "RefBonus",
      "type": "event"
    },
    {
      "anonymous": false,
      "inputs": [
        {
          "indexed": true,
          "internalType": "address",
          "name": "user",
          "type": "address"
        },
        {
          "indexed": false,
          "internalType": "uint256",
          "name": "amount",
          "type": "uint256"
        }
      ],
      "name": "Withdrawn",
      "type": "event"
    },
    {
      "anonymous": false,
      "inputs": [
        {
          "indexed": true,
          "internalType": "address",
          "name": "user",
          "type": "address"
        },
        {
          "indexed": false,
          "internalType": "uint256",
          "name": "reinvestAmount",
          "type": "uint256"
        }
      ],
      "name": "onReinvestment",
      "type": "event"
    },
    {
      "inputs": [],
      "name": "DAILY_ROI",
      "outputs": [
        {
          "internalType": "uint256",
          "name": "",
          "type": "uint256"
        }
      ],
      "stateMutability": "view",
      "type": "function",
      "constant": true
    },
    {
      "inputs": [],
      "name": "PERCENTS_DIVIDER",
      "outputs": [
        {
          "internalType": "uint256",
          "name": "",
          "type": "uint256"
        }
      ],
      "stateMutability": "view",
      "type": "function",
      "constant": true
    },
    {
      "inputs": [],
      "name": "REFERRAL_PERCENTS",
      "outputs": [
        {
          "internalType": "uint256",
          "name": "",
          "type": "uint256"
        }
      ],
      "stateMutability": "view",
      "type": "function",
      "constant": true
    },
    {
      "inputs": [],
      "name": "TIME_STEP",
      "outputs": [
        {
          "internalType": "uint256",
          "name": "",
          "type": "uint256"
        }
      ],
      "stateMutability": "view",
      "type": "function",
      "constant": true
    },
    {
      "inputs": [],
      "name": "acceptOwnership",
      "outputs": [
        {
          "internalType": "address",
          "name": "",
          "type": "address"
        }
      ],
      "stateMutability": "nonpayable",
      "type": "function"
    },
    {
      "inputs": [],
      "name": "owner",
      "outputs": [
        {
          "internalType": "address payable",
          "name": "",
          "type": "address"
        }
      ],
      "stateMutability": "view",
      "type": "function",
      "constant": true
    },
    {
      "inputs": [],
      "name": "totalDeposits",
      "outputs": [
        {
          "internalType": "uint256",
          "name": "",
          "type": "uint256"
        }
      ],
      "stateMutability": "view",
      "type": "function",
      "constant": true
    },
    {
      "inputs": [],
      "name": "totalInvested",
      "outputs": [
        {
          "internalType": "uint256",
          "name": "",
          "type": "uint256"
        }
      ],
      "stateMutability": "view",
      "type": "function",
      "constant": true
    },
    {
      "inputs": [],
      "name": "totalUsers",
      "outputs": [
        {
          "internalType": "uint256",
          "name": "",
          "type": "uint256"
        }
      ],
      "stateMutability": "view",
      "type": "function",
      "constant": true
    },
    {
      "inputs": [],
      "name": "totalWithdrawn",
      "outputs": [
        {
          "internalType": "uint256",
          "name": "",
          "type": "uint256"
        }
      ],
      "stateMutability": "view",
      "type": "function",
      "constant": true
    },
    {
      "inputs": [
        {
          "internalType": "address payable",
          "name": "newOwner",
          "type": "address"
        }
      ],
      "name": "transferOwnership",
      "outputs": [],
      "stateMutability": "nonpayable",
      "type": "function"
    },
    {
      "stateMutability": "payable",
      "type": "receive",
      "payable": true
    },
    {
      "inputs": [
        {
          "internalType": "address",
          "name": "referrer",
          "type": "address"
        },
        {
          "internalType": "uint256",
          "name": "amount",
          "type": "uint256"
        }
      ],
      "name": "invest",
      "outputs": [],
      "stateMutability": "nonpayable",
      "type": "function"
    },
    {
      "inputs": [],
      "name": "withdraw",
      "outputs": [],
      "stateMutability": "nonpayable",
      "type": "function"
    },
    {
      "inputs": [],
      "name": "reinvest",
      "outputs": [],
      "stateMutability": "nonpayable",
      "type": "function"
    },
    {
      "inputs": [
        {
          "internalType": "address",
          "name": "userAddress",
          "type": "address"
        }
      ],
      "name": "getUserDividends",
      "outputs": [
        {
          "internalType": "uint256",
          "name": "",
          "type": "uint256"
        }
      ],
      "stateMutability": "view",
      "type": "function",
      "constant": true
    },
    {
      "inputs": [],
      "name": "minimumStakeValue",
      "outputs": [
        {
          "internalType": "uint256",
          "name": "",
          "type": "uint256"
        }
      ],
      "stateMutability": "view",
      "type": "function",
      "constant": true
    },
    {
      "inputs": [
        {
          "internalType": "address",
          "name": "userAddress",
          "type": "address"
        }
      ],
      "name": "getUserReferralBonus",
      "outputs": [
        {
          "internalType": "uint256",
          "name": "",
          "type": "uint256"
        }
      ],
      "stateMutability": "view",
      "type": "function",
      "constant": true
    },
    {
      "inputs": [
        {
          "internalType": "address",
          "name": "referrer",
          "type": "address"
        }
      ],
      "name": "getUserReferralCount",
      "outputs": [
        {
          "internalType": "uint256",
          "name": "",
          "type": "uint256"
        }
      ],
      "stateMutability": "view",
      "type": "function",
      "constant": true
    },
    {
      "inputs": [
        {
          "internalType": "address",
          "name": "userAddress",
          "type": "address"
        }
      ],
      "name": "getUserReferrer",
      "outputs": [
        {
          "internalType": "address",
          "name": "",
          "type": "address"
        }
      ],
      "stateMutability": "view",
      "type": "function",
      "constant": true
    },
    {
      "inputs": [
        {
          "internalType": "address",
          "name": "userAddress",
          "type": "address"
        }
      ],
      "name": "getUserCheckpoint",
      "outputs": [
        {
          "internalType": "uint256",
          "name": "",
          "type": "uint256"
        }
      ],
      "stateMutability": "view",
      "type": "function",
      "constant": true
    },
    {
      "inputs": [
        {
          "internalType": "address",
          "name": "userAddress",
          "type": "address"
        }
      ],
      "name": "getUserAvailable",
      "outputs": [
        {
          "internalType": "uint256",
          "name": "",
          "type": "uint256"
        }
      ],
      "stateMutability": "view",
      "type": "function",
      "constant": true
    },
    {
      "inputs": [
        {
          "internalType": "address",
          "name": "userAddress",
          "type": "address"
        }
      ],
      "name": "isActive",
      "outputs": [
        {
          "internalType": "bool",
          "name": "",
          "type": "bool"
        }
      ],
      "stateMutability": "view",
      "type": "function",
      "constant": true
    },
    {
      "inputs": [
        {
          "internalType": "address",
          "name": "userAddress",
          "type": "address"
        },
        {
          "internalType": "uint256",
          "name": "index",
          "type": "uint256"
        }
      ],
      "name": "getUserDepositInfo",
      "outputs": [
        {
          "internalType": "uint256",
          "name": "",
          "type": "uint256"
        },
        {
          "internalType": "uint256",
          "name": "",
          "type": "uint256"
        },
        {
          "internalType": "uint256",
          "name": "",
          "type": "uint256"
        }
      ],
      "stateMutability": "view",
      "type": "function",
      "constant": true
    },
    {
      "inputs": [
        {
          "internalType": "address",
          "name": "userAddress",
          "type": "address"
        }
      ],
      "name": "getUserAmountOfDeposits",
      "outputs": [
        {
          "internalType": "uint256",
          "name": "",
          "type": "uint256"
        }
      ],
      "stateMutability": "view",
      "type": "function",
      "constant": true
    },
    {
      "inputs": [
        {
          "internalType": "address",
          "name": "userAddress",
          "type": "address"
        }
      ],
      "name": "getUserTotalDeposits",
      "outputs": [
        {
          "internalType": "uint256",
          "name": "",
          "type": "uint256"
        }
      ],
      "stateMutability": "view",
      "type": "function",
      "constant": true
    },
    {
      "inputs": [
        {
          "internalType": "address",
          "name": "userAddress",
          "type": "address"
        }
      ],
      "name": "getUserTotalWithdrawn",
      "outputs": [
        {
          "internalType": "uint256",
          "name": "",
          "type": "uint256"
        }
      ],
      "stateMutability": "view",
      "type": "function",
      "constant": true
    }
  ],
  "bytecode": "0x60806040523480156200001157600080fd5b50604051620030f6380380620030f6833981810160405281019062000037919062000129565b336000806101000a81548173ffffffffffffffffffffffffffffffffffffffff021916908373ffffffffffffffffffffffffffffffffffffffff16021790555080600260006101000a81548173ffffffffffffffffffffffffffffffffffffffff021916908373ffffffffffffffffffffffffffffffffffffffff160217905550506200015b565b600080fd5b600073ffffffffffffffffffffffffffffffffffffffff82169050919050565b6000620000f182620000c4565b9050919050565b6200010381620000e4565b81146200010f57600080fd5b50565b6000815190506200012381620000f8565b92915050565b600060208284031215620001425762000141620000bf565b5b6000620001528482850162000112565b91505092915050565b612f8b806200016b6000396000f3fe6080604052600436106101855760003560e01c80638da5cb5b116100d1578063c0806b031161008a578063e85abe0911610064578063e85abe09146105d1578063f2fde38b1461060e578063fb4cb32b14610637578063fdb5a03e146106745761018c565b8063c0806b0314610518578063c8a22eb414610557578063d7ffca91146105945761018c565b80638da5cb5b146103f45780639f8a13d71461041f578063a8aeb6c21461045c578063ab8a3c6b14610499578063b9b8c246146104c4578063bff1f9e1146104ed5761018c565b80633ccfd60b1161013e5780635216aeec116101185780635216aeec1461033657806379ba5097146103615780637d8820971461038c5780637e3abeea146103b75761018c565b80633ccfd60b146102c957806344038f90146102e05780634b3197131461030b5761018c565b806301c234a814610191578063040a772e146101bc578063153ab9df146101f957806318e1fbfc1461023657806332bc298c1461026157806336144c9a1461028c5761018c565b3661018c57005b600080fd5b34801561019d57600080fd5b506101a661068b565b6040516101b391906125a2565b60405180910390f35b3480156101c857600080fd5b506101e360048036038101906101de9190612620565b610691565b6040516101f091906125a2565b60405180910390f35b34801561020557600080fd5b50610220600480360381019061021b9190612620565b610a2e565b60405161022d91906125a2565b60405180910390f35b34801561024257600080fd5b5061024b610a5a565b60405161025891906125a2565b60405180910390f35b34801561026d57600080fd5b50610276610a5f565b60405161028391906125a2565b60405180910390f35b34801561029857600080fd5b506102b360048036038101906102ae9190612620565b610a66565b6040516102c0919061265c565b60405180910390f35b3480156102d557600080fd5b506102de610ad2565b005b3480156102ec57600080fd5b506102f5611109565b60405161030291906125a2565b60405180910390f35b34801561031757600080fd5b5061032061110e565b60405161032d91906125a2565b60405180910390f35b34801561034257600080fd5b5061034b611114565b60405161035891906125a2565b60405180910390f35b34801561036d57600080fd5b5061037661111a565b604051610383919061265c565b60405180910390f35b34801561039857600080fd5b506103a16112f1565b6040516103ae91906125a2565b60405180910390f35b3480156103c357600080fd5b506103de60048036038101906103d99190612620565b6112f7565b6040516103eb91906125a2565b60405180910390f35b34801561040057600080fd5b506104096113ac565b6040516104169190612698565b60405180910390f35b34801561042b57600080fd5b5061044660048036038101906104419190612620565b6113d0565b60405161045391906126ce565b60405180910390f35b34801561046857600080fd5b50610483600480360381019061047e9190612620565b6114d9565b60405161049091906125a2565b60405180910390f35b3480156104a557600080fd5b506104ae611528565b6040516104bb91906125a2565b60405180910390f35b3480156104d057600080fd5b506104eb60048036038101906104e69190612715565b61152d565b005b3480156104f957600080fd5b50610502611ad5565b60405161050f91906125a2565b60405180910390f35b34801561052457600080fd5b5061053f600480360381019061053a9190612715565b611adb565b60405161054e93929190612755565b60405180910390f35b34801561056357600080fd5b5061057e60048036038101906105799190612620565b611ba8565b60405161058b91906125a2565b60405180910390f35b3480156105a057600080fd5b506105bb60048036038101906105b69190612620565b611bf4565b6040516105c891906125a2565b60405180910390f35b3480156105dd57600080fd5b506105f860048036038101906105f39190612620565b611c40565b60405161060591906125a2565b60405180910390f35b34801561061a57600080fd5b50610635600480360381019061063091906127b8565b611c8c565b005b34801561064357600080fd5b5061065e60048036038101906106599190612620565b611d95565b60405161066b91906125a2565b60405180910390f35b34801561068057600080fd5b50610689611e4a565b005b6103e881565b600080600760008473ffffffffffffffffffffffffffffffffffffffff1673ffffffffffffffffffffffffffffffffffffffff168152602001908152602001600020905060008060005b8360000180549050811015610a2257610739606461072b61016d87600001858154811061070b5761070a6127e5565b5b9060005260206000209060030201600001546123b090919063ffffffff16565b61242a90919063ffffffff16565b84600001828154811061074f5761074e6127e5565b5b9060005260206000209060030201600101541015610a0f578360010154846000018281548110610782576107816127e5565b5b9060005260206000209060030201600201541115610850576108496201518061083b6107de8760000185815481106107bd576107bc6127e5565b5b9060005260206000209060030201600201544261248890919063ffffffff16565b61082d6103e861081f600f8b60000189815481106107ff576107fe6127e5565b5b9060005260206000209060030201600001546123b090919063ffffffff16565b61242a90919063ffffffff16565b6123b090919063ffffffff16565b61242a90919063ffffffff16565b91506108df565b6108dc620151806108ce61087187600101544261248890919063ffffffff16565b6108c06103e86108b2600f8b6000018981548110610892576108916127e5565b5b9060005260206000209060030201600001546123b090919063ffffffff16565b61242a90919063ffffffff16565b6123b090919063ffffffff16565b61242a90919063ffffffff16565b91505b61092e606461092061016d876000018581548110610900576108ff6127e5565b5b9060005260206000209060030201600001546123b090919063ffffffff16565b61242a90919063ffffffff16565b61096883866000018481548110610948576109476127e5565b5b9060005260206000209060030201600101546124e790919063ffffffff16565b11156109f9576109f6846000018281548110610987576109866127e5565b5b9060005260206000209060030201600101546109e860646109da61016d8960000187815481106109ba576109b96127e5565b5b9060005260206000209060030201600001546123b090919063ffffffff16565b61242a90919063ffffffff16565b61248890919063ffffffff16565b91505b610a0c82846124e790919063ffffffff16565b92505b8080610a1a90612843565b9150506106db565b50819350505050919050565b6000610a53610a3c83610691565b610a4584611c40565b6124e790919063ffffffff16565b9050919050565b600090565b6201518081565b6000600760008373ffffffffffffffffffffffffffffffffffffffff1673ffffffffffffffffffffffffffffffffffffffff16815260200190815260200160002060030160009054906101000a900473ffffffffffffffffffffffffffffffffffffffff169050919050565b6000600760003373ffffffffffffffffffffffffffffffffffffffff1673ffffffffffffffffffffffffffffffffffffffff168152602001908152602001600020905060008060005b8360000180549050811015610ec757610b796064610b6b61016d876000018581548110610b4b57610b4a6127e5565b5b9060005260206000209060030201600001546123b090919063ffffffff16565b61242a90919063ffffffff16565b846000018281548110610b8f57610b8e6127e5565b5b9060005260206000209060030201600101541015610eb4578360010154846000018281548110610bc257610bc16127e5565b5b9060005260206000209060030201600201541115610c9057610c8962015180610c7b610c1e876000018581548110610bfd57610bfc6127e5565b5b9060005260206000209060030201600201544261248890919063ffffffff16565b610c6d6103e8610c5f600f8b6000018981548110610c3f57610c3e6127e5565b5b9060005260206000209060030201600001546123b090919063ffffffff16565b61242a90919063ffffffff16565b6123b090919063ffffffff16565b61242a90919063ffffffff16565b9150610d1f565b610d1c62015180610d0e610cb187600101544261248890919063ffffffff16565b610d006103e8610cf2600f8b6000018981548110610cd257610cd16127e5565b5b9060005260206000209060030201600001546123b090919063ffffffff16565b61242a90919063ffffffff16565b6123b090919063ffffffff16565b61242a90919063ffffffff16565b91505b610d6e6064610d6061016d876000018581548110610d4057610d3f6127e5565b5b9060005260206000209060030201600001546123b090919063ffffffff16565b61242a90919063ffffffff16565b610da883866000018481548110610d8857610d876127e5565b5b9060005260206000209060030201600101546124e790919063ffffffff16565b1115610e3957610e36846000018281548110610dc757610dc66127e5565b5b906000526020600020906003020160010154610e286064610e1a61016d896000018781548110610dfa57610df96127e5565b5b9060005260206000209060030201600001546123b090919063ffffffff16565b61242a90919063ffffffff16565b61248890919063ffffffff16565b91505b610e7382856000018381548110610e5357610e526127e5565b5b9060005260206000209060030201600101546124e790919063ffffffff16565b846000018281548110610e8957610e886127e5565b5b906000526020600020906003020160010181905550610eb182846124e790919063ffffffff16565b92505b8080610ebf90612843565b915050610b1b565b506000610ed333611c40565b90506000811115610efe57610ef181846124e790919063ffffffff16565b9250600084600201819055505b60008311610f41576040517f08c379a0000000000000000000000000000000000000000000000000000000008152600401610f38906128e8565b60405180910390fd5b6000600260009054906101000a900473ffffffffffffffffffffffffffffffffffffffff1673ffffffffffffffffffffffffffffffffffffffff166370a08231306040518263ffffffff1660e01b8152600401610f9e919061265c565b6020604051808303816000875af1158015610fbd573d6000803e3d6000fd5b505050506040513d601f19601f82011682018060405250810190610fe1919061291d565b905083811015610fef578093505b428560010181905550600260009054906101000a900473ffffffffffffffffffffffffffffffffffffffff1673ffffffffffffffffffffffffffffffffffffffff1663a9059cbb33866040518363ffffffff1660e01b815260040161105592919061294a565b6020604051808303816000875af1158015611074573d6000803e3d6000fd5b505050506040513d601f19601f82011682018060405250810190611098919061299f565b506110ae846005546124e790919063ffffffff16565b6005819055503373ffffffffffffffffffffffffffffffffffffffff167f7084f5476618d8e60b11ef0d7d3f06914655adb8793e28ff7f018d4c76d505d5856040516110fa91906125a2565b60405180910390a25050505050565b600c81565b60055481565b60045481565b6000600160009054906101000a900473ffffffffffffffffffffffffffffffffffffffff1673ffffffffffffffffffffffffffffffffffffffff163373ffffffffffffffffffffffffffffffffffffffff16146111ac576040517f08c379a00000000000000000000000000000000000000000000000000000000081526004016111a390612a18565b60405180910390fd5b7f8be0079c531659141344cd1fd0a4f28419497f9722a3daafe3b4186f6b6457e060008054906101000a900473ffffffffffffffffffffffffffffffffffffffff16600160009054906101000a900473ffffffffffffffffffffffffffffffffffffffff1660405161121f929190612a97565b60405180910390a1600160009054906101000a900473ffffffffffffffffffffffffffffffffffffffff166000806101000a81548173ffffffffffffffffffffffffffffffffffffffff021916908373ffffffffffffffffffffffffffffffffffffffff1602179055506000600160006101000a81548173ffffffffffffffffffffffffffffffffffffffff021916908373ffffffffffffffffffffffffffffffffffffffff16021790555060008054906101000a900473ffffffffffffffffffffffffffffffffffffffff16905090565b60065481565b600080600760008473ffffffffffffffffffffffffffffffffffffffff1673ffffffffffffffffffffffffffffffffffffffff1681526020019081526020016000209050600080600090505b82600001805490508110156113a15761138c83600001828154811061136b5761136a6127e5565b5b906000526020600020906003020160000154836124e790919063ffffffff16565b9150808061139990612843565b915050611343565b508092505050919050565b60008054906101000a900473ffffffffffffffffffffffffffffffffffffffff1681565b600080600760008473ffffffffffffffffffffffffffffffffffffffff1673ffffffffffffffffffffffffffffffffffffffff16815260200190815260200160002090506000816000018054905011156114d257611486606461147861016d84600001600186600001805490506114479190612ac0565b81548110611458576114576127e5565b5b9060005260206000209060030201600001546123b090919063ffffffff16565b61242a90919063ffffffff16565b816000016001836000018054905061149e9190612ac0565b815481106114af576114ae6127e5565b5b90600052602060002090600302016001015410156114d15760019150506114d4565b5b505b919050565b6000600760008373ffffffffffffffffffffffffffffffffffffffff1673ffffffffffffffffffffffffffffffffffffffff168152602001908152602001600020600001805490509050919050565b600f81565b600260009054906101000a900473ffffffffffffffffffffffffffffffffffffffff1673ffffffffffffffffffffffffffffffffffffffff166323b872dd3330846040518463ffffffff1660e01b815260040161158c93929190612af4565b6020604051808303816000875af11580156115ab573d6000803e3d6000fd5b505050506040513d601f19601f820116820180604052508101906115cf919061299f565b506000600760003373ffffffffffffffffffffffffffffffffffffffff1673ffffffffffffffffffffffffffffffffffffffff1681526020019081526020016000209050600073ffffffffffffffffffffffffffffffffffffffff168160030160009054906101000a900473ffffffffffffffffffffffffffffffffffffffff1673ffffffffffffffffffffffffffffffffffffffff161480156116b857506000600760008573ffffffffffffffffffffffffffffffffffffffff1673ffffffffffffffffffffffffffffffffffffffff16815260200190815260200160002060000180549050115b80156116f057503373ffffffffffffffffffffffffffffffffffffffff168373ffffffffffffffffffffffffffffffffffffffff1614155b1561173957828160030160006101000a81548173ffffffffffffffffffffffffffffffffffffffff021916908373ffffffffffffffffffffffffffffffffffffffff1602179055505b600073ffffffffffffffffffffffffffffffffffffffff168160030160009054906101000a900473ffffffffffffffffffffffffffffffffffffffff1673ffffffffffffffffffffffffffffffffffffffff16146119765760008160030160009054906101000a900473ffffffffffffffffffffffffffffffffffffffff169050600073ffffffffffffffffffffffffffffffffffffffff168173ffffffffffffffffffffffffffffffffffffffff16146119745760006118186103e861180a600c876123b090919063ffffffff16565b61242a90919063ffffffff16565b905061186f81600760008573ffffffffffffffffffffffffffffffffffffffff1673ffffffffffffffffffffffffffffffffffffffff168152602001908152602001600020600201546124e790919063ffffffff16565b600760008473ffffffffffffffffffffffffffffffffffffffff1673ffffffffffffffffffffffffffffffffffffffff16815260200190815260200160002060020181905550600760008373ffffffffffffffffffffffffffffffffffffffff1673ffffffffffffffffffffffffffffffffffffffff168152602001908152602001600020600401600081548092919061190890612843565b91905055503373ffffffffffffffffffffffffffffffffffffffff168273ffffffffffffffffffffffffffffffffffffffff167f328838ddfc48ad5ae5531b1ad95dfb22b42ff1866853e474375ffef2c63d8e508360405161196a91906125a2565b60405180910390a3505b505b60008160000180549050036119e2574281600101819055506119a460016003546124e790919063ffffffff16565b6003819055507f9fd565cd14c3c391679eb0cad12a14dcf7534e9d3462bcb9b67a098a9bbbc24a336040516119d9919061265c565b60405180910390a15b806000016040518060600160405280848152602001600081526020014281525090806001815401808255809150506001900390600052602060002090600302016000909190919091506000820151816000015560208201518160010155604082015181600201555050611a60826004546124e790919063ffffffff16565b600481905550611a7c60016006546124e790919063ffffffff16565b6006819055503373ffffffffffffffffffffffffffffffffffffffff167f2cb77763bc1e8490c1a904905c4d74b4269919aca114464f4bb4d911e60de36483604051611ac891906125a2565b60405180910390a2505050565b60035481565b600080600080600760008773ffffffffffffffffffffffffffffffffffffffff1673ffffffffffffffffffffffffffffffffffffffff1681526020019081526020016000209050806000018581548110611b3857611b376127e5565b5b906000526020600020906003020160000154816000018681548110611b6057611b5f6127e5565b5b906000526020600020906003020160010154826000018781548110611b8857611b876127e5565b5b906000526020600020906003020160020154935093509350509250925092565b6000600760008373ffffffffffffffffffffffffffffffffffffffff1673ffffffffffffffffffffffffffffffffffffffff168152602001908152602001600020600401549050919050565b6000600760008373ffffffffffffffffffffffffffffffffffffffff1673ffffffffffffffffffffffffffffffffffffffff168152602001908152602001600020600101549050919050565b6000600760008373ffffffffffffffffffffffffffffffffffffffff1673ffffffffffffffffffffffffffffffffffffffff168152602001908152602001600020600201549050919050565b60008054906101000a900473ffffffffffffffffffffffffffffffffffffffff1673ffffffffffffffffffffffffffffffffffffffff163373ffffffffffffffffffffffffffffffffffffffff1614611d1a576040517f08c379a0000000000000000000000000000000000000000000000000000000008152600401611d1190612b77565b60405180910390fd5b600073ffffffffffffffffffffffffffffffffffffffff168173ffffffffffffffffffffffffffffffffffffffff1603611d89576040517f08c379a0000000000000000000000000000000000000000000000000000000008152600401611d8090612be3565b60405180910390fd5b611d9281612545565b50565b600080600760008473ffffffffffffffffffffffffffffffffffffffff1673ffffffffffffffffffffffffffffffffffffffff1681526020019081526020016000209050600080600090505b8260000180549050811015611e3f57611e2a836000018281548110611e0957611e086127e5565b5b906000526020600020906003020160010154836124e790919063ffffffff16565b91508080611e3790612843565b915050611de1565b508092505050919050565b6000611e5533610691565b11611e95576040517f08c379a0000000000000000000000000000000000000000000000000000000008152600401611e8c90612c4f565b60405180910390fd5b6000600760003373ffffffffffffffffffffffffffffffffffffffff1673ffffffffffffffffffffffffffffffffffffffff16815260200190815260200160002090506000611ee333610691565b905060008083600001604051806060016040528085815260200160008152602001428152509080600181540180825580915050600190039060005260206000209060030201600090919091909150600082015181600001556020820151816001015560408201518160020155505060005b846000018054905081101561230057611fb26064611fa461016d886000018581548110611f8457611f836127e5565b5b9060005260206000209060030201600001546123b090919063ffffffff16565b61242a90919063ffffffff16565b856000018281548110611fc857611fc76127e5565b5b90600052602060002090600302016001015410156122ed578460010154856000018281548110611ffb57611ffa6127e5565b5b90600052602060002090600302016002015411156120c9576120c2620151806120b4612057886000018581548110612036576120356127e5565b5b9060005260206000209060030201600201544261248890919063ffffffff16565b6120a66103e8612098600f8c6000018981548110612078576120776127e5565b5b9060005260206000209060030201600001546123b090919063ffffffff16565b61242a90919063ffffffff16565b6123b090919063ffffffff16565b61242a90919063ffffffff16565b9150612158565b612155620151806121476120ea88600101544261248890919063ffffffff16565b6121396103e861212b600f8c600001898154811061210b5761210a6127e5565b5b9060005260206000209060030201600001546123b090919063ffffffff16565b61242a90919063ffffffff16565b6123b090919063ffffffff16565b61242a90919063ffffffff16565b91505b6121a7606461219961016d886000018581548110612179576121786127e5565b5b9060005260206000209060030201600001546123b090919063ffffffff16565b61242a90919063ffffffff16565b6121e1838760000184815481106121c1576121c06127e5565b5b9060005260206000209060030201600101546124e790919063ffffffff16565b11156122725761226f856000018281548110612200576121ff6127e5565b5b906000526020600020906003020160010154612261606461225361016d8a6000018781548110612233576122326127e5565b5b9060005260206000209060030201600001546123b090919063ffffffff16565b61242a90919063ffffffff16565b61248890919063ffffffff16565b91505b6122ac8286600001838154811061228c5761228b6127e5565b5b9060005260206000209060030201600101546124e790919063ffffffff16565b8560000182815481106122c2576122c16127e5565b5b9060005260206000209060030201600101819055506122ea82846124e790919063ffffffff16565b92505b80806122f890612843565b915050611f54565b5042846001018190555061231f836004546124e790919063ffffffff16565b60048190555061233b60016006546124e790919063ffffffff16565b600681905550612356826005546124e790919063ffffffff16565b6005819055503373ffffffffffffffffffffffffffffffffffffffff167f5d511c2070e5a2dbcc6fbfbb3fd6704a11ab5fa74b793b81aacece2c7cc29405846040516123a291906125a2565b60405180910390a250505050565b60008083036123c25760009050612424565b600082846123d09190612c6f565b90508284826123df9190612cf8565b1461241f576040517f08c379a000000000000000000000000000000000000000000000000000000000815260040161241690612d9b565b60405180910390fd5b809150505b92915050565b600080821161246e576040517f08c379a000000000000000000000000000000000000000000000000000000000815260040161246590612e07565b60405180910390fd5b6000828461247c9190612cf8565b90508091505092915050565b6000828211156124cd576040517f08c379a00000000000000000000000000000000000000000000000000000000081526004016124c490612e73565b60405180910390fd5b600082846124db9190612ac0565b90508091505092915050565b60008082846124f69190612e93565b90508381101561253b576040517f08c379a000000000000000000000000000000000000000000000000000000000815260040161253290612f35565b60405180910390fd5b8091505092915050565b80600160006101000a81548173ffffffffffffffffffffffffffffffffffffffff021916908373ffffffffffffffffffffffffffffffffffffffff16021790555050565b6000819050919050565b61259c81612589565b82525050565b60006020820190506125b76000830184612593565b92915050565b600080fd5b600073ffffffffffffffffffffffffffffffffffffffff82169050919050565b60006125ed826125c2565b9050919050565b6125fd816125e2565b811461260857600080fd5b50565b60008135905061261a816125f4565b92915050565b600060208284031215612636576126356125bd565b5b60006126448482850161260b565b91505092915050565b612656816125e2565b82525050565b6000602082019050612671600083018461264d565b92915050565b6000612682826125c2565b9050919050565b61269281612677565b82525050565b60006020820190506126ad6000830184612689565b92915050565b60008115159050919050565b6126c8816126b3565b82525050565b60006020820190506126e360008301846126bf565b92915050565b6126f281612589565b81146126fd57600080fd5b50565b60008135905061270f816126e9565b92915050565b6000806040838503121561272c5761272b6125bd565b5b600061273a8582860161260b565b925050602061274b85828601612700565b9150509250929050565b600060608201905061276a6000830186612593565b6127776020830185612593565b6127846040830184612593565b949350505050565b61279581612677565b81146127a057600080fd5b50565b6000813590506127b28161278c565b92915050565b6000602082840312156127ce576127cd6125bd565b5b60006127dc848285016127a3565b91505092915050565b7f4e487b7100000000000000000000000000000000000000000000000000000000600052603260045260246000fd5b7f4e487b7100000000000000000000000000000000000000000000000000000000600052601160045260246000fd5b600061284e82612589565b91507fffffffffffffffffffffffffffffffffffffffffffffffffffffffffffffffff82036128805761287f612814565b5b600182019050919050565b600082825260208201905092915050565b7f5573657220686173206e6f206469766964656e64730000000000000000000000600082015250565b60006128d260158361288b565b91506128dd8261289c565b602082019050919050565b60006020820190508181036000830152612901816128c5565b9050919050565b600081519050612917816126e9565b92915050565b600060208284031215612933576129326125bd565b5b600061294184828501612908565b91505092915050565b600060408201905061295f600083018561264d565b61296c6020830184612593565b9392505050565b61297c816126b3565b811461298757600080fd5b50565b60008151905061299981612973565b92915050565b6000602082840312156129b5576129b46125bd565b5b60006129c38482850161298a565b91505092915050565b7f496e76616c6964206e6577206f776e6572000000000000000000000000000000600082015250565b6000612a0260118361288b565b9150612a0d826129cc565b602082019050919050565b60006020820190508181036000830152612a31816129f5565b9050919050565b6000819050919050565b6000612a5d612a58612a53846125c2565b612a38565b6125c2565b9050919050565b6000612a6f82612a42565b9050919050565b6000612a8182612a64565b9050919050565b612a9181612a76565b82525050565b6000604082019050612aac6000830185612a88565b612ab96020830184612a88565b9392505050565b6000612acb82612589565b9150612ad683612589565b925082821015612ae957612ae8612814565b5b828203905092915050565b6000606082019050612b09600083018661264d565b612b16602083018561264d565b612b236040830184612593565b949350505050565b7f4e6f74204f776e65720000000000000000000000000000000000000000000000600082015250565b6000612b6160098361288b565b9150612b6c82612b2b565b602082019050919050565b60006020820190508181036000830152612b9081612b54565b9050919050565b7f496e76616c696420416464726573730000000000000000000000000000000000600082015250565b6000612bcd600f8361288b565b9150612bd882612b97565b602082019050919050565b60006020820190508181036000830152612bfc81612bc0565b9050919050565b7f4e6f7420486f6c64657200000000000000000000000000000000000000000000600082015250565b6000612c39600a8361288b565b9150612c4482612c03565b602082019050919050565b60006020820190508181036000830152612c6881612c2c565b9050919050565b6000612c7a82612589565b9150612c8583612589565b9250817fffffffffffffffffffffffffffffffffffffffffffffffffffffffffffffffff0483118215151615612cbe57612cbd612814565b5b828202905092915050565b7f4e487b7100000000000000000000000000000000000000000000000000000000600052601260045260246000fd5b6000612d0382612589565b9150612d0e83612589565b925082612d1e57612d1d612cc9565b5b828204905092915050565b7f536166654d6174683a206d756c7469706c69636174696f6e206f766572666c6f60008201527f7700000000000000000000000000000000000000000000000000000000000000602082015250565b6000612d8560218361288b565b9150612d9082612d29565b604082019050919050565b60006020820190508181036000830152612db481612d78565b9050919050565b7f536166654d6174683a206469766973696f6e206279207a65726f000000000000600082015250565b6000612df1601a8361288b565b9150612dfc82612dbb565b602082019050919050565b60006020820190508181036000830152612e2081612de4565b9050919050565b7f536166654d6174683a207375627472616374696f6e206f766572666c6f770000600082015250565b6000612e5d601e8361288b565b9150612e6882612e27565b602082019050919050565b60006020820190508181036000830152612e8c81612e50565b9050919050565b6000612e9e82612589565b9150612ea983612589565b9250827fffffffffffffffffffffffffffffffffffffffffffffffffffffffffffffffff03821115612ede57612edd612814565b5b828201905092915050565b7f536166654d6174683a206164646974696f6e206f766572666c6f770000000000600082015250565b6000612f1f601b8361288b565b9150612f2a82612ee9565b602082019050919050565b60006020820190508181036000830152612f4e81612f12565b905091905056fea2646970667358221220b653ed7999c6e3542bfa0f194073f2cbd861ebb2445046266c5080a8ad9ef3d364736f6c634300080e0033",
  "immutableReferences": {},
  "source": "// SPDX-License-Identifier: UNLICENSED\r\npragma solidity ^0.8.0;\r\n/**\r\n *Submitted for verification at BscScan.com on 2022-05-10\r\n*/\r\n\r\n\r\nlibrary SafeMath {\r\n\r\n    function add(uint256 a, uint256 b) internal pure returns (uint256) {\r\n        uint256 c = a + b;\r\n        require(c >= a, \"SafeMath: addition overflow\");\r\n\r\n        return c;\r\n    }\r\n\r\n    function sub(uint256 a, uint256 b) internal pure returns (uint256) {\r\n        require(b <= a, \"SafeMath: subtraction overflow\");\r\n        uint256 c = a - b;\r\n\r\n        return c;\r\n    }\r\n\r\n    function mul(uint256 a, uint256 b) internal pure returns (uint256) {\r\n        if (a == 0) {\r\n            return 0;\r\n        }\r\n\r\n        uint256 c = a * b;\r\n        require(c / a == b, \"SafeMath: multiplication overflow\");\r\n\r\n        return c;\r\n    }\r\n\r\n    function div(uint256 a, uint256 b) internal pure returns (uint256) {\r\n        require(b > 0, \"SafeMath: division by zero\");\r\n        uint256 c = a / b;\r\n\r\n        return c;\r\n    }\r\n}\r\n\r\nabstract contract ERC20Interface {\r\n    function totalSupply() \r\n\t\tpublic \r\n\t\tvirtual \r\n\t\treturns (uint256);\r\n\r\n    function balanceOf(address tokenOwner) \r\n\t\tpublic \r\n\t\tvirtual \r\n\t\treturns (uint256 balance);\r\n    \r\n\tfunction allowance\r\n\t\t(address tokenOwner, address spender) \r\n\t\tpublic \r\n\t\tvirtual \r\n\t\treturns (uint256 remaining);\r\n\r\n    function transfer(address to, uint256 tokens) public virtual\r\n\t\treturns (bool success);\r\n    \r\n\tfunction approve(address spender, uint256 tokens) public virtual\r\n\t\treturns (bool success);\r\n\r\n    function transferFrom \r\n\t\t(address from, address to, uint256 tokens) public virtual\r\n\t\treturns (bool success);\r\n\r\n\r\n    event Transfer(address indexed from, address indexed to, uint256 tokens);\r\n    event Approval(address indexed tokenOwner, address indexed spender, uint256 tokens);\r\n}\r\n\r\ncontract Ownable {\r\n\r\n  // Owner of the contract\r\n  address payable public owner;\r\n  address payable internal _newOwner;\r\n\r\n    constructor() {\r\n        owner = payable(address(msg.sender));\r\n    }\r\n\r\n  /**\r\n  * @dev Event to show ownership has been transferred\r\n  * @param previousOwner representing the address of the previous owner\r\n  * @param newOwner representing the address of the new owner\r\n  */\r\n  event OwnershipTransferred(address previousOwner, address newOwner);\r\n\r\n\r\n  /**\r\n   * @dev Sets a new owner address\r\n   */\r\n  function setOwner(address payable newOwner) internal {\r\n    _newOwner = newOwner;\r\n  }\r\n\r\n  /**\r\n  * @dev Throws if called by any account other than the owner.\r\n  */\r\n  modifier onlyOwner() {\r\n    require(msg.sender == owner, \"Not Owner\");\r\n    _;\r\n  }\r\n\r\n  /**\r\n   * @dev Allows the current owner to transfer control of the contract to a newOwner.\r\n   * @param newOwner The address to transfer ownership to.\r\n   */\r\n  function transferOwnership(address payable newOwner) public onlyOwner {\r\n    require(newOwner != address(0), \"Invalid Address\");\r\n    setOwner(newOwner);\r\n  }\r\n\r\n  //this flow is to prevent transferring ownership to wrong wallet by mistake\r\n  function acceptOwnership() public returns (address){\r\n      require(msg.sender == _newOwner,\"Invalid new owner\");\r\n      emit OwnershipTransferred(owner, _newOwner);\r\n      owner = _newOwner;\r\n      _newOwner = payable(address(0));\r\n      return owner;\r\n  }\r\n}\r\n\r\ncontract ViccStaking is Ownable {\r\n    using SafeMath for uint256;\r\n\r\n    uint256 constant public PERCENTS_DIVIDER = 1000;\r\n\tuint256 constant public DAILY_ROI = 15;\r\n    uint256 constant public REFERRAL_PERCENTS = 12; // 12%\r\n    uint256 constant public TIME_STEP = 1 days;\r\n\t\r\n\tERC20Interface VictoryCoin;\r\n\r\n    uint256 public totalUsers;\r\n    uint256 public totalInvested;\r\n    uint256 public totalWithdrawn;\r\n    uint256 public totalDeposits;\r\n\r\n    struct Deposit {\r\n        uint256 amount;\r\n        uint256 withdrawn;\r\n        uint256 start;\r\n    }\r\n\r\n    struct User {\r\n        Deposit[] deposits;\r\n        uint256 checkpoint;\r\n        uint256 bonus;\r\n        address referrer;\r\n        uint256 referralCount;\r\n    }\r\n\r\n    mapping (address => User) internal users;\r\n\r\n    modifier onlyhodler() {\r\n        require(getUserDividends(msg.sender) > 0, \"Not Holder\");\r\n        _;\r\n    }\r\n\r\n    event Newbie(address user);\r\n    event NewDeposit(address indexed user, uint256 amount);\r\n    event Withdrawn(address indexed user, uint256 amount);\r\n    event onReinvestment(address indexed user, uint256 reinvestAmount);\r\n    event RefBonus(address indexed referrer, address indexed referral, uint256 amount);\r\n\r\n    constructor(address _VictoryCoin) {\r\n        VictoryCoin = ERC20Interface(_VictoryCoin);\r\n    }\r\n\r\n    receive() external payable {}\r\n\r\n    function invest(address referrer, uint256 amount) public {\r\n\t\tVictoryCoin.transferFrom(msg.sender, address(this), amount);\r\n\t\t\r\n        User storage user = users[msg.sender];\r\n\r\n        if (user.referrer == address(0) && users[referrer].deposits.length > 0 && referrer != msg.sender) {\r\n            user.referrer = referrer;\r\n        }\r\n\r\n        if (user.referrer != address(0)) {\r\n            address upline = user.referrer;\r\n\t\t\tif (upline != address(0)) {\r\n\t\t\t\tuint256 _amount = amount.mul(REFERRAL_PERCENTS).div(PERCENTS_DIVIDER);\r\n\t\t\t\tusers[upline].bonus = users[upline].bonus.add(_amount);\r\n                users[upline].referralCount++;\r\n\t\t\t\temit RefBonus(upline, msg.sender, _amount);\r\n\t\t\t}\r\n        }\r\n\r\n        if (user.deposits.length == 0) {\r\n            user.checkpoint = block.timestamp;\r\n            totalUsers = totalUsers.add(1);\r\n            emit Newbie(msg.sender);\r\n        }\r\n\r\n        user.deposits.push(Deposit(amount, 0, block.timestamp));\r\n\r\n        totalInvested = totalInvested.add(amount);\r\n        totalDeposits = totalDeposits.add(1);\r\n\r\n        emit NewDeposit(msg.sender, amount);\r\n    }\r\n\r\n    function withdraw() public {\r\n        User storage user = users[msg.sender];\r\n\r\n        uint256 totalAmount;\r\n        uint256 dividends;\r\n\r\n        for (uint256 i = 0; i < user.deposits.length; i++) {\r\n            if (user.deposits[i].withdrawn < user.deposits[i].amount.mul(365).div(100)) {\r\n                if (user.deposits[i].start > user.checkpoint) {\r\n                    dividends = (user.deposits[i].amount.mul(DAILY_ROI).div(PERCENTS_DIVIDER))\r\n\t\t\t\t\t\t.mul(block.timestamp.sub(user.deposits[i].start))\r\n\t\t\t\t\t\t.div(TIME_STEP);\r\n                } else {\r\n                    dividends = (user.deposits[i].amount.mul(DAILY_ROI).div(PERCENTS_DIVIDER))\r\n                        .mul(block.timestamp.sub(user.checkpoint))\r\n                        .div(TIME_STEP);\r\n                }\r\n\r\n                if (user.deposits[i].withdrawn.add(dividends) > user.deposits[i].amount.mul(365).div(100)) {\r\n                    dividends = (user.deposits[i].amount.mul(365).div(100)).sub(user.deposits[i].withdrawn);\r\n                }\r\n\r\n                user.deposits[i].withdrawn = user.deposits[i].withdrawn.add(dividends); /// changing of storage data\r\n                totalAmount = totalAmount.add(dividends);\r\n            }\r\n        }\r\n\r\n        uint256 referralBonus = getUserReferralBonus(msg.sender);\r\n        if (referralBonus > 0) {\r\n            totalAmount = totalAmount.add(referralBonus);\r\n            user.bonus = 0;\r\n        }\r\n\r\n        require(totalAmount > 0, \"User has no dividends\");\r\n\r\n        uint256 contractBalance = VictoryCoin.balanceOf(address(this));\r\n        if (contractBalance < totalAmount) {\r\n            totalAmount = contractBalance;\r\n        }\r\n\r\n        user.checkpoint = block.timestamp;\r\n\t\t\r\n\t\tVictoryCoin.transfer(msg.sender, totalAmount);\r\n\r\n        totalWithdrawn = totalWithdrawn.add(totalAmount);\r\n\r\n        emit Withdrawn(msg.sender, totalAmount);\r\n    }\r\n\r\n    function reinvest() onlyhodler() public\r\n    {\r\n        User storage user = users[msg.sender];\r\n        // fetch dividends\r\n        uint256 _dividends = getUserDividends(msg.sender); // retrieve ref. bonus later in the code\r\n        uint256 totalAmount;\r\n        uint256 dividends;\r\n\r\n        user.deposits.push(Deposit(_dividends, 0, block.timestamp));\r\n\r\n        for (uint256 i = 0; i < user.deposits.length; i++) {\r\n            if (user.deposits[i].withdrawn < user.deposits[i].amount.mul(365).div(100)) {\r\n                if (user.deposits[i].start > user.checkpoint) {\r\n                    dividends = (user.deposits[i].amount.mul(DAILY_ROI).div(PERCENTS_DIVIDER))\r\n\t\t\t\t\t\t.mul(block.timestamp.sub(user.deposits[i].start))\r\n\t\t\t\t\t\t.div(TIME_STEP);\r\n                } else {\r\n                    dividends = (user.deposits[i].amount.mul(DAILY_ROI).div(PERCENTS_DIVIDER))\r\n                        .mul(block.timestamp.sub(user.checkpoint))\r\n                        .div(TIME_STEP);\r\n                }\r\n\r\n                if (user.deposits[i].withdrawn.add(dividends) > user.deposits[i].amount.mul(365).div(100)) {\r\n                    dividends = (user.deposits[i].amount.mul(365).div(100)).sub(user.deposits[i].withdrawn);\r\n                }\r\n\r\n                user.deposits[i].withdrawn = user.deposits[i].withdrawn.add(dividends); /// changing of storage data\r\n                totalAmount = totalAmount.add(dividends);\r\n            }\r\n        }\r\n\r\n        user.checkpoint = block.timestamp;\r\n\r\n        totalInvested = totalInvested.add(_dividends);\r\n        totalDeposits = totalDeposits.add(1);\r\n        totalWithdrawn = totalWithdrawn.add(totalAmount);\r\n        // fire event\r\n        emit onReinvestment(msg.sender, _dividends);\r\n    }\r\n\r\n\r\n    function getUserDividends(address userAddress) public view returns (uint256) {\r\n        User storage user = users[userAddress];\r\n\r\n        uint256 totalDividends;\r\n        uint256 dividends;\r\n\r\n        for (uint256 i = 0; i < user.deposits.length; i++) {\r\n\r\n            if (user.deposits[i].withdrawn < user.deposits[i].amount.mul(365).div(100)) {\r\n\r\n                if (user.deposits[i].start > user.checkpoint) {\r\n\r\n                    dividends = (user.deposits[i].amount.mul(DAILY_ROI).div(PERCENTS_DIVIDER))\r\n\t\t\t\t\t\t.mul(block.timestamp.sub(user.deposits[i].start))\r\n\t\t\t\t\t\t.div(TIME_STEP);\r\n\r\n                } else {\r\n\r\n                    dividends = (user.deposits[i].amount.mul(DAILY_ROI).div(PERCENTS_DIVIDER))\r\n\t\t\t\t\t\t.mul(block.timestamp.sub(user.checkpoint))\r\n\t\t\t\t\t\t.div(TIME_STEP);\r\n                }\r\n\r\n                if (user.deposits[i].withdrawn.add(dividends) > user.deposits[i].amount.mul(365).div(100)) {\r\n                    dividends = (user.deposits[i].amount.mul(365).div(100)).sub(user.deposits[i].withdrawn);\r\n                }\r\n\r\n                totalDividends = totalDividends.add(dividends);\r\n            }\r\n        }\r\n\r\n        return totalDividends;\r\n    }\r\n\r\n    function minimumStakeValue() public view returns(uint256) {\r\n        return 0;\r\n    }\r\n\r\n    function getUserReferralBonus(address userAddress) public view returns(uint256) {\r\n        return users[userAddress].bonus;\r\n    }\r\n\r\n    function getUserReferralCount(address referrer) public view returns(uint256) {\r\n        return users[referrer].referralCount;\r\n    }\r\n\r\n    function getUserReferrer(address userAddress) public view returns(address) {\r\n        return users[userAddress].referrer;\r\n    }\r\n\r\n    function getUserCheckpoint(address userAddress) public view returns(uint256) {\r\n        return users[userAddress].checkpoint;\r\n    }\r\n\r\n    function getUserAvailable(address userAddress) public view returns(uint256) {\r\n        return getUserReferralBonus(userAddress).add(getUserDividends(userAddress));\r\n    }\r\n\r\n    function isActive(address userAddress) public view returns (bool) {\r\n        User storage user = users[userAddress];\r\n\r\n        if (user.deposits.length > 0) {\r\n            if (user.deposits[user.deposits.length-1].withdrawn < user.deposits[user.deposits.length-1].amount.mul(365).div(100)) {\r\n                return true;\r\n            }\r\n        }\r\n    }\r\n\r\n    function getUserDepositInfo(address userAddress, uint256 index) public view returns(uint256, uint256, uint256) {\r\n        User storage user = users[userAddress];\r\n\r\n        return (user.deposits[index].amount, user.deposits[index].withdrawn, user.deposits[index].start);\r\n    }\r\n\r\n    function getUserAmountOfDeposits(address userAddress) public view returns(uint256) {\r\n        return users[userAddress].deposits.length;\r\n    }\r\n\r\n    function getUserTotalDeposits(address userAddress) public view returns(uint256) {\r\n        User storage user = users[userAddress];\r\n\r\n        uint256 amount;\r\n\r\n        for (uint256 i = 0; i < user.deposits.length; i++) {\r\n            amount = amount.add(user.deposits[i].amount);\r\n        }\r\n\r\n        return amount;\r\n    }\r\n\r\n    function getUserTotalWithdrawn(address userAddress) public view returns(uint256) {\r\n        User storage user = users[userAddress];\r\n\r\n        uint256 amount;\r\n\r\n        for (uint256 i = 0; i < user.deposits.length; i++) {\r\n            amount = amount.add(user.deposits[i].withdrawn);\r\n        }\r\n\r\n        return amount;\r\n    }\r\n}",
  "sourcePath": "D:\\Work\\VictoryCoinStake\\src\\Contract\\contracts\\ViccStaking.sol",
  "compiler": {
    "name": "solc",
    "version": "0.8.14+commit.80d49f37.Emscripten.clang"
  },
  "schemaVersion": "3.4.7",
  "updatedAt": "2022-06-15T02:50:15.276Z",
  "networkType": "ethereum",
  "devdoc": {
    "kind": "dev",
    "methods": {
      "transferOwnership(address)": {
        "details": "Allows the current owner to transfer control of the contract to a newOwner.",
        "params": {
          "newOwner": "The address to transfer ownership to."
        }
      }
    },
    "version": 1
  },
  "userdoc": {
    "kind": "user",
    "methods": {},
    "version": 1
  }
}