{
  "contractName": "ViccStaking",
  "abi": [
    {
      "inputs": [
        {
          "internalType": "address",
          "name": "_ViccToken",
          "type": "address"
        }
      ],
      "stateMutability": "nonpayable",
      "type": "constructor"
    },
    {
      "anonymous": false,
      "inputs": [
        {
          "indexed": true,
          "internalType": "address",
          "name": "user",
          "type": "address"
        },
        {
          "indexed": false,
          "internalType": "uint256",
          "name": "amount",
          "type": "uint256"
        }
      ],
      "name": "NewDeposit",
      "type": "event"
    },
    {
      "anonymous": false,
      "inputs": [
        {
          "indexed": false,
          "internalType": "address",
          "name": "user",
          "type": "address"
        }
      ],
      "name": "Newbie",
      "type": "event"
    },
    {
      "anonymous": false,
      "inputs": [
        {
          "indexed": true,
          "internalType": "address",
          "name": "referrer",
          "type": "address"
        },
        {
          "indexed": true,
          "internalType": "address",
          "name": "referral",
          "type": "address"
        },
        {
          "indexed": false,
          "internalType": "uint256",
          "name": "amount",
          "type": "uint256"
        }
      ],
      "name": "RefBonus",
      "type": "event"
    },
    {
      "anonymous": false,
      "inputs": [
        {
          "indexed": true,
          "internalType": "address",
          "name": "user",
          "type": "address"
        },
        {
          "indexed": false,
          "internalType": "uint256",
          "name": "amount",
          "type": "uint256"
        }
      ],
      "name": "Withdrawn",
      "type": "event"
    },
    {
      "anonymous": false,
      "inputs": [
        {
          "indexed": true,
          "internalType": "address",
          "name": "user",
          "type": "address"
        },
        {
          "indexed": false,
          "internalType": "uint256",
          "name": "reinvestAmount",
          "type": "uint256"
        }
      ],
      "name": "onReinvestment",
      "type": "event"
    },
    {
      "inputs": [],
      "name": "BACKUP_FOR_DEVELOPER",
      "outputs": [
        {
          "internalType": "uint256",
          "name": "",
          "type": "uint256"
        }
      ],
      "stateMutability": "view",
      "type": "function",
      "constant": true
    },
    {
      "inputs": [],
      "name": "BACKUP_FOR_FUTURE_REWARD",
      "outputs": [
        {
          "internalType": "uint256",
          "name": "",
          "type": "uint256"
        }
      ],
      "stateMutability": "view",
      "type": "function",
      "constant": true
    },
    {
      "inputs": [],
      "name": "DAILY_ROI",
      "outputs": [
        {
          "internalType": "uint256",
          "name": "",
          "type": "uint256"
        }
      ],
      "stateMutability": "view",
      "type": "function",
      "constant": true
    },
    {
      "inputs": [],
      "name": "FEE_PERCENTS",
      "outputs": [
        {
          "internalType": "uint256",
          "name": "",
          "type": "uint256"
        }
      ],
      "stateMutability": "view",
      "type": "function",
      "constant": true
    },
    {
      "inputs": [],
      "name": "MIN_STAKE_AMOUNT",
      "outputs": [
        {
          "internalType": "uint256",
          "name": "",
          "type": "uint256"
        }
      ],
      "stateMutability": "view",
      "type": "function",
      "constant": true
    },
    {
      "inputs": [],
      "name": "PERCENTS_DIVIDER",
      "outputs": [
        {
          "internalType": "uint256",
          "name": "",
          "type": "uint256"
        }
      ],
      "stateMutability": "view",
      "type": "function",
      "constant": true
    },
    {
      "inputs": [],
      "name": "REFERRAL_PERCENTS",
      "outputs": [
        {
          "internalType": "uint256",
          "name": "",
          "type": "uint256"
        }
      ],
      "stateMutability": "view",
      "type": "function",
      "constant": true
    },
    {
      "inputs": [],
      "name": "STAKERS_SHARE_PERCENTS_OF_FEE",
      "outputs": [
        {
          "internalType": "uint256",
          "name": "",
          "type": "uint256"
        }
      ],
      "stateMutability": "view",
      "type": "function",
      "constant": true
    },
    {
      "inputs": [
        {
          "internalType": "address",
          "name": "_admin",
          "type": "address"
        }
      ],
      "name": "addAdmin",
      "outputs": [],
      "stateMutability": "nonpayable",
      "type": "function"
    },
    {
      "inputs": [],
      "name": "burnningPercents",
      "outputs": [
        {
          "internalType": "uint256",
          "name": "",
          "type": "uint256"
        }
      ],
      "stateMutability": "view",
      "type": "function",
      "constant": true
    },
    {
      "inputs": [
        {
          "internalType": "address",
          "name": "_address",
          "type": "address"
        }
      ],
      "name": "isAdmin",
      "outputs": [
        {
          "internalType": "bool",
          "name": "yes",
          "type": "bool"
        }
      ],
      "stateMutability": "view",
      "type": "function",
      "constant": true
    },
    {
      "inputs": [],
      "name": "rewardLimitPercents",
      "outputs": [
        {
          "internalType": "uint256",
          "name": "",
          "type": "uint256"
        }
      ],
      "stateMutability": "view",
      "type": "function",
      "constant": true
    },
    {
      "inputs": [],
      "name": "stakingOpenedAt",
      "outputs": [
        {
          "internalType": "uint256",
          "name": "",
          "type": "uint256"
        }
      ],
      "stateMutability": "view",
      "type": "function",
      "constant": true
    },
    {
      "inputs": [],
      "name": "totalDeposits",
      "outputs": [
        {
          "internalType": "uint256",
          "name": "",
          "type": "uint256"
        }
      ],
      "stateMutability": "view",
      "type": "function",
      "constant": true
    },
    {
      "inputs": [],
      "name": "totalInvested",
      "outputs": [
        {
          "internalType": "uint256",
          "name": "",
          "type": "uint256"
        }
      ],
      "stateMutability": "view",
      "type": "function",
      "constant": true
    },
    {
      "inputs": [],
      "name": "totalWithdrawn",
      "outputs": [
        {
          "internalType": "uint256",
          "name": "",
          "type": "uint256"
        }
      ],
      "stateMutability": "view",
      "type": "function",
      "constant": true
    },
    {
      "inputs": [],
      "name": "totalWithdrawnForInvested",
      "outputs": [
        {
          "internalType": "uint256",
          "name": "",
          "type": "uint256"
        }
      ],
      "stateMutability": "view",
      "type": "function",
      "constant": true
    },
    {
      "stateMutability": "payable",
      "type": "receive",
      "payable": true
    },
    {
      "inputs": [
        {
          "internalType": "uint256",
          "name": "_timeStep",
          "type": "uint256"
        }
      ],
      "name": "setTimeStep",
      "outputs": [],
      "stateMutability": "nonpayable",
      "type": "function"
    },
    {
      "inputs": [],
      "name": "getTimeStep",
      "outputs": [
        {
          "internalType": "uint256",
          "name": "",
          "type": "uint256"
        }
      ],
      "stateMutability": "view",
      "type": "function",
      "constant": true
    },
    {
      "inputs": [
        {
          "internalType": "address",
          "name": "referrer",
          "type": "address"
        },
        {
          "internalType": "uint256",
          "name": "amount",
          "type": "uint256"
        }
      ],
      "name": "invest",
      "outputs": [],
      "stateMutability": "nonpayable",
      "type": "function"
    },
    {
      "inputs": [],
      "name": "withdraw",
      "outputs": [],
      "stateMutability": "nonpayable",
      "type": "function"
    },
    {
      "inputs": [],
      "name": "reinvest",
      "outputs": [],
      "stateMutability": "nonpayable",
      "type": "function"
    },
    {
      "inputs": [
        {
          "internalType": "address",
          "name": "userAddress",
          "type": "address"
        }
      ],
      "name": "getSumOfDividends",
      "outputs": [
        {
          "internalType": "uint256",
          "name": "",
          "type": "uint256"
        }
      ],
      "stateMutability": "view",
      "type": "function",
      "constant": true
    },
    {
      "inputs": [
        {
          "internalType": "address",
          "name": "userAddress",
          "type": "address"
        }
      ],
      "name": "updateWithdrawns",
      "outputs": [
        {
          "internalType": "uint256",
          "name": "",
          "type": "uint256"
        }
      ],
      "stateMutability": "nonpayable",
      "type": "function"
    },
    {
      "inputs": [],
      "name": "minimumStakeValue",
      "outputs": [
        {
          "internalType": "uint256",
          "name": "",
          "type": "uint256"
        }
      ],
      "stateMutability": "pure",
      "type": "function",
      "constant": true
    },
    {
      "inputs": [
        {
          "internalType": "address",
          "name": "userAddress",
          "type": "address"
        }
      ],
      "name": "getUserRewardFromFee",
      "outputs": [
        {
          "internalType": "uint256",
          "name": "",
          "type": "uint256"
        }
      ],
      "stateMutability": "view",
      "type": "function",
      "constant": true
    },
    {
      "inputs": [
        {
          "internalType": "address",
          "name": "userAddress",
          "type": "address"
        }
      ],
      "name": "getUserReferralBonus",
      "outputs": [
        {
          "internalType": "uint256",
          "name": "",
          "type": "uint256"
        }
      ],
      "stateMutability": "view",
      "type": "function",
      "constant": true
    },
    {
      "inputs": [
        {
          "internalType": "address",
          "name": "referrer",
          "type": "address"
        }
      ],
      "name": "getUserReferralCount",
      "outputs": [
        {
          "internalType": "uint256",
          "name": "",
          "type": "uint256"
        }
      ],
      "stateMutability": "view",
      "type": "function",
      "constant": true
    },
    {
      "inputs": [
        {
          "internalType": "address",
          "name": "userAddress",
          "type": "address"
        }
      ],
      "name": "getUserReferrer",
      "outputs": [
        {
          "internalType": "address",
          "name": "",
          "type": "address"
        }
      ],
      "stateMutability": "view",
      "type": "function",
      "constant": true
    },
    {
      "inputs": [
        {
          "internalType": "address",
          "name": "userAddress",
          "type": "address"
        }
      ],
      "name": "getUserCheckpoint",
      "outputs": [
        {
          "internalType": "uint256",
          "name": "",
          "type": "uint256"
        }
      ],
      "stateMutability": "view",
      "type": "function",
      "constant": true
    },
    {
      "inputs": [
        {
          "internalType": "address",
          "name": "userAddress",
          "type": "address"
        }
      ],
      "name": "getUserAvailable",
      "outputs": [
        {
          "internalType": "uint256",
          "name": "",
          "type": "uint256"
        }
      ],
      "stateMutability": "view",
      "type": "function",
      "constant": true
    },
    {
      "inputs": [
        {
          "internalType": "address",
          "name": "userAddress",
          "type": "address"
        }
      ],
      "name": "isActive",
      "outputs": [
        {
          "internalType": "bool",
          "name": "",
          "type": "bool"
        }
      ],
      "stateMutability": "view",
      "type": "function",
      "constant": true
    },
    {
      "inputs": [
        {
          "internalType": "address",
          "name": "userAddress",
          "type": "address"
        },
        {
          "internalType": "uint256",
          "name": "index",
          "type": "uint256"
        }
      ],
      "name": "getUserDepositInfo",
      "outputs": [
        {
          "internalType": "uint256",
          "name": "",
          "type": "uint256"
        },
        {
          "internalType": "uint256",
          "name": "",
          "type": "uint256"
        },
        {
          "internalType": "uint256",
          "name": "",
          "type": "uint256"
        }
      ],
      "stateMutability": "view",
      "type": "function",
      "constant": true
    },
    {
      "inputs": [
        {
          "internalType": "address",
          "name": "userAddress",
          "type": "address"
        }
      ],
      "name": "getUserAmountOfDeposits",
      "outputs": [
        {
          "internalType": "uint256",
          "name": "",
          "type": "uint256"
        }
      ],
      "stateMutability": "view",
      "type": "function",
      "constant": true
    },
    {
      "inputs": [
        {
          "internalType": "address",
          "name": "userAddress",
          "type": "address"
        }
      ],
      "name": "getUserTotalDeposits",
      "outputs": [
        {
          "internalType": "uint256",
          "name": "",
          "type": "uint256"
        }
      ],
      "stateMutability": "view",
      "type": "function",
      "constant": true
    },
    {
      "inputs": [
        {
          "internalType": "address",
          "name": "userAddress",
          "type": "address"
        }
      ],
      "name": "getUserTotalWithdrawn",
      "outputs": [
        {
          "internalType": "uint256",
          "name": "",
          "type": "uint256"
        }
      ],
      "stateMutability": "view",
      "type": "function",
      "constant": true
    }
  ],
  "bytecode": "0x6080604052620151806002553480156200001857600080fd5b506040516200419d3803806200419d83398181016040528101906200003e919062000370565b336001806101000a81548173ffffffffffffffffffffffffffffffffffffffff021916908373ffffffffffffffffffffffffffffffffffffffff1602179055506200008f33620000de60201b60201c565b80600360006101000a81548173ffffffffffffffffffffffffffffffffffffffff021916908373ffffffffffffffffffffffffffffffffffffffff160217905550426008819055505062000583565b600073ffffffffffffffffffffffffffffffffffffffff1660018054906101000a900473ffffffffffffffffffffffffffffffffffffffff1673ffffffffffffffffffffffffffffffffffffffff160362000170576040517f08c379a0000000000000000000000000000000000000000000000000000000008152600401620001679062000403565b60405180910390fd5b60018054906101000a900473ffffffffffffffffffffffffffffffffffffffff1673ffffffffffffffffffffffffffffffffffffffff163373ffffffffffffffffffffffffffffffffffffffff161462000201576040517f08c379a0000000000000000000000000000000000000000000000000000000008152600401620001f89062000475565b60405180910390fd5b80600073ffffffffffffffffffffffffffffffffffffffff168173ffffffffffffffffffffffffffffffffffffffff160362000274576040517f08c379a00000000000000000000000000000000000000000000000000000000081526004016200026b90620004e7565b60405180910390fd5b60016000808473ffffffffffffffffffffffffffffffffffffffff1673ffffffffffffffffffffffffffffffffffffffff16815260200190815260200160002060006101000a81548160ff02191690831515021790555060018060009054906101000a900460ff16620002e8919062000545565b600160006101000a81548160ff021916908360ff1602179055505050565b600080fd5b600073ffffffffffffffffffffffffffffffffffffffff82169050919050565b600062000338826200030b565b9050919050565b6200034a816200032b565b81146200035657600080fd5b50565b6000815190506200036a816200033f565b92915050565b60006020828403121562000389576200038862000306565b5b6000620003998482850162000359565b91505092915050565b600082825260208201905092915050565b7f496e76616c69642063726561746f722061646472657373000000000000000000600082015250565b6000620003eb601783620003a2565b9150620003f882620003b3565b602082019050919050565b600060208201905081810360008301526200041e81620003dc565b9050919050565b7f466f722063616c6c65722065787065637465642062652063726561746f720000600082015250565b60006200045d601e83620003a2565b91506200046a8262000425565b602082019050919050565b6000602082019050818103600083015262000490816200044e565b9050919050565b7f4578706563746564206e6f6e2d7a65726f206164647265737300000000000000600082015250565b6000620004cf601983620003a2565b9150620004dc8262000497565b602082019050919050565b600060208201905081810360008301526200050281620004c0565b9050919050565b600060ff82169050919050565b7f4e487b7100000000000000000000000000000000000000000000000000000000600052601160045260246000fd5b6000620005528262000509565b91506200055f8362000509565b92508260ff0382111562000578576200057762000516565b5b828201905092915050565b613c0a80620005936000396000f3fe6080604052600436106102135760003560e01c806378bfacd611610118578063c0806b03116100a0578063e083fc9f1161006f578063e083fc9f14610814578063e85abe091461083f578063ef50b8901461087c578063fb4cb32b146108a7578063fdb5a03e146108e45761021a565b8063c0806b0314610730578063c8a22eb41461076f578063cb10c48a146107ac578063d7ffca91146107d75761021a565b80638932fe79116100e75780638932fe79146106255780639f8a13d714610662578063a8aeb6c21461069f578063ab8a3c6b146106dc578063b9b8c246146107075761021a565b806378bfacd6146105675780637ce8500b146105925780637d882097146105bd5780637e3abeea146105e85761021a565b806344038f901161019b5780636683e49e1161016a5780636683e49e1461048057806368c2fbb3146104ab5780636f4e735b146104d6578063704802751461050157806376db1ff71461052a5761021a565b806344038f90146103d65780634b319713146104015780634c8b16f41461042c5780635216aeec146104555761021a565b80631f30c5b1116101e25780631f30c5b1146102ef57806324d7806c1461031a57806327ed71881461035757806336144c9a146103825780633ccfd60b146103bf5761021a565b806301c234a81461021f5780630d4c84cf1461024a578063153ab9df1461028757806318e1fbfc146102c45761021a565b3661021a57005b600080fd5b34801561022b57600080fd5b506102346108fb565b604051610241919061311d565b60405180910390f35b34801561025657600080fd5b50610271600480360381019061026c919061319b565b610902565b60405161027e919061311d565b60405180910390f35b34801561029357600080fd5b506102ae60048036038101906102a9919061319b565b610ca1565b6040516102bb919061311d565b60405180910390f35b3480156102d057600080fd5b506102d9610ce7565b6040516102e6919061311d565b60405180910390f35b3480156102fb57600080fd5b50610304610cf8565b604051610311919061311d565b60405180910390f35b34801561032657600080fd5b50610341600480360381019061033c919061319b565b610cfe565b60405161034e91906131e3565b60405180910390f35b34801561036357600080fd5b5061036c610d53565b604051610379919061311d565b60405180910390f35b34801561038e57600080fd5b506103a960048036038101906103a4919061319b565b610d60565b6040516103b6919061320d565b60405180910390f35b3480156103cb57600080fd5b506103d4610dcc565b005b3480156103e257600080fd5b506103eb611217565b6040516103f8919061311d565b60405180910390f35b34801561040d57600080fd5b5061041661121e565b604051610423919061311d565b60405180910390f35b34801561043857600080fd5b50610453600480360381019061044e9190613254565b611224565b005b34801561046157600080fd5b5061046a611328565b604051610477919061311d565b60405180910390f35b34801561048c57600080fd5b5061049561132e565b6040516104a2919061311d565b60405180910390f35b3480156104b757600080fd5b506104c0611334565b6040516104cd919061311d565b60405180910390f35b3480156104e257600080fd5b506104eb61133a565b6040516104f8919061311d565b60405180910390f35b34801561050d57600080fd5b506105286004803603810190610523919061319b565b611341565b005b34801561053657600080fd5b50610551600480360381019061054c919061319b565b61155e565b60405161055e919061311d565b60405180910390f35b34801561057357600080fd5b5061057c6115aa565b604051610589919061311d565b60405180910390f35b34801561059e57600080fd5b506105a76115b0565b6040516105b4919061311d565b60405180910390f35b3480156105c957600080fd5b506105d26115ba565b6040516105df919061311d565b60405180910390f35b3480156105f457600080fd5b5061060f600480360381019061060a919061319b565b6115c0565b60405161061c919061311d565b60405180910390f35b34801561063157600080fd5b5061064c6004803603810190610647919061319b565b611675565b604051610659919061311d565b60405180910390f35b34801561066e57600080fd5b506106896004803603810190610684919061319b565b611a79565b60405161069691906131e3565b60405180910390f35b3480156106ab57600080fd5b506106c660048036038101906106c1919061319b565b611b86565b6040516106d3919061311d565b60405180910390f35b3480156106e857600080fd5b506106f1611bd5565b6040516106fe919061311d565b60405180910390f35b34801561071357600080fd5b5061072e60048036038101906107299190613281565b611bdb565b005b34801561073c57600080fd5b5061075760048036038101906107529190613281565b6124ad565b604051610766939291906132c1565b60405180910390f35b34801561077b57600080fd5b506107966004803603810190610791919061319b565b61257a565b6040516107a3919061311d565b60405180910390f35b3480156107b857600080fd5b506107c16125c6565b6040516107ce919061311d565b60405180910390f35b3480156107e357600080fd5b506107fe60048036038101906107f9919061319b565b6125cd565b60405161080b919061311d565b60405180910390f35b34801561082057600080fd5b50610829612619565b604051610836919061311d565b60405180910390f35b34801561084b57600080fd5b506108666004803603810190610861919061319b565b61261f565b604051610873919061311d565b60405180910390f35b34801561088857600080fd5b5061089161266b565b60405161089e919061311d565b60405180910390f35b3480156108b357600080fd5b506108ce60048036038101906108c9919061319b565b612671565b6040516108db919061311d565b60405180910390f35b3480156108f057600080fd5b506108f9612726565b005b620f424081565b600080600960008473ffffffffffffffffffffffffffffffffffffffff1673ffffffffffffffffffffffffffffffffffffffff168152602001908152602001600020905060008060005b8360000180549050811015610c95576109aa606461099c61016d87600001858154811061097c5761097b6132f8565b5b906000526020600020906003020160000154612a3390919063ffffffff16565b612aad90919063ffffffff16565b8460000182815481106109c0576109bf6132f8565b5b9060005260206000209060030201600101541015610c825783600301548460000182815481106109f3576109f26132f8565b5b9060005260206000209060030201600201541115610ac257610abb600254610aad610a4e876000018581548110610a2d57610a2c6132f8565b5b90600052602060002090600302016002015442612b0b90919063ffffffff16565b610a9f620f4240610a91613a988b6000018981548110610a7157610a706132f8565b5b906000526020600020906003020160000154612a3390919063ffffffff16565b612aad90919063ffffffff16565b612a3390919063ffffffff16565b612aad90919063ffffffff16565b9150610b52565b610b4f600254610b41610ae2876003015442612b0b90919063ffffffff16565b610b33620f4240610b25613a988b6000018981548110610b0557610b046132f8565b5b906000526020600020906003020160000154612a3390919063ffffffff16565b612aad90919063ffffffff16565b612a3390919063ffffffff16565b612aad90919063ffffffff16565b91505b610ba16064610b9361016d876000018581548110610b7357610b726132f8565b5b906000526020600020906003020160000154612a3390919063ffffffff16565b612aad90919063ffffffff16565b610bdb83866000018481548110610bbb57610bba6132f8565b5b906000526020600020906003020160010154612b6a90919063ffffffff16565b1115610c6c57610c69846000018281548110610bfa57610bf96132f8565b5b906000526020600020906003020160010154610c5b6064610c4d61016d896000018781548110610c2d57610c2c6132f8565b5b906000526020600020906003020160000154612a3390919063ffffffff16565b612aad90919063ffffffff16565b612b0b90919063ffffffff16565b91505b610c7f8284612b6a90919063ffffffff16565b92505b8080610c8d90613356565b91505061094c565b50819350505050919050565b6000610ce0610cc9610cb284610902565b610cbb8561155e565b612b6a90919063ffffffff16565b610cd28461261f565b612b6a90919063ffffffff16565b9050919050565b600068056bc75e2d63100000905090565b6101f481565b60008060008373ffffffffffffffffffffffffffffffffffffffff1673ffffffffffffffffffffffffffffffffffffffff16815260200190815260200160002060009054906101000a900460ff169050919050565b68056bc75e2d6310000081565b6000600960008373ffffffffffffffffffffffffffffffffffffffff1673ffffffffffffffffffffffffffffffffffffffff16815260200190815260200160002060060160009054906101000a900473ffffffffffffffffffffffffffffffffffffffff169050919050565b6000600960003373ffffffffffffffffffffffffffffffffffffffff1673ffffffffffffffffffffffffffffffffffffffff16815260200190815260200160002090506000610e1a33611675565b9050600360009054906101000a900473ffffffffffffffffffffffffffffffffffffffff1673ffffffffffffffffffffffffffffffffffffffff166342966c68610e85620f4240610e77620186a086612a3390919063ffffffff16565b612aad90919063ffffffff16565b6040518263ffffffff1660e01b8152600401610ea1919061311d565b600060405180830381600087803b158015610ebb57600080fd5b505af1158015610ecf573d6000803e3d6000fd5b50505050610eea818360020154612b6a90919063ffffffff16565b8260020181905550610f0781600654612b6a90919063ffffffff16565b600681905550610f29610f1a3383612bc8565b82612b0b90919063ffffffff16565b90506000610f363361261f565b90506000811115610f6157610f548183612b6a90919063ffffffff16565b9150600083600401819055505b60008211610fa4576040517f08c379a0000000000000000000000000000000000000000000000000000000008152600401610f9b906133fb565b60405180910390fd5b6000600360009054906101000a900473ffffffffffffffffffffffffffffffffffffffff1673ffffffffffffffffffffffffffffffffffffffff166370a08231306040518263ffffffff1660e01b8152600401611001919061320d565b6020604051808303816000875af1158015611020573d6000803e3d6000fd5b505050506040513d601f19601f820116820180604052508101906110449190613430565b90506000627d3e806008544261105a919061345d565b1015611066576109c490505b6303c2670060085442611079919061345d565b1015611097576110946101f482612b6a90919063ffffffff16565b90505b6110ae856005015485612b6a90919063ffffffff16565b93508381836110bd919061345d565b116110fd576040517f08c379a00000000000000000000000000000000000000000000000000000000081526004016110f4906134dd565b60405180910390fd5b428560030181905550600360009054906101000a900473ffffffffffffffffffffffffffffffffffffffff1673ffffffffffffffffffffffffffffffffffffffff1663a9059cbb33866040518363ffffffff1660e01b81526004016111639291906134fd565b6020604051808303816000875af1158015611182573d6000803e3d6000fd5b505050506040513d601f19601f820116820180604052508101906111a69190613552565b506111bc84600554612b6a90919063ffffffff16565b6005819055503373ffffffffffffffffffffffffffffffffffffffff167f7084f5476618d8e60b11ef0d7d3f06914655adb8793e28ff7f018d4c76d505d585604051611208919061311d565b60405180910390a25050505050565b6201d4c081565b60055481565b600073ffffffffffffffffffffffffffffffffffffffff163373ffffffffffffffffffffffffffffffffffffffff1603611293576040517f08c379a000000000000000000000000000000000000000000000000000000000815260040161128a906135cb565b60405180910390fd5b6000803373ffffffffffffffffffffffffffffffffffffffff1673ffffffffffffffffffffffffffffffffffffffff16815260200190815260200160002060009054906101000a900460ff1661131e576040517f08c379a000000000000000000000000000000000000000000000000000000000815260040161131590613637565b60405180910390fd5b8060028190555050565b60045481565b614e2081565b61ea6081565b620186a081565b600073ffffffffffffffffffffffffffffffffffffffff1660018054906101000a900473ffffffffffffffffffffffffffffffffffffffff1673ffffffffffffffffffffffffffffffffffffffff16036113d0576040517f08c379a00000000000000000000000000000000000000000000000000000000081526004016113c7906135cb565b60405180910390fd5b60018054906101000a900473ffffffffffffffffffffffffffffffffffffffff1673ffffffffffffffffffffffffffffffffffffffff163373ffffffffffffffffffffffffffffffffffffffff161461145e576040517f08c379a0000000000000000000000000000000000000000000000000000000008152600401611455906136a3565b60405180910390fd5b80600073ffffffffffffffffffffffffffffffffffffffff168173ffffffffffffffffffffffffffffffffffffffff16036114ce576040517f08c379a00000000000000000000000000000000000000000000000000000000081526004016114c59061370f565b60405180910390fd5b60016000808473ffffffffffffffffffffffffffffffffffffffff1673ffffffffffffffffffffffffffffffffffffffff16815260200190815260200160002060006101000a81548160ff02191690831515021790555060018060009054906101000a900460ff16611540919061373c565b600160006101000a81548160ff021916908360ff1602179055505050565b6000600960008373ffffffffffffffffffffffffffffffffffffffff1673ffffffffffffffffffffffffffffffffffffffff168152602001908152602001600020600501549050919050565b60085481565b6000600254905090565b60075481565b600080600960008473ffffffffffffffffffffffffffffffffffffffff1673ffffffffffffffffffffffffffffffffffffffff1681526020019081526020016000209050600080600090505b826000018054905081101561166a57611655836000018281548110611634576116336132f8565b5b90600052602060002090600302016000015483612b6a90919063ffffffff16565b9150808061166290613356565b91505061160c565b508092505050919050565b600080600960008473ffffffffffffffffffffffffffffffffffffffff1673ffffffffffffffffffffffffffffffffffffffff168152602001908152602001600020905060008060005b8360000180549050811015611a6d5761171d606461170f61016d8760000185815481106116ef576116ee6132f8565b5b906000526020600020906003020160000154612a3390919063ffffffff16565b612aad90919063ffffffff16565b846000018281548110611733576117326132f8565b5b9060005260206000209060030201600101541015611a5a578360030154846000018281548110611766576117656132f8565b5b90600052602060002090600302016002015411156118355761182e6002546118206117c18760000185815481106117a05761179f6132f8565b5b90600052602060002090600302016002015442612b0b90919063ffffffff16565b611812620f4240611804613a988b60000189815481106117e4576117e36132f8565b5b906000526020600020906003020160000154612a3390919063ffffffff16565b612aad90919063ffffffff16565b612a3390919063ffffffff16565b612aad90919063ffffffff16565b91506118c5565b6118c26002546118b4611855876003015442612b0b90919063ffffffff16565b6118a6620f4240611898613a988b6000018981548110611878576118776132f8565b5b906000526020600020906003020160000154612a3390919063ffffffff16565b612aad90919063ffffffff16565b612a3390919063ffffffff16565b612aad90919063ffffffff16565b91505b611914606461190661016d8760000185815481106118e6576118e56132f8565b5b906000526020600020906003020160000154612a3390919063ffffffff16565b612aad90919063ffffffff16565b61194e8386600001848154811061192e5761192d6132f8565b5b906000526020600020906003020160010154612b6a90919063ffffffff16565b11156119df576119dc84600001828154811061196d5761196c6132f8565b5b9060005260206000209060030201600101546119ce60646119c061016d8960000187815481106119a05761199f6132f8565b5b906000526020600020906003020160000154612a3390919063ffffffff16565b612aad90919063ffffffff16565b612b0b90919063ffffffff16565b91505b611a19828560000183815481106119f9576119f86132f8565b5b906000526020600020906003020160010154612b6a90919063ffffffff16565b846000018281548110611a2f57611a2e6132f8565b5b906000526020600020906003020160010181905550611a578284612b6a90919063ffffffff16565b92505b8080611a6590613356565b9150506116bf565b50819350505050919050565b600080600960008473ffffffffffffffffffffffffffffffffffffffff1673ffffffffffffffffffffffffffffffffffffffff1681526020019081526020016000209050600081600001805490501115611b7b57611b2f6064611b2161016d8460000160018660000180549050611af0919061345d565b81548110611b0157611b006132f8565b5b906000526020600020906003020160000154612a3390919063ffffffff16565b612aad90919063ffffffff16565b8160000160018360000180549050611b47919061345d565b81548110611b5857611b576132f8565b5b9060005260206000209060030201600101541015611b7a576001915050611b81565b5b60009150505b919050565b6000600960008373ffffffffffffffffffffffffffffffffffffffff1673ffffffffffffffffffffffffffffffffffffffff168152602001908152602001600020600001805490509050919050565b613a9881565b600073ffffffffffffffffffffffffffffffffffffffff163373ffffffffffffffffffffffffffffffffffffffff1603611c4a576040517f08c379a0000000000000000000000000000000000000000000000000000000008152600401611c41906137bf565b60405180910390fd5b3073ffffffffffffffffffffffffffffffffffffffff163373ffffffffffffffffffffffffffffffffffffffff1603611cb8576040517f08c379a0000000000000000000000000000000000000000000000000000000008152600401611caf906137bf565b60405180910390fd5b68056bc75e2d63100000811015611d04576040517f08c379a0000000000000000000000000000000000000000000000000000000008152600401611cfb9061382b565b60405180910390fd5b600360009054906101000a900473ffffffffffffffffffffffffffffffffffffffff1673ffffffffffffffffffffffffffffffffffffffff166323b872dd3330846040518463ffffffff1660e01b8152600401611d639392919061384b565b6020604051808303816000875af1158015611d82573d6000803e3d6000fd5b505050506040513d601f19601f82011682018060405250810190611da69190613552565b506000600960003373ffffffffffffffffffffffffffffffffffffffff1673ffffffffffffffffffffffffffffffffffffffff1681526020019081526020016000209050611e01828260010154612b6a90919063ffffffff16565b81600101819055506000611e153384612bc8565b90506000611e2c8285612b0b90919063ffffffff16565b9050600073ffffffffffffffffffffffffffffffffffffffff168360060160009054906101000a900473ffffffffffffffffffffffffffffffffffffffff1673ffffffffffffffffffffffffffffffffffffffff16148015611ed357506000600960008773ffffffffffffffffffffffffffffffffffffffff1673ffffffffffffffffffffffffffffffffffffffff16815260200190815260200160002060000180549050115b8015611f0b57503373ffffffffffffffffffffffffffffffffffffffff168573ffffffffffffffffffffffffffffffffffffffff1614155b15611f5457848360060160006101000a81548173ffffffffffffffffffffffffffffffffffffffff021916908373ffffffffffffffffffffffffffffffffffffffff1602179055505b600073ffffffffffffffffffffffffffffffffffffffff168360060160009054906101000a900473ffffffffffffffffffffffffffffffffffffffff1673ffffffffffffffffffffffffffffffffffffffff16146121a85760008360060160009054906101000a900473ffffffffffffffffffffffffffffffffffffffff169050600073ffffffffffffffffffffffffffffffffffffffff168173ffffffffffffffffffffffffffffffffffffffff16146121a6576000612036620f42406120286201d4c086612a3390919063ffffffff16565b612aad90919063ffffffff16565b905061204b8184612b0b90919063ffffffff16565b92506120a281600960008573ffffffffffffffffffffffffffffffffffffffff1673ffffffffffffffffffffffffffffffffffffffff16815260200190815260200160002060040154612b6a90919063ffffffff16565b600960008473ffffffffffffffffffffffffffffffffffffffff1673ffffffffffffffffffffffffffffffffffffffff1681526020019081526020016000206004018190555061213e6001600960008573ffffffffffffffffffffffffffffffffffffffff1673ffffffffffffffffffffffffffffffffffffffff16815260200190815260200160002060070154612b6a90919063ffffffff16565b503373ffffffffffffffffffffffffffffffffffffffff168273ffffffffffffffffffffffffffffffffffffffff167f328838ddfc48ad5ae5531b1ad95dfb22b42ff1866853e474375ffef2c63d8e508360405161219c919061311d565b60405180910390a3505b505b60008360000180549050036121f8574283600301819055507f9fd565cd14c3c391679eb0cad12a14dcf7534e9d3462bcb9b67a098a9bbbc24a336040516121ef919061320d565b60405180910390a15b8260000160405180606001604052808381526020016000815260200142815250908060018154018082558091505060019003906000526020600020906003020160009091909190915060008201518160000155602082015181600101556040820151816002015550506000805b600a805490508110156122ff57600a8181548110612286576122856132f8565b5b9060005260206000200160009054906101000a900473ffffffffffffffffffffffffffffffffffffffff1673ffffffffffffffffffffffffffffffffffffffff163373ffffffffffffffffffffffffffffffffffffffff16036122ec57600191506122ff565b80806122f790613356565b915050612265565b508061236957600a339080600181540180825580915050600190039060005260206000200160009091909190916101000a81548173ffffffffffffffffffffffffffffffffffffffff021916908373ffffffffffffffffffffffffffffffffffffffff1602179055505b61237e82600454612b6a90919063ffffffff16565b60048190555061239a6001600754612b6a90919063ffffffff16565b600781905550600360009054906101000a900473ffffffffffffffffffffffffffffffffffffffff1673ffffffffffffffffffffffffffffffffffffffff166342966c68612409620f42406123fb620186a08a612a3390919063ffffffff16565b612aad90919063ffffffff16565b6040518263ffffffff1660e01b8152600401612425919061311d565b600060405180830381600087803b15801561243f57600080fd5b505af1158015612453573d6000803e3d6000fd5b505050503373ffffffffffffffffffffffffffffffffffffffff167f2cb77763bc1e8490c1a904905c4d74b4269919aca114464f4bb4d911e60de3648360405161249d919061311d565b60405180910390a2505050505050565b600080600080600960008773ffffffffffffffffffffffffffffffffffffffff1673ffffffffffffffffffffffffffffffffffffffff168152602001908152602001600020905080600001858154811061250a576125096132f8565b5b906000526020600020906003020160000154816000018681548110612532576125316132f8565b5b90600052602060002090600302016001015482600001878154811061255a576125596132f8565b5b906000526020600020906003020160020154935093509350509250925092565b6000600960008373ffffffffffffffffffffffffffffffffffffffff1673ffffffffffffffffffffffffffffffffffffffff168152602001908152602001600020600701549050919050565b620591c881565b6000600960008373ffffffffffffffffffffffffffffffffffffffff1673ffffffffffffffffffffffffffffffffffffffff168152602001908152602001600020600301549050919050565b60065481565b6000600960008373ffffffffffffffffffffffffffffffffffffffff1673ffffffffffffffffffffffffffffffffffffffff168152602001908152602001600020600401549050919050565b6109c481565b600080600960008473ffffffffffffffffffffffffffffffffffffffff1673ffffffffffffffffffffffffffffffffffffffff1681526020019081526020016000209050600080600090505b826000018054905081101561271b576127068360000182815481106126e5576126e46132f8565b5b90600052602060002090600302016001015483612b6a90919063ffffffff16565b9150808061271390613356565b9150506126bd565b508092505050919050565b6000600960003373ffffffffffffffffffffffffffffffffffffffff1673ffffffffffffffffffffffffffffffffffffffff16815260200190815260200160002060020154600960003373ffffffffffffffffffffffffffffffffffffffff1673ffffffffffffffffffffffffffffffffffffffff168152602001908152602001600020600101546127b8919061345d565b116127f8576040517f08c379a00000000000000000000000000000000000000000000000000000000081526004016127ef906138ce565b60405180910390fd5b6000600960003373ffffffffffffffffffffffffffffffffffffffff1673ffffffffffffffffffffffffffffffffffffffff1681526020019081526020016000209050600061284633611675565b9050600360009054906101000a900473ffffffffffffffffffffffffffffffffffffffff1673ffffffffffffffffffffffffffffffffffffffff166342966c686128b1620f42406128a3620186a086612a3390919063ffffffff16565b612aad90919063ffffffff16565b6040518263ffffffff1660e01b81526004016128cd919061311d565b600060405180830381600087803b1580156128e757600080fd5b505af11580156128fb573d6000803e3d6000fd5b5050505061291b61290c3383612bc8565b82612b0b90919063ffffffff16565b90508160000160405180606001604052808381526020016000815260200142815250908060018154018082558091505060019003906000526020600020906003020160009091909190915060008201518160000155602082015181600101556040820151816002015550504282600301819055506129a481600454612b6a90919063ffffffff16565b6004819055506129c06001600754612b6a90919063ffffffff16565b6007819055506129db81600554612b6a90919063ffffffff16565b6005819055503373ffffffffffffffffffffffffffffffffffffffff167f5d511c2070e5a2dbcc6fbfbb3fd6704a11ab5fa74b793b81aacece2c7cc2940582604051612a27919061311d565b60405180910390a25050565b6000808303612a455760009050612aa7565b60008284612a5391906138ee565b9050828482612a629190613977565b14612aa2576040517f08c379a0000000000000000000000000000000000000000000000000000000008152600401612a9990613a1a565b60405180910390fd5b809150505b92915050565b6000808211612af1576040517f08c379a0000000000000000000000000000000000000000000000000000000008152600401612ae890613a86565b60405180910390fd5b60008284612aff9190613977565b90508091505092915050565b600082821115612b50576040517f08c379a0000000000000000000000000000000000000000000000000000000008152600401612b4790613af2565b60405180910390fd5b60008284612b5e919061345d565b90508091505092915050565b6000808284612b799190613b12565b905083811015612bbe576040517f08c379a0000000000000000000000000000000000000000000000000000000008152600401612bb590613bb4565b60405180910390fd5b8091505092915050565b600080612bf5620f4240612be761ea6086612a3390919063ffffffff16565b612aad90919063ffffffff16565b90506000612c23620f4240612c15614e2087612a3390919063ffffffff16565b612aad90919063ffffffff16565b90506000612c3e600654600454612b0b90919063ffffffff16565b905060008103612c53578293505050506130fe565b60005b600a805490508110156130f657600073ffffffffffffffffffffffffffffffffffffffff16600a8281548110612c8f57612c8e6132f8565b5b9060005260206000200160009054906101000a900473ffffffffffffffffffffffffffffffffffffffff1673ffffffffffffffffffffffffffffffffffffffff161480612d4557508673ffffffffffffffffffffffffffffffffffffffff16600a8281548110612d0257612d016132f8565b5b9060005260206000200160009054906101000a900473ffffffffffffffffffffffffffffffffffffffff1673ffffffffffffffffffffffffffffffffffffffff16145b6130e3576000612e5e60096000600a8581548110612d6657612d656132f8565b5b9060005260206000200160009054906101000a900473ffffffffffffffffffffffffffffffffffffffff1673ffffffffffffffffffffffffffffffffffffffff1673ffffffffffffffffffffffffffffffffffffffff1681526020019081526020016000206002015460096000600a8681548110612de757612de66132f8565b5b9060005260206000200160009054906101000a900473ffffffffffffffffffffffffffffffffffffffff1673ffffffffffffffffffffffffffffffffffffffff1673ffffffffffffffffffffffffffffffffffffffff16815260200190815260200160002060010154612b0b90919063ffffffff16565b905068056bc75e2d63100000811015612e7757506130e3565b612e9f83612e91620f424084612a3390919063ffffffff16565b612aad90919063ffffffff16565b60096000600a8581548110612eb757612eb66132f8565b5b9060005260206000200160009054906101000a900473ffffffffffffffffffffffffffffffffffffffff1673ffffffffffffffffffffffffffffffffffffffff1673ffffffffffffffffffffffffffffffffffffffff1681526020019081526020016000206008018190555061305d612fce620f4240612fc060096000600a8881548110612f4857612f476132f8565b5b9060005260206000200160009054906101000a900473ffffffffffffffffffffffffffffffffffffffff1673ffffffffffffffffffffffffffffffffffffffff1673ffffffffffffffffffffffffffffffffffffffff1681526020019081526020016000206008015488612a3390919063ffffffff16565b612aad90919063ffffffff16565b60096000600a8681548110612fe657612fe56132f8565b5b9060005260206000200160009054906101000a900473ffffffffffffffffffffffffffffffffffffffff1673ffffffffffffffffffffffffffffffffffffffff1673ffffffffffffffffffffffffffffffffffffffff16815260200190815260200160002060050154612b6a90919063ffffffff16565b60096000600a8581548110613075576130746132f8565b5b9060005260206000200160009054906101000a900473ffffffffffffffffffffffffffffffffffffffff1673ffffffffffffffffffffffffffffffffffffffff1673ffffffffffffffffffffffffffffffffffffffff16815260200190815260200160002060050181905550505b80806130ee90613356565b915050612c56565b508293505050505b92915050565b6000819050919050565b61311781613104565b82525050565b6000602082019050613132600083018461310e565b92915050565b600080fd5b600073ffffffffffffffffffffffffffffffffffffffff82169050919050565b60006131688261313d565b9050919050565b6131788161315d565b811461318357600080fd5b50565b6000813590506131958161316f565b92915050565b6000602082840312156131b1576131b0613138565b5b60006131bf84828501613186565b91505092915050565b60008115159050919050565b6131dd816131c8565b82525050565b60006020820190506131f860008301846131d4565b92915050565b6132078161315d565b82525050565b600060208201905061322260008301846131fe565b92915050565b61323181613104565b811461323c57600080fd5b50565b60008135905061324e81613228565b92915050565b60006020828403121561326a57613269613138565b5b60006132788482850161323f565b91505092915050565b6000806040838503121561329857613297613138565b5b60006132a685828601613186565b92505060206132b78582860161323f565b9150509250929050565b60006060820190506132d6600083018661310e565b6132e3602083018561310e565b6132f0604083018461310e565b949350505050565b7f4e487b7100000000000000000000000000000000000000000000000000000000600052603260045260246000fd5b7f4e487b7100000000000000000000000000000000000000000000000000000000600052601160045260246000fd5b600061336182613104565b91507fffffffffffffffffffffffffffffffffffffffffffffffffffffffffffffffff820361339357613392613327565b5b600182019050919050565b600082825260208201905092915050565b7f5573657220686173206e6f206469766964656e64730000000000000000000000600082015250565b60006133e560158361339e565b91506133f0826133af565b602082019050919050565b60006020820190508181036000830152613414816133d8565b9050919050565b60008151905061342a81613228565b92915050565b60006020828403121561344657613445613138565b5b60006134548482850161341b565b91505092915050565b600061346882613104565b915061347383613104565b92508282101561348657613485613327565b5b828203905092915050565b7f496e73756666696369656e742062616c616e6365206f6620636f6e7472616374600082015250565b60006134c760208361339e565b91506134d282613491565b602082019050919050565b600060208201905081810360008301526134f6816134ba565b9050919050565b600060408201905061351260008301856131fe565b61351f602083018461310e565b9392505050565b61352f816131c8565b811461353a57600080fd5b50565b60008151905061354c81613526565b92915050565b60006020828403121561356857613567613138565b5b60006135768482850161353d565b91505092915050565b7f496e76616c69642063726561746f722061646472657373000000000000000000600082015250565b60006135b560178361339e565b91506135c08261357f565b602082019050919050565b600060208201905081810360008301526135e4816135a8565b9050919050565b7f4d7573742062652061646d696e00000000000000000000000000000000000000600082015250565b6000613621600d8361339e565b915061362c826135eb565b602082019050919050565b6000602082019050818103600083015261365081613614565b9050919050565b7f466f722063616c6c65722065787065637465642062652063726561746f720000600082015250565b600061368d601e8361339e565b915061369882613657565b602082019050919050565b600060208201905081810360008301526136bc81613680565b9050919050565b7f4578706563746564206e6f6e2d7a65726f206164647265737300000000000000600082015250565b60006136f960198361339e565b9150613704826136c3565b602082019050919050565b60006020820190508181036000830152613728816136ec565b9050919050565b600060ff82169050919050565b60006137478261372f565b91506137528361372f565b92508260ff0382111561376857613767613327565b5b828201905092915050565b7f496e76616c696420757365720000000000000000000000000000000000000000600082015250565b60006137a9600c8361339e565b91506137b482613773565b602082019050919050565b600060208201905081810360008301526137d88161379c565b9050919050565b7f546f6f20736d616c6c20696e7665737465640000000000000000000000000000600082015250565b600061381560128361339e565b9150613820826137df565b602082019050919050565b6000602082019050818103600083015261384481613808565b9050919050565b600060608201905061386060008301866131fe565b61386d60208301856131fe565b61387a604083018461310e565b949350505050565b7f4e6f7420486f6c64657200000000000000000000000000000000000000000000600082015250565b60006138b8600a8361339e565b91506138c382613882565b602082019050919050565b600060208201905081810360008301526138e7816138ab565b9050919050565b60006138f982613104565b915061390483613104565b9250817fffffffffffffffffffffffffffffffffffffffffffffffffffffffffffffffff048311821515161561393d5761393c613327565b5b828202905092915050565b7f4e487b7100000000000000000000000000000000000000000000000000000000600052601260045260246000fd5b600061398282613104565b915061398d83613104565b92508261399d5761399c613948565b5b828204905092915050565b7f536166654d6174683a206d756c7469706c69636174696f6e206f766572666c6f60008201527f7700000000000000000000000000000000000000000000000000000000000000602082015250565b6000613a0460218361339e565b9150613a0f826139a8565b604082019050919050565b60006020820190508181036000830152613a33816139f7565b9050919050565b7f536166654d6174683a206469766973696f6e206279207a65726f000000000000600082015250565b6000613a70601a8361339e565b9150613a7b82613a3a565b602082019050919050565b60006020820190508181036000830152613a9f81613a63565b9050919050565b7f536166654d6174683a207375627472616374696f6e206f766572666c6f770000600082015250565b6000613adc601e8361339e565b9150613ae782613aa6565b602082019050919050565b60006020820190508181036000830152613b0b81613acf565b9050919050565b6000613b1d82613104565b9150613b2883613104565b9250827fffffffffffffffffffffffffffffffffffffffffffffffffffffffffffffffff03821115613b5d57613b5c613327565b5b828201905092915050565b7f536166654d6174683a206164646974696f6e206f766572666c6f770000000000600082015250565b6000613b9e601b8361339e565b9150613ba982613b68565b602082019050919050565b60006020820190508181036000830152613bcd81613b91565b905091905056fea2646970667358221220eae2619436ba55d15674fc95f22dcbda328a81fb69dac6e2764f6c6d7d0bc95b64736f6c634300080e0033",
  "immutableReferences": {},
  "source": "// SPDX-License-Identifier: UNLICENSED\r\npragma solidity ^0.8.0;\r\n/**\r\n *Submitted for verification at BscScan.com on 2022-05-10\r\n*/\r\nimport \"./ViccAdmin.sol\";\r\n\r\nlibrary SafeMath {\r\n\r\n    function add(uint256 a, uint256 b) internal pure returns (uint256) {\r\n        uint256 c = a + b;\r\n        require(c >= a, \"SafeMath: addition overflow\");\r\n\r\n        return c;\r\n    }\r\n\r\n    function sub(uint256 a, uint256 b) internal pure returns (uint256) {\r\n        require(b <= a, \"SafeMath: subtraction overflow\");\r\n        uint256 c = a - b;\r\n\r\n        return c;\r\n    }\r\n\r\n    function mul(uint256 a, uint256 b) internal pure returns (uint256) {\r\n        if (a == 0) {\r\n            return 0;\r\n        }\r\n\r\n        uint256 c = a * b;\r\n        require(c / a == b, \"SafeMath: multiplication overflow\");\r\n\r\n        return c;\r\n    }\r\n\r\n    function div(uint256 a, uint256 b) internal pure returns (uint256) {\r\n        require(b > 0, \"SafeMath: division by zero\");\r\n        uint256 c = a / b;\r\n\r\n        return c;\r\n    }\r\n}\r\n\r\nabstract contract ERC20Interface {\r\n    function burn(uint256 amount) \r\n        public\r\n        virtual;\r\n    function totalSupply() \r\n\t\tpublic \r\n\t\tvirtual \r\n\t\treturns (uint256);\r\n\r\n    function balanceOf(address tokenOwner) \r\n\t\tpublic \r\n\t\tvirtual \r\n\t\treturns (uint256 balance);\r\n    \r\n\tfunction allowance\r\n\t\t(address tokenOwner, address spender) \r\n\t\tpublic \r\n\t\tvirtual \r\n\t\treturns (uint256 remaining);\r\n\r\n    function transfer(address to, uint256 tokens) public virtual\r\n\t\treturns (bool success);\r\n    \r\n\tfunction approve(address spender, uint256 tokens) public virtual\r\n\t\treturns (bool success);\r\n\r\n    function transferFrom \r\n\t\t(address from, address to, uint256 tokens) public virtual\r\n\t\treturns (bool success);\r\n\r\n\r\n    event Transfer(address indexed from, address indexed to, uint256 tokens);\r\n    event Approval(address indexed tokenOwner, address indexed spender, uint256 tokens);\r\n}\r\n\r\n\r\ncontract ViccStaking is ViccAdmin {\r\n    using SafeMath for uint256;\r\n\r\n    uint256 constant public PERCENTS_DIVIDER = 10**6;\r\n\tuint256 constant public DAILY_ROI = 15000;                  // 1.5%\r\n    uint256 constant public REFERRAL_PERCENTS = 120000;         // 12%\r\n    uint256 constant public FEE_PERCENTS = 60000;               // 6%\r\n    uint256 constant public STAKERS_SHARE_PERCENTS_OF_FEE = 20000;    // 2%\r\n    uint256 constant public burnningPercents = 100000;\r\n    uint256 private timeStep = 1 days;\r\n    uint256 constant public MIN_STAKE_AMOUNT = 100 * (10**18);\r\n    uint256 constant public rewardLimitPercents = 365000;\r\n\r\n    uint256 constant public BACKUP_FOR_FUTURE_REWARD = 2500;\r\n    uint256 constant public BACKUP_FOR_DEVELOPER = 500;\r\n\t\r\n\tERC20Interface ViccToken;\r\n\r\n    uint256 public totalInvested;\r\n    uint256 public totalWithdrawn;\r\n    uint256 public totalWithdrawnForInvested;\r\n    uint256 public totalDeposits;\r\n    uint256 public stakingOpenedAt;\r\n\r\n    struct Deposit {\r\n        uint256 amount;\r\n        uint256 withdrawn;\r\n        uint256 start;\r\n    }\r\n\r\n    struct User {\r\n        Deposit[] deposits;\r\n        uint256 invested;\r\n        uint256 withdrawn;\r\n        uint256 checkpoint;\r\n        uint256 bonus;\r\n        uint256 rewardFromFee;\r\n        address referrer;\r\n        uint256 referralCount;\r\n        uint256 sharePercents;\r\n    }\r\n\r\n    mapping (address => User) internal users;\r\n    address[] availableUsers;\r\n\r\n    modifier onlyValidUser() {\r\n        require(msg.sender != address(0), \"Invalid user\");\r\n        require(msg.sender != address(this), \"Invalid user\");\r\n        _;\r\n    }\r\n\r\n    modifier onlyHodler() {\r\n        require(users[msg.sender].invested - users[msg.sender].withdrawn > 0, \"Not Holder\");\r\n        _;\r\n    }\r\n\r\n    event Newbie(address user);\r\n    event NewDeposit(address indexed user, uint256 amount);\r\n    event Withdrawn(address indexed user, uint256 amount);\r\n    event onReinvestment(address indexed user, uint256 reinvestAmount);\r\n    event RefBonus(address indexed referrer, address indexed referral, uint256 amount);\r\n\r\n    constructor(address _ViccToken) {\r\n        ViccToken = ERC20Interface(_ViccToken);\r\n        stakingOpenedAt = block.timestamp;\r\n    }\r\n\r\n    receive() external payable {}\r\n\r\n    function setTimeStep(uint256 _timeStep) public onlyAdmin {\r\n        timeStep = _timeStep;\r\n    }\r\n\r\n    function getTimeStep() public view returns(uint256) {\r\n        return timeStep;\r\n    }\r\n\r\n    function _distributeFee(address txSender, uint256 txAmount) internal returns(uint256) {\r\n        uint256 totalFee = txAmount.mul(FEE_PERCENTS).div(PERCENTS_DIVIDER);\r\n\r\n        uint256 totalStakerShare = txAmount.mul(STAKERS_SHARE_PERCENTS_OF_FEE).div(PERCENTS_DIVIDER);\r\n        uint256 totalBalanceInvested = totalInvested.sub(totalWithdrawnForInvested);\r\n        if (totalBalanceInvested == 0) {\r\n            return totalFee;\r\n        }\r\n        for (uint256 i = 0; i < availableUsers.length; i++) {\r\n            if (availableUsers[i] == address(0) || availableUsers[i] == txSender) {\r\n                continue;\r\n            }\r\n            uint256 balanceInvested = users[availableUsers[i]].invested.sub(users[availableUsers[i]].withdrawn);\r\n            if (balanceInvested < MIN_STAKE_AMOUNT) {\r\n                continue;\r\n            }\r\n            users[availableUsers[i]].sharePercents = balanceInvested.mul(PERCENTS_DIVIDER).div(totalBalanceInvested); // 10**6 \r\n            users[availableUsers[i]].rewardFromFee = users[availableUsers[i]].rewardFromFee.add(\r\n                                                        totalStakerShare.mul(\r\n                                                            users[availableUsers[i]].sharePercents\r\n                                                        ).div(PERCENTS_DIVIDER)\r\n                                                    );\r\n        }\r\n        return totalFee;\r\n    }\r\n\r\n    function invest(address referrer, uint256 amount) onlyValidUser public {\r\n        require(amount >= MIN_STAKE_AMOUNT, \"Too small invested\");\r\n\t\tViccToken.transferFrom(msg.sender, address(this), amount);\r\n\r\n        User storage user = users[msg.sender];\r\n        user.invested = user.invested.add(amount);\r\n\r\n        uint256 fee = _distributeFee(msg.sender, amount);\r\n\r\n        uint256 realInvestingAmount = amount.sub(fee);\r\n\r\n        if (user.referrer == address(0) && users[referrer].deposits.length > 0 && referrer != msg.sender) {\r\n            user.referrer = referrer;\r\n        }\r\n\r\n        // Calculate referral bonus for referrer\r\n        if (user.referrer != address(0)) {\r\n            address upline = user.referrer;\r\n\t\t\tif (upline != address(0)) {\r\n\t\t\t\tuint256 _referralBonus = realInvestingAmount.mul(REFERRAL_PERCENTS).div(PERCENTS_DIVIDER);\r\n                realInvestingAmount = realInvestingAmount.sub(_referralBonus);\r\n\t\t\t\tusers[upline].bonus = users[upline].bonus.add(_referralBonus);\r\n                users[upline].referralCount.add(1);\r\n\t\t\t\temit RefBonus(upline, msg.sender, _referralBonus);\r\n\t\t\t}\r\n        }\r\n\r\n        if (user.deposits.length == 0) {\r\n            user.checkpoint = block.timestamp;\r\n            emit Newbie(msg.sender);\r\n        }\r\n\r\n        user.deposits.push(Deposit(realInvestingAmount, 0, block.timestamp));\r\n\r\n        bool pushedAlready = false;\r\n        for (uint256 i = 0; i < availableUsers.length; i++) {\r\n            if (msg.sender == availableUsers[i]) {\r\n                pushedAlready = true;\r\n                break;\r\n            }\r\n        }\r\n        if (!pushedAlready) {\r\n            availableUsers.push(msg.sender);\r\n        }\r\n\r\n        totalInvested = totalInvested.add(realInvestingAmount);\r\n        totalDeposits = totalDeposits.add(1);\r\n\r\n        ViccToken.burn(amount.mul(burnningPercents).div(PERCENTS_DIVIDER)); // Burn 10%\r\n\r\n        emit NewDeposit(msg.sender, realInvestingAmount);\r\n    }\r\n\r\n    function withdraw() public {\r\n        User storage user = users[msg.sender];\r\n\r\n        uint256 totalAmount = updateWithdrawns(msg.sender);\r\n\r\n        ViccToken.burn(totalAmount.mul(burnningPercents).div(PERCENTS_DIVIDER)); // Burn 10%\r\n\r\n        user.withdrawn = user.withdrawn.add(totalAmount);\r\n\r\n        totalWithdrawnForInvested = totalWithdrawnForInvested.add(totalAmount);\r\n\r\n        totalAmount = totalAmount.sub(_distributeFee(msg.sender, totalAmount));\r\n        uint256 referralBonus = getUserReferralBonus(msg.sender);\r\n        if (referralBonus > 0) {\r\n            totalAmount = totalAmount.add(referralBonus);\r\n            user.bonus = 0;\r\n        }\r\n        require(totalAmount > 0, \"User has no dividends\");\r\n\r\n        uint256 contractBalance = ViccToken.balanceOf(address(this));\r\n        /*\r\n         * Implementation of 5% for future reward\r\n         */\r\n        uint bkupForFutureReward = 0;\r\n        if (block.timestamp - stakingOpenedAt < 95 days) {\r\n            bkupForFutureReward = BACKUP_FOR_FUTURE_REWARD;\r\n        }\r\n        /*\r\n         * Implementation of 1% for developer\r\n         */\r\n        if (block.timestamp - stakingOpenedAt < 730 days) {\r\n            bkupForFutureReward = bkupForFutureReward.add(BACKUP_FOR_DEVELOPER);\r\n        }\r\n        totalAmount = totalAmount.add(user.rewardFromFee);\r\n\r\n        require(contractBalance - bkupForFutureReward > totalAmount, \"Insufficient balance of contract\");\r\n\r\n        user.checkpoint = block.timestamp;\r\n\t\t\r\n\t\tViccToken.transfer(msg.sender, totalAmount);\r\n\r\n        totalWithdrawn = totalWithdrawn.add(totalAmount);\r\n\r\n        emit Withdrawn(msg.sender, totalAmount);\r\n    }\r\n\r\n    function reinvest() onlyHodler public\r\n    {\r\n        User storage user = users[msg.sender];\r\n        // fetch dividends\r\n        uint256 dividends = updateWithdrawns(msg.sender); // retrieve ref. bonus later in the code\r\n\r\n        ViccToken.burn(dividends.mul(burnningPercents).div(PERCENTS_DIVIDER)); // Burn 10%\r\n\r\n        dividends = dividends.sub(_distributeFee(msg.sender, dividends));\r\n\r\n        user.deposits.push(Deposit(dividends, 0, block.timestamp));\r\n\r\n        // updateWithdrawns(msg.sender);\r\n\r\n        user.checkpoint = block.timestamp;\r\n\r\n        totalInvested = totalInvested.add(dividends);\r\n        totalDeposits = totalDeposits.add(1);\r\n        totalWithdrawn = totalWithdrawn.add(dividends);\r\n        // fire event\r\n        emit onReinvestment(msg.sender, dividends);\r\n    }\r\n\r\n\r\n    function getSumOfDividends(address userAddress) public view returns (uint256) {\r\n        User storage user = users[userAddress];\r\n\r\n        uint256 totalDividends;\r\n        uint256 dividends;\r\n\r\n        for (uint256 i = 0; i < user.deposits.length; i++) {\r\n\r\n            if (user.deposits[i].withdrawn < user.deposits[i].amount.mul(365).div(100)) {\r\n\r\n                if (user.deposits[i].start > user.checkpoint) {\r\n\r\n                    dividends = (user.deposits[i].amount.mul(DAILY_ROI).div(PERCENTS_DIVIDER))\r\n                        .mul(block.timestamp.sub(user.deposits[i].start))\r\n                        .div(timeStep);\r\n\r\n                } else {\r\n\r\n                    dividends = (user.deposits[i].amount.mul(DAILY_ROI).div(PERCENTS_DIVIDER))\r\n                        .mul(block.timestamp.sub(user.checkpoint))\r\n                        .div(timeStep);\r\n                }\r\n\r\n                if (user.deposits[i].withdrawn.add(dividends) > user.deposits[i].amount.mul(365).div(100)) {\r\n                    dividends = (user.deposits[i].amount.mul(365).div(100)).sub(user.deposits[i].withdrawn);\r\n                }\r\n                totalDividends = totalDividends.add(dividends);\r\n            }\r\n        }\r\n\r\n        return totalDividends;\r\n    }\r\n\r\n    function updateWithdrawns(address userAddress) public returns (uint256) {\r\n        User storage user = users[userAddress];\r\n\r\n        uint256 totalDividends;\r\n        uint256 dividends;\r\n\r\n        for (uint256 i = 0; i < user.deposits.length; i++) {\r\n\r\n            if (user.deposits[i].withdrawn < user.deposits[i].amount.mul(365).div(100)) {\r\n\r\n                if (user.deposits[i].start > user.checkpoint) {\r\n\r\n                    dividends = (user.deposits[i].amount.mul(DAILY_ROI).div(PERCENTS_DIVIDER))\r\n                        .mul(block.timestamp.sub(user.deposits[i].start))\r\n                        .div(timeStep);\r\n\r\n                } else {\r\n\r\n                    dividends = (user.deposits[i].amount.mul(DAILY_ROI).div(PERCENTS_DIVIDER))\r\n                        .mul(block.timestamp.sub(user.checkpoint))\r\n                        .div(timeStep);\r\n                }\r\n\r\n                if (user.deposits[i].withdrawn.add(dividends) > user.deposits[i].amount.mul(365).div(100)) {\r\n                    dividends = (user.deposits[i].amount.mul(365).div(100)).sub(user.deposits[i].withdrawn);\r\n                }\r\n                user.deposits[i].withdrawn = user.deposits[i].withdrawn.add(dividends); /// changing of storage data\r\n                totalDividends = totalDividends.add(dividends);\r\n            }\r\n        }\r\n\r\n        return totalDividends;\r\n    }\r\n\r\n    function minimumStakeValue() public pure returns(uint256) {\r\n        return MIN_STAKE_AMOUNT;\r\n    }\r\n\r\n    function getUserRewardFromFee(address userAddress) public view returns(uint256) {\r\n        return users[userAddress].rewardFromFee;\r\n    }\r\n\r\n    function getUserReferralBonus(address userAddress) public view returns(uint256) {\r\n        return users[userAddress].bonus;\r\n    }\r\n\r\n    function getUserReferralCount(address referrer) public view returns(uint256) {\r\n        return users[referrer].referralCount;\r\n    }\r\n\r\n    function getUserReferrer(address userAddress) public view returns(address) {\r\n        return users[userAddress].referrer;\r\n    }\r\n\r\n    function getUserCheckpoint(address userAddress) public view returns(uint256) {\r\n        return users[userAddress].checkpoint;\r\n    }\r\n\r\n    function getUserAvailable(address userAddress) public view returns(uint256) {\r\n        return getUserReferralBonus(userAddress).add(\r\n            getUserRewardFromFee(userAddress).add(\r\n                getSumOfDividends(userAddress)\r\n            )\r\n        );\r\n    }\r\n\r\n    function isActive(address userAddress) public view returns (bool) {\r\n        User storage user = users[userAddress];\r\n\r\n        if (user.deposits.length > 0) {\r\n            if (user.deposits[user.deposits.length-1].withdrawn < user.deposits[user.deposits.length-1].amount.mul(365).div(100)) {\r\n                return true;\r\n            }\r\n        }\r\n        return false;\r\n    }\r\n\r\n    function getUserDepositInfo(address userAddress, uint256 index) public view returns(uint256, uint256, uint256) {\r\n        User storage user = users[userAddress];\r\n\r\n        return (user.deposits[index].amount, user.deposits[index].withdrawn, user.deposits[index].start);\r\n    }\r\n\r\n    function getUserAmountOfDeposits(address userAddress) public view returns(uint256) {\r\n        return users[userAddress].deposits.length;\r\n    }\r\n\r\n    function getUserTotalDeposits(address userAddress) public view returns(uint256) {\r\n        User storage user = users[userAddress];\r\n\r\n        uint256 amount;\r\n\r\n        for (uint256 i = 0; i < user.deposits.length; i++) {\r\n            amount = amount.add(user.deposits[i].amount);\r\n        }\r\n\r\n        return amount;\r\n    }\r\n\r\n    function getUserTotalWithdrawn(address userAddress) public view returns(uint256) {\r\n        User storage user = users[userAddress];\r\n\r\n        uint256 amount;\r\n\r\n        for (uint256 i = 0; i < user.deposits.length; i++) {\r\n            amount = amount.add(user.deposits[i].withdrawn);\r\n        }\r\n\r\n        return amount;\r\n    }\r\n}",
  "sourcePath": "F:\\Workspace\\Orders\\VictoryCoinStake\\src\\Contract\\contracts\\ViccStaking.sol",
  "compiler": {
    "name": "solc",
    "version": "0.8.14+commit.80d49f37.Emscripten.clang"
  },
  "schemaVersion": "3.4.7",
  "updatedAt": "2022-06-18T03:36:39.043Z",
  "networkType": "ethereum",
  "devdoc": {
    "kind": "dev",
    "methods": {},
    "version": 1
  },
  "userdoc": {
    "kind": "user",
    "methods": {},
    "version": 1
  }
}