{
  "contractName": "VictoryCoinStaking",
  "abi": [
    {
      "inputs": [
        {
          "internalType": "address",
          "name": "_VictoryCoin",
          "type": "address"
        }
      ],
      "stateMutability": "nonpayable",
      "type": "constructor"
    },
    {
      "anonymous": false,
      "inputs": [
        {
          "indexed": true,
          "internalType": "address",
          "name": "user",
          "type": "address"
        },
        {
          "indexed": false,
          "internalType": "uint256",
          "name": "amount",
          "type": "uint256"
        }
      ],
      "name": "NewDeposit",
      "type": "event"
    },
    {
      "anonymous": false,
      "inputs": [
        {
          "indexed": false,
          "internalType": "address",
          "name": "user",
          "type": "address"
        }
      ],
      "name": "Newbie",
      "type": "event"
    },
    {
      "anonymous": false,
      "inputs": [
        {
          "indexed": false,
          "internalType": "address",
          "name": "previousOwner",
          "type": "address"
        },
        {
          "indexed": false,
          "internalType": "address",
          "name": "newOwner",
          "type": "address"
        }
      ],
      "name": "OwnershipTransferred",
      "type": "event"
    },
    {
      "anonymous": false,
      "inputs": [
        {
          "indexed": true,
          "internalType": "address",
          "name": "referrer",
          "type": "address"
        },
        {
          "indexed": true,
          "internalType": "address",
          "name": "referral",
          "type": "address"
        },
        {
          "indexed": false,
          "internalType": "uint256",
          "name": "amount",
          "type": "uint256"
        }
      ],
      "name": "RefBonus",
      "type": "event"
    },
    {
      "anonymous": false,
      "inputs": [
        {
          "indexed": true,
          "internalType": "address",
          "name": "user",
          "type": "address"
        },
        {
          "indexed": false,
          "internalType": "uint256",
          "name": "amount",
          "type": "uint256"
        }
      ],
      "name": "Withdrawn",
      "type": "event"
    },
    {
      "anonymous": false,
      "inputs": [
        {
          "indexed": true,
          "internalType": "address",
          "name": "user",
          "type": "address"
        },
        {
          "indexed": false,
          "internalType": "uint256",
          "name": "reinvestAmount",
          "type": "uint256"
        }
      ],
      "name": "onReinvestment",
      "type": "event"
    },
    {
      "inputs": [],
      "name": "DAILY_ROI",
      "outputs": [
        {
          "internalType": "uint256",
          "name": "",
          "type": "uint256"
        }
      ],
      "stateMutability": "view",
      "type": "function",
      "constant": true
    },
    {
      "inputs": [],
      "name": "PERCENTS_DIVIDER",
      "outputs": [
        {
          "internalType": "uint256",
          "name": "",
          "type": "uint256"
        }
      ],
      "stateMutability": "view",
      "type": "function",
      "constant": true
    },
    {
      "inputs": [],
      "name": "REFERRAL_PERCENTS",
      "outputs": [
        {
          "internalType": "uint256",
          "name": "",
          "type": "uint256"
        }
      ],
      "stateMutability": "view",
      "type": "function",
      "constant": true
    },
    {
      "inputs": [],
      "name": "TIME_STEP",
      "outputs": [
        {
          "internalType": "uint256",
          "name": "",
          "type": "uint256"
        }
      ],
      "stateMutability": "view",
      "type": "function",
      "constant": true
    },
    {
      "inputs": [],
      "name": "acceptOwnership",
      "outputs": [
        {
          "internalType": "address",
          "name": "",
          "type": "address"
        }
      ],
      "stateMutability": "nonpayable",
      "type": "function"
    },
    {
      "inputs": [],
      "name": "owner",
      "outputs": [
        {
          "internalType": "address payable",
          "name": "",
          "type": "address"
        }
      ],
      "stateMutability": "view",
      "type": "function",
      "constant": true
    },
    {
      "inputs": [],
      "name": "totalDeposits",
      "outputs": [
        {
          "internalType": "uint256",
          "name": "",
          "type": "uint256"
        }
      ],
      "stateMutability": "view",
      "type": "function",
      "constant": true
    },
    {
      "inputs": [],
      "name": "totalInvested",
      "outputs": [
        {
          "internalType": "uint256",
          "name": "",
          "type": "uint256"
        }
      ],
      "stateMutability": "view",
      "type": "function",
      "constant": true
    },
    {
      "inputs": [],
      "name": "totalUsers",
      "outputs": [
        {
          "internalType": "uint256",
          "name": "",
          "type": "uint256"
        }
      ],
      "stateMutability": "view",
      "type": "function",
      "constant": true
    },
    {
      "inputs": [],
      "name": "totalWithdrawn",
      "outputs": [
        {
          "internalType": "uint256",
          "name": "",
          "type": "uint256"
        }
      ],
      "stateMutability": "view",
      "type": "function",
      "constant": true
    },
    {
      "inputs": [
        {
          "internalType": "address payable",
          "name": "newOwner",
          "type": "address"
        }
      ],
      "name": "transferOwnership",
      "outputs": [],
      "stateMutability": "nonpayable",
      "type": "function"
    },
    {
      "stateMutability": "payable",
      "type": "receive",
      "payable": true
    },
    {
      "inputs": [
        {
          "internalType": "address",
          "name": "referrer",
          "type": "address"
        },
        {
          "internalType": "uint256",
          "name": "amount",
          "type": "uint256"
        }
      ],
      "name": "invest",
      "outputs": [],
      "stateMutability": "nonpayable",
      "type": "function"
    },
    {
      "inputs": [],
      "name": "withdraw",
      "outputs": [],
      "stateMutability": "nonpayable",
      "type": "function"
    },
    {
      "inputs": [],
      "name": "reinvest",
      "outputs": [],
      "stateMutability": "nonpayable",
      "type": "function"
    },
    {
      "inputs": [
        {
          "internalType": "address",
          "name": "userAddress",
          "type": "address"
        }
      ],
      "name": "getUserDividends",
      "outputs": [
        {
          "internalType": "uint256",
          "name": "",
          "type": "uint256"
        }
      ],
      "stateMutability": "view",
      "type": "function",
      "constant": true
    },
    {
      "inputs": [],
      "name": "minimumStakeValue",
      "outputs": [
        {
          "internalType": "uint256",
          "name": "",
          "type": "uint256"
        }
      ],
      "stateMutability": "view",
      "type": "function",
      "constant": true
    },
    {
      "inputs": [
        {
          "internalType": "address",
          "name": "userAddress",
          "type": "address"
        }
      ],
      "name": "getUserReferralBonus",
      "outputs": [
        {
          "internalType": "uint256",
          "name": "",
          "type": "uint256"
        }
      ],
      "stateMutability": "view",
      "type": "function",
      "constant": true
    },
    {
      "inputs": [
        {
          "internalType": "address",
          "name": "referrer",
          "type": "address"
        }
      ],
      "name": "getUserReferralCount",
      "outputs": [
        {
          "internalType": "uint256",
          "name": "",
          "type": "uint256"
        }
      ],
      "stateMutability": "view",
      "type": "function",
      "constant": true
    },
    {
      "inputs": [
        {
          "internalType": "address",
          "name": "userAddress",
          "type": "address"
        }
      ],
      "name": "getUserReferrer",
      "outputs": [
        {
          "internalType": "address",
          "name": "",
          "type": "address"
        }
      ],
      "stateMutability": "view",
      "type": "function",
      "constant": true
    },
    {
      "inputs": [
        {
          "internalType": "address",
          "name": "userAddress",
          "type": "address"
        }
      ],
      "name": "getUserCheckpoint",
      "outputs": [
        {
          "internalType": "uint256",
          "name": "",
          "type": "uint256"
        }
      ],
      "stateMutability": "view",
      "type": "function",
      "constant": true
    },
    {
      "inputs": [
        {
          "internalType": "address",
          "name": "userAddress",
          "type": "address"
        }
      ],
      "name": "getUserAvailable",
      "outputs": [
        {
          "internalType": "uint256",
          "name": "",
          "type": "uint256"
        }
      ],
      "stateMutability": "view",
      "type": "function",
      "constant": true
    },
    {
      "inputs": [
        {
          "internalType": "address",
          "name": "userAddress",
          "type": "address"
        }
      ],
      "name": "isActive",
      "outputs": [
        {
          "internalType": "bool",
          "name": "",
          "type": "bool"
        }
      ],
      "stateMutability": "view",
      "type": "function",
      "constant": true
    },
    {
      "inputs": [
        {
          "internalType": "address",
          "name": "userAddress",
          "type": "address"
        },
        {
          "internalType": "uint256",
          "name": "index",
          "type": "uint256"
        }
      ],
      "name": "getUserDepositInfo",
      "outputs": [
        {
          "internalType": "uint256",
          "name": "",
          "type": "uint256"
        },
        {
          "internalType": "uint256",
          "name": "",
          "type": "uint256"
        },
        {
          "internalType": "uint256",
          "name": "",
          "type": "uint256"
        }
      ],
      "stateMutability": "view",
      "type": "function",
      "constant": true
    },
    {
      "inputs": [
        {
          "internalType": "address",
          "name": "userAddress",
          "type": "address"
        }
      ],
      "name": "getUserAmountOfDeposits",
      "outputs": [
        {
          "internalType": "uint256",
          "name": "",
          "type": "uint256"
        }
      ],
      "stateMutability": "view",
      "type": "function",
      "constant": true
    },
    {
      "inputs": [
        {
          "internalType": "address",
          "name": "userAddress",
          "type": "address"
        }
      ],
      "name": "getUserTotalDeposits",
      "outputs": [
        {
          "internalType": "uint256",
          "name": "",
          "type": "uint256"
        }
      ],
      "stateMutability": "view",
      "type": "function",
      "constant": true
    },
    {
      "inputs": [
        {
          "internalType": "address",
          "name": "userAddress",
          "type": "address"
        }
      ],
      "name": "getUserTotalWithdrawn",
      "outputs": [
        {
          "internalType": "uint256",
          "name": "",
          "type": "uint256"
        }
      ],
      "stateMutability": "view",
      "type": "function",
      "constant": true
    }
  ],
  "bytecode": "0x60806040523480156200001157600080fd5b506040516200305938038062003059833981810160405281019062000037919062000129565b336000806101000a81548173ffffffffffffffffffffffffffffffffffffffff021916908373ffffffffffffffffffffffffffffffffffffffff16021790555080600260006101000a81548173ffffffffffffffffffffffffffffffffffffffff021916908373ffffffffffffffffffffffffffffffffffffffff160217905550506200015b565b600080fd5b600073ffffffffffffffffffffffffffffffffffffffff82169050919050565b6000620000f182620000c4565b9050919050565b6200010381620000e4565b81146200010f57600080fd5b50565b6000815190506200012381620000f8565b92915050565b600060208284031215620001425762000141620000bf565b5b6000620001528482850162000112565b91505092915050565b612eee806200016b6000396000f3fe6080604052600436106101855760003560e01c80638da5cb5b116100d1578063c0806b031161008a578063e85abe0911610064578063e85abe09146105d1578063f2fde38b1461060e578063fb4cb32b14610637578063fdb5a03e146106745761018c565b8063c0806b0314610518578063c8a22eb414610557578063d7ffca91146105945761018c565b80638da5cb5b146103f45780639f8a13d71461041f578063a8aeb6c21461045c578063ab8a3c6b14610499578063b9b8c246146104c4578063bff1f9e1146104ed5761018c565b80633ccfd60b1161013e5780635216aeec116101185780635216aeec1461033657806379ba5097146103615780637d8820971461038c5780637e3abeea146103b75761018c565b80633ccfd60b146102c957806344038f90146102e05780634b3197131461030b5761018c565b806301c234a814610191578063040a772e146101bc578063153ab9df146101f957806318e1fbfc1461023657806332bc298c1461026157806336144c9a1461028c5761018c565b3661018c57005b600080fd5b34801561019d57600080fd5b506101a661068b565b6040516101b39190612505565b60405180910390f35b3480156101c857600080fd5b506101e360048036038101906101de9190612583565b610691565b6040516101f09190612505565b60405180910390f35b34801561020557600080fd5b50610220600480360381019061021b9190612583565b610a2e565b60405161022d9190612505565b60405180910390f35b34801561024257600080fd5b5061024b610a5a565b6040516102589190612505565b60405180910390f35b34801561026d57600080fd5b50610276610a5f565b6040516102839190612505565b60405180910390f35b34801561029857600080fd5b506102b360048036038101906102ae9190612583565b610a66565b6040516102c091906125bf565b60405180910390f35b3480156102d557600080fd5b506102de610ad2565b005b3480156102ec57600080fd5b506102f5611109565b6040516103029190612505565b60405180910390f35b34801561031757600080fd5b5061032061110e565b60405161032d9190612505565b60405180910390f35b34801561034257600080fd5b5061034b611114565b6040516103589190612505565b60405180910390f35b34801561036d57600080fd5b5061037661111a565b60405161038391906125bf565b60405180910390f35b34801561039857600080fd5b506103a16112f1565b6040516103ae9190612505565b60405180910390f35b3480156103c357600080fd5b506103de60048036038101906103d99190612583565b6112f7565b6040516103eb9190612505565b60405180910390f35b34801561040057600080fd5b506104096113ac565b60405161041691906125fb565b60405180910390f35b34801561042b57600080fd5b5061044660048036038101906104419190612583565b6113d0565b6040516104539190612631565b60405180910390f35b34801561046857600080fd5b50610483600480360381019061047e9190612583565b6114d9565b6040516104909190612505565b60405180910390f35b3480156104a557600080fd5b506104ae611528565b6040516104bb9190612505565b60405180910390f35b3480156104d057600080fd5b506104eb60048036038101906104e69190612678565b61152d565b005b3480156104f957600080fd5b50610502611a7d565b60405161050f9190612505565b60405180910390f35b34801561052457600080fd5b5061053f600480360381019061053a9190612678565b611a83565b60405161054e939291906126b8565b60405180910390f35b34801561056357600080fd5b5061057e60048036038101906105799190612583565b611b50565b60405161058b9190612505565b60405180910390f35b3480156105a057600080fd5b506105bb60048036038101906105b69190612583565b611b57565b6040516105c89190612505565b60405180910390f35b3480156105dd57600080fd5b506105f860048036038101906105f39190612583565b611ba3565b6040516106059190612505565b60405180910390f35b34801561061a57600080fd5b506106356004803603810190610630919061271b565b611bef565b005b34801561064357600080fd5b5061065e60048036038101906106599190612583565b611cf8565b60405161066b9190612505565b60405180910390f35b34801561068057600080fd5b50610689611dad565b005b6103e881565b600080600760008473ffffffffffffffffffffffffffffffffffffffff1673ffffffffffffffffffffffffffffffffffffffff168152602001908152602001600020905060008060005b8360000180549050811015610a2257610739606461072b61016d87600001858154811061070b5761070a612748565b5b90600052602060002090600302016000015461231390919063ffffffff16565b61238d90919063ffffffff16565b84600001828154811061074f5761074e612748565b5b9060005260206000209060030201600101541015610a0f57836001015484600001828154811061078257610781612748565b5b9060005260206000209060030201600201541115610850576108496201518061083b6107de8760000185815481106107bd576107bc612748565b5b906000526020600020906003020160020154426123eb90919063ffffffff16565b61082d6103e861081f600f8b60000189815481106107ff576107fe612748565b5b90600052602060002090600302016000015461231390919063ffffffff16565b61238d90919063ffffffff16565b61231390919063ffffffff16565b61238d90919063ffffffff16565b91506108df565b6108dc620151806108ce6108718760010154426123eb90919063ffffffff16565b6108c06103e86108b2600f8b600001898154811061089257610891612748565b5b90600052602060002090600302016000015461231390919063ffffffff16565b61238d90919063ffffffff16565b61231390919063ffffffff16565b61238d90919063ffffffff16565b91505b61092e606461092061016d876000018581548110610900576108ff612748565b5b90600052602060002090600302016000015461231390919063ffffffff16565b61238d90919063ffffffff16565b6109688386600001848154811061094857610947612748565b5b90600052602060002090600302016001015461244a90919063ffffffff16565b11156109f9576109f684600001828154811061098757610986612748565b5b9060005260206000209060030201600101546109e860646109da61016d8960000187815481106109ba576109b9612748565b5b90600052602060002090600302016000015461231390919063ffffffff16565b61238d90919063ffffffff16565b6123eb90919063ffffffff16565b91505b610a0c828461244a90919063ffffffff16565b92505b8080610a1a906127a6565b9150506106db565b50819350505050919050565b6000610a53610a3c83610691565b610a4584611ba3565b61244a90919063ffffffff16565b9050919050565b600090565b6201518081565b6000600760008373ffffffffffffffffffffffffffffffffffffffff1673ffffffffffffffffffffffffffffffffffffffff16815260200190815260200160002060030160009054906101000a900473ffffffffffffffffffffffffffffffffffffffff169050919050565b6000600760003373ffffffffffffffffffffffffffffffffffffffff1673ffffffffffffffffffffffffffffffffffffffff168152602001908152602001600020905060008060005b8360000180549050811015610ec757610b796064610b6b61016d876000018581548110610b4b57610b4a612748565b5b90600052602060002090600302016000015461231390919063ffffffff16565b61238d90919063ffffffff16565b846000018281548110610b8f57610b8e612748565b5b9060005260206000209060030201600101541015610eb4578360010154846000018281548110610bc257610bc1612748565b5b9060005260206000209060030201600201541115610c9057610c8962015180610c7b610c1e876000018581548110610bfd57610bfc612748565b5b906000526020600020906003020160020154426123eb90919063ffffffff16565b610c6d6103e8610c5f600f8b6000018981548110610c3f57610c3e612748565b5b90600052602060002090600302016000015461231390919063ffffffff16565b61238d90919063ffffffff16565b61231390919063ffffffff16565b61238d90919063ffffffff16565b9150610d1f565b610d1c62015180610d0e610cb18760010154426123eb90919063ffffffff16565b610d006103e8610cf2600f8b6000018981548110610cd257610cd1612748565b5b90600052602060002090600302016000015461231390919063ffffffff16565b61238d90919063ffffffff16565b61231390919063ffffffff16565b61238d90919063ffffffff16565b91505b610d6e6064610d6061016d876000018581548110610d4057610d3f612748565b5b90600052602060002090600302016000015461231390919063ffffffff16565b61238d90919063ffffffff16565b610da883866000018481548110610d8857610d87612748565b5b90600052602060002090600302016001015461244a90919063ffffffff16565b1115610e3957610e36846000018281548110610dc757610dc6612748565b5b906000526020600020906003020160010154610e286064610e1a61016d896000018781548110610dfa57610df9612748565b5b90600052602060002090600302016000015461231390919063ffffffff16565b61238d90919063ffffffff16565b6123eb90919063ffffffff16565b91505b610e7382856000018381548110610e5357610e52612748565b5b90600052602060002090600302016001015461244a90919063ffffffff16565b846000018281548110610e8957610e88612748565b5b906000526020600020906003020160010181905550610eb1828461244a90919063ffffffff16565b92505b8080610ebf906127a6565b915050610b1b565b506000610ed333611ba3565b90506000811115610efe57610ef1818461244a90919063ffffffff16565b9250600084600201819055505b60008311610f41576040517f08c379a0000000000000000000000000000000000000000000000000000000008152600401610f389061284b565b60405180910390fd5b6000600260009054906101000a900473ffffffffffffffffffffffffffffffffffffffff1673ffffffffffffffffffffffffffffffffffffffff166370a08231306040518263ffffffff1660e01b8152600401610f9e91906125bf565b6020604051808303816000875af1158015610fbd573d6000803e3d6000fd5b505050506040513d601f19601f82011682018060405250810190610fe19190612880565b905083811015610fef578093505b428560010181905550600260009054906101000a900473ffffffffffffffffffffffffffffffffffffffff1673ffffffffffffffffffffffffffffffffffffffff1663a9059cbb33866040518363ffffffff1660e01b81526004016110559291906128ad565b6020604051808303816000875af1158015611074573d6000803e3d6000fd5b505050506040513d601f19601f820116820180604052508101906110989190612902565b506110ae8460055461244a90919063ffffffff16565b6005819055503373ffffffffffffffffffffffffffffffffffffffff167f7084f5476618d8e60b11ef0d7d3f06914655adb8793e28ff7f018d4c76d505d5856040516110fa9190612505565b60405180910390a25050505050565b609681565b60055481565b60045481565b6000600160009054906101000a900473ffffffffffffffffffffffffffffffffffffffff1673ffffffffffffffffffffffffffffffffffffffff163373ffffffffffffffffffffffffffffffffffffffff16146111ac576040517f08c379a00000000000000000000000000000000000000000000000000000000081526004016111a39061297b565b60405180910390fd5b7f8be0079c531659141344cd1fd0a4f28419497f9722a3daafe3b4186f6b6457e060008054906101000a900473ffffffffffffffffffffffffffffffffffffffff16600160009054906101000a900473ffffffffffffffffffffffffffffffffffffffff1660405161121f9291906129fa565b60405180910390a1600160009054906101000a900473ffffffffffffffffffffffffffffffffffffffff166000806101000a81548173ffffffffffffffffffffffffffffffffffffffff021916908373ffffffffffffffffffffffffffffffffffffffff1602179055506000600160006101000a81548173ffffffffffffffffffffffffffffffffffffffff021916908373ffffffffffffffffffffffffffffffffffffffff16021790555060008054906101000a900473ffffffffffffffffffffffffffffffffffffffff16905090565b60065481565b600080600760008473ffffffffffffffffffffffffffffffffffffffff1673ffffffffffffffffffffffffffffffffffffffff1681526020019081526020016000209050600080600090505b82600001805490508110156113a15761138c83600001828154811061136b5761136a612748565b5b9060005260206000209060030201600001548361244a90919063ffffffff16565b91508080611399906127a6565b915050611343565b508092505050919050565b60008054906101000a900473ffffffffffffffffffffffffffffffffffffffff1681565b600080600760008473ffffffffffffffffffffffffffffffffffffffff1673ffffffffffffffffffffffffffffffffffffffff16815260200190815260200160002090506000816000018054905011156114d257611486606461147861016d84600001600186600001805490506114479190612a23565b8154811061145857611457612748565b5b90600052602060002090600302016000015461231390919063ffffffff16565b61238d90919063ffffffff16565b816000016001836000018054905061149e9190612a23565b815481106114af576114ae612748565b5b90600052602060002090600302016001015410156114d15760019150506114d4565b5b505b919050565b6000600760008373ffffffffffffffffffffffffffffffffffffffff1673ffffffffffffffffffffffffffffffffffffffff168152602001908152602001600020600001805490509050919050565b600f81565b600260009054906101000a900473ffffffffffffffffffffffffffffffffffffffff1673ffffffffffffffffffffffffffffffffffffffff166323b872dd3330846040518463ffffffff1660e01b815260040161158c93929190612a57565b6020604051808303816000875af11580156115ab573d6000803e3d6000fd5b505050506040513d601f19601f820116820180604052508101906115cf9190612902565b506000600760003373ffffffffffffffffffffffffffffffffffffffff1673ffffffffffffffffffffffffffffffffffffffff1681526020019081526020016000209050600073ffffffffffffffffffffffffffffffffffffffff168160030160009054906101000a900473ffffffffffffffffffffffffffffffffffffffff1673ffffffffffffffffffffffffffffffffffffffff161480156116b857506000600760008573ffffffffffffffffffffffffffffffffffffffff1673ffffffffffffffffffffffffffffffffffffffff16815260200190815260200160002060000180549050115b80156116f057503373ffffffffffffffffffffffffffffffffffffffff168373ffffffffffffffffffffffffffffffffffffffff1614155b1561173957828160030160006101000a81548173ffffffffffffffffffffffffffffffffffffffff021916908373ffffffffffffffffffffffffffffffffffffffff1602179055505b600073ffffffffffffffffffffffffffffffffffffffff168160030160009054906101000a900473ffffffffffffffffffffffffffffffffffffffff1673ffffffffffffffffffffffffffffffffffffffff161461191e5760008160030160009054906101000a900473ffffffffffffffffffffffffffffffffffffffff169050600073ffffffffffffffffffffffffffffffffffffffff168173ffffffffffffffffffffffffffffffffffffffff161461191c5760006118186103e861180a60968761231390919063ffffffff16565b61238d90919063ffffffff16565b905061186f81600760008573ffffffffffffffffffffffffffffffffffffffff1673ffffffffffffffffffffffffffffffffffffffff1681526020019081526020016000206002015461244a90919063ffffffff16565b600760008473ffffffffffffffffffffffffffffffffffffffff1673ffffffffffffffffffffffffffffffffffffffff168152602001908152602001600020600201819055503373ffffffffffffffffffffffffffffffffffffffff168273ffffffffffffffffffffffffffffffffffffffff167f328838ddfc48ad5ae5531b1ad95dfb22b42ff1866853e474375ffef2c63d8e50836040516119129190612505565b60405180910390a3505b505b600081600001805490500361198a5742816001018190555061194c600160035461244a90919063ffffffff16565b6003819055507f9fd565cd14c3c391679eb0cad12a14dcf7534e9d3462bcb9b67a098a9bbbc24a3360405161198191906125bf565b60405180910390a15b806000016040518060600160405280848152602001600081526020014281525090806001815401808255809150506001900390600052602060002090600302016000909190919091506000820151816000015560208201518160010155604082015181600201555050611a088260045461244a90919063ffffffff16565b600481905550611a24600160065461244a90919063ffffffff16565b6006819055503373ffffffffffffffffffffffffffffffffffffffff167f2cb77763bc1e8490c1a904905c4d74b4269919aca114464f4bb4d911e60de36483604051611a709190612505565b60405180910390a2505050565b60035481565b600080600080600760008773ffffffffffffffffffffffffffffffffffffffff1673ffffffffffffffffffffffffffffffffffffffff1681526020019081526020016000209050806000018581548110611ae057611adf612748565b5b906000526020600020906003020160000154816000018681548110611b0857611b07612748565b5b906000526020600020906003020160010154826000018781548110611b3057611b2f612748565b5b906000526020600020906003020160020154935093509350509250925092565b6000919050565b6000600760008373ffffffffffffffffffffffffffffffffffffffff1673ffffffffffffffffffffffffffffffffffffffff168152602001908152602001600020600101549050919050565b6000600760008373ffffffffffffffffffffffffffffffffffffffff1673ffffffffffffffffffffffffffffffffffffffff168152602001908152602001600020600201549050919050565b60008054906101000a900473ffffffffffffffffffffffffffffffffffffffff1673ffffffffffffffffffffffffffffffffffffffff163373ffffffffffffffffffffffffffffffffffffffff1614611c7d576040517f08c379a0000000000000000000000000000000000000000000000000000000008152600401611c7490612ada565b60405180910390fd5b600073ffffffffffffffffffffffffffffffffffffffff168173ffffffffffffffffffffffffffffffffffffffff1603611cec576040517f08c379a0000000000000000000000000000000000000000000000000000000008152600401611ce390612b46565b60405180910390fd5b611cf5816124a8565b50565b600080600760008473ffffffffffffffffffffffffffffffffffffffff1673ffffffffffffffffffffffffffffffffffffffff1681526020019081526020016000209050600080600090505b8260000180549050811015611da257611d8d836000018281548110611d6c57611d6b612748565b5b9060005260206000209060030201600101548361244a90919063ffffffff16565b91508080611d9a906127a6565b915050611d44565b508092505050919050565b6000611db833610691565b11611df8576040517f08c379a0000000000000000000000000000000000000000000000000000000008152600401611def90612bb2565b60405180910390fd5b6000600760003373ffffffffffffffffffffffffffffffffffffffff1673ffffffffffffffffffffffffffffffffffffffff16815260200190815260200160002090506000611e4633610691565b905060008083600001604051806060016040528085815260200160008152602001428152509080600181540180825580915050600190039060005260206000209060030201600090919091909150600082015181600001556020820151816001015560408201518160020155505060005b846000018054905081101561226357611f156064611f0761016d886000018581548110611ee757611ee6612748565b5b90600052602060002090600302016000015461231390919063ffffffff16565b61238d90919063ffffffff16565b856000018281548110611f2b57611f2a612748565b5b9060005260206000209060030201600101541015612250578460010154856000018281548110611f5e57611f5d612748565b5b906000526020600020906003020160020154111561202c5761202562015180612017611fba886000018581548110611f9957611f98612748565b5b906000526020600020906003020160020154426123eb90919063ffffffff16565b6120096103e8611ffb600f8c6000018981548110611fdb57611fda612748565b5b90600052602060002090600302016000015461231390919063ffffffff16565b61238d90919063ffffffff16565b61231390919063ffffffff16565b61238d90919063ffffffff16565b91506120bb565b6120b8620151806120aa61204d8860010154426123eb90919063ffffffff16565b61209c6103e861208e600f8c600001898154811061206e5761206d612748565b5b90600052602060002090600302016000015461231390919063ffffffff16565b61238d90919063ffffffff16565b61231390919063ffffffff16565b61238d90919063ffffffff16565b91505b61210a60646120fc61016d8860000185815481106120dc576120db612748565b5b90600052602060002090600302016000015461231390919063ffffffff16565b61238d90919063ffffffff16565b6121448387600001848154811061212457612123612748565b5b90600052602060002090600302016001015461244a90919063ffffffff16565b11156121d5576121d285600001828154811061216357612162612748565b5b9060005260206000209060030201600101546121c460646121b661016d8a600001878154811061219657612195612748565b5b90600052602060002090600302016000015461231390919063ffffffff16565b61238d90919063ffffffff16565b6123eb90919063ffffffff16565b91505b61220f828660000183815481106121ef576121ee612748565b5b90600052602060002090600302016001015461244a90919063ffffffff16565b85600001828154811061222557612224612748565b5b90600052602060002090600302016001018190555061224d828461244a90919063ffffffff16565b92505b808061225b906127a6565b915050611eb7565b504284600101819055506122828360045461244a90919063ffffffff16565b60048190555061229e600160065461244a90919063ffffffff16565b6006819055506122b98260055461244a90919063ffffffff16565b6005819055503373ffffffffffffffffffffffffffffffffffffffff167f5d511c2070e5a2dbcc6fbfbb3fd6704a11ab5fa74b793b81aacece2c7cc29405846040516123059190612505565b60405180910390a250505050565b60008083036123255760009050612387565b600082846123339190612bd2565b90508284826123429190612c5b565b14612382576040517f08c379a000000000000000000000000000000000000000000000000000000000815260040161237990612cfe565b60405180910390fd5b809150505b92915050565b60008082116123d1576040517f08c379a00000000000000000000000000000000000000000000000000000000081526004016123c890612d6a565b60405180910390fd5b600082846123df9190612c5b565b90508091505092915050565b600082821115612430576040517f08c379a000000000000000000000000000000000000000000000000000000000815260040161242790612dd6565b60405180910390fd5b6000828461243e9190612a23565b90508091505092915050565b60008082846124599190612df6565b90508381101561249e576040517f08c379a000000000000000000000000000000000000000000000000000000000815260040161249590612e98565b60405180910390fd5b8091505092915050565b80600160006101000a81548173ffffffffffffffffffffffffffffffffffffffff021916908373ffffffffffffffffffffffffffffffffffffffff16021790555050565b6000819050919050565b6124ff816124ec565b82525050565b600060208201905061251a60008301846124f6565b92915050565b600080fd5b600073ffffffffffffffffffffffffffffffffffffffff82169050919050565b600061255082612525565b9050919050565b61256081612545565b811461256b57600080fd5b50565b60008135905061257d81612557565b92915050565b60006020828403121561259957612598612520565b5b60006125a78482850161256e565b91505092915050565b6125b981612545565b82525050565b60006020820190506125d460008301846125b0565b92915050565b60006125e582612525565b9050919050565b6125f5816125da565b82525050565b600060208201905061261060008301846125ec565b92915050565b60008115159050919050565b61262b81612616565b82525050565b60006020820190506126466000830184612622565b92915050565b612655816124ec565b811461266057600080fd5b50565b6000813590506126728161264c565b92915050565b6000806040838503121561268f5761268e612520565b5b600061269d8582860161256e565b92505060206126ae85828601612663565b9150509250929050565b60006060820190506126cd60008301866124f6565b6126da60208301856124f6565b6126e760408301846124f6565b949350505050565b6126f8816125da565b811461270357600080fd5b50565b600081359050612715816126ef565b92915050565b60006020828403121561273157612730612520565b5b600061273f84828501612706565b91505092915050565b7f4e487b7100000000000000000000000000000000000000000000000000000000600052603260045260246000fd5b7f4e487b7100000000000000000000000000000000000000000000000000000000600052601160045260246000fd5b60006127b1826124ec565b91507fffffffffffffffffffffffffffffffffffffffffffffffffffffffffffffffff82036127e3576127e2612777565b5b600182019050919050565b600082825260208201905092915050565b7f5573657220686173206e6f206469766964656e64730000000000000000000000600082015250565b60006128356015836127ee565b9150612840826127ff565b602082019050919050565b6000602082019050818103600083015261286481612828565b9050919050565b60008151905061287a8161264c565b92915050565b60006020828403121561289657612895612520565b5b60006128a48482850161286b565b91505092915050565b60006040820190506128c260008301856125b0565b6128cf60208301846124f6565b9392505050565b6128df81612616565b81146128ea57600080fd5b50565b6000815190506128fc816128d6565b92915050565b60006020828403121561291857612917612520565b5b6000612926848285016128ed565b91505092915050565b7f496e76616c6964206e6577206f776e6572000000000000000000000000000000600082015250565b60006129656011836127ee565b91506129708261292f565b602082019050919050565b6000602082019050818103600083015261299481612958565b9050919050565b6000819050919050565b60006129c06129bb6129b684612525565b61299b565b612525565b9050919050565b60006129d2826129a5565b9050919050565b60006129e4826129c7565b9050919050565b6129f4816129d9565b82525050565b6000604082019050612a0f60008301856129eb565b612a1c60208301846129eb565b9392505050565b6000612a2e826124ec565b9150612a39836124ec565b925082821015612a4c57612a4b612777565b5b828203905092915050565b6000606082019050612a6c60008301866125b0565b612a7960208301856125b0565b612a8660408301846124f6565b949350505050565b7f4e6f74204f776e65720000000000000000000000000000000000000000000000600082015250565b6000612ac46009836127ee565b9150612acf82612a8e565b602082019050919050565b60006020820190508181036000830152612af381612ab7565b9050919050565b7f496e76616c696420416464726573730000000000000000000000000000000000600082015250565b6000612b30600f836127ee565b9150612b3b82612afa565b602082019050919050565b60006020820190508181036000830152612b5f81612b23565b9050919050565b7f4e6f7420486f6c64657200000000000000000000000000000000000000000000600082015250565b6000612b9c600a836127ee565b9150612ba782612b66565b602082019050919050565b60006020820190508181036000830152612bcb81612b8f565b9050919050565b6000612bdd826124ec565b9150612be8836124ec565b9250817fffffffffffffffffffffffffffffffffffffffffffffffffffffffffffffffff0483118215151615612c2157612c20612777565b5b828202905092915050565b7f4e487b7100000000000000000000000000000000000000000000000000000000600052601260045260246000fd5b6000612c66826124ec565b9150612c71836124ec565b925082612c8157612c80612c2c565b5b828204905092915050565b7f536166654d6174683a206d756c7469706c69636174696f6e206f766572666c6f60008201527f7700000000000000000000000000000000000000000000000000000000000000602082015250565b6000612ce86021836127ee565b9150612cf382612c8c565b604082019050919050565b60006020820190508181036000830152612d1781612cdb565b9050919050565b7f536166654d6174683a206469766973696f6e206279207a65726f000000000000600082015250565b6000612d54601a836127ee565b9150612d5f82612d1e565b602082019050919050565b60006020820190508181036000830152612d8381612d47565b9050919050565b7f536166654d6174683a207375627472616374696f6e206f766572666c6f770000600082015250565b6000612dc0601e836127ee565b9150612dcb82612d8a565b602082019050919050565b60006020820190508181036000830152612def81612db3565b9050919050565b6000612e01826124ec565b9150612e0c836124ec565b9250827fffffffffffffffffffffffffffffffffffffffffffffffffffffffffffffffff03821115612e4157612e40612777565b5b828201905092915050565b7f536166654d6174683a206164646974696f6e206f766572666c6f770000000000600082015250565b6000612e82601b836127ee565b9150612e8d82612e4c565b602082019050919050565b60006020820190508181036000830152612eb181612e75565b905091905056fea26469706673582212209e52acbeb15cb5b84c9d90f4e7271feae94b1855710b0c930e3a79747be9acc164736f6c634300080e0033",
  "immutableReferences": {},
  "source": "// SPDX-License-Identifier: UNLICENSED\r\npragma solidity ^0.8.0;\r\n/**\r\n *Submitted for verification at BscScan.com on 2022-05-10\r\n*/\r\n\r\n\r\nlibrary SafeMath {\r\n\r\n    function add(uint256 a, uint256 b) internal pure returns (uint256) {\r\n        uint256 c = a + b;\r\n        require(c >= a, \"SafeMath: addition overflow\");\r\n\r\n        return c;\r\n    }\r\n\r\n    function sub(uint256 a, uint256 b) internal pure returns (uint256) {\r\n        require(b <= a, \"SafeMath: subtraction overflow\");\r\n        uint256 c = a - b;\r\n\r\n        return c;\r\n    }\r\n\r\n    function mul(uint256 a, uint256 b) internal pure returns (uint256) {\r\n        if (a == 0) {\r\n            return 0;\r\n        }\r\n\r\n        uint256 c = a * b;\r\n        require(c / a == b, \"SafeMath: multiplication overflow\");\r\n\r\n        return c;\r\n    }\r\n\r\n    function div(uint256 a, uint256 b) internal pure returns (uint256) {\r\n        require(b > 0, \"SafeMath: division by zero\");\r\n        uint256 c = a / b;\r\n\r\n        return c;\r\n    }\r\n}\r\n\r\nabstract contract ERC20Interface {\r\n    function totalSupply() \r\n\t\tpublic \r\n\t\tvirtual \r\n\t\treturns (uint256);\r\n\r\n    function balanceOf(address tokenOwner) \r\n\t\tpublic \r\n\t\tvirtual \r\n\t\treturns (uint256 balance);\r\n    \r\n\tfunction allowance\r\n\t\t(address tokenOwner, address spender) \r\n\t\tpublic \r\n\t\tvirtual \r\n\t\treturns (uint256 remaining);\r\n\r\n    function transfer(address to, uint256 tokens) public virtual\r\n\t\treturns (bool success);\r\n    \r\n\tfunction approve(address spender, uint256 tokens) public virtual\r\n\t\treturns (bool success);\r\n\r\n    function transferFrom \r\n\t\t(address from, address to, uint256 tokens) public virtual\r\n\t\treturns (bool success);\r\n\r\n\r\n    event Transfer(address indexed from, address indexed to, uint256 tokens);\r\n    event Approval(address indexed tokenOwner, address indexed spender, uint256 tokens);\r\n}\r\n\r\ncontract Ownable {\r\n\r\n  // Owner of the contract\r\n  address payable public owner;\r\n  address payable internal _newOwner;\r\n\r\n    constructor() {\r\n        owner = payable(address(msg.sender));\r\n    }\r\n\r\n  /**\r\n  * @dev Event to show ownership has been transferred\r\n  * @param previousOwner representing the address of the previous owner\r\n  * @param newOwner representing the address of the new owner\r\n  */\r\n  event OwnershipTransferred(address previousOwner, address newOwner);\r\n\r\n\r\n  /**\r\n   * @dev Sets a new owner address\r\n   */\r\n  function setOwner(address payable newOwner) internal {\r\n    _newOwner = newOwner;\r\n  }\r\n\r\n  /**\r\n  * @dev Throws if called by any account other than the owner.\r\n  */\r\n  modifier onlyOwner() {\r\n    require(msg.sender == owner, \"Not Owner\");\r\n    _;\r\n  }\r\n\r\n  /**\r\n   * @dev Allows the current owner to transfer control of the contract to a newOwner.\r\n   * @param newOwner The address to transfer ownership to.\r\n   */\r\n  function transferOwnership(address payable newOwner) public onlyOwner {\r\n    require(newOwner != address(0), \"Invalid Address\");\r\n    setOwner(newOwner);\r\n  }\r\n\r\n  //this flow is to prevent transferring ownership to wrong wallet by mistake\r\n  function acceptOwnership() public returns (address){\r\n      require(msg.sender == _newOwner,\"Invalid new owner\");\r\n      emit OwnershipTransferred(owner, _newOwner);\r\n      owner = _newOwner;\r\n      _newOwner = payable(address(0));\r\n      return owner;\r\n  }\r\n}\r\n\r\ncontract VictoryCoinStaking is Ownable {\r\n    using SafeMath for uint256;\r\n\r\n    uint256 constant public PERCENTS_DIVIDER = 1000;\r\n\tuint256 constant public DAILY_ROI = 15;\r\n    uint256 constant public REFERRAL_PERCENTS = 150;\r\n    uint256 constant public TIME_STEP = 1 days;\r\n\t\r\n\tERC20Interface VictoryCoin;\r\n\r\n    uint256 public totalUsers;\r\n    uint256 public totalInvested;\r\n    uint256 public totalWithdrawn;\r\n    uint256 public totalDeposits;\r\n\r\n    struct Deposit {\r\n        uint256 amount;\r\n        uint256 withdrawn;\r\n        uint256 start;\r\n    }\r\n\r\n    struct User {\r\n        Deposit[] deposits;\r\n        uint256 checkpoint;\r\n        uint256 bonus;\r\n        address referrer;\r\n    }\r\n\r\n    mapping (address => User) internal users;\r\n\r\n    modifier onlyhodler() {\r\n        require(getUserDividends(msg.sender) > 0, \"Not Holder\");\r\n        _;\r\n    }\r\n\r\n    event Newbie(address user);\r\n    event NewDeposit(address indexed user, uint256 amount);\r\n    event Withdrawn(address indexed user, uint256 amount);\r\n    event onReinvestment(address indexed user, uint256 reinvestAmount);\r\n    event RefBonus(address indexed referrer, address indexed referral, uint256 amount);\r\n\r\n    constructor(address _VictoryCoin) {\r\n        VictoryCoin = ERC20Interface(_VictoryCoin);\r\n    }\r\n\r\n    receive() external payable {}\r\n\r\n    function invest(address referrer, uint256 amount) public {\r\n\t\tVictoryCoin.transferFrom(msg.sender, address(this), amount);\r\n\t\t\r\n        User storage user = users[msg.sender];\r\n\r\n        if (user.referrer == address(0) && users[referrer].deposits.length > 0 && referrer != msg.sender) {\r\n            user.referrer = referrer;\r\n        }\r\n\r\n        if (user.referrer != address(0)) {\r\n            address upline = user.referrer;\r\n\t\t\tif (upline != address(0)) {\r\n\t\t\t\tuint256 _amount = amount.mul(REFERRAL_PERCENTS).div(PERCENTS_DIVIDER);\r\n\t\t\t\tusers[upline].bonus = users[upline].bonus.add(_amount);\r\n\t\t\t\temit RefBonus(upline, msg.sender, _amount);\r\n\t\t\t}\r\n        }\r\n\r\n        if (user.deposits.length == 0) {\r\n            user.checkpoint = block.timestamp;\r\n            totalUsers = totalUsers.add(1);\r\n            emit Newbie(msg.sender);\r\n        }\r\n\r\n        user.deposits.push(Deposit(amount, 0, block.timestamp));\r\n\r\n        totalInvested = totalInvested.add(amount);\r\n        totalDeposits = totalDeposits.add(1);\r\n\r\n        emit NewDeposit(msg.sender, amount);\r\n    }\r\n\r\n    function withdraw() public {\r\n        User storage user = users[msg.sender];\r\n\r\n        uint256 totalAmount;\r\n        uint256 dividends;\r\n\r\n        for (uint256 i = 0; i < user.deposits.length; i++) {\r\n            if (user.deposits[i].withdrawn < user.deposits[i].amount.mul(365).div(100)) {\r\n                if (user.deposits[i].start > user.checkpoint) {\r\n                    dividends = (user.deposits[i].amount.mul(DAILY_ROI).div(PERCENTS_DIVIDER))\r\n\t\t\t\t\t\t.mul(block.timestamp.sub(user.deposits[i].start))\r\n\t\t\t\t\t\t.div(TIME_STEP);\r\n                } else {\r\n                    dividends = (user.deposits[i].amount.mul(DAILY_ROI).div(PERCENTS_DIVIDER))\r\n                        .mul(block.timestamp.sub(user.checkpoint))\r\n                        .div(TIME_STEP);\r\n                }\r\n\r\n                if (user.deposits[i].withdrawn.add(dividends) > user.deposits[i].amount.mul(365).div(100)) {\r\n                    dividends = (user.deposits[i].amount.mul(365).div(100)).sub(user.deposits[i].withdrawn);\r\n                }\r\n\r\n                user.deposits[i].withdrawn = user.deposits[i].withdrawn.add(dividends); /// changing of storage data\r\n                totalAmount = totalAmount.add(dividends);\r\n            }\r\n        }\r\n\r\n        uint256 referralBonus = getUserReferralBonus(msg.sender);\r\n        if (referralBonus > 0) {\r\n            totalAmount = totalAmount.add(referralBonus);\r\n            user.bonus = 0;\r\n        }\r\n\r\n        require(totalAmount > 0, \"User has no dividends\");\r\n\r\n        uint256 contractBalance = VictoryCoin.balanceOf(address(this));\r\n        if (contractBalance < totalAmount) {\r\n            totalAmount = contractBalance;\r\n        }\r\n\r\n        user.checkpoint = block.timestamp;\r\n\t\t\r\n\t\tVictoryCoin.transfer(msg.sender, totalAmount);\r\n\r\n        totalWithdrawn = totalWithdrawn.add(totalAmount);\r\n\r\n        emit Withdrawn(msg.sender, totalAmount);\r\n    }\r\n\r\n    function reinvest() onlyhodler() public\r\n    {\r\n        User storage user = users[msg.sender];\r\n        // fetch dividends\r\n        uint256 _dividends = getUserDividends(msg.sender); // retrieve ref. bonus later in the code\r\n        uint256 totalAmount;\r\n        uint256 dividends;\r\n\r\n        user.deposits.push(Deposit(_dividends, 0, block.timestamp));\r\n\r\n        for (uint256 i = 0; i < user.deposits.length; i++) {\r\n            if (user.deposits[i].withdrawn < user.deposits[i].amount.mul(365).div(100)) {\r\n                if (user.deposits[i].start > user.checkpoint) {\r\n                    dividends = (user.deposits[i].amount.mul(DAILY_ROI).div(PERCENTS_DIVIDER))\r\n\t\t\t\t\t\t.mul(block.timestamp.sub(user.deposits[i].start))\r\n\t\t\t\t\t\t.div(TIME_STEP);\r\n                } else {\r\n                    dividends = (user.deposits[i].amount.mul(DAILY_ROI).div(PERCENTS_DIVIDER))\r\n                        .mul(block.timestamp.sub(user.checkpoint))\r\n                        .div(TIME_STEP);\r\n                }\r\n\r\n                if (user.deposits[i].withdrawn.add(dividends) > user.deposits[i].amount.mul(365).div(100)) {\r\n                    dividends = (user.deposits[i].amount.mul(365).div(100)).sub(user.deposits[i].withdrawn);\r\n                }\r\n\r\n                user.deposits[i].withdrawn = user.deposits[i].withdrawn.add(dividends); /// changing of storage data\r\n                totalAmount = totalAmount.add(dividends);\r\n            }\r\n        }\r\n\r\n        user.checkpoint = block.timestamp;\r\n\r\n        totalInvested = totalInvested.add(_dividends);\r\n        totalDeposits = totalDeposits.add(1);\r\n        totalWithdrawn = totalWithdrawn.add(totalAmount);\r\n        // fire event\r\n        emit onReinvestment(msg.sender, _dividends);\r\n    }\r\n\r\n\r\n    function getUserDividends(address userAddress) public view returns (uint256) {\r\n        User storage user = users[userAddress];\r\n\r\n        uint256 totalDividends;\r\n        uint256 dividends;\r\n\r\n        for (uint256 i = 0; i < user.deposits.length; i++) {\r\n\r\n            if (user.deposits[i].withdrawn < user.deposits[i].amount.mul(365).div(100)) {\r\n\r\n                if (user.deposits[i].start > user.checkpoint) {\r\n\r\n                    dividends = (user.deposits[i].amount.mul(DAILY_ROI).div(PERCENTS_DIVIDER))\r\n\t\t\t\t\t\t.mul(block.timestamp.sub(user.deposits[i].start))\r\n\t\t\t\t\t\t.div(TIME_STEP);\r\n\r\n                } else {\r\n\r\n                    dividends = (user.deposits[i].amount.mul(DAILY_ROI).div(PERCENTS_DIVIDER))\r\n\t\t\t\t\t\t.mul(block.timestamp.sub(user.checkpoint))\r\n\t\t\t\t\t\t.div(TIME_STEP);\r\n                }\r\n\r\n                if (user.deposits[i].withdrawn.add(dividends) > user.deposits[i].amount.mul(365).div(100)) {\r\n                    dividends = (user.deposits[i].amount.mul(365).div(100)).sub(user.deposits[i].withdrawn);\r\n                }\r\n\r\n                totalDividends = totalDividends.add(dividends);\r\n            }\r\n        }\r\n\r\n        return totalDividends;\r\n    }\r\n\r\n    function minimumStakeValue() public view returns(uint256) {\r\n        return 0;\r\n    }\r\n\r\n    function getUserReferralBonus(address userAddress) public view returns(uint256) {\r\n        return users[userAddress].bonus;\r\n    }\r\n\r\n    function getUserReferralCount(address referrer) public view returns(uint256) {\r\n        return 0;\r\n    }\r\n\r\n    function getUserReferrer(address userAddress) public view returns(address) {\r\n        return users[userAddress].referrer;\r\n    }\r\n\r\n    function getUserCheckpoint(address userAddress) public view returns(uint256) {\r\n        return users[userAddress].checkpoint;\r\n    }\r\n\r\n    function getUserAvailable(address userAddress) public view returns(uint256) {\r\n        return getUserReferralBonus(userAddress).add(getUserDividends(userAddress));\r\n    }\r\n\r\n    function isActive(address userAddress) public view returns (bool) {\r\n        User storage user = users[userAddress];\r\n\r\n        if (user.deposits.length > 0) {\r\n            if (user.deposits[user.deposits.length-1].withdrawn < user.deposits[user.deposits.length-1].amount.mul(365).div(100)) {\r\n                return true;\r\n            }\r\n        }\r\n    }\r\n\r\n    function getUserDepositInfo(address userAddress, uint256 index) public view returns(uint256, uint256, uint256) {\r\n        User storage user = users[userAddress];\r\n\r\n        return (user.deposits[index].amount, user.deposits[index].withdrawn, user.deposits[index].start);\r\n    }\r\n\r\n    function getUserAmountOfDeposits(address userAddress) public view returns(uint256) {\r\n        return users[userAddress].deposits.length;\r\n    }\r\n\r\n    function getUserTotalDeposits(address userAddress) public view returns(uint256) {\r\n        User storage user = users[userAddress];\r\n\r\n        uint256 amount;\r\n\r\n        for (uint256 i = 0; i < user.deposits.length; i++) {\r\n            amount = amount.add(user.deposits[i].amount);\r\n        }\r\n\r\n        return amount;\r\n    }\r\n\r\n    function getUserTotalWithdrawn(address userAddress) public view returns(uint256) {\r\n        User storage user = users[userAddress];\r\n\r\n        uint256 amount;\r\n\r\n        for (uint256 i = 0; i < user.deposits.length; i++) {\r\n            amount = amount.add(user.deposits[i].withdrawn);\r\n        }\r\n\r\n        return amount;\r\n    }\r\n}",
  "sourcePath": "F:\\Workspace\\Orders\\VictoryCoinStake\\src\\Contract\\contracts\\VictoryCoinStaking.sol",
  "compiler": {
    "name": "solc",
    "version": "0.8.14+commit.80d49f37.Emscripten.clang"
  },
  "schemaVersion": "3.4.7",
  "updatedAt": "2022-06-05T06:23:18.053Z",
  "networkType": "ethereum",
  "devdoc": {
    "kind": "dev",
    "methods": {
      "transferOwnership(address)": {
        "details": "Allows the current owner to transfer control of the contract to a newOwner.",
        "params": {
          "newOwner": "The address to transfer ownership to."
        }
      }
    },
    "version": 1
  },
  "userdoc": {
    "kind": "user",
    "methods": {},
    "version": 1
  }
}