{
  "_format": "hh-sol-artifact-1",
  "contractName": "Staking",
  "sourceName": "contracts/Staking.sol",
  "abi": [
    {
      "inputs": [
        {
          "internalType": "contract ERC20",
          "name": "_token",
          "type": "address"
        }
      ],
      "stateMutability": "nonpayable",
      "type": "constructor"
    },
    {
      "anonymous": false,
      "inputs": [
        {
          "indexed": true,
          "internalType": "address",
          "name": "user",
          "type": "address"
        },
        {
          "indexed": false,
          "internalType": "uint256",
          "name": "amount",
          "type": "uint256"
        }
      ],
      "name": "NewDeposit",
      "type": "event"
    },
    {
      "anonymous": false,
      "inputs": [
        {
          "indexed": false,
          "internalType": "address",
          "name": "user",
          "type": "address"
        }
      ],
      "name": "Newbie",
      "type": "event"
    },
    {
      "anonymous": false,
      "inputs": [
        {
          "indexed": true,
          "internalType": "address",
          "name": "previousOwner",
          "type": "address"
        },
        {
          "indexed": true,
          "internalType": "address",
          "name": "newOwner",
          "type": "address"
        }
      ],
      "name": "OwnershipTransferred",
      "type": "event"
    },
    {
      "anonymous": false,
      "inputs": [
        {
          "indexed": true,
          "internalType": "address",
          "name": "referrer",
          "type": "address"
        },
        {
          "indexed": true,
          "internalType": "address",
          "name": "referral",
          "type": "address"
        },
        {
          "indexed": false,
          "internalType": "uint256",
          "name": "amount",
          "type": "uint256"
        }
      ],
      "name": "RefBonus",
      "type": "event"
    },
    {
      "anonymous": false,
      "inputs": [
        {
          "indexed": true,
          "internalType": "address",
          "name": "user",
          "type": "address"
        },
        {
          "indexed": false,
          "internalType": "uint256",
          "name": "amount",
          "type": "uint256"
        }
      ],
      "name": "Withdrawn",
      "type": "event"
    },
    {
      "anonymous": false,
      "inputs": [
        {
          "indexed": true,
          "internalType": "address",
          "name": "user",
          "type": "address"
        },
        {
          "indexed": false,
          "internalType": "uint256",
          "name": "reinvestAmount",
          "type": "uint256"
        }
      ],
      "name": "onReinvestment",
      "type": "event"
    },
    {
      "inputs": [],
      "name": "DAILY_ROI",
      "outputs": [
        {
          "internalType": "uint256",
          "name": "",
          "type": "uint256"
        }
      ],
      "stateMutability": "view",
      "type": "function"
    },
    {
      "inputs": [],
      "name": "PERCENTS_DIVIDER",
      "outputs": [
        {
          "internalType": "uint256",
          "name": "",
          "type": "uint256"
        }
      ],
      "stateMutability": "view",
      "type": "function"
    },
    {
      "inputs": [],
      "name": "REFERRAL_PERCENTS",
      "outputs": [
        {
          "internalType": "uint256",
          "name": "",
          "type": "uint256"
        }
      ],
      "stateMutability": "view",
      "type": "function"
    },
    {
      "inputs": [],
      "name": "STAKING_PERIOD",
      "outputs": [
        {
          "internalType": "uint256",
          "name": "",
          "type": "uint256"
        }
      ],
      "stateMutability": "view",
      "type": "function"
    },
    {
      "inputs": [],
      "name": "TIME_STEP",
      "outputs": [
        {
          "internalType": "uint256",
          "name": "",
          "type": "uint256"
        }
      ],
      "stateMutability": "view",
      "type": "function"
    },
    {
      "inputs": [],
      "name": "claim",
      "outputs": [],
      "stateMutability": "nonpayable",
      "type": "function"
    },
    {
      "inputs": [],
      "name": "compound",
      "outputs": [],
      "stateMutability": "nonpayable",
      "type": "function"
    },
    {
      "inputs": [
        {
          "internalType": "address",
          "name": "userAddress",
          "type": "address"
        }
      ],
      "name": "getUserAmountOfDeposits",
      "outputs": [
        {
          "internalType": "uint256",
          "name": "",
          "type": "uint256"
        }
      ],
      "stateMutability": "view",
      "type": "function"
    },
    {
      "inputs": [
        {
          "internalType": "address",
          "name": "userAddress",
          "type": "address"
        }
      ],
      "name": "getUserAvailable",
      "outputs": [
        {
          "internalType": "uint256",
          "name": "",
          "type": "uint256"
        }
      ],
      "stateMutability": "view",
      "type": "function"
    },
    {
      "inputs": [
        {
          "internalType": "address",
          "name": "userAddress",
          "type": "address"
        }
      ],
      "name": "getUserCheckpoint",
      "outputs": [
        {
          "internalType": "uint256",
          "name": "",
          "type": "uint256"
        }
      ],
      "stateMutability": "view",
      "type": "function"
    },
    {
      "inputs": [
        {
          "internalType": "address",
          "name": "userAddress",
          "type": "address"
        },
        {
          "internalType": "uint256",
          "name": "index",
          "type": "uint256"
        }
      ],
      "name": "getUserDepositInfo",
      "outputs": [
        {
          "internalType": "uint256",
          "name": "",
          "type": "uint256"
        },
        {
          "internalType": "uint256",
          "name": "",
          "type": "uint256"
        },
        {
          "internalType": "uint256",
          "name": "",
          "type": "uint256"
        },
        {
          "internalType": "uint256",
          "name": "",
          "type": "uint256"
        },
        {
          "internalType": "bool",
          "name": "",
          "type": "bool"
        }
      ],
      "stateMutability": "view",
      "type": "function"
    },
    {
      "inputs": [
        {
          "internalType": "address",
          "name": "userAddress",
          "type": "address"
        }
      ],
      "name": "getUserDividends",
      "outputs": [
        {
          "internalType": "uint256",
          "name": "",
          "type": "uint256"
        }
      ],
      "stateMutability": "view",
      "type": "function"
    },
    {
      "inputs": [
        {
          "internalType": "address",
          "name": "userAddress",
          "type": "address"
        }
      ],
      "name": "getUserReferralBonus",
      "outputs": [
        {
          "internalType": "uint256",
          "name": "",
          "type": "uint256"
        }
      ],
      "stateMutability": "view",
      "type": "function"
    },
    {
      "inputs": [
        {
          "internalType": "address",
          "name": "userAddress",
          "type": "address"
        }
      ],
      "name": "getUserReferralCount",
      "outputs": [
        {
          "internalType": "uint256",
          "name": "",
          "type": "uint256"
        }
      ],
      "stateMutability": "view",
      "type": "function"
    },
    {
      "inputs": [
        {
          "internalType": "address",
          "name": "userAddress",
          "type": "address"
        }
      ],
      "name": "getUserReferrer",
      "outputs": [
        {
          "internalType": "address",
          "name": "",
          "type": "address"
        }
      ],
      "stateMutability": "view",
      "type": "function"
    },
    {
      "inputs": [
        {
          "internalType": "address",
          "name": "userAddress",
          "type": "address"
        }
      ],
      "name": "getUserTotalDeposits",
      "outputs": [
        {
          "internalType": "uint256",
          "name": "",
          "type": "uint256"
        }
      ],
      "stateMutability": "view",
      "type": "function"
    },
    {
      "inputs": [
        {
          "internalType": "address",
          "name": "userAddress",
          "type": "address"
        }
      ],
      "name": "getUserTotalWithdrawn",
      "outputs": [
        {
          "internalType": "uint256",
          "name": "",
          "type": "uint256"
        }
      ],
      "stateMutability": "view",
      "type": "function"
    },
    {
      "inputs": [],
      "name": "minimumStakeValue",
      "outputs": [
        {
          "internalType": "uint256",
          "name": "",
          "type": "uint256"
        }
      ],
      "stateMutability": "view",
      "type": "function"
    },
    {
      "inputs": [],
      "name": "owner",
      "outputs": [
        {
          "internalType": "address",
          "name": "",
          "type": "address"
        }
      ],
      "stateMutability": "view",
      "type": "function"
    },
    {
      "inputs": [],
      "name": "renounceOwnership",
      "outputs": [],
      "stateMutability": "nonpayable",
      "type": "function"
    },
    {
      "inputs": [
        {
          "internalType": "uint256",
          "name": "_minimumStakeValue",
          "type": "uint256"
        }
      ],
      "name": "setMinimumStakeValue",
      "outputs": [],
      "stateMutability": "nonpayable",
      "type": "function"
    },
    {
      "inputs": [
        {
          "internalType": "address",
          "name": "referrer",
          "type": "address"
        },
        {
          "internalType": "uint256",
          "name": "amount",
          "type": "uint256"
        }
      ],
      "name": "stake",
      "outputs": [],
      "stateMutability": "nonpayable",
      "type": "function"
    },
    {
      "inputs": [],
      "name": "totalDepositCount",
      "outputs": [
        {
          "internalType": "uint256",
          "name": "",
          "type": "uint256"
        }
      ],
      "stateMutability": "view",
      "type": "function"
    },
    {
      "inputs": [],
      "name": "totalStaked",
      "outputs": [
        {
          "internalType": "uint256",
          "name": "",
          "type": "uint256"
        }
      ],
      "stateMutability": "view",
      "type": "function"
    },
    {
      "inputs": [],
      "name": "totalUsers",
      "outputs": [
        {
          "internalType": "uint256",
          "name": "",
          "type": "uint256"
        }
      ],
      "stateMutability": "view",
      "type": "function"
    },
    {
      "inputs": [],
      "name": "totalWithdrawn",
      "outputs": [
        {
          "internalType": "uint256",
          "name": "",
          "type": "uint256"
        }
      ],
      "stateMutability": "view",
      "type": "function"
    },
    {
      "inputs": [
        {
          "internalType": "address",
          "name": "newOwner",
          "type": "address"
        }
      ],
      "name": "transferOwnership",
      "outputs": [],
      "stateMutability": "nonpayable",
      "type": "function"
    }
  ],
  "bytecode": "0x608060405262ed4e00600555603c60065563042c1d806007556002600855600a6009553480156200002f57600080fd5b5060405162001f5838038062001f58833981016040819052620000529162000105565b6200005d3362000098565b600180556000600255600380546001600160a01b039384166001600160a01b031991821617909155600480549290931691161790556200013c565b600080546001600160a01b038381166001600160a01b0319831681178455604051919092169283917f8be0079c531659141344cd1fd0a4f28419497f9722a3daafe3b4186f6b6457e09190a35050565b80516001600160a01b03811681146200010057600080fd5b919050565b6000806040838503121562000118578182fd5b6200012383620000e8565b91506200013360208401620000e8565b90509250929050565b611e0c806200014c6000396000f3fe608060405234801561001057600080fd5b50600436106101585760003560e01c806382a165dc116100c3578063a7e6f2901161007c578063a7e6f2901461035f578063c03d5b4714610372578063cbedbf1b1461037b578063d5c431591461038e578063f2fde38b14610397578063f69e2046146103aa57600080fd5b806382a165dc146102f657806384bcf81e146103095780638a6a29a01461031c5780638da5cb5b1461033c5780638f1f49831461034d57806395372c061461035657600080fd5b80634e71d92d116101155780634e71d92d1461028a578063699e0f561461029257806371127ed21461029b578063715018a6146102a35780637adac61e146102ab5780637eb96b7b146102d657600080fd5b806312eb4f9a1461015d57806318e137f01461017957806329da6419146101995780633104562b146101a2578063439b3543146101b7578063484aaa9914610267575b600080fd5b61016660065481565b6040519081526020015b60405180910390f35b610166610187366004611bca565b600b6020526000908152604090205481565b61016660025481565b6101b56101b0366004611c2d565b6103b2565b005b6102206101c5366004611be4565b600d602090815260009283526040808420909152908252902080546001820154600283015460038401546004850154600586015460068701546007909701546001600160a01b03909616969495939492939192909160ff1688565b604080516001600160a01b0390991689526020890197909752958701949094526060860192909252608085015260a084015260c0830152151560e082015261010001610170565b61027a610275366004611c2d565b6107ab565b6040519015158152602001610170565b6101b56107cb565b61016660015481565b610166610eae565b6101b5611087565b6003546102be906001600160a01b031681565b6040516001600160a01b039091168152602001610170565b6101666102e4366004611bca565b600c6020526000908152604090205481565b6101b5610304366004611c2d565b6110bd565b6004546102be906001600160a01b031681565b61016661032a366004611bca565b600a6020526000908152604090205481565b6000546001600160a01b03166102be565b61016660075481565b61016660095481565b6101b561036d366004611c2d565b611122565b61016660055481565b6101b5610389366004611c2d565b61127c565b61016660085481565b6101b56103a5366004611bca565b611415565b6101b56114b0565b60006103d460646103ce6009548561196890919063ffffffff16565b9061197b565b905060006103e28383611987565b6003546040516323b872dd60e01b81529192506001600160a01b0316906323b872dd9061041790339030908690600401611c45565b602060405180830381600087803b15801561043157600080fd5b505af1158015610445573d6000803e3d6000fd5b505050506040513d601f19601f820116820180604052508101906104699190611c0d565b61048e5760405162461bcd60e51b815260040161048590611c69565b60405180910390fd5b600354600480546040516323b872dd60e01b81526001600160a01b03938416936323b872dd936104c5933393921691889101611c45565b602060405180830381600087803b1580156104df57600080fd5b505af11580156104f3573d6000803e3d6000fd5b505050506040513d601f19601f820116820180604052508101906105179190611c0d565b6105335760405162461bcd60e51b815260040161048590611c69565b61053b611b5e565b338082526000908152600a60209081526040918290205490830152810182905242606082018190526105709062ed4e00611d37565b60c0820152426080820181905261058890603c611d37565b60a08201908152600060e08301818152338252600d60209081526040808420600a83528185205485528252808420865181546001600160a01b0319166001600160a01b039091161781559186015160018084019190915590860151600283015560608601516003830155608086015160048301559351600582015560c0850151600682015590516007909101805460ff19169115159190911790558154919061063083611da5565b9091555050336000908152600a6020526040812080549161065083611da5565b9091555050336000908152600b602052604090205461066f8184611993565b336000908152600b6020526040908190208290556003549051633950935160e01b8152306004820152602481018690529192506001600160a01b031690633950935190604401602060405180830381600087803b1580156106cf57600080fd5b505af11580156106e3573d6000803e3d6000fd5b505050506040513d601f19601f820116820180604052508101906107079190611c0d565b506002546107159084611993565b60025581516040808401516060850151608086015160a087015160c088015160e089015195516001600160a01b03909716967f01d49482f4cb5cc9faa74dd0fde983c4e5387b6a372a4896e324a3a2ae94cc599661079c9695949392919586526020860194909452604085019290925260608401526080830152151560a082015260c00190565b60405180910390a25050505050565b600254600090808311156107c25750600092915050565b50600192915050565b6000806107d661199f565b905060005b8151811015610a135781818151811061080457634e487b7160e01b600052603260045260246000fd5b602002602001015160e00151610a0157600082828151811061083657634e487b7160e01b600052603260045260246000fd5b60200260200101516020015110610a01574282828151811061086857634e487b7160e01b600052603260045260246000fd5b602002602001015160a0015111610a0157336001600160a01b03168282815181106108a357634e487b7160e01b600052603260045260246000fd5b6020026020010151600001516001600160a01b03161415610a01576000428383815181106108e157634e487b7160e01b600052603260045260246000fd5b602002602001015160c00151106109355761092e603c84848151811061091757634e487b7160e01b600052603260045260246000fd5b602002602001015160800151426103ce9190611d8e565b905061099f565b61099c603c84848151811061095a57634e487b7160e01b600052603260045260246000fd5b60200260200101516080015185858151811061098657634e487b7160e01b600052603260045260246000fd5b602002602001015160c001516103ce9190611d8e565b90505b60006109f0826109ea60646103ce6008548989815181106109d057634e487b7160e01b600052603260045260246000fd5b60200260200101516040015161196890919063ffffffff16565b90611968565b90506109fc8582611993565b945050505b80610a0b81611da5565b9150506107db565b50610a1d826107ab565b610a805760405162461bcd60e51b815260206004820152602e60248201527f636c61696d3a206e6f7420656e6f756768204361736870206c6971756964697460448201526d79206f66204d61726b6574696e6760901b6064820152608401610485565b6000610a9c60646109ea60025486611af690919063ffffffff16565b90506000670de0b6b3a76400008210610ac657610abf60646103ce866005611968565b9050610be0565b671bc16d674ec800008210610ae557610abf60646103ce86600a611968565b6729a2241af62c00008210610b0457610abf60646103ce86600f611968565b673782dace9d9000008210610b2357610abf60646103ce866014611968565b674563918244f400008210610b4257610abf60646103ce866019611968565b6753444835ec5800008210610b6157610abf60646103ce86601e611968565b676124fee993bc00008210610b8057610abf60646103ce866023611968565b676f05b59d3b2000008210610b9f57610abf60646103ce866028611968565b677ce66c50e28400008210610bbe57610abf60646103ce86602d611968565b678ac7230489e800008210610be057610bdd60646103ce866032611968565b90505b6000610bec8583611987565b6003546040516323b872dd60e01b81529192506001600160a01b0316906323b872dd90610c2190309033908690600401611c45565b602060405180830381600087803b158015610c3b57600080fd5b505af1158015610c4f573d6000803e3d6000fd5b505050506040513d601f19601f82011682018060405250810190610c739190611c0d565b610cd85760405162461bcd60e51b815260206004820152603060248201527f636c61696d3a206661696c207472616e736665722063617368702066726f6d2060448201526f31b7b73a3930b1ba103a37903ab9b2b960811b6064820152608401610485565b600354600480546040516323b872dd60e01b81526001600160a01b03938416936323b872dd93610d0f933093921691889101611c45565b602060405180830381600087803b158015610d2957600080fd5b505af1158015610d3d573d6000803e3d6000fd5b505050506040513d601f19601f82011682018060405250810190610d619190611c0d565b610dd35760405162461bcd60e51b815260206004820152603a60248201527f636c61696d3a206661696c207472616e736665722063617368702066726f6d2060448201527f636f6e747261637420746f206d61726b65742077616c6c6574200000000000006064820152608401610485565b600254610de09086611987565b50336000908152600c6020526040902054610dfb8183611993565b336000908152600c60205260408120919091555b336000908152600a6020526040902054811015610ea557336000908152600d602090815260408083208484529091529020600781015460ff16610e925780546001600160a01b0316331415610e92574260048201819055610e7190603c611d37565b60058201819055600682015411610e925760078101805460ff191660011790555b5080610e9d81611da5565b915050610e0f565b50505050505050565b6000806000610ebb61199f565b905060005b815181101561107f57818181518110610ee957634e487b7160e01b600052603260045260246000fd5b602002602001015160e0015161106d576000828281518110610f1b57634e487b7160e01b600052603260045260246000fd5b6020026020010151602001511061106d5742828281518110610f4d57634e487b7160e01b600052603260045260246000fd5b602002602001015160a001511161106d57336001600160a01b0316828281518110610f8857634e487b7160e01b600052603260045260246000fd5b6020026020010151600001516001600160a01b0316141561106d57600042838381518110610fc657634e487b7160e01b600052603260045260246000fd5b602002602001015160c001511061100357610ffc603c84848151811061091757634e487b7160e01b600052603260045260246000fd5b905061102b565b611028603c84848151811061095a57634e487b7160e01b600052603260045260246000fd5b90505b600061105c826109ea60646103ce6008548989815181106109d057634e487b7160e01b600052603260045260246000fd5b90506110688582611993565b945050505b8061107781611da5565b915050610ec0565b509092915050565b6000546001600160a01b031633146110b15760405162461bcd60e51b815260040161048590611d02565b6110bb6000611b0e565b565b6000546001600160a01b031633146110e75760405162461bcd60e51b815260040161048590611d02565b60078190556040518181527fdfec83bf751111b25fe62c0ba432702a67f73bd2b75bbf6961423962f17d9e7b9060200160405180910390a150565b6000546001600160a01b0316331461114c5760405162461bcd60e51b815260040161048590611d02565b611155816107ab565b6111c75760405162461bcd60e51b815260206004820152603860248201527f7769746844726177526573657276653a206e6f7420656e6f756768204361736860448201527f70206c6971756964697479206f66204d61726b6574696e6700000000000000006064820152608401610485565b6003546040516323b872dd60e01b81526001600160a01b03909116906323b872dd906111fb90309033908690600401611c45565b602060405180830381600087803b15801561121557600080fd5b505af1158015611229573d6000803e3d6000fd5b505050506040513d601f19601f8201168201806040525081019061124d9190611c0d565b6112695760405162461bcd60e51b815260040161048590611cbf565b6002546112769082611987565b60025550565b6000546001600160a01b031633146112a65760405162461bcd60e51b815260040161048590611d02565b6003546040516323b872dd60e01b81526001600160a01b03909116906323b872dd906112da90339030908690600401611c45565b602060405180830381600087803b1580156112f457600080fd5b505af1158015611308573d6000803e3d6000fd5b505050506040513d601f19601f8201168201806040525081019061132c9190611c0d565b6113485760405162461bcd60e51b815260040161048590611cbf565b600354604051633950935160e01b8152306004820152602481018390526001600160a01b0390911690633950935190604401602060405180830381600087803b15801561139457600080fd5b505af11580156113a8573d6000803e3d6000fd5b505050506040513d601f19601f820116820180604052508101906113cc9190611c0d565b506002546113da9082611993565b60025560405181815233907f4c94cc7b9194bb9209824a53bc1a99a306eb9a1301664c500b1ff71360902f7d9060200160405180910390a250565b6000546001600160a01b0316331461143f5760405162461bcd60e51b815260040161048590611d02565b6001600160a01b0381166114a45760405162461bcd60e51b815260206004820152602660248201527f4f776e61626c653a206e6577206f776e657220697320746865207a65726f206160448201526564647265737360d01b6064820152608401610485565b6114ad81611b0e565b50565b6000806114bb61199f565b905060005b815181101561167f578181815181106114e957634e487b7160e01b600052603260045260246000fd5b602002602001015160e0015161166d57600082828151811061151b57634e487b7160e01b600052603260045260246000fd5b6020026020010151602001511061166d574282828151811061154d57634e487b7160e01b600052603260045260246000fd5b602002602001015160a001511161166d57336001600160a01b031682828151811061158857634e487b7160e01b600052603260045260246000fd5b6020026020010151600001516001600160a01b0316141561166d576000428383815181106115c657634e487b7160e01b600052603260045260246000fd5b602002602001015160c0015110611603576115fc603c84848151811061091757634e487b7160e01b600052603260045260246000fd5b905061162b565b611628603c84848151811061095a57634e487b7160e01b600052603260045260246000fd5b90505b600061165c826109ea60646103ce6008548989815181106109d057634e487b7160e01b600052603260045260246000fd5b90506116688582611993565b945050505b8061167781611da5565b9150506114c0565b50611689826107ab565b6116ef5760405162461bcd60e51b815260206004820152603160248201527f636f6d706f756e643a206e6f7420656e6f756768204361736870206c6971756960448201527064697479206f66204d61726b6574696e6760781b6064820152608401610485565b6116f7611b5e565b338082526000908152600a602090815260409182902054908301528101839052426060820181905261172c9062ed4e00611d37565b60c0820152426080820181905261174490603c611d37565b60a08201908152600060e08301818152338252600d60209081526040808420600a83528185205485528252808420865181546001600160a01b0319166001600160a01b039091161781559186015160018084019190915590860151600283015560608601516003830155608086015160048301559351600582015560c0850151600682015590516007909101805460ff1916911515919091179055815491906117ec83611da5565b9091555050336000908152600a6020526040812080549161180c83611da5565b9091555050336000908152600b602052604090205461182b8185611993565b336000908152600b60205260408120919091555b336000908152600a60205260409020548110156118d557336000908152600d602090815260408083208484529091529020600781015460ff166118c25780546001600160a01b03163314156118c25742600482018190556118a190603c611d37565b600582018190556006820154116118c25760078101805460ff191660011790555b50806118cd81611da5565b91505061183f565b5081600001516001600160a01b03167f01d49482f4cb5cc9faa74dd0fde983c4e5387b6a372a4896e324a3a2ae94cc598360400151846060015185608001518660a001518760c001518860e0015160405161195a969594939291909586526020860194909452604085019290925260608401526080830152151560a082015260c00190565b60405180910390a250505050565b60006119748284611d6f565b9392505050565b60006119748284611d4f565b60006119748284611d8e565b60006119748284611d37565b336000908152600a60205260408120546060919067ffffffffffffffff8111156119d957634e487b7160e01b600052604160045260246000fd5b604051908082528060200260200182016040528015611a1257816020015b6119ff611b5e565b8152602001906001900390816119f75790505b50905060005b336000908152600a6020526040902054811015611af057336000908152600d6020908152604080832084845282529182902082516101008101845281546001600160a01b031681526001820154928101929092526002810154928201929092526003820154606082015260048201546080820152600582015460a0820152600682015460c082015260079091015460ff16151560e08201528251839083908110611ad257634e487b7160e01b600052603260045260246000fd5b60200260200101819052508080611ae890611da5565b915050611a18565b50919050565b6000611974826103ce85670de0b6b3a7640000611968565b600080546001600160a01b038381166001600160a01b0319831681178455604051919092169283917f8be0079c531659141344cd1fd0a4f28419497f9722a3daafe3b4186f6b6457e09190a35050565b60405180610100016040528060006001600160a01b031681526020016000815260200160008152602001600081526020016000815260200160008152602001600081526020016000151581525090565b80356001600160a01b0381168114611bc557600080fd5b919050565b600060208284031215611bdb578081fd5b61197482611bae565b60008060408385031215611bf6578081fd5b611bff83611bae565b946020939093013593505050565b600060208284031215611c1e578081fd5b81518015158114611974578182fd5b600060208284031215611c3e578081fd5b5035919050565b6001600160a01b039384168152919092166020820152604081019190915260600190565b60208082526036908201527f6c656e64546f6b656e3a205472616e7366657220746f6b656e2066726f6d20756040820152751cd95c881d1bc818dbdb9d1c9858dd0819985a5b195960521b606082015260800190565b60208082526023908201527f5472616e73616374696f6e206661696c6564206f6e20696e69742066756e637460408201526234b7b760e91b606082015260800190565b6020808252818101527f4f776e61626c653a2063616c6c6572206973206e6f7420746865206f776e6572604082015260600190565b60008219821115611d4a57611d4a611dc0565b500190565b600082611d6a57634e487b7160e01b81526012600452602481fd5b500490565b6000816000190483118215151615611d8957611d89611dc0565b500290565b600082821015611da057611da0611dc0565b500390565b6000600019821415611db957611db9611dc0565b5060010190565b634e487b7160e01b600052601160045260246000fdfea2646970667358221220071d415541ff2d24ea7e0c03388fdf143ca52721aeb10efb7f5cf06ec4bf44a964736f6c63430008040033",
  "linkReferences": {},
  "deployedLinkReferences": {}
}