{
  "contractName": "ViccToken",
  "abi": [
    {
      "inputs": [],
      "stateMutability": "nonpayable",
      "type": "constructor"
    },
    {
      "anonymous": false,
      "inputs": [
        {
          "indexed": true,
          "internalType": "address",
          "name": "owner",
          "type": "address"
        },
        {
          "indexed": true,
          "internalType": "address",
          "name": "spender",
          "type": "address"
        },
        {
          "indexed": false,
          "internalType": "uint256",
          "name": "value",
          "type": "uint256"
        }
      ],
      "name": "Approval",
      "type": "event"
    },
    {
      "anonymous": false,
      "inputs": [
        {
          "indexed": true,
          "internalType": "address",
          "name": "from",
          "type": "address"
        },
        {
          "indexed": true,
          "internalType": "address",
          "name": "to",
          "type": "address"
        },
        {
          "indexed": false,
          "internalType": "uint256",
          "name": "value",
          "type": "uint256"
        }
      ],
      "name": "Transfer",
      "type": "event"
    },
    {
      "anonymous": false,
      "inputs": [
        {
          "indexed": false,
          "internalType": "uint256",
          "name": "amount",
          "type": "uint256"
        }
      ],
      "name": "burned",
      "type": "event"
    },
    {
      "inputs": [
        {
          "internalType": "address",
          "name": "_admin",
          "type": "address"
        }
      ],
      "name": "addAdmin",
      "outputs": [],
      "stateMutability": "nonpayable",
      "type": "function"
    },
    {
      "inputs": [
        {
          "internalType": "address",
          "name": "owner",
          "type": "address"
        },
        {
          "internalType": "address",
          "name": "spender",
          "type": "address"
        }
      ],
      "name": "allowance",
      "outputs": [
        {
          "internalType": "uint256",
          "name": "",
          "type": "uint256"
        }
      ],
      "stateMutability": "view",
      "type": "function",
      "constant": true
    },
    {
      "inputs": [
        {
          "internalType": "address",
          "name": "spender",
          "type": "address"
        },
        {
          "internalType": "uint256",
          "name": "amount",
          "type": "uint256"
        }
      ],
      "name": "approve",
      "outputs": [
        {
          "internalType": "bool",
          "name": "",
          "type": "bool"
        }
      ],
      "stateMutability": "nonpayable",
      "type": "function"
    },
    {
      "inputs": [
        {
          "internalType": "address",
          "name": "account",
          "type": "address"
        }
      ],
      "name": "balanceOf",
      "outputs": [
        {
          "internalType": "uint256",
          "name": "",
          "type": "uint256"
        }
      ],
      "stateMutability": "view",
      "type": "function",
      "constant": true
    },
    {
      "inputs": [
        {
          "internalType": "address",
          "name": "spender",
          "type": "address"
        },
        {
          "internalType": "uint256",
          "name": "subtractedValue",
          "type": "uint256"
        }
      ],
      "name": "decreaseAllowance",
      "outputs": [
        {
          "internalType": "bool",
          "name": "",
          "type": "bool"
        }
      ],
      "stateMutability": "nonpayable",
      "type": "function"
    },
    {
      "inputs": [
        {
          "internalType": "address",
          "name": "spender",
          "type": "address"
        },
        {
          "internalType": "uint256",
          "name": "addedValue",
          "type": "uint256"
        }
      ],
      "name": "increaseAllowance",
      "outputs": [
        {
          "internalType": "bool",
          "name": "",
          "type": "bool"
        }
      ],
      "stateMutability": "nonpayable",
      "type": "function"
    },
    {
      "inputs": [
        {
          "internalType": "address",
          "name": "_address",
          "type": "address"
        }
      ],
      "name": "isAdmin",
      "outputs": [
        {
          "internalType": "bool",
          "name": "yes",
          "type": "bool"
        }
      ],
      "stateMutability": "view",
      "type": "function",
      "constant": true
    },
    {
      "inputs": [],
      "name": "name",
      "outputs": [
        {
          "internalType": "string",
          "name": "",
          "type": "string"
        }
      ],
      "stateMutability": "view",
      "type": "function",
      "constant": true
    },
    {
      "inputs": [],
      "name": "symbol",
      "outputs": [
        {
          "internalType": "string",
          "name": "",
          "type": "string"
        }
      ],
      "stateMutability": "view",
      "type": "function",
      "constant": true
    },
    {
      "inputs": [],
      "name": "totalSupply",
      "outputs": [
        {
          "internalType": "uint256",
          "name": "",
          "type": "uint256"
        }
      ],
      "stateMutability": "view",
      "type": "function",
      "constant": true
    },
    {
      "inputs": [
        {
          "internalType": "address",
          "name": "to",
          "type": "address"
        },
        {
          "internalType": "uint256",
          "name": "amount",
          "type": "uint256"
        }
      ],
      "name": "transfer",
      "outputs": [
        {
          "internalType": "bool",
          "name": "",
          "type": "bool"
        }
      ],
      "stateMutability": "nonpayable",
      "type": "function"
    },
    {
      "inputs": [
        {
          "internalType": "address",
          "name": "from",
          "type": "address"
        },
        {
          "internalType": "address",
          "name": "to",
          "type": "address"
        },
        {
          "internalType": "uint256",
          "name": "amount",
          "type": "uint256"
        }
      ],
      "name": "transferFrom",
      "outputs": [
        {
          "internalType": "bool",
          "name": "",
          "type": "bool"
        }
      ],
      "stateMutability": "nonpayable",
      "type": "function"
    },
    {
      "stateMutability": "payable",
      "type": "receive",
      "payable": true
    },
    {
      "inputs": [
        {
          "internalType": "uint256",
          "name": "amount",
          "type": "uint256"
        }
      ],
      "name": "burn",
      "outputs": [],
      "stateMutability": "nonpayable",
      "type": "function"
    },
    {
      "inputs": [],
      "name": "decimals",
      "outputs": [
        {
          "internalType": "uint8",
          "name": "",
          "type": "uint8"
        }
      ],
      "stateMutability": "view",
      "type": "function",
      "constant": true
    }
  ],
  "bytecode": "0x60806040526012600660156101000a81548160ff021916908360ff1602179055503480156200002d57600080fd5b506040518060400160405280601181526020017f566963746f7279204361736820436f696e0000000000000000000000000000008152506040518060400160405280600481526020017f56494343000000000000000000000000000000000000000000000000000000008152508160039080519060200190620000b29291906200051c565b508060049080519060200190620000cb9291906200051c565b50505033600660016101000a81548173ffffffffffffffffffffffffffffffffffffffff021916908373ffffffffffffffffffffffffffffffffffffffff16021790555062000120336200016c60201b60201c565b6200016633600660159054906101000a900460ff1660ff16600a62000146919062000759565b61eac4620001559190620007aa565b6200039a60201b62000b0d1760201c565b62000b1e565b600073ffffffffffffffffffffffffffffffffffffffff16600660019054906101000a900473ffffffffffffffffffffffffffffffffffffffff1673ffffffffffffffffffffffffffffffffffffffff160362000200576040517f08c379a0000000000000000000000000000000000000000000000000000000008152600401620001f7906200086c565b60405180910390fd5b600660019054906101000a900473ffffffffffffffffffffffffffffffffffffffff1673ffffffffffffffffffffffffffffffffffffffff163373ffffffffffffffffffffffffffffffffffffffff161462000293576040517f08c379a00000000000000000000000000000000000000000000000000000000081526004016200028a90620008de565b60405180910390fd5b80600073ffffffffffffffffffffffffffffffffffffffff168173ffffffffffffffffffffffffffffffffffffffff160362000306576040517f08c379a0000000000000000000000000000000000000000000000000000000008152600401620002fd9062000950565b60405180910390fd5b6001600560008473ffffffffffffffffffffffffffffffffffffffff1673ffffffffffffffffffffffffffffffffffffffff16815260200190815260200160002060006101000a81548160ff0219169083151502179055506001600660009054906101000a900460ff166200037c91906200097f565b600660006101000a81548160ff021916908360ff1602179055505050565b600073ffffffffffffffffffffffffffffffffffffffff168273ffffffffffffffffffffffffffffffffffffffff16036200040c576040517f08c379a0000000000000000000000000000000000000000000000000000000008152600401620004039062000a0d565b60405180910390fd5b62000420600083836200051260201b60201c565b806002600082825462000434919062000a2f565b92505081905550806000808473ffffffffffffffffffffffffffffffffffffffff1673ffffffffffffffffffffffffffffffffffffffff16815260200190815260200160002060008282546200048b919062000a2f565b925050819055508173ffffffffffffffffffffffffffffffffffffffff16600073ffffffffffffffffffffffffffffffffffffffff167fddf252ad1be2c89b69c2b068fc378daa952ba7f163c4a11628f55a4df523b3ef83604051620004f2919062000a9d565b60405180910390a36200050e600083836200051760201b60201c565b5050565b505050565b505050565b8280546200052a9062000ae9565b90600052602060002090601f0160209004810192826200054e57600085556200059a565b82601f106200056957805160ff19168380011785556200059a565b828001600101855582156200059a579182015b82811115620005995782518255916020019190600101906200057c565b5b509050620005a99190620005ad565b5090565b5b80821115620005c8576000816000905550600101620005ae565b5090565b7f4e487b7100000000000000000000000000000000000000000000000000000000600052601160045260246000fd5b60008160011c9050919050565b6000808291508390505b60018511156200065a57808604811115620006325762000631620005cc565b5b6001851615620006425780820291505b80810290506200065285620005fb565b945062000612565b94509492505050565b60008262000675576001905062000748565b8162000685576000905062000748565b81600181146200069e5760028114620006a957620006df565b600191505062000748565b60ff841115620006be57620006bd620005cc565b5b8360020a915084821115620006d857620006d7620005cc565b5b5062000748565b5060208310610133831016604e8410600b8410161715620007195782820a905083811115620007135762000712620005cc565b5b62000748565b62000728848484600162000608565b92509050818404811115620007425762000741620005cc565b5b81810290505b9392505050565b6000819050919050565b600062000766826200074f565b915062000773836200074f565b9250620007a27fffffffffffffffffffffffffffffffffffffffffffffffffffffffffffffffff848462000663565b905092915050565b6000620007b7826200074f565b9150620007c4836200074f565b9250817fffffffffffffffffffffffffffffffffffffffffffffffffffffffffffffffff04831182151516156200080057620007ff620005cc565b5b828202905092915050565b600082825260208201905092915050565b7f496e76616c69642063726561746f722061646472657373000000000000000000600082015250565b6000620008546017836200080b565b915062000861826200081c565b602082019050919050565b60006020820190508181036000830152620008878162000845565b9050919050565b7f466f722063616c6c65722065787065637465642062652063726561746f720000600082015250565b6000620008c6601e836200080b565b9150620008d3826200088e565b602082019050919050565b60006020820190508181036000830152620008f981620008b7565b9050919050565b7f4578706563746564206e6f6e2d7a65726f206164647265737300000000000000600082015250565b6000620009386019836200080b565b9150620009458262000900565b602082019050919050565b600060208201905081810360008301526200096b8162000929565b9050919050565b600060ff82169050919050565b60006200098c8262000972565b9150620009998362000972565b92508260ff03821115620009b257620009b1620005cc565b5b828201905092915050565b7f45524332303a206d696e7420746f20746865207a65726f206164647265737300600082015250565b6000620009f5601f836200080b565b915062000a0282620009bd565b602082019050919050565b6000602082019050818103600083015262000a2881620009e6565b9050919050565b600062000a3c826200074f565b915062000a49836200074f565b9250827fffffffffffffffffffffffffffffffffffffffffffffffffffffffffffffffff0382111562000a815762000a80620005cc565b5b828201905092915050565b62000a97816200074f565b82525050565b600060208201905062000ab4600083018462000a8c565b92915050565b7f4e487b7100000000000000000000000000000000000000000000000000000000600052602260045260246000fd5b6000600282049050600182168062000b0257607f821691505b60208210810362000b185762000b1762000aba565b5b50919050565b611f708062000b2e6000396000f3fe6080604052600436106100e15760003560e01c806342966c681161007f57806395d89b411161005957806395d89b41146102f1578063a457c2d71461031c578063a9059cbb14610359578063dd62ed3e14610396576100e8565b806342966c6814610262578063704802751461028b57806370a08231146102b4576100e8565b806323b872dd116100bb57806323b872dd1461018057806324d7806c146101bd578063313ce567146101fa5780633950935114610225576100e8565b806306fdde03146100ed578063095ea7b31461011857806318160ddd14610155576100e8565b366100e857005b600080fd5b3480156100f957600080fd5b506101026103d3565b60405161010f91906113c1565b60405180910390f35b34801561012457600080fd5b5061013f600480360381019061013a919061147c565b610465565b60405161014c91906114d7565b60405180910390f35b34801561016157600080fd5b5061016a610488565b6040516101779190611501565b60405180910390f35b34801561018c57600080fd5b506101a760048036038101906101a2919061151c565b610492565b6040516101b491906114d7565b60405180910390f35b3480156101c957600080fd5b506101e460048036038101906101df919061156f565b6104c1565b6040516101f191906114d7565b60405180910390f35b34801561020657600080fd5b5061020f610517565b60405161021c91906115b8565b60405180910390f35b34801561023157600080fd5b5061024c6004803603810190610247919061147c565b61052e565b60405161025991906114d7565b60405180910390f35b34801561026e57600080fd5b50610289600480360381019061028491906115d3565b610565565b005b34801561029757600080fd5b506102b260048036038101906102ad919061156f565b6106ef565b005b3480156102c057600080fd5b506102db60048036038101906102d6919061156f565b610912565b6040516102e89190611501565b60405180910390f35b3480156102fd57600080fd5b5061030661095a565b60405161031391906113c1565b60405180910390f35b34801561032857600080fd5b50610343600480360381019061033e919061147c565b6109ec565b60405161035091906114d7565b60405180910390f35b34801561036557600080fd5b50610380600480360381019061037b919061147c565b610a63565b60405161038d91906114d7565b60405180910390f35b3480156103a257600080fd5b506103bd60048036038101906103b89190611600565b610a86565b6040516103ca9190611501565b60405180910390f35b6060600380546103e29061166f565b80601f016020809104026020016040519081016040528092919081815260200182805461040e9061166f565b801561045b5780601f106104305761010080835404028352916020019161045b565b820191906000526020600020905b81548152906001019060200180831161043e57829003601f168201915b5050505050905090565b600080610470610c6c565b905061047d818585610c74565b600191505092915050565b6000600254905090565b60008061049d610c6c565b90506104aa858285610e3d565b6104b5858585610ec9565b60019150509392505050565b6000600560008373ffffffffffffffffffffffffffffffffffffffff1673ffffffffffffffffffffffffffffffffffffffff16815260200190815260200160002060009054906101000a900460ff169050919050565b6000600660159054906101000a900460ff16905090565b600080610539610c6c565b905061055a81858561054b8589610a86565b61055591906116cf565b610c74565b600191505092915050565b600073ffffffffffffffffffffffffffffffffffffffff163373ffffffffffffffffffffffffffffffffffffffff16036105d4576040517f08c379a00000000000000000000000000000000000000000000000000000000081526004016105cb90611771565b60405180910390fd5b600560003373ffffffffffffffffffffffffffffffffffffffff1673ffffffffffffffffffffffffffffffffffffffff16815260200190815260200160002060009054906101000a900460ff16610660576040517f08c379a0000000000000000000000000000000000000000000000000000000008152600401610657906117dd565b60405180910390fd5b8061066a33610912565b10156106ab576040517f08c379a00000000000000000000000000000000000000000000000000000000081526004016106a29061186f565b60405180910390fd5b6106b53382611148565b7f23250cae4640284325b9674615c3761bee977451a30bc4eee69efa47f356beba816040516106e49190611501565b60405180910390a150565b600073ffffffffffffffffffffffffffffffffffffffff16600660019054906101000a900473ffffffffffffffffffffffffffffffffffffffff1673ffffffffffffffffffffffffffffffffffffffff1603610780576040517f08c379a000000000000000000000000000000000000000000000000000000000815260040161077790611771565b60405180910390fd5b600660019054906101000a900473ffffffffffffffffffffffffffffffffffffffff1673ffffffffffffffffffffffffffffffffffffffff163373ffffffffffffffffffffffffffffffffffffffff1614610810576040517f08c379a0000000000000000000000000000000000000000000000000000000008152600401610807906118db565b60405180910390fd5b80600073ffffffffffffffffffffffffffffffffffffffff168173ffffffffffffffffffffffffffffffffffffffff1603610880576040517f08c379a000000000000000000000000000000000000000000000000000000000815260040161087790611947565b60405180910390fd5b6001600560008473ffffffffffffffffffffffffffffffffffffffff1673ffffffffffffffffffffffffffffffffffffffff16815260200190815260200160002060006101000a81548160ff0219169083151502179055506001600660009054906101000a900460ff166108f49190611967565b600660006101000a81548160ff021916908360ff1602179055505050565b60008060008373ffffffffffffffffffffffffffffffffffffffff1673ffffffffffffffffffffffffffffffffffffffff168152602001908152602001600020549050919050565b6060600480546109699061166f565b80601f01602080910402602001604051908101604052809291908181526020018280546109959061166f565b80156109e25780601f106109b7576101008083540402835291602001916109e2565b820191906000526020600020905b8154815290600101906020018083116109c557829003601f168201915b5050505050905090565b6000806109f7610c6c565b90506000610a058286610a86565b905083811015610a4a576040517f08c379a0000000000000000000000000000000000000000000000000000000008152600401610a4190611a10565b60405180910390fd5b610a578286868403610c74565b60019250505092915050565b600080610a6e610c6c565b9050610a7b818585610ec9565b600191505092915050565b6000600160008473ffffffffffffffffffffffffffffffffffffffff1673ffffffffffffffffffffffffffffffffffffffff16815260200190815260200160002060008373ffffffffffffffffffffffffffffffffffffffff1673ffffffffffffffffffffffffffffffffffffffff16815260200190815260200160002054905092915050565b600073ffffffffffffffffffffffffffffffffffffffff168273ffffffffffffffffffffffffffffffffffffffff1603610b7c576040517f08c379a0000000000000000000000000000000000000000000000000000000008152600401610b7390611a7c565b60405180910390fd5b610b886000838361131e565b8060026000828254610b9a91906116cf565b92505081905550806000808473ffffffffffffffffffffffffffffffffffffffff1673ffffffffffffffffffffffffffffffffffffffff1681526020019081526020016000206000828254610bef91906116cf565b925050819055508173ffffffffffffffffffffffffffffffffffffffff16600073ffffffffffffffffffffffffffffffffffffffff167fddf252ad1be2c89b69c2b068fc378daa952ba7f163c4a11628f55a4df523b3ef83604051610c549190611501565b60405180910390a3610c6860008383611323565b5050565b600033905090565b600073ffffffffffffffffffffffffffffffffffffffff168373ffffffffffffffffffffffffffffffffffffffff1603610ce3576040517f08c379a0000000000000000000000000000000000000000000000000000000008152600401610cda90611b0e565b60405180910390fd5b600073ffffffffffffffffffffffffffffffffffffffff168273ffffffffffffffffffffffffffffffffffffffff1603610d52576040517f08c379a0000000000000000000000000000000000000000000000000000000008152600401610d4990611ba0565b60405180910390fd5b80600160008573ffffffffffffffffffffffffffffffffffffffff1673ffffffffffffffffffffffffffffffffffffffff16815260200190815260200160002060008473ffffffffffffffffffffffffffffffffffffffff1673ffffffffffffffffffffffffffffffffffffffff168152602001908152602001600020819055508173ffffffffffffffffffffffffffffffffffffffff168373ffffffffffffffffffffffffffffffffffffffff167f8c5be1e5ebec7d5bd14f71427d1e84f3dd0314c0f7b2291e5b200ac8c7c3b92583604051610e309190611501565b60405180910390a3505050565b6000610e498484610a86565b90507fffffffffffffffffffffffffffffffffffffffffffffffffffffffffffffffff8114610ec35781811015610eb5576040517f08c379a0000000000000000000000000000000000000000000000000000000008152600401610eac90611c0c565b60405180910390fd5b610ec28484848403610c74565b5b50505050565b600073ffffffffffffffffffffffffffffffffffffffff168373ffffffffffffffffffffffffffffffffffffffff1603610f38576040517f08c379a0000000000000000000000000000000000000000000000000000000008152600401610f2f90611c9e565b60405180910390fd5b600073ffffffffffffffffffffffffffffffffffffffff168273ffffffffffffffffffffffffffffffffffffffff1603610fa7576040517f08c379a0000000000000000000000000000000000000000000000000000000008152600401610f9e90611d30565b60405180910390fd5b610fb283838361131e565b60008060008573ffffffffffffffffffffffffffffffffffffffff1673ffffffffffffffffffffffffffffffffffffffff16815260200190815260200160002054905081811015611038576040517f08c379a000000000000000000000000000000000000000000000000000000000815260040161102f90611dc2565b60405180910390fd5b8181036000808673ffffffffffffffffffffffffffffffffffffffff1673ffffffffffffffffffffffffffffffffffffffff16815260200190815260200160002081905550816000808573ffffffffffffffffffffffffffffffffffffffff1673ffffffffffffffffffffffffffffffffffffffff16815260200190815260200160002060008282546110cb91906116cf565b925050819055508273ffffffffffffffffffffffffffffffffffffffff168473ffffffffffffffffffffffffffffffffffffffff167fddf252ad1be2c89b69c2b068fc378daa952ba7f163c4a11628f55a4df523b3ef8460405161112f9190611501565b60405180910390a3611142848484611323565b50505050565b600073ffffffffffffffffffffffffffffffffffffffff168273ffffffffffffffffffffffffffffffffffffffff16036111b7576040517f08c379a00000000000000000000000000000000000000000000000000000000081526004016111ae90611e54565b60405180910390fd5b6111c38260008361131e565b60008060008473ffffffffffffffffffffffffffffffffffffffff1673ffffffffffffffffffffffffffffffffffffffff16815260200190815260200160002054905081811015611249576040517f08c379a000000000000000000000000000000000000000000000000000000000815260040161124090611ee6565b60405180910390fd5b8181036000808573ffffffffffffffffffffffffffffffffffffffff1673ffffffffffffffffffffffffffffffffffffffff1681526020019081526020016000208190555081600260008282546112a09190611f06565b92505081905550600073ffffffffffffffffffffffffffffffffffffffff168373ffffffffffffffffffffffffffffffffffffffff167fddf252ad1be2c89b69c2b068fc378daa952ba7f163c4a11628f55a4df523b3ef846040516113059190611501565b60405180910390a361131983600084611323565b505050565b505050565b505050565b600081519050919050565b600082825260208201905092915050565b60005b83811015611362578082015181840152602081019050611347565b83811115611371576000848401525b50505050565b6000601f19601f8301169050919050565b600061139382611328565b61139d8185611333565b93506113ad818560208601611344565b6113b681611377565b840191505092915050565b600060208201905081810360008301526113db8184611388565b905092915050565b600080fd5b600073ffffffffffffffffffffffffffffffffffffffff82169050919050565b6000611413826113e8565b9050919050565b61142381611408565b811461142e57600080fd5b50565b6000813590506114408161141a565b92915050565b6000819050919050565b61145981611446565b811461146457600080fd5b50565b60008135905061147681611450565b92915050565b60008060408385031215611493576114926113e3565b5b60006114a185828601611431565b92505060206114b285828601611467565b9150509250929050565b60008115159050919050565b6114d1816114bc565b82525050565b60006020820190506114ec60008301846114c8565b92915050565b6114fb81611446565b82525050565b600060208201905061151660008301846114f2565b92915050565b600080600060608486031215611535576115346113e3565b5b600061154386828701611431565b935050602061155486828701611431565b925050604061156586828701611467565b9150509250925092565b600060208284031215611585576115846113e3565b5b600061159384828501611431565b91505092915050565b600060ff82169050919050565b6115b28161159c565b82525050565b60006020820190506115cd60008301846115a9565b92915050565b6000602082840312156115e9576115e86113e3565b5b60006115f784828501611467565b91505092915050565b60008060408385031215611617576116166113e3565b5b600061162585828601611431565b925050602061163685828601611431565b9150509250929050565b7f4e487b7100000000000000000000000000000000000000000000000000000000600052602260045260246000fd5b6000600282049050600182168061168757607f821691505b60208210810361169a57611699611640565b5b50919050565b7f4e487b7100000000000000000000000000000000000000000000000000000000600052601160045260246000fd5b60006116da82611446565b91506116e583611446565b9250827fffffffffffffffffffffffffffffffffffffffffffffffffffffffffffffffff0382111561171a576117196116a0565b5b828201905092915050565b7f496e76616c69642063726561746f722061646472657373000000000000000000600082015250565b600061175b601783611333565b915061176682611725565b602082019050919050565b6000602082019050818103600083015261178a8161174e565b9050919050565b7f4d7573742062652061646d696e00000000000000000000000000000000000000600082015250565b60006117c7600d83611333565b91506117d282611791565b602082019050919050565b600060208201905081810360008301526117f6816117ba565b9050919050565b7f496e73756666696369656e7420564943432062616c616e636520746f2062757260008201527f6e00000000000000000000000000000000000000000000000000000000000000602082015250565b6000611859602183611333565b9150611864826117fd565b604082019050919050565b600060208201905081810360008301526118888161184c565b9050919050565b7f466f722063616c6c65722065787065637465642062652063726561746f720000600082015250565b60006118c5601e83611333565b91506118d08261188f565b602082019050919050565b600060208201905081810360008301526118f4816118b8565b9050919050565b7f4578706563746564206e6f6e2d7a65726f206164647265737300000000000000600082015250565b6000611931601983611333565b915061193c826118fb565b602082019050919050565b6000602082019050818103600083015261196081611924565b9050919050565b60006119728261159c565b915061197d8361159c565b92508260ff03821115611993576119926116a0565b5b828201905092915050565b7f45524332303a2064656372656173656420616c6c6f77616e63652062656c6f7760008201527f207a65726f000000000000000000000000000000000000000000000000000000602082015250565b60006119fa602583611333565b9150611a058261199e565b604082019050919050565b60006020820190508181036000830152611a29816119ed565b9050919050565b7f45524332303a206d696e7420746f20746865207a65726f206164647265737300600082015250565b6000611a66601f83611333565b9150611a7182611a30565b602082019050919050565b60006020820190508181036000830152611a9581611a59565b9050919050565b7f45524332303a20617070726f76652066726f6d20746865207a65726f2061646460008201527f7265737300000000000000000000000000000000000000000000000000000000602082015250565b6000611af8602483611333565b9150611b0382611a9c565b604082019050919050565b60006020820190508181036000830152611b2781611aeb565b9050919050565b7f45524332303a20617070726f766520746f20746865207a65726f20616464726560008201527f7373000000000000000000000000000000000000000000000000000000000000602082015250565b6000611b8a602283611333565b9150611b9582611b2e565b604082019050919050565b60006020820190508181036000830152611bb981611b7d565b9050919050565b7f45524332303a20696e73756666696369656e7420616c6c6f77616e6365000000600082015250565b6000611bf6601d83611333565b9150611c0182611bc0565b602082019050919050565b60006020820190508181036000830152611c2581611be9565b9050919050565b7f45524332303a207472616e736665722066726f6d20746865207a65726f20616460008201527f6472657373000000000000000000000000000000000000000000000000000000602082015250565b6000611c88602583611333565b9150611c9382611c2c565b604082019050919050565b60006020820190508181036000830152611cb781611c7b565b9050919050565b7f45524332303a207472616e7366657220746f20746865207a65726f206164647260008201527f6573730000000000000000000000000000000000000000000000000000000000602082015250565b6000611d1a602383611333565b9150611d2582611cbe565b604082019050919050565b60006020820190508181036000830152611d4981611d0d565b9050919050565b7f45524332303a207472616e7366657220616d6f756e742065786365656473206260008201527f616c616e63650000000000000000000000000000000000000000000000000000602082015250565b6000611dac602683611333565b9150611db782611d50565b604082019050919050565b60006020820190508181036000830152611ddb81611d9f565b9050919050565b7f45524332303a206275726e2066726f6d20746865207a65726f2061646472657360008201527f7300000000000000000000000000000000000000000000000000000000000000602082015250565b6000611e3e602183611333565b9150611e4982611de2565b604082019050919050565b60006020820190508181036000830152611e6d81611e31565b9050919050565b7f45524332303a206275726e20616d6f756e7420657863656564732062616c616e60008201527f6365000000000000000000000000000000000000000000000000000000000000602082015250565b6000611ed0602283611333565b9150611edb82611e74565b604082019050919050565b60006020820190508181036000830152611eff81611ec3565b9050919050565b6000611f1182611446565b9150611f1c83611446565b925082821015611f2f57611f2e6116a0565b5b82820390509291505056fea2646970667358221220353857081ed5bf54deb84cc50b88aa22e702b313fae42b226f79c627755108d864736f6c634300080e0033",
  "immutableReferences": {},
  "source": "// SPDX-License-Identifier: MIT\r\npragma solidity ^0.8.0;\r\n\r\nimport \"@openzeppelin/contracts/token/ERC20/ERC20.sol\";\r\nimport \"./ViccAdmin.sol\";\r\n\r\ncontract ViccToken is ERC20, ViccAdmin {\r\n\r\n    uint8           private _decimals = 18;\r\n\r\n    event burned(uint256 amount);\r\n\r\n    receive() external payable {}\r\n\r\n    constructor() ERC20(\"Victory Cash Coin\", \"VICC\") {\r\n        super._mint(msg.sender, 60100 * (10 ** uint256(_decimals)));\r\n    }\r\n\r\n    function burn(uint256 amount) public onlyAdmin {\r\n        require(balanceOf(msg.sender) >= amount, \"Insufficient VICC balance to burn\");\r\n        super._burn(msg.sender, amount);\r\n        emit burned(amount);\r\n    }\r\n    function decimals() public view virtual override returns (uint8) {\r\n        return _decimals;\r\n    }\r\n}\r\n",
  "sourcePath": "F:\\Workspace\\Orders\\VictoryCoinStake\\src\\Contract\\contracts\\ViccToken.sol",
  "compiler": {
    "name": "solc",
    "version": "0.8.14+commit.80d49f37.Emscripten.clang"
  },
  "schemaVersion": "3.4.7",
  "updatedAt": "2022-06-05T06:23:18.076Z",
  "networkType": "ethereum",
  "devdoc": {
    "kind": "dev",
    "methods": {
      "allowance(address,address)": {
        "details": "See {IERC20-allowance}."
      },
      "approve(address,uint256)": {
        "details": "See {IERC20-approve}. NOTE: If `amount` is the maximum `uint256`, the allowance is not updated on `transferFrom`. This is semantically equivalent to an infinite approval. Requirements: - `spender` cannot be the zero address."
      },
      "balanceOf(address)": {
        "details": "See {IERC20-balanceOf}."
      },
      "decimals()": {
        "details": "Returns the number of decimals used to get its user representation. For example, if `decimals` equals `2`, a balance of `505` tokens should be displayed to a user as `5.05` (`505 / 10 ** 2`). Tokens usually opt for a value of 18, imitating the relationship between Ether and Wei. This is the value {ERC20} uses, unless this function is overridden; NOTE: This information is only used for _display_ purposes: it in no way affects any of the arithmetic of the contract, including {IERC20-balanceOf} and {IERC20-transfer}."
      },
      "decreaseAllowance(address,uint256)": {
        "details": "Atomically decreases the allowance granted to `spender` by the caller. This is an alternative to {approve} that can be used as a mitigation for problems described in {IERC20-approve}. Emits an {Approval} event indicating the updated allowance. Requirements: - `spender` cannot be the zero address. - `spender` must have allowance for the caller of at least `subtractedValue`."
      },
      "increaseAllowance(address,uint256)": {
        "details": "Atomically increases the allowance granted to `spender` by the caller. This is an alternative to {approve} that can be used as a mitigation for problems described in {IERC20-approve}. Emits an {Approval} event indicating the updated allowance. Requirements: - `spender` cannot be the zero address."
      },
      "name()": {
        "details": "Returns the name of the token."
      },
      "symbol()": {
        "details": "Returns the symbol of the token, usually a shorter version of the name."
      },
      "totalSupply()": {
        "details": "See {IERC20-totalSupply}."
      },
      "transfer(address,uint256)": {
        "details": "See {IERC20-transfer}. Requirements: - `to` cannot be the zero address. - the caller must have a balance of at least `amount`."
      },
      "transferFrom(address,address,uint256)": {
        "details": "See {IERC20-transferFrom}. Emits an {Approval} event indicating the updated allowance. This is not required by the EIP. See the note at the beginning of {ERC20}. NOTE: Does not update the allowance if the current allowance is the maximum `uint256`. Requirements: - `from` and `to` cannot be the zero address. - `from` must have a balance of at least `amount`. - the caller must have allowance for ``from``'s tokens of at least `amount`."
      }
    },
    "version": 1
  },
  "userdoc": {
    "kind": "user",
    "methods": {},
    "version": 1
  }
}