{
  "contractName": "ViccStaking",
  "abi": [
    {
      "inputs": [
        {
          "internalType": "address",
          "name": "_ViccToken",
          "type": "address"
        }
      ],
      "stateMutability": "nonpayable",
      "type": "constructor"
    },
    {
      "anonymous": false,
      "inputs": [
        {
          "indexed": true,
          "internalType": "address",
          "name": "user",
          "type": "address"
        },
        {
          "indexed": false,
          "internalType": "uint256",
          "name": "amount",
          "type": "uint256"
        }
      ],
      "name": "NewDeposit",
      "type": "event"
    },
    {
      "anonymous": false,
      "inputs": [
        {
          "indexed": false,
          "internalType": "address",
          "name": "user",
          "type": "address"
        }
      ],
      "name": "Newbie",
      "type": "event"
    },
    {
      "anonymous": false,
      "inputs": [
        {
          "indexed": false,
          "internalType": "address",
          "name": "previousOwner",
          "type": "address"
        },
        {
          "indexed": false,
          "internalType": "address",
          "name": "newOwner",
          "type": "address"
        }
      ],
      "name": "OwnershipTransferred",
      "type": "event"
    },
    {
      "anonymous": false,
      "inputs": [
        {
          "indexed": true,
          "internalType": "address",
          "name": "referrer",
          "type": "address"
        },
        {
          "indexed": true,
          "internalType": "address",
          "name": "referral",
          "type": "address"
        },
        {
          "indexed": false,
          "internalType": "uint256",
          "name": "amount",
          "type": "uint256"
        }
      ],
      "name": "RefBonus",
      "type": "event"
    },
    {
      "anonymous": false,
      "inputs": [
        {
          "indexed": true,
          "internalType": "address",
          "name": "user",
          "type": "address"
        },
        {
          "indexed": false,
          "internalType": "uint256",
          "name": "amount",
          "type": "uint256"
        }
      ],
      "name": "Withdrawn",
      "type": "event"
    },
    {
      "anonymous": false,
      "inputs": [
        {
          "indexed": true,
          "internalType": "address",
          "name": "user",
          "type": "address"
        },
        {
          "indexed": false,
          "internalType": "uint256",
          "name": "reinvestAmount",
          "type": "uint256"
        }
      ],
      "name": "onReinvestment",
      "type": "event"
    },
    {
      "inputs": [],
      "name": "BACKUP_FOR_DEVELOPER",
      "outputs": [
        {
          "internalType": "uint256",
          "name": "",
          "type": "uint256"
        }
      ],
      "stateMutability": "view",
      "type": "function",
      "constant": true
    },
    {
      "inputs": [],
      "name": "BACKUP_FOR_FUTURE_REWARD",
      "outputs": [
        {
          "internalType": "uint256",
          "name": "",
          "type": "uint256"
        }
      ],
      "stateMutability": "view",
      "type": "function",
      "constant": true
    },
    {
      "inputs": [],
      "name": "BURNNING_PERCENTS",
      "outputs": [
        {
          "internalType": "uint256",
          "name": "",
          "type": "uint256"
        }
      ],
      "stateMutability": "view",
      "type": "function",
      "constant": true
    },
    {
      "inputs": [],
      "name": "DAILY_ROI",
      "outputs": [
        {
          "internalType": "uint256",
          "name": "",
          "type": "uint256"
        }
      ],
      "stateMutability": "view",
      "type": "function",
      "constant": true
    },
    {
      "inputs": [],
      "name": "FEE_PERCENTS",
      "outputs": [
        {
          "internalType": "uint256",
          "name": "",
          "type": "uint256"
        }
      ],
      "stateMutability": "view",
      "type": "function",
      "constant": true
    },
    {
      "inputs": [],
      "name": "LIMIT_REWARD_PERCENTS",
      "outputs": [
        {
          "internalType": "uint256",
          "name": "",
          "type": "uint256"
        }
      ],
      "stateMutability": "view",
      "type": "function",
      "constant": true
    },
    {
      "inputs": [],
      "name": "MIN_STAKE_AMOUNT",
      "outputs": [
        {
          "internalType": "uint256",
          "name": "",
          "type": "uint256"
        }
      ],
      "stateMutability": "view",
      "type": "function",
      "constant": true
    },
    {
      "inputs": [],
      "name": "PERCENTS_DIVIDER",
      "outputs": [
        {
          "internalType": "uint256",
          "name": "",
          "type": "uint256"
        }
      ],
      "stateMutability": "view",
      "type": "function",
      "constant": true
    },
    {
      "inputs": [],
      "name": "REFERRAL_PERCENTS",
      "outputs": [
        {
          "internalType": "uint256",
          "name": "",
          "type": "uint256"
        }
      ],
      "stateMutability": "view",
      "type": "function",
      "constant": true
    },
    {
      "inputs": [],
      "name": "STAKERS_SHARE_PERCENTS_OF_FEE",
      "outputs": [
        {
          "internalType": "uint256",
          "name": "",
          "type": "uint256"
        }
      ],
      "stateMutability": "view",
      "type": "function",
      "constant": true
    },
    {
      "inputs": [],
      "name": "TIME_STEP",
      "outputs": [
        {
          "internalType": "uint256",
          "name": "",
          "type": "uint256"
        }
      ],
      "stateMutability": "view",
      "type": "function",
      "constant": true
    },
    {
      "inputs": [],
      "name": "acceptOwnership",
      "outputs": [
        {
          "internalType": "address",
          "name": "",
          "type": "address"
        }
      ],
      "stateMutability": "nonpayable",
      "type": "function"
    },
    {
      "inputs": [],
      "name": "owner",
      "outputs": [
        {
          "internalType": "address payable",
          "name": "",
          "type": "address"
        }
      ],
      "stateMutability": "view",
      "type": "function",
      "constant": true
    },
    {
      "inputs": [],
      "name": "stakingOpenedAt",
      "outputs": [
        {
          "internalType": "uint256",
          "name": "",
          "type": "uint256"
        }
      ],
      "stateMutability": "view",
      "type": "function",
      "constant": true
    },
    {
      "inputs": [],
      "name": "totalDeposits",
      "outputs": [
        {
          "internalType": "uint256",
          "name": "",
          "type": "uint256"
        }
      ],
      "stateMutability": "view",
      "type": "function",
      "constant": true
    },
    {
      "inputs": [],
      "name": "totalInvested",
      "outputs": [
        {
          "internalType": "uint256",
          "name": "",
          "type": "uint256"
        }
      ],
      "stateMutability": "view",
      "type": "function",
      "constant": true
    },
    {
      "inputs": [],
      "name": "totalWithdrawn",
      "outputs": [
        {
          "internalType": "uint256",
          "name": "",
          "type": "uint256"
        }
      ],
      "stateMutability": "view",
      "type": "function",
      "constant": true
    },
    {
      "inputs": [],
      "name": "totalWithdrawnForInvested",
      "outputs": [
        {
          "internalType": "uint256",
          "name": "",
          "type": "uint256"
        }
      ],
      "stateMutability": "view",
      "type": "function",
      "constant": true
    },
    {
      "inputs": [
        {
          "internalType": "address payable",
          "name": "newOwner",
          "type": "address"
        }
      ],
      "name": "transferOwnership",
      "outputs": [],
      "stateMutability": "nonpayable",
      "type": "function"
    },
    {
      "stateMutability": "payable",
      "type": "receive",
      "payable": true
    },
    {
      "inputs": [
        {
          "internalType": "address",
          "name": "referrer",
          "type": "address"
        },
        {
          "internalType": "uint256",
          "name": "amount",
          "type": "uint256"
        }
      ],
      "name": "invest",
      "outputs": [],
      "stateMutability": "nonpayable",
      "type": "function"
    },
    {
      "inputs": [],
      "name": "withdraw",
      "outputs": [],
      "stateMutability": "nonpayable",
      "type": "function"
    },
    {
      "inputs": [],
      "name": "reinvest",
      "outputs": [],
      "stateMutability": "nonpayable",
      "type": "function"
    },
    {
      "inputs": [
        {
          "internalType": "address",
          "name": "userAddress",
          "type": "address"
        }
      ],
      "name": "getSumOfDividends",
      "outputs": [
        {
          "internalType": "uint256",
          "name": "",
          "type": "uint256"
        }
      ],
      "stateMutability": "view",
      "type": "function",
      "constant": true
    },
    {
      "inputs": [
        {
          "internalType": "address",
          "name": "userAddress",
          "type": "address"
        }
      ],
      "name": "updateWithdrawns",
      "outputs": [
        {
          "internalType": "uint256",
          "name": "",
          "type": "uint256"
        }
      ],
      "stateMutability": "nonpayable",
      "type": "function"
    },
    {
      "inputs": [],
      "name": "minimumStakeValue",
      "outputs": [
        {
          "internalType": "uint256",
          "name": "",
          "type": "uint256"
        }
      ],
      "stateMutability": "pure",
      "type": "function",
      "constant": true
    },
    {
      "inputs": [
        {
          "internalType": "address",
          "name": "userAddress",
          "type": "address"
        }
      ],
      "name": "getUserReferralBonus",
      "outputs": [
        {
          "internalType": "uint256",
          "name": "",
          "type": "uint256"
        }
      ],
      "stateMutability": "view",
      "type": "function",
      "constant": true
    },
    {
      "inputs": [
        {
          "internalType": "address",
          "name": "referrer",
          "type": "address"
        }
      ],
      "name": "getUserReferralCount",
      "outputs": [
        {
          "internalType": "uint256",
          "name": "",
          "type": "uint256"
        }
      ],
      "stateMutability": "view",
      "type": "function",
      "constant": true
    },
    {
      "inputs": [
        {
          "internalType": "address",
          "name": "userAddress",
          "type": "address"
        }
      ],
      "name": "getUserReferrer",
      "outputs": [
        {
          "internalType": "address",
          "name": "",
          "type": "address"
        }
      ],
      "stateMutability": "view",
      "type": "function",
      "constant": true
    },
    {
      "inputs": [
        {
          "internalType": "address",
          "name": "userAddress",
          "type": "address"
        }
      ],
      "name": "getUserCheckpoint",
      "outputs": [
        {
          "internalType": "uint256",
          "name": "",
          "type": "uint256"
        }
      ],
      "stateMutability": "view",
      "type": "function",
      "constant": true
    },
    {
      "inputs": [
        {
          "internalType": "address",
          "name": "userAddress",
          "type": "address"
        }
      ],
      "name": "getUserAvailable",
      "outputs": [
        {
          "internalType": "uint256",
          "name": "",
          "type": "uint256"
        }
      ],
      "stateMutability": "view",
      "type": "function",
      "constant": true
    },
    {
      "inputs": [
        {
          "internalType": "address",
          "name": "userAddress",
          "type": "address"
        }
      ],
      "name": "isActive",
      "outputs": [
        {
          "internalType": "bool",
          "name": "",
          "type": "bool"
        }
      ],
      "stateMutability": "view",
      "type": "function",
      "constant": true
    },
    {
      "inputs": [
        {
          "internalType": "address",
          "name": "userAddress",
          "type": "address"
        },
        {
          "internalType": "uint256",
          "name": "index",
          "type": "uint256"
        }
      ],
      "name": "getUserDepositInfo",
      "outputs": [
        {
          "internalType": "uint256",
          "name": "",
          "type": "uint256"
        },
        {
          "internalType": "uint256",
          "name": "",
          "type": "uint256"
        },
        {
          "internalType": "uint256",
          "name": "",
          "type": "uint256"
        }
      ],
      "stateMutability": "view",
      "type": "function",
      "constant": true
    },
    {
      "inputs": [
        {
          "internalType": "address",
          "name": "userAddress",
          "type": "address"
        }
      ],
      "name": "getUserAmountOfDeposits",
      "outputs": [
        {
          "internalType": "uint256",
          "name": "",
          "type": "uint256"
        }
      ],
      "stateMutability": "view",
      "type": "function",
      "constant": true
    },
    {
      "inputs": [
        {
          "internalType": "address",
          "name": "userAddress",
          "type": "address"
        }
      ],
      "name": "getUserTotalDeposits",
      "outputs": [
        {
          "internalType": "uint256",
          "name": "",
          "type": "uint256"
        }
      ],
      "stateMutability": "view",
      "type": "function",
      "constant": true
    },
    {
      "inputs": [
        {
          "internalType": "address",
          "name": "userAddress",
          "type": "address"
        }
      ],
      "name": "getUserTotalWithdrawn",
      "outputs": [
        {
          "internalType": "uint256",
          "name": "",
          "type": "uint256"
        }
      ],
      "stateMutability": "view",
      "type": "function",
      "constant": true
    }
  ],
  "bytecode": "0x60806040523480156200001157600080fd5b5060405162003b6b38038062003b6b833981810160405281019062000037919062000130565b336000806101000a81548173ffffffffffffffffffffffffffffffffffffffff021916908373ffffffffffffffffffffffffffffffffffffffff16021790555080600260006101000a81548173ffffffffffffffffffffffffffffffffffffffff021916908373ffffffffffffffffffffffffffffffffffffffff160217905550426007819055505062000162565b600080fd5b600073ffffffffffffffffffffffffffffffffffffffff82169050919050565b6000620000f882620000cb565b9050919050565b6200010a81620000eb565b81146200011657600080fd5b50565b6000815190506200012a81620000ff565b92915050565b600060208284031215620001495762000148620000c6565b5b6000620001598482850162000119565b91505092915050565b6139f980620001726000396000f3fe6080604052600436106102085760003560e01c80637d88209711610118578063c0806b03116100a0578063e85abe091161006f578063e85abe09146107be578063ef50b890146107fb578063f2fde38b14610826578063fb4cb32b1461084f578063fdb5a03e1461088c5761020f565b8063c0806b03146106da578063c8a22eb414610719578063d7ffca9114610756578063e083fc9f146107935761020f565b80639f8a13d7116100e75780639f8a13d7146105e1578063a8aeb6c21461061e578063a93520d81461065b578063ab8a3c6b14610686578063b9b8c246146106b15761020f565b80637d882097146105115780637e3abeea1461053c5780638932fe79146105795780638da5cb5b146105b65761020f565b80633ccfd60b1161019b5780636683e49e1161016a5780636683e49e1461043a57806368c2fbb314610465578063714ac54a1461049057806378bfacd6146104bb57806379ba5097146104e65761020f565b80633ccfd60b146103a257806344038f90146103b95780634b319713146103e45780635216aeec1461040f5761020f565b80631f30c5b1116101d75780631f30c5b1146102e457806327ed71881461030f57806332bc298c1461033a57806336144c9a146103655761020f565b806301c234a8146102145780630d4c84cf1461023f578063153ab9df1461027c57806318e1fbfc146102b95761020f565b3661020f57005b600080fd5b34801561022057600080fd5b506102296108a3565b6040516102369190612ecc565b60405180910390f35b34801561024b57600080fd5b5061026660048036038101906102619190612f4a565b6108aa565b6040516102739190612ecc565b60405180910390f35b34801561028857600080fd5b506102a3600480360381019061029e9190612f4a565b610c4b565b6040516102b09190612ecc565b60405180910390f35b3480156102c557600080fd5b506102ce610c77565b6040516102db9190612ecc565b60405180910390f35b3480156102f057600080fd5b506102f9610c88565b6040516103069190612ecc565b60405180910390f35b34801561031b57600080fd5b50610324610c8e565b6040516103319190612ecc565b60405180910390f35b34801561034657600080fd5b5061034f610c9b565b60405161035c9190612ecc565b60405180910390f35b34801561037157600080fd5b5061038c60048036038101906103879190612f4a565b610ca2565b6040516103999190612f86565b60405180910390f35b3480156103ae57600080fd5b506103b7610d0e565b005b3480156103c557600080fd5b506103ce611139565b6040516103db9190612ecc565b60405180910390f35b3480156103f057600080fd5b506103f9611140565b6040516104069190612ecc565b60405180910390f35b34801561041b57600080fd5b50610424611146565b6040516104319190612ecc565b60405180910390f35b34801561044657600080fd5b5061044f61114c565b60405161045c9190612ecc565b60405180910390f35b34801561047157600080fd5b5061047a611152565b6040516104879190612ecc565b60405180910390f35b34801561049c57600080fd5b506104a5611158565b6040516104b29190612ecc565b60405180910390f35b3480156104c757600080fd5b506104d061115f565b6040516104dd9190612ecc565b60405180910390f35b3480156104f257600080fd5b506104fb611165565b6040516105089190612f86565b60405180910390f35b34801561051d57600080fd5b5061052661133c565b6040516105339190612ecc565b60405180910390f35b34801561054857600080fd5b50610563600480360381019061055e9190612f4a565b611342565b6040516105709190612ecc565b60405180910390f35b34801561058557600080fd5b506105a0600480360381019061059b9190612f4a565b6113f7565b6040516105ad9190612ecc565b60405180910390f35b3480156105c257600080fd5b506105cb6117fd565b6040516105d89190612fc2565b60405180910390f35b3480156105ed57600080fd5b5061060860048036038101906106039190612f4a565b611821565b6040516106159190612ff8565b60405180910390f35b34801561062a57600080fd5b5061064560048036038101906106409190612f4a565b61192e565b6040516106529190612ecc565b60405180910390f35b34801561066757600080fd5b5061067061197d565b60405161067d9190612ecc565b60405180910390f35b34801561069257600080fd5b5061069b611984565b6040516106a89190612ecc565b60405180910390f35b3480156106bd57600080fd5b506106d860048036038101906106d3919061303f565b61198a565b005b3480156106e657600080fd5b5061070160048036038101906106fc919061303f565b6121ae565b6040516107109392919061307f565b60405180910390f35b34801561072557600080fd5b50610740600480360381019061073b9190612f4a565b61227b565b60405161074d9190612ecc565b60405180910390f35b34801561076257600080fd5b5061077d60048036038101906107789190612f4a565b6122c7565b60405161078a9190612ecc565b60405180910390f35b34801561079f57600080fd5b506107a8612313565b6040516107b59190612ecc565b60405180910390f35b3480156107ca57600080fd5b506107e560048036038101906107e09190612f4a565b612319565b6040516107f29190612ecc565b60405180910390f35b34801561080757600080fd5b50610810612365565b60405161081d9190612ecc565b60405180910390f35b34801561083257600080fd5b5061084d600480360381019061084891906130e2565b61236b565b005b34801561085b57600080fd5b5061087660048036038101906108719190612f4a565b612474565b6040516108839190612ecc565b60405180910390f35b34801561089857600080fd5b506108a1612529565b005b620f424081565b600080600860008473ffffffffffffffffffffffffffffffffffffffff1673ffffffffffffffffffffffffffffffffffffffff168152602001908152602001600020905060008060005b8360000180549050811015610c3f57610952606461094461016d8760000185815481106109245761092361310f565b5b90600052602060002090600302016000015461283690919063ffffffff16565b6128b090919063ffffffff16565b8460000182815481106109685761096761310f565b5b9060005260206000209060030201600101541015610c2c57836003015484600001828154811061099b5761099a61310f565b5b9060005260206000209060030201600201541115610a6b57610a6462015180610a566109f78760000185815481106109d6576109d561310f565b5b9060005260206000209060030201600201544261290e90919063ffffffff16565b610a48620f4240610a3a613a988b6000018981548110610a1a57610a1961310f565b5b90600052602060002090600302016000015461283690919063ffffffff16565b6128b090919063ffffffff16565b61283690919063ffffffff16565b6128b090919063ffffffff16565b9150610afc565b610af962015180610aeb610a8c87600301544261290e90919063ffffffff16565b610add620f4240610acf613a988b6000018981548110610aaf57610aae61310f565b5b90600052602060002090600302016000015461283690919063ffffffff16565b6128b090919063ffffffff16565b61283690919063ffffffff16565b6128b090919063ffffffff16565b91505b610b4b6064610b3d61016d876000018581548110610b1d57610b1c61310f565b5b90600052602060002090600302016000015461283690919063ffffffff16565b6128b090919063ffffffff16565b610b8583866000018481548110610b6557610b6461310f565b5b90600052602060002090600302016001015461296d90919063ffffffff16565b1115610c1657610c13846000018281548110610ba457610ba361310f565b5b906000526020600020906003020160010154610c056064610bf761016d896000018781548110610bd757610bd661310f565b5b90600052602060002090600302016000015461283690919063ffffffff16565b6128b090919063ffffffff16565b61290e90919063ffffffff16565b91505b610c29828461296d90919063ffffffff16565b92505b8080610c379061316d565b9150506108f4565b50819350505050919050565b6000610c70610c59836108aa565b610c6284612319565b61296d90919063ffffffff16565b9050919050565b600068056bc75e2d63100000905090565b6101f481565b68056bc75e2d6310000081565b6201518081565b6000600860008373ffffffffffffffffffffffffffffffffffffffff1673ffffffffffffffffffffffffffffffffffffffff16815260200190815260200160002060060160009054906101000a900473ffffffffffffffffffffffffffffffffffffffff169050919050565b6000600860003373ffffffffffffffffffffffffffffffffffffffff1673ffffffffffffffffffffffffffffffffffffffff16815260200190815260200160002090506000610d5c336113f7565b9050600260009054906101000a900473ffffffffffffffffffffffffffffffffffffffff1673ffffffffffffffffffffffffffffffffffffffff166342966c68610dc7620f4240610db9620186a08661283690919063ffffffff16565b6128b090919063ffffffff16565b6040518263ffffffff1660e01b8152600401610de39190612ecc565b600060405180830381600087803b158015610dfd57600080fd5b505af1158015610e11573d6000803e3d6000fd5b50505050610e2c81836002015461296d90919063ffffffff16565b50610e428160055461296d90919063ffffffff16565b600581905550610e64610e5533836129cb565b8261290e90919063ffffffff16565b90506000610e7133612319565b90506000811115610e9c57610e8f818361296d90919063ffffffff16565b9150600083600401819055505b60008211610edf576040517f08c379a0000000000000000000000000000000000000000000000000000000008152600401610ed690613212565b60405180910390fd5b6000600260009054906101000a900473ffffffffffffffffffffffffffffffffffffffff1673ffffffffffffffffffffffffffffffffffffffff166370a08231306040518263ffffffff1660e01b8152600401610f3c9190612f86565b6020604051808303816000875af1158015610f5b573d6000803e3d6000fd5b505050506040513d601f19601f82011682018060405250810190610f7f9190613247565b90506000627d3e8060075442610f959190613274565b1015610fa1576109c490505b6303c2670060075442610fb49190613274565b1015610fd257610fcf6101f48261296d90919063ffffffff16565b90505b838183610fdf9190613274565b1161101f576040517f08c379a0000000000000000000000000000000000000000000000000000000008152600401611016906132f4565b60405180910390fd5b428560030181905550600260009054906101000a900473ffffffffffffffffffffffffffffffffffffffff1673ffffffffffffffffffffffffffffffffffffffff1663a9059cbb33866040518363ffffffff1660e01b8152600401611085929190613314565b6020604051808303816000875af11580156110a4573d6000803e3d6000fd5b505050506040513d601f19601f820116820180604052508101906110c89190613369565b506110de8460045461296d90919063ffffffff16565b6004819055503373ffffffffffffffffffffffffffffffffffffffff167f7084f5476618d8e60b11ef0d7d3f06914655adb8793e28ff7f018d4c76d505d58560405161112a9190612ecc565b60405180910390a25050505050565b6201d4c081565b60045481565b60035481565b614e2081565b61ea6081565b620186a081565b60075481565b6000600160009054906101000a900473ffffffffffffffffffffffffffffffffffffffff1673ffffffffffffffffffffffffffffffffffffffff163373ffffffffffffffffffffffffffffffffffffffff16146111f7576040517f08c379a00000000000000000000000000000000000000000000000000000000081526004016111ee906133e2565b60405180910390fd5b7f8be0079c531659141344cd1fd0a4f28419497f9722a3daafe3b4186f6b6457e060008054906101000a900473ffffffffffffffffffffffffffffffffffffffff16600160009054906101000a900473ffffffffffffffffffffffffffffffffffffffff1660405161126a929190613461565b60405180910390a1600160009054906101000a900473ffffffffffffffffffffffffffffffffffffffff166000806101000a81548173ffffffffffffffffffffffffffffffffffffffff021916908373ffffffffffffffffffffffffffffffffffffffff1602179055506000600160006101000a81548173ffffffffffffffffffffffffffffffffffffffff021916908373ffffffffffffffffffffffffffffffffffffffff16021790555060008054906101000a900473ffffffffffffffffffffffffffffffffffffffff16905090565b60065481565b600080600860008473ffffffffffffffffffffffffffffffffffffffff1673ffffffffffffffffffffffffffffffffffffffff1681526020019081526020016000209050600080600090505b82600001805490508110156113ec576113d78360000182815481106113b6576113b561310f565b5b9060005260206000209060030201600001548361296d90919063ffffffff16565b915080806113e49061316d565b91505061138e565b508092505050919050565b600080600860008473ffffffffffffffffffffffffffffffffffffffff1673ffffffffffffffffffffffffffffffffffffffff168152602001908152602001600020905060008060005b83600001805490508110156117f15761149f606461149161016d8760000185815481106114715761147061310f565b5b90600052602060002090600302016000015461283690919063ffffffff16565b6128b090919063ffffffff16565b8460000182815481106114b5576114b461310f565b5b90600052602060002090600302016001015410156117de5783600301548460000182815481106114e8576114e761310f565b5b90600052602060002090600302016002015411156115b8576115b1620151806115a36115448760000185815481106115235761152261310f565b5b9060005260206000209060030201600201544261290e90919063ffffffff16565b611595620f4240611587613a988b60000189815481106115675761156661310f565b5b90600052602060002090600302016000015461283690919063ffffffff16565b6128b090919063ffffffff16565b61283690919063ffffffff16565b6128b090919063ffffffff16565b9150611649565b611646620151806116386115d987600301544261290e90919063ffffffff16565b61162a620f424061161c613a988b60000189815481106115fc576115fb61310f565b5b90600052602060002090600302016000015461283690919063ffffffff16565b6128b090919063ffffffff16565b61283690919063ffffffff16565b6128b090919063ffffffff16565b91505b611698606461168a61016d87600001858154811061166a5761166961310f565b5b90600052602060002090600302016000015461283690919063ffffffff16565b6128b090919063ffffffff16565b6116d2838660000184815481106116b2576116b161310f565b5b90600052602060002090600302016001015461296d90919063ffffffff16565b1115611763576117608460000182815481106116f1576116f061310f565b5b906000526020600020906003020160010154611752606461174461016d8960000187815481106117245761172361310f565b5b90600052602060002090600302016000015461283690919063ffffffff16565b6128b090919063ffffffff16565b61290e90919063ffffffff16565b91505b61179d8285600001838154811061177d5761177c61310f565b5b90600052602060002090600302016001015461296d90919063ffffffff16565b8460000182815481106117b3576117b261310f565b5b9060005260206000209060030201600101819055506117db828461296d90919063ffffffff16565b92505b80806117e99061316d565b915050611441565b50819350505050919050565b60008054906101000a900473ffffffffffffffffffffffffffffffffffffffff1681565b600080600860008473ffffffffffffffffffffffffffffffffffffffff1673ffffffffffffffffffffffffffffffffffffffff1681526020019081526020016000209050600081600001805490501115611923576118d760646118c961016d84600001600186600001805490506118989190613274565b815481106118a9576118a861310f565b5b90600052602060002090600302016000015461283690919063ffffffff16565b6128b090919063ffffffff16565b81600001600183600001805490506118ef9190613274565b81548110611900576118ff61310f565b5b9060005260206000209060030201600101541015611922576001915050611929565b5b60009150505b919050565b6000600860008373ffffffffffffffffffffffffffffffffffffffff1673ffffffffffffffffffffffffffffffffffffffff168152602001908152602001600020600001805490509050919050565b620591c881565b613a9881565b600073ffffffffffffffffffffffffffffffffffffffff163373ffffffffffffffffffffffffffffffffffffffff16036119f9576040517f08c379a00000000000000000000000000000000000000000000000000000000081526004016119f0906134d6565b60405180910390fd5b3073ffffffffffffffffffffffffffffffffffffffff163373ffffffffffffffffffffffffffffffffffffffff1603611a67576040517f08c379a0000000000000000000000000000000000000000000000000000000008152600401611a5e906134d6565b60405180910390fd5b68056bc75e2d631000008111611ab2576040517f08c379a0000000000000000000000000000000000000000000000000000000008152600401611aa990613542565b60405180910390fd5b600260009054906101000a900473ffffffffffffffffffffffffffffffffffffffff1673ffffffffffffffffffffffffffffffffffffffff166323b872dd3330846040518463ffffffff1660e01b8152600401611b1193929190613562565b6020604051808303816000875af1158015611b30573d6000803e3d6000fd5b505050506040513d601f19601f82011682018060405250810190611b549190613369565b506000600860003373ffffffffffffffffffffffffffffffffffffffff1673ffffffffffffffffffffffffffffffffffffffff1681526020019081526020016000209050611baf82826001015461296d90919063ffffffff16565b506000611bbc33846129cb565b90506000611bd3828561290e90919063ffffffff16565b9050600073ffffffffffffffffffffffffffffffffffffffff168360060160009054906101000a900473ffffffffffffffffffffffffffffffffffffffff1673ffffffffffffffffffffffffffffffffffffffff16148015611c7a57506000600860008773ffffffffffffffffffffffffffffffffffffffff1673ffffffffffffffffffffffffffffffffffffffff16815260200190815260200160002060000180549050115b8015611cb257503373ffffffffffffffffffffffffffffffffffffffff168573ffffffffffffffffffffffffffffffffffffffff1614155b15611cfb57848360060160006101000a81548173ffffffffffffffffffffffffffffffffffffffff021916908373ffffffffffffffffffffffffffffffffffffffff1602179055505b600073ffffffffffffffffffffffffffffffffffffffff168360060160009054906101000a900473ffffffffffffffffffffffffffffffffffffffff1673ffffffffffffffffffffffffffffffffffffffff1614611f4f5760008360060160009054906101000a900473ffffffffffffffffffffffffffffffffffffffff169050600073ffffffffffffffffffffffffffffffffffffffff168173ffffffffffffffffffffffffffffffffffffffff1614611f4d576000611ddd620f4240611dcf6201d4c08661283690919063ffffffff16565b6128b090919063ffffffff16565b9050611df2818461290e90919063ffffffff16565b9250611e4981600860008573ffffffffffffffffffffffffffffffffffffffff1673ffffffffffffffffffffffffffffffffffffffff1681526020019081526020016000206004015461296d90919063ffffffff16565b600860008473ffffffffffffffffffffffffffffffffffffffff1673ffffffffffffffffffffffffffffffffffffffff16815260200190815260200160002060040181905550611ee56001600860008573ffffffffffffffffffffffffffffffffffffffff1673ffffffffffffffffffffffffffffffffffffffff1681526020019081526020016000206007015461296d90919063ffffffff16565b503373ffffffffffffffffffffffffffffffffffffffff168273ffffffffffffffffffffffffffffffffffffffff167f328838ddfc48ad5ae5531b1ad95dfb22b42ff1866853e474375ffef2c63d8e5083604051611f439190612ecc565b60405180910390a3505b505b6000836000018054905003611f9f574283600301819055507f9fd565cd14c3c391679eb0cad12a14dcf7534e9d3462bcb9b67a098a9bbbc24a33604051611f969190612f86565b60405180910390a15b8260000160405180606001604052808381526020016000815260200142815250908060018154018082558091505060019003906000526020600020906003020160009091909190915060008201518160000155602082015181600101556040820151816002015550506009339080600181540180825580915050600190039060005260206000200160009091909190916101000a81548173ffffffffffffffffffffffffffffffffffffffff021916908373ffffffffffffffffffffffffffffffffffffffff1602179055506120808160035461296d90919063ffffffff16565b60038190555061209c600160065461296d90919063ffffffff16565b600681905550600260009054906101000a900473ffffffffffffffffffffffffffffffffffffffff1673ffffffffffffffffffffffffffffffffffffffff166342966c6861210b620f42406120fd620186a08961283690919063ffffffff16565b6128b090919063ffffffff16565b6040518263ffffffff1660e01b81526004016121279190612ecc565b600060405180830381600087803b15801561214157600080fd5b505af1158015612155573d6000803e3d6000fd5b505050503373ffffffffffffffffffffffffffffffffffffffff167f2cb77763bc1e8490c1a904905c4d74b4269919aca114464f4bb4d911e60de3648260405161219f9190612ecc565b60405180910390a25050505050565b600080600080600860008773ffffffffffffffffffffffffffffffffffffffff1673ffffffffffffffffffffffffffffffffffffffff168152602001908152602001600020905080600001858154811061220b5761220a61310f565b5b9060005260206000209060030201600001548160000186815481106122335761223261310f565b5b90600052602060002090600302016001015482600001878154811061225b5761225a61310f565b5b906000526020600020906003020160020154935093509350509250925092565b6000600860008373ffffffffffffffffffffffffffffffffffffffff1673ffffffffffffffffffffffffffffffffffffffff168152602001908152602001600020600701549050919050565b6000600860008373ffffffffffffffffffffffffffffffffffffffff1673ffffffffffffffffffffffffffffffffffffffff168152602001908152602001600020600301549050919050565b60055481565b6000600860008373ffffffffffffffffffffffffffffffffffffffff1673ffffffffffffffffffffffffffffffffffffffff168152602001908152602001600020600401549050919050565b6109c481565b60008054906101000a900473ffffffffffffffffffffffffffffffffffffffff1673ffffffffffffffffffffffffffffffffffffffff163373ffffffffffffffffffffffffffffffffffffffff16146123f9576040517f08c379a00000000000000000000000000000000000000000000000000000000081526004016123f0906135e5565b60405180910390fd5b600073ffffffffffffffffffffffffffffffffffffffff168173ffffffffffffffffffffffffffffffffffffffff1603612468576040517f08c379a000000000000000000000000000000000000000000000000000000000815260040161245f90613651565b60405180910390fd5b61247181612e6f565b50565b600080600860008473ffffffffffffffffffffffffffffffffffffffff1673ffffffffffffffffffffffffffffffffffffffff1681526020019081526020016000209050600080600090505b826000018054905081101561251e576125098360000182815481106124e8576124e761310f565b5b9060005260206000209060030201600101548361296d90919063ffffffff16565b915080806125169061316d565b9150506124c0565b508092505050919050565b6000600860003373ffffffffffffffffffffffffffffffffffffffff1673ffffffffffffffffffffffffffffffffffffffff16815260200190815260200160002060020154600860003373ffffffffffffffffffffffffffffffffffffffff1673ffffffffffffffffffffffffffffffffffffffff168152602001908152602001600020600101546125bb9190613274565b116125fb576040517f08c379a00000000000000000000000000000000000000000000000000000000081526004016125f2906136bd565b60405180910390fd5b6000600860003373ffffffffffffffffffffffffffffffffffffffff1673ffffffffffffffffffffffffffffffffffffffff16815260200190815260200160002090506000612649336113f7565b9050600260009054906101000a900473ffffffffffffffffffffffffffffffffffffffff1673ffffffffffffffffffffffffffffffffffffffff166342966c686126b4620f42406126a6620186a08661283690919063ffffffff16565b6128b090919063ffffffff16565b6040518263ffffffff1660e01b81526004016126d09190612ecc565b600060405180830381600087803b1580156126ea57600080fd5b505af11580156126fe573d6000803e3d6000fd5b5050505061271e61270f33836129cb565b8261290e90919063ffffffff16565b90508160000160405180606001604052808381526020016000815260200142815250908060018154018082558091505060019003906000526020600020906003020160009091909190915060008201518160000155602082015181600101556040820151816002015550504282600301819055506127a78160035461296d90919063ffffffff16565b6003819055506127c3600160065461296d90919063ffffffff16565b6006819055506127de8160045461296d90919063ffffffff16565b6004819055503373ffffffffffffffffffffffffffffffffffffffff167f5d511c2070e5a2dbcc6fbfbb3fd6704a11ab5fa74b793b81aacece2c7cc294058260405161282a9190612ecc565b60405180910390a25050565b600080830361284857600090506128aa565b6000828461285691906136dd565b90508284826128659190613766565b146128a5576040517f08c379a000000000000000000000000000000000000000000000000000000000815260040161289c90613809565b60405180910390fd5b809150505b92915050565b60008082116128f4576040517f08c379a00000000000000000000000000000000000000000000000000000000081526004016128eb90613875565b60405180910390fd5b600082846129029190613766565b90508091505092915050565b600082821115612953576040517f08c379a000000000000000000000000000000000000000000000000000000000815260040161294a906138e1565b60405180910390fd5b600082846129619190613274565b90508091505092915050565b600080828461297c9190613901565b9050838110156129c1576040517f08c379a00000000000000000000000000000000000000000000000000000000081526004016129b8906139a3565b60405180910390fd5b8091505092915050565b6000806129f8620f42406129ea61ea608661283690919063ffffffff16565b6128b090919063ffffffff16565b90506000612a26620f4240612a18614e208761283690919063ffffffff16565b6128b090919063ffffffff16565b90506000612a4160055460035461290e90919063ffffffff16565b905060008103612a5657829350505050612e69565b60005b600980549050811015612e6157600073ffffffffffffffffffffffffffffffffffffffff1660098281548110612a9257612a9161310f565b5b9060005260206000200160009054906101000a900473ffffffffffffffffffffffffffffffffffffffff1673ffffffffffffffffffffffffffffffffffffffff161480612b4857508673ffffffffffffffffffffffffffffffffffffffff1660098281548110612b0557612b0461310f565b5b9060005260206000200160009054906101000a900473ffffffffffffffffffffffffffffffffffffffff1673ffffffffffffffffffffffffffffffffffffffff16145b612e4e576000612c616008600060098581548110612b6957612b6861310f565b5b9060005260206000200160009054906101000a900473ffffffffffffffffffffffffffffffffffffffff1673ffffffffffffffffffffffffffffffffffffffff1673ffffffffffffffffffffffffffffffffffffffff168152602001908152602001600020600201546008600060098681548110612bea57612be961310f565b5b9060005260206000200160009054906101000a900473ffffffffffffffffffffffffffffffffffffffff1673ffffffffffffffffffffffffffffffffffffffff1673ffffffffffffffffffffffffffffffffffffffff1681526020019081526020016000206001015461290e90919063ffffffff16565b905068056bc75e2d63100000811015612c7a5750612e4e565b612ca283612c94620f42408461283690919063ffffffff16565b6128b090919063ffffffff16565b6008600060098581548110612cba57612cb961310f565b5b9060005260206000200160009054906101000a900473ffffffffffffffffffffffffffffffffffffffff1673ffffffffffffffffffffffffffffffffffffffff1673ffffffffffffffffffffffffffffffffffffffff16815260200190815260200160002060080181905550612e4b612dbc856008600060098781548110612d4557612d4461310f565b5b9060005260206000200160009054906101000a900473ffffffffffffffffffffffffffffffffffffffff1673ffffffffffffffffffffffffffffffffffffffff1673ffffffffffffffffffffffffffffffffffffffff1681526020019081526020016000206008015461283690919063ffffffff16565b6008600060098681548110612dd457612dd361310f565b5b9060005260206000200160009054906101000a900473ffffffffffffffffffffffffffffffffffffffff1673ffffffffffffffffffffffffffffffffffffffff1673ffffffffffffffffffffffffffffffffffffffff1681526020019081526020016000206005015461296d90919063ffffffff16565b50505b8080612e599061316d565b915050612a59565b508293505050505b92915050565b80600160006101000a81548173ffffffffffffffffffffffffffffffffffffffff021916908373ffffffffffffffffffffffffffffffffffffffff16021790555050565b6000819050919050565b612ec681612eb3565b82525050565b6000602082019050612ee16000830184612ebd565b92915050565b600080fd5b600073ffffffffffffffffffffffffffffffffffffffff82169050919050565b6000612f1782612eec565b9050919050565b612f2781612f0c565b8114612f3257600080fd5b50565b600081359050612f4481612f1e565b92915050565b600060208284031215612f6057612f5f612ee7565b5b6000612f6e84828501612f35565b91505092915050565b612f8081612f0c565b82525050565b6000602082019050612f9b6000830184612f77565b92915050565b6000612fac82612eec565b9050919050565b612fbc81612fa1565b82525050565b6000602082019050612fd76000830184612fb3565b92915050565b60008115159050919050565b612ff281612fdd565b82525050565b600060208201905061300d6000830184612fe9565b92915050565b61301c81612eb3565b811461302757600080fd5b50565b60008135905061303981613013565b92915050565b6000806040838503121561305657613055612ee7565b5b600061306485828601612f35565b92505060206130758582860161302a565b9150509250929050565b60006060820190506130946000830186612ebd565b6130a16020830185612ebd565b6130ae6040830184612ebd565b949350505050565b6130bf81612fa1565b81146130ca57600080fd5b50565b6000813590506130dc816130b6565b92915050565b6000602082840312156130f8576130f7612ee7565b5b6000613106848285016130cd565b91505092915050565b7f4e487b7100000000000000000000000000000000000000000000000000000000600052603260045260246000fd5b7f4e487b7100000000000000000000000000000000000000000000000000000000600052601160045260246000fd5b600061317882612eb3565b91507fffffffffffffffffffffffffffffffffffffffffffffffffffffffffffffffff82036131aa576131a961313e565b5b600182019050919050565b600082825260208201905092915050565b7f5573657220686173206e6f206469766964656e64730000000000000000000000600082015250565b60006131fc6015836131b5565b9150613207826131c6565b602082019050919050565b6000602082019050818103600083015261322b816131ef565b9050919050565b60008151905061324181613013565b92915050565b60006020828403121561325d5761325c612ee7565b5b600061326b84828501613232565b91505092915050565b600061327f82612eb3565b915061328a83612eb3565b92508282101561329d5761329c61313e565b5b828203905092915050565b7f496e73756666696369656e742062616c616e6365206f6620636f6e7472616374600082015250565b60006132de6020836131b5565b91506132e9826132a8565b602082019050919050565b6000602082019050818103600083015261330d816132d1565b9050919050565b60006040820190506133296000830185612f77565b6133366020830184612ebd565b9392505050565b61334681612fdd565b811461335157600080fd5b50565b6000815190506133638161333d565b92915050565b60006020828403121561337f5761337e612ee7565b5b600061338d84828501613354565b91505092915050565b7f496e76616c6964206e6577206f776e6572000000000000000000000000000000600082015250565b60006133cc6011836131b5565b91506133d782613396565b602082019050919050565b600060208201905081810360008301526133fb816133bf565b9050919050565b6000819050919050565b600061342761342261341d84612eec565b613402565b612eec565b9050919050565b60006134398261340c565b9050919050565b600061344b8261342e565b9050919050565b61345b81613440565b82525050565b60006040820190506134766000830185613452565b6134836020830184613452565b9392505050565b7f496e76616c696420757365720000000000000000000000000000000000000000600082015250565b60006134c0600c836131b5565b91506134cb8261348a565b602082019050919050565b600060208201905081810360008301526134ef816134b3565b9050919050565b7f546f6f20736d616c6c20696e7665737465640000000000000000000000000000600082015250565b600061352c6012836131b5565b9150613537826134f6565b602082019050919050565b6000602082019050818103600083015261355b8161351f565b9050919050565b60006060820190506135776000830186612f77565b6135846020830185612f77565b6135916040830184612ebd565b949350505050565b7f4e6f74204f776e65720000000000000000000000000000000000000000000000600082015250565b60006135cf6009836131b5565b91506135da82613599565b602082019050919050565b600060208201905081810360008301526135fe816135c2565b9050919050565b7f496e76616c696420416464726573730000000000000000000000000000000000600082015250565b600061363b600f836131b5565b915061364682613605565b602082019050919050565b6000602082019050818103600083015261366a8161362e565b9050919050565b7f4e6f7420486f6c64657200000000000000000000000000000000000000000000600082015250565b60006136a7600a836131b5565b91506136b282613671565b602082019050919050565b600060208201905081810360008301526136d68161369a565b9050919050565b60006136e882612eb3565b91506136f383612eb3565b9250817fffffffffffffffffffffffffffffffffffffffffffffffffffffffffffffffff048311821515161561372c5761372b61313e565b5b828202905092915050565b7f4e487b7100000000000000000000000000000000000000000000000000000000600052601260045260246000fd5b600061377182612eb3565b915061377c83612eb3565b92508261378c5761378b613737565b5b828204905092915050565b7f536166654d6174683a206d756c7469706c69636174696f6e206f766572666c6f60008201527f7700000000000000000000000000000000000000000000000000000000000000602082015250565b60006137f36021836131b5565b91506137fe82613797565b604082019050919050565b60006020820190508181036000830152613822816137e6565b9050919050565b7f536166654d6174683a206469766973696f6e206279207a65726f000000000000600082015250565b600061385f601a836131b5565b915061386a82613829565b602082019050919050565b6000602082019050818103600083015261388e81613852565b9050919050565b7f536166654d6174683a207375627472616374696f6e206f766572666c6f770000600082015250565b60006138cb601e836131b5565b91506138d682613895565b602082019050919050565b600060208201905081810360008301526138fa816138be565b9050919050565b600061390c82612eb3565b915061391783612eb3565b9250827fffffffffffffffffffffffffffffffffffffffffffffffffffffffffffffffff0382111561394c5761394b61313e565b5b828201905092915050565b7f536166654d6174683a206164646974696f6e206f766572666c6f770000000000600082015250565b600061398d601b836131b5565b915061399882613957565b602082019050919050565b600060208201905081810360008301526139bc81613980565b905091905056fea26469706673582212203671cc1e790e53611d88dea83ccafc64b3e42bf5b791232a4bcfdbf4eb5f783064736f6c634300080e0033",
  "immutableReferences": {},
  "source": "// SPDX-License-Identifier: UNLICENSED\r\npragma solidity ^0.8.0;\r\n/**\r\n *Submitted for verification at BscScan.com on 2022-05-10\r\n*/\r\n\r\nlibrary SafeMath {\r\n\r\n    function add(uint256 a, uint256 b) internal pure returns (uint256) {\r\n        uint256 c = a + b;\r\n        require(c >= a, \"SafeMath: addition overflow\");\r\n\r\n        return c;\r\n    }\r\n\r\n    function sub(uint256 a, uint256 b) internal pure returns (uint256) {\r\n        require(b <= a, \"SafeMath: subtraction overflow\");\r\n        uint256 c = a - b;\r\n\r\n        return c;\r\n    }\r\n\r\n    function mul(uint256 a, uint256 b) internal pure returns (uint256) {\r\n        if (a == 0) {\r\n            return 0;\r\n        }\r\n\r\n        uint256 c = a * b;\r\n        require(c / a == b, \"SafeMath: multiplication overflow\");\r\n\r\n        return c;\r\n    }\r\n\r\n    function div(uint256 a, uint256 b) internal pure returns (uint256) {\r\n        require(b > 0, \"SafeMath: division by zero\");\r\n        uint256 c = a / b;\r\n\r\n        return c;\r\n    }\r\n}\r\n\r\nabstract contract ERC20Interface {\r\n    function burn(uint256 amount) \r\n        public\r\n        virtual;\r\n    function totalSupply() \r\n\t\tpublic \r\n\t\tvirtual \r\n\t\treturns (uint256);\r\n\r\n    function balanceOf(address tokenOwner) \r\n\t\tpublic \r\n\t\tvirtual \r\n\t\treturns (uint256 balance);\r\n    \r\n\tfunction allowance\r\n\t\t(address tokenOwner, address spender) \r\n\t\tpublic \r\n\t\tvirtual \r\n\t\treturns (uint256 remaining);\r\n\r\n    function transfer(address to, uint256 tokens) public virtual\r\n\t\treturns (bool success);\r\n    \r\n\tfunction approve(address spender, uint256 tokens) public virtual\r\n\t\treturns (bool success);\r\n\r\n    function transferFrom \r\n\t\t(address from, address to, uint256 tokens) public virtual\r\n\t\treturns (bool success);\r\n\r\n\r\n    event Transfer(address indexed from, address indexed to, uint256 tokens);\r\n    event Approval(address indexed tokenOwner, address indexed spender, uint256 tokens);\r\n}\r\n\r\ncontract Ownable {\r\n\r\n  // Owner of the contract\r\n  address payable public owner;\r\n  address payable internal _newOwner;\r\n\r\n    constructor() {\r\n        owner = payable(address(msg.sender));\r\n    }\r\n\r\n  /**\r\n  * @dev Event to show ownership has been transferred\r\n  * @param previousOwner representing the address of the previous owner\r\n  * @param newOwner representing the address of the new owner\r\n  */\r\n  event OwnershipTransferred(address previousOwner, address newOwner);\r\n\r\n\r\n  /**\r\n   * @dev Sets a new owner address\r\n   */\r\n  function setOwner(address payable newOwner) internal {\r\n    _newOwner = newOwner;\r\n  }\r\n\r\n  /**\r\n  * @dev Throws if called by any account other than the owner.\r\n  */\r\n  modifier onlyOwner() {\r\n    require(msg.sender == owner, \"Not Owner\");\r\n    _;\r\n  }\r\n\r\n  /**\r\n   * @dev Allows the current owner to transfer control of the contract to a newOwner.\r\n   * @param newOwner The address to transfer ownership to.\r\n   */\r\n  function transferOwnership(address payable newOwner) public onlyOwner {\r\n    require(newOwner != address(0), \"Invalid Address\");\r\n    setOwner(newOwner);\r\n  }\r\n\r\n  //this flow is to prevent transferring ownership to wrong wallet by mistake\r\n  function acceptOwnership() public returns (address){\r\n      require(msg.sender == _newOwner,\"Invalid new owner\");\r\n      emit OwnershipTransferred(owner, _newOwner);\r\n      owner = _newOwner;\r\n      _newOwner = payable(address(0));\r\n      return owner;\r\n  }\r\n}\r\n\r\ncontract ViccStaking is Ownable {\r\n    using SafeMath for uint256;\r\n\r\n    uint256 constant public PERCENTS_DIVIDER = 10**6;\r\n\tuint256 constant public DAILY_ROI = 15000;                  // 1.5%\r\n    uint256 constant public REFERRAL_PERCENTS = 120000;         // 12%\r\n    uint256 constant public FEE_PERCENTS = 60000;               // 6%\r\n    uint256 constant public STAKERS_SHARE_PERCENTS_OF_FEE = 20000;    // 2%\r\n    uint256 constant public BURNNING_PERCENTS = 100000;\r\n    uint256 constant public TIME_STEP = 1 days;\r\n    uint256 constant public MIN_STAKE_AMOUNT = 100 * (10**18);\r\n    uint256 constant public LIMIT_REWARD_PERCENTS = 365000;\r\n\r\n    uint256 constant public BACKUP_FOR_FUTURE_REWARD = 2500;\r\n    uint256 constant public BACKUP_FOR_DEVELOPER = 500;\r\n\t\r\n\tERC20Interface ViccToken;\r\n\r\n    uint256 public totalInvested;\r\n    uint256 public totalWithdrawn;\r\n    uint256 public totalWithdrawnForInvested;\r\n    uint256 public totalDeposits;\r\n    uint256 public stakingOpenedAt;\r\n\r\n    struct Deposit {\r\n        uint256 amount;\r\n        uint256 withdrawn;\r\n        uint256 start;\r\n    }\r\n\r\n    struct User {\r\n        Deposit[] deposits;\r\n        uint256 invested;\r\n        uint256 withdrawn;\r\n        uint256 checkpoint;\r\n        uint256 bonus;\r\n        uint256 rewardFromFee;\r\n        address referrer;\r\n        uint256 referralCount;\r\n        uint256 sharePercents;\r\n    }\r\n\r\n    mapping (address => User) internal users;\r\n    address[] availableUsers;\r\n\r\n    modifier onlyValidUser() {\r\n        require(msg.sender != address(0), \"Invalid user\");\r\n        require(msg.sender != address(this), \"Invalid user\");\r\n        _;\r\n    }\r\n\r\n    modifier onlyHodler() {\r\n        require(users[msg.sender].invested - users[msg.sender].withdrawn > 0, \"Not Holder\");\r\n        _;\r\n    }\r\n\r\n    event Newbie(address user);\r\n    event NewDeposit(address indexed user, uint256 amount);\r\n    event Withdrawn(address indexed user, uint256 amount);\r\n    event onReinvestment(address indexed user, uint256 reinvestAmount);\r\n    event RefBonus(address indexed referrer, address indexed referral, uint256 amount);\r\n\r\n    constructor(address _ViccToken) {\r\n        ViccToken = ERC20Interface(_ViccToken);\r\n        stakingOpenedAt = block.timestamp;\r\n    }\r\n\r\n    receive() external payable {}\r\n\r\n    function _distributeFee(address txSender, uint256 txAmount) internal returns(uint256) {\r\n        uint256 totalFee = txAmount.mul(FEE_PERCENTS).div(PERCENTS_DIVIDER);\r\n\r\n        uint256 totalStakerShare = txAmount.mul(STAKERS_SHARE_PERCENTS_OF_FEE).div(PERCENTS_DIVIDER);\r\n        uint256 totalBalanceInvested = totalInvested.sub(totalWithdrawnForInvested);\r\n        if (totalBalanceInvested == 0) {\r\n            return totalFee;\r\n        }\r\n        for (uint256 i = 0; i < availableUsers.length; i++) {\r\n            if (availableUsers[i] == address(0) || availableUsers[i] == txSender) {\r\n                continue;\r\n            }\r\n            uint256 balanceInvested = users[availableUsers[i]].invested.sub(users[availableUsers[i]].withdrawn);\r\n            if (balanceInvested < MIN_STAKE_AMOUNT) {\r\n                continue;\r\n            }\r\n            users[availableUsers[i]].sharePercents = balanceInvested.mul(PERCENTS_DIVIDER).div(totalBalanceInvested);\r\n            users[availableUsers[i]].rewardFromFee.add(users[availableUsers[i]].sharePercents.mul(totalStakerShare));\r\n        }\r\n        return totalFee;\r\n    }\r\n\r\n    function invest(address referrer, uint256 amount) onlyValidUser public {\r\n        require(amount > MIN_STAKE_AMOUNT, \"Too small invested\");\r\n\t\tViccToken.transferFrom(msg.sender, address(this), amount);\r\n\r\n        User storage user = users[msg.sender];\r\n        user.invested.add(amount);\r\n\r\n        uint256 fee = _distributeFee(msg.sender, amount);\r\n\r\n        uint256 realInvestingAmount = amount.sub(fee);\r\n\t\t\r\n\r\n        if (user.referrer == address(0) && users[referrer].deposits.length > 0 && referrer != msg.sender) {\r\n            user.referrer = referrer;\r\n        }\r\n\r\n        // Calculate referral bonus for referrer\r\n        if (user.referrer != address(0)) {\r\n            address upline = user.referrer;\r\n\t\t\tif (upline != address(0)) {\r\n\t\t\t\tuint256 _referralBonus = realInvestingAmount.mul(REFERRAL_PERCENTS).div(PERCENTS_DIVIDER);\r\n                realInvestingAmount = realInvestingAmount.sub(_referralBonus);\r\n\t\t\t\tusers[upline].bonus = users[upline].bonus.add(_referralBonus);\r\n                users[upline].referralCount.add(1);\r\n\t\t\t\temit RefBonus(upline, msg.sender, _referralBonus);\r\n\t\t\t}\r\n        }\r\n\r\n        if (user.deposits.length == 0) {\r\n            user.checkpoint = block.timestamp;\r\n            emit Newbie(msg.sender);\r\n        }\r\n\r\n        user.deposits.push(Deposit(realInvestingAmount, 0, block.timestamp));\r\n\r\n        availableUsers.push(msg.sender);\r\n\r\n        totalInvested = totalInvested.add(realInvestingAmount);\r\n        totalDeposits = totalDeposits.add(1);\r\n\r\n        ViccToken.burn(amount.mul(BURNNING_PERCENTS).div(PERCENTS_DIVIDER)); // Burn 10%\r\n\r\n        emit NewDeposit(msg.sender, realInvestingAmount);\r\n    }\r\n\r\n    function withdraw() public {\r\n        User storage user = users[msg.sender];\r\n\r\n        uint256 totalAmount = updateWithdrawns(msg.sender);\r\n\r\n        ViccToken.burn(totalAmount.mul(BURNNING_PERCENTS).div(PERCENTS_DIVIDER)); // Burn 10%\r\n\r\n        user.withdrawn.add(totalAmount);\r\n        totalWithdrawnForInvested = totalWithdrawnForInvested.add(totalAmount);\r\n        totalAmount = totalAmount.sub(_distributeFee(msg.sender, totalAmount));\r\n        uint256 referralBonus = getUserReferralBonus(msg.sender);\r\n        if (referralBonus > 0) {\r\n            totalAmount = totalAmount.add(referralBonus);\r\n            user.bonus = 0;\r\n        }\r\n        require(totalAmount > 0, \"User has no dividends\");\r\n\r\n        uint256 contractBalance = ViccToken.balanceOf(address(this));\r\n        /*\r\n         * Implementation of 5% for future reward\r\n         */\r\n        uint bkupForFutureReward = 0;\r\n        if (block.timestamp - stakingOpenedAt < 95 days) {\r\n            bkupForFutureReward = BACKUP_FOR_FUTURE_REWARD;\r\n        }\r\n        /*\r\n         * Implementation of 1% for developer\r\n         */\r\n        if (block.timestamp - stakingOpenedAt < 730 days) {\r\n            bkupForFutureReward = bkupForFutureReward.add(BACKUP_FOR_DEVELOPER);\r\n        }\r\n        require(contractBalance - bkupForFutureReward > totalAmount, \"Insufficient balance of contract\");\r\n\r\n        user.checkpoint = block.timestamp;\r\n\t\t\r\n\t\tViccToken.transfer(msg.sender, totalAmount);\r\n\r\n        totalWithdrawn = totalWithdrawn.add(totalAmount);\r\n\r\n        emit Withdrawn(msg.sender, totalAmount);\r\n    }\r\n\r\n    function reinvest() onlyHodler public\r\n    {\r\n        User storage user = users[msg.sender];\r\n        // fetch dividends\r\n        uint256 dividends = updateWithdrawns(msg.sender); // retrieve ref. bonus later in the code\r\n\r\n        ViccToken.burn(dividends.mul(BURNNING_PERCENTS).div(PERCENTS_DIVIDER)); // Burn 10%\r\n\r\n        dividends = dividends.sub(_distributeFee(msg.sender, dividends));\r\n\r\n        user.deposits.push(Deposit(dividends, 0, block.timestamp));\r\n\r\n        // updateWithdrawns(msg.sender);\r\n\r\n        user.checkpoint = block.timestamp;\r\n\r\n        totalInvested = totalInvested.add(dividends);\r\n        totalDeposits = totalDeposits.add(1);\r\n        totalWithdrawn = totalWithdrawn.add(dividends);\r\n        // fire event\r\n        emit onReinvestment(msg.sender, dividends);\r\n    }\r\n\r\n\r\n    function getSumOfDividends(address userAddress) public view returns (uint256) {\r\n        User storage user = users[userAddress];\r\n\r\n        uint256 totalDividends;\r\n        uint256 dividends;\r\n\r\n        for (uint256 i = 0; i < user.deposits.length; i++) {\r\n\r\n            if (user.deposits[i].withdrawn < user.deposits[i].amount.mul(365).div(100)) {\r\n\r\n                if (user.deposits[i].start > user.checkpoint) {\r\n\r\n                    dividends = (user.deposits[i].amount.mul(DAILY_ROI).div(PERCENTS_DIVIDER))\r\n                        .mul(block.timestamp.sub(user.deposits[i].start))\r\n                        .div(TIME_STEP);\r\n\r\n                } else {\r\n\r\n                    dividends = (user.deposits[i].amount.mul(DAILY_ROI).div(PERCENTS_DIVIDER))\r\n                        .mul(block.timestamp.sub(user.checkpoint))\r\n                        .div(TIME_STEP);\r\n                }\r\n\r\n                if (user.deposits[i].withdrawn.add(dividends) > user.deposits[i].amount.mul(365).div(100)) {\r\n                    dividends = (user.deposits[i].amount.mul(365).div(100)).sub(user.deposits[i].withdrawn);\r\n                }\r\n                totalDividends = totalDividends.add(dividends);\r\n            }\r\n        }\r\n\r\n        return totalDividends;\r\n    }\r\n\r\n    function updateWithdrawns(address userAddress) public returns (uint256) {\r\n        User storage user = users[userAddress];\r\n\r\n        uint256 totalDividends;\r\n        uint256 dividends;\r\n\r\n        for (uint256 i = 0; i < user.deposits.length; i++) {\r\n\r\n            if (user.deposits[i].withdrawn < user.deposits[i].amount.mul(365).div(100)) {\r\n\r\n                if (user.deposits[i].start > user.checkpoint) {\r\n\r\n                    dividends = (user.deposits[i].amount.mul(DAILY_ROI).div(PERCENTS_DIVIDER))\r\n                        .mul(block.timestamp.sub(user.deposits[i].start))\r\n                        .div(TIME_STEP);\r\n\r\n                } else {\r\n\r\n                    dividends = (user.deposits[i].amount.mul(DAILY_ROI).div(PERCENTS_DIVIDER))\r\n                        .mul(block.timestamp.sub(user.checkpoint))\r\n                        .div(TIME_STEP);\r\n                }\r\n\r\n                if (user.deposits[i].withdrawn.add(dividends) > user.deposits[i].amount.mul(365).div(100)) {\r\n                    dividends = (user.deposits[i].amount.mul(365).div(100)).sub(user.deposits[i].withdrawn);\r\n                }\r\n                user.deposits[i].withdrawn = user.deposits[i].withdrawn.add(dividends); /// changing of storage data\r\n                totalDividends = totalDividends.add(dividends);\r\n            }\r\n        }\r\n\r\n        return totalDividends;\r\n    }\r\n\r\n    function minimumStakeValue() public pure returns(uint256) {\r\n        return MIN_STAKE_AMOUNT;\r\n    }\r\n\r\n    function getUserReferralBonus(address userAddress) public view returns(uint256) {\r\n        return users[userAddress].bonus;\r\n    }\r\n\r\n    function getUserReferralCount(address referrer) public view returns(uint256) {\r\n        return users[referrer].referralCount;\r\n    }\r\n\r\n    function getUserReferrer(address userAddress) public view returns(address) {\r\n        return users[userAddress].referrer;\r\n    }\r\n\r\n    function getUserCheckpoint(address userAddress) public view returns(uint256) {\r\n        return users[userAddress].checkpoint;\r\n    }\r\n\r\n    function getUserAvailable(address userAddress) public view returns(uint256) {\r\n        return getUserReferralBonus(userAddress).add(getSumOfDividends(userAddress));\r\n    }\r\n\r\n    function isActive(address userAddress) public view returns (bool) {\r\n        User storage user = users[userAddress];\r\n\r\n        if (user.deposits.length > 0) {\r\n            if (user.deposits[user.deposits.length-1].withdrawn < user.deposits[user.deposits.length-1].amount.mul(365).div(100)) {\r\n                return true;\r\n            }\r\n        }\r\n        return false;\r\n    }\r\n\r\n    function getUserDepositInfo(address userAddress, uint256 index) public view returns(uint256, uint256, uint256) {\r\n        User storage user = users[userAddress];\r\n\r\n        return (user.deposits[index].amount, user.deposits[index].withdrawn, user.deposits[index].start);\r\n    }\r\n\r\n    function getUserAmountOfDeposits(address userAddress) public view returns(uint256) {\r\n        return users[userAddress].deposits.length;\r\n    }\r\n\r\n    function getUserTotalDeposits(address userAddress) public view returns(uint256) {\r\n        User storage user = users[userAddress];\r\n\r\n        uint256 amount;\r\n\r\n        for (uint256 i = 0; i < user.deposits.length; i++) {\r\n            amount = amount.add(user.deposits[i].amount);\r\n        }\r\n\r\n        return amount;\r\n    }\r\n\r\n    function getUserTotalWithdrawn(address userAddress) public view returns(uint256) {\r\n        User storage user = users[userAddress];\r\n\r\n        uint256 amount;\r\n\r\n        for (uint256 i = 0; i < user.deposits.length; i++) {\r\n            amount = amount.add(user.deposits[i].withdrawn);\r\n        }\r\n\r\n        return amount;\r\n    }\r\n}",
  "sourcePath": "D:\\Work\\VictoryCoinStake\\src\\Contract\\contracts\\ViccStaking.sol",
  "compiler": {
    "name": "solc",
    "version": "0.8.14+commit.80d49f37.Emscripten.clang"
  },
  "schemaVersion": "3.4.7",
  "updatedAt": "2022-06-17T20:01:52.374Z",
  "networkType": "ethereum",
  "devdoc": {
    "kind": "dev",
    "methods": {
      "transferOwnership(address)": {
        "details": "Allows the current owner to transfer control of the contract to a newOwner.",
        "params": {
          "newOwner": "The address to transfer ownership to."
        }
      }
    },
    "version": 1
  },
  "userdoc": {
    "kind": "user",
    "methods": {},
    "version": 1
  }
}