{
  "contractName": "ViccStaking",
  "abi": [
    {
      "inputs": [
        {
          "internalType": "address",
          "name": "_VictoryCoin",
          "type": "address"
        }
      ],
      "stateMutability": "nonpayable",
      "type": "constructor"
    },
    {
      "anonymous": false,
      "inputs": [
        {
          "indexed": true,
          "internalType": "address",
          "name": "user",
          "type": "address"
        },
        {
          "indexed": false,
          "internalType": "uint256",
          "name": "amount",
          "type": "uint256"
        }
      ],
      "name": "NewDeposit",
      "type": "event"
    },
    {
      "anonymous": false,
      "inputs": [
        {
          "indexed": false,
          "internalType": "address",
          "name": "user",
          "type": "address"
        }
      ],
      "name": "Newbie",
      "type": "event"
    },
    {
      "anonymous": false,
      "inputs": [
        {
          "indexed": false,
          "internalType": "address",
          "name": "previousOwner",
          "type": "address"
        },
        {
          "indexed": false,
          "internalType": "address",
          "name": "newOwner",
          "type": "address"
        }
      ],
      "name": "OwnershipTransferred",
      "type": "event"
    },
    {
      "anonymous": false,
      "inputs": [
        {
          "indexed": true,
          "internalType": "address",
          "name": "referrer",
          "type": "address"
        },
        {
          "indexed": true,
          "internalType": "address",
          "name": "referral",
          "type": "address"
        },
        {
          "indexed": false,
          "internalType": "uint256",
          "name": "amount",
          "type": "uint256"
        }
      ],
      "name": "RefBonus",
      "type": "event"
    },
    {
      "anonymous": false,
      "inputs": [
        {
          "indexed": true,
          "internalType": "address",
          "name": "user",
          "type": "address"
        },
        {
          "indexed": false,
          "internalType": "uint256",
          "name": "amount",
          "type": "uint256"
        }
      ],
      "name": "Withdrawn",
      "type": "event"
    },
    {
      "anonymous": false,
      "inputs": [
        {
          "indexed": true,
          "internalType": "address",
          "name": "user",
          "type": "address"
        },
        {
          "indexed": false,
          "internalType": "uint256",
          "name": "reinvestAmount",
          "type": "uint256"
        }
      ],
      "name": "onReinvestment",
      "type": "event"
    },
    {
      "inputs": [],
      "name": "DAILY_ROI",
      "outputs": [
        {
          "internalType": "uint256",
          "name": "",
          "type": "uint256"
        }
      ],
      "stateMutability": "view",
      "type": "function",
      "constant": true
    },
    {
      "inputs": [],
      "name": "MIN_STAKE_AMOUNT",
      "outputs": [
        {
          "internalType": "uint256",
          "name": "",
          "type": "uint256"
        }
      ],
      "stateMutability": "view",
      "type": "function",
      "constant": true
    },
    {
      "inputs": [],
      "name": "PERCENTS_DIVIDER",
      "outputs": [
        {
          "internalType": "uint256",
          "name": "",
          "type": "uint256"
        }
      ],
      "stateMutability": "view",
      "type": "function",
      "constant": true
    },
    {
      "inputs": [],
      "name": "REFERRAL_PERCENTS",
      "outputs": [
        {
          "internalType": "uint256",
          "name": "",
          "type": "uint256"
        }
      ],
      "stateMutability": "view",
      "type": "function",
      "constant": true
    },
    {
      "inputs": [],
      "name": "TIME_STEP",
      "outputs": [
        {
          "internalType": "uint256",
          "name": "",
          "type": "uint256"
        }
      ],
      "stateMutability": "view",
      "type": "function",
      "constant": true
    },
    {
      "inputs": [],
      "name": "acceptOwnership",
      "outputs": [
        {
          "internalType": "address",
          "name": "",
          "type": "address"
        }
      ],
      "stateMutability": "nonpayable",
      "type": "function"
    },
    {
      "inputs": [],
      "name": "owner",
      "outputs": [
        {
          "internalType": "address payable",
          "name": "",
          "type": "address"
        }
      ],
      "stateMutability": "view",
      "type": "function",
      "constant": true
    },
    {
      "inputs": [],
      "name": "totalDeposits",
      "outputs": [
        {
          "internalType": "uint256",
          "name": "",
          "type": "uint256"
        }
      ],
      "stateMutability": "view",
      "type": "function",
      "constant": true
    },
    {
      "inputs": [],
      "name": "totalInvested",
      "outputs": [
        {
          "internalType": "uint256",
          "name": "",
          "type": "uint256"
        }
      ],
      "stateMutability": "view",
      "type": "function",
      "constant": true
    },
    {
      "inputs": [],
      "name": "totalUsers",
      "outputs": [
        {
          "internalType": "uint256",
          "name": "",
          "type": "uint256"
        }
      ],
      "stateMutability": "view",
      "type": "function",
      "constant": true
    },
    {
      "inputs": [],
      "name": "totalWithdrawn",
      "outputs": [
        {
          "internalType": "uint256",
          "name": "",
          "type": "uint256"
        }
      ],
      "stateMutability": "view",
      "type": "function",
      "constant": true
    },
    {
      "inputs": [
        {
          "internalType": "address payable",
          "name": "newOwner",
          "type": "address"
        }
      ],
      "name": "transferOwnership",
      "outputs": [],
      "stateMutability": "nonpayable",
      "type": "function"
    },
    {
      "stateMutability": "payable",
      "type": "receive",
      "payable": true
    },
    {
      "inputs": [
        {
          "internalType": "address",
          "name": "referrer",
          "type": "address"
        },
        {
          "internalType": "uint256",
          "name": "amount",
          "type": "uint256"
        }
      ],
      "name": "invest",
      "outputs": [],
      "stateMutability": "nonpayable",
      "type": "function"
    },
    {
      "inputs": [],
      "name": "withdraw",
      "outputs": [],
      "stateMutability": "nonpayable",
      "type": "function"
    },
    {
      "inputs": [],
      "name": "reinvest",
      "outputs": [],
      "stateMutability": "nonpayable",
      "type": "function"
    },
    {
      "inputs": [
        {
          "internalType": "address",
          "name": "userAddress",
          "type": "address"
        }
      ],
      "name": "getUserDividends",
      "outputs": [
        {
          "internalType": "uint256",
          "name": "",
          "type": "uint256"
        }
      ],
      "stateMutability": "view",
      "type": "function",
      "constant": true
    },
    {
      "inputs": [],
      "name": "minimumStakeValue",
      "outputs": [
        {
          "internalType": "uint256",
          "name": "",
          "type": "uint256"
        }
      ],
      "stateMutability": "view",
      "type": "function",
      "constant": true
    },
    {
      "inputs": [
        {
          "internalType": "address",
          "name": "userAddress",
          "type": "address"
        }
      ],
      "name": "getUserReferralBonus",
      "outputs": [
        {
          "internalType": "uint256",
          "name": "",
          "type": "uint256"
        }
      ],
      "stateMutability": "view",
      "type": "function",
      "constant": true
    },
    {
      "inputs": [
        {
          "internalType": "address",
          "name": "referrer",
          "type": "address"
        }
      ],
      "name": "getUserReferralCount",
      "outputs": [
        {
          "internalType": "uint256",
          "name": "",
          "type": "uint256"
        }
      ],
      "stateMutability": "view",
      "type": "function",
      "constant": true
    },
    {
      "inputs": [
        {
          "internalType": "address",
          "name": "userAddress",
          "type": "address"
        }
      ],
      "name": "getUserReferrer",
      "outputs": [
        {
          "internalType": "address",
          "name": "",
          "type": "address"
        }
      ],
      "stateMutability": "view",
      "type": "function",
      "constant": true
    },
    {
      "inputs": [
        {
          "internalType": "address",
          "name": "userAddress",
          "type": "address"
        }
      ],
      "name": "getUserCheckpoint",
      "outputs": [
        {
          "internalType": "uint256",
          "name": "",
          "type": "uint256"
        }
      ],
      "stateMutability": "view",
      "type": "function",
      "constant": true
    },
    {
      "inputs": [
        {
          "internalType": "address",
          "name": "userAddress",
          "type": "address"
        }
      ],
      "name": "getUserAvailable",
      "outputs": [
        {
          "internalType": "uint256",
          "name": "",
          "type": "uint256"
        }
      ],
      "stateMutability": "view",
      "type": "function",
      "constant": true
    },
    {
      "inputs": [
        {
          "internalType": "address",
          "name": "userAddress",
          "type": "address"
        }
      ],
      "name": "isActive",
      "outputs": [
        {
          "internalType": "bool",
          "name": "",
          "type": "bool"
        }
      ],
      "stateMutability": "view",
      "type": "function",
      "constant": true
    },
    {
      "inputs": [
        {
          "internalType": "address",
          "name": "userAddress",
          "type": "address"
        },
        {
          "internalType": "uint256",
          "name": "index",
          "type": "uint256"
        }
      ],
      "name": "getUserDepositInfo",
      "outputs": [
        {
          "internalType": "uint256",
          "name": "",
          "type": "uint256"
        },
        {
          "internalType": "uint256",
          "name": "",
          "type": "uint256"
        },
        {
          "internalType": "uint256",
          "name": "",
          "type": "uint256"
        }
      ],
      "stateMutability": "view",
      "type": "function",
      "constant": true
    },
    {
      "inputs": [
        {
          "internalType": "address",
          "name": "userAddress",
          "type": "address"
        }
      ],
      "name": "getUserAmountOfDeposits",
      "outputs": [
        {
          "internalType": "uint256",
          "name": "",
          "type": "uint256"
        }
      ],
      "stateMutability": "view",
      "type": "function",
      "constant": true
    },
    {
      "inputs": [
        {
          "internalType": "address",
          "name": "userAddress",
          "type": "address"
        }
      ],
      "name": "getUserTotalDeposits",
      "outputs": [
        {
          "internalType": "uint256",
          "name": "",
          "type": "uint256"
        }
      ],
      "stateMutability": "view",
      "type": "function",
      "constant": true
    },
    {
      "inputs": [
        {
          "internalType": "address",
          "name": "userAddress",
          "type": "address"
        }
      ],
      "name": "getUserTotalWithdrawn",
      "outputs": [
        {
          "internalType": "uint256",
          "name": "",
          "type": "uint256"
        }
      ],
      "stateMutability": "view",
      "type": "function",
      "constant": true
    }
  ],
  "bytecode": "0x60806040523480156200001157600080fd5b506040516200314c3803806200314c833981810160405281019062000037919062000129565b336000806101000a81548173ffffffffffffffffffffffffffffffffffffffff021916908373ffffffffffffffffffffffffffffffffffffffff16021790555080600260006101000a81548173ffffffffffffffffffffffffffffffffffffffff021916908373ffffffffffffffffffffffffffffffffffffffff160217905550506200015b565b600080fd5b600073ffffffffffffffffffffffffffffffffffffffff82169050919050565b6000620000f182620000c4565b9050919050565b6200010381620000e4565b81146200010f57600080fd5b50565b6000815190506200012381620000f8565b92915050565b600060208284031215620001425762000141620000bf565b5b6000620001528482850162000112565b91505092915050565b612fe1806200016b6000396000f3fe6080604052600436106101a05760003560e01c80637e3abeea116100ec578063c0806b031161008a578063e85abe0911610064578063e85abe0914610617578063f2fde38b14610654578063fb4cb32b1461067d578063fdb5a03e146106ba576101a7565b8063c0806b031461055e578063c8a22eb41461059d578063d7ffca91146105da576101a7565b8063a8aeb6c2116100c6578063a8aeb6c2146104a2578063ab8a3c6b146104df578063b9b8c2461461050a578063bff1f9e114610533576101a7565b80637e3abeea146103fd5780638da5cb5b1461043a5780639f8a13d714610465576101a7565b806336144c9a116101595780634b319713116101335780634b319713146103515780635216aeec1461037c57806379ba5097146103a75780637d882097146103d2576101a7565b806336144c9a146102d25780633ccfd60b1461030f57806344038f9014610326576101a7565b806301c234a8146101ac578063040a772e146101d7578063153ab9df1461021457806318e1fbfc1461025157806327ed71881461027c57806332bc298c146102a7576101a7565b366101a757005b600080fd5b3480156101b857600080fd5b506101c16106d1565b6040516101ce91906125f8565b60405180910390f35b3480156101e357600080fd5b506101fe60048036038101906101f99190612676565b6106d6565b60405161020b91906125f8565b60405180910390f35b34801561022057600080fd5b5061023b60048036038101906102369190612676565b610a71565b60405161024891906125f8565b60405180910390f35b34801561025d57600080fd5b50610266610a9d565b60405161027391906125f8565b60405180910390f35b34801561028857600080fd5b50610291610aae565b60405161029e91906125f8565b60405180910390f35b3480156102b357600080fd5b506102bc610abb565b6040516102c991906125f8565b60405180910390f35b3480156102de57600080fd5b506102f960048036038101906102f49190612676565b610ac2565b60405161030691906126b2565b60405180910390f35b34801561031b57600080fd5b50610324610b2e565b005b34801561033257600080fd5b5061033b611163565b60405161034891906125f8565b60405180910390f35b34801561035d57600080fd5b50610366611168565b60405161037391906125f8565b60405180910390f35b34801561038857600080fd5b5061039161116e565b60405161039e91906125f8565b60405180910390f35b3480156103b357600080fd5b506103bc611174565b6040516103c991906126b2565b60405180910390f35b3480156103de57600080fd5b506103e761134b565b6040516103f491906125f8565b60405180910390f35b34801561040957600080fd5b50610424600480360381019061041f9190612676565b611351565b60405161043191906125f8565b60405180910390f35b34801561044657600080fd5b5061044f611406565b60405161045c91906126ee565b60405180910390f35b34801561047157600080fd5b5061048c60048036038101906104879190612676565b61142a565b6040516104999190612724565b60405180910390f35b3480156104ae57600080fd5b506104c960048036038101906104c49190612676565b611533565b6040516104d691906125f8565b60405180910390f35b3480156104eb57600080fd5b506104f4611582565b60405161050191906125f8565b60405180910390f35b34801561051657600080fd5b50610531600480360381019061052c919061276b565b611587565b005b34801561053f57600080fd5b50610548611b2d565b60405161055591906125f8565b60405180910390f35b34801561056a57600080fd5b506105856004803603810190610580919061276b565b611b33565b604051610594939291906127ab565b60405180910390f35b3480156105a957600080fd5b506105c460048036038101906105bf9190612676565b611c00565b6040516105d191906125f8565b60405180910390f35b3480156105e657600080fd5b5061060160048036038101906105fc9190612676565b611c4c565b60405161060e91906125f8565b60405180910390f35b34801561062357600080fd5b5061063e60048036038101906106399190612676565b611c98565b60405161064b91906125f8565b60405180910390f35b34801561066057600080fd5b5061067b6004803603810190610676919061280e565b611ce4565b005b34801561068957600080fd5b506106a4600480360381019061069f9190612676565b611ded565b6040516106b191906125f8565b60405180910390f35b3480156106c657600080fd5b506106cf611ea2565b005b606481565b600080600760008473ffffffffffffffffffffffffffffffffffffffff1673ffffffffffffffffffffffffffffffffffffffff168152602001908152602001600020905060008060005b8360000180549050811015610a655761077e606461077061016d8760000185815481106107505761074f61283b565b5b90600052602060002090600302016000015461240690919063ffffffff16565b61248090919063ffffffff16565b8460000182815481106107945761079361283b565b5b9060005260206000209060030201600101541015610a525783600101548460000182815481106107c7576107c661283b565b5b90600052602060002090600302016002015411156108945761088d6201518061087f6108238760000185815481106108025761080161283b565b5b906000526020600020906003020160020154426124de90919063ffffffff16565b6108716064610863600f8b60000189815481106108435761084261283b565b5b90600052602060002090600302016000015461240690919063ffffffff16565b61248090919063ffffffff16565b61240690919063ffffffff16565b61248090919063ffffffff16565b9150610922565b61091f620151806109116108b58760010154426124de90919063ffffffff16565b61090360646108f5600f8b60000189815481106108d5576108d461283b565b5b90600052602060002090600302016000015461240690919063ffffffff16565b61248090919063ffffffff16565b61240690919063ffffffff16565b61248090919063ffffffff16565b91505b610971606461096361016d8760000185815481106109435761094261283b565b5b90600052602060002090600302016000015461240690919063ffffffff16565b61248090919063ffffffff16565b6109ab8386600001848154811061098b5761098a61283b565b5b90600052602060002090600302016001015461253d90919063ffffffff16565b1115610a3c57610a398460000182815481106109ca576109c961283b565b5b906000526020600020906003020160010154610a2b6064610a1d61016d8960000187815481106109fd576109fc61283b565b5b90600052602060002090600302016000015461240690919063ffffffff16565b61248090919063ffffffff16565b6124de90919063ffffffff16565b91505b610a4f828461253d90919063ffffffff16565b92505b8080610a5d90612899565b915050610720565b50819350505050919050565b6000610a96610a7f836106d6565b610a8884611c98565b61253d90919063ffffffff16565b9050919050565b6000683635c9adc5dea00000905090565b683635c9adc5dea0000081565b6201518081565b6000600760008373ffffffffffffffffffffffffffffffffffffffff1673ffffffffffffffffffffffffffffffffffffffff16815260200190815260200160002060030160009054906101000a900473ffffffffffffffffffffffffffffffffffffffff169050919050565b6000600760003373ffffffffffffffffffffffffffffffffffffffff1673ffffffffffffffffffffffffffffffffffffffff168152602001908152602001600020905060008060005b8360000180549050811015610f2157610bd56064610bc761016d876000018581548110610ba757610ba661283b565b5b90600052602060002090600302016000015461240690919063ffffffff16565b61248090919063ffffffff16565b846000018281548110610beb57610bea61283b565b5b9060005260206000209060030201600101541015610f0e578360010154846000018281548110610c1e57610c1d61283b565b5b9060005260206000209060030201600201541115610ceb57610ce462015180610cd6610c7a876000018581548110610c5957610c5861283b565b5b906000526020600020906003020160020154426124de90919063ffffffff16565b610cc86064610cba600f8b6000018981548110610c9a57610c9961283b565b5b90600052602060002090600302016000015461240690919063ffffffff16565b61248090919063ffffffff16565b61240690919063ffffffff16565b61248090919063ffffffff16565b9150610d79565b610d7662015180610d68610d0c8760010154426124de90919063ffffffff16565b610d5a6064610d4c600f8b6000018981548110610d2c57610d2b61283b565b5b90600052602060002090600302016000015461240690919063ffffffff16565b61248090919063ffffffff16565b61240690919063ffffffff16565b61248090919063ffffffff16565b91505b610dc86064610dba61016d876000018581548110610d9a57610d9961283b565b5b90600052602060002090600302016000015461240690919063ffffffff16565b61248090919063ffffffff16565b610e0283866000018481548110610de257610de161283b565b5b90600052602060002090600302016001015461253d90919063ffffffff16565b1115610e9357610e90846000018281548110610e2157610e2061283b565b5b906000526020600020906003020160010154610e826064610e7461016d896000018781548110610e5457610e5361283b565b5b90600052602060002090600302016000015461240690919063ffffffff16565b61248090919063ffffffff16565b6124de90919063ffffffff16565b91505b610ecd82856000018381548110610ead57610eac61283b565b5b90600052602060002090600302016001015461253d90919063ffffffff16565b846000018281548110610ee357610ee261283b565b5b906000526020600020906003020160010181905550610f0b828461253d90919063ffffffff16565b92505b8080610f1990612899565b915050610b77565b506000610f2d33611c98565b90506000811115610f5857610f4b818461253d90919063ffffffff16565b9250600084600201819055505b60008311610f9b576040517f08c379a0000000000000000000000000000000000000000000000000000000008152600401610f929061293e565b60405180910390fd5b6000600260009054906101000a900473ffffffffffffffffffffffffffffffffffffffff1673ffffffffffffffffffffffffffffffffffffffff166370a08231306040518263ffffffff1660e01b8152600401610ff891906126b2565b6020604051808303816000875af1158015611017573d6000803e3d6000fd5b505050506040513d601f19601f8201168201806040525081019061103b9190612973565b905083811015611049578093505b428560010181905550600260009054906101000a900473ffffffffffffffffffffffffffffffffffffffff1673ffffffffffffffffffffffffffffffffffffffff1663a9059cbb33866040518363ffffffff1660e01b81526004016110af9291906129a0565b6020604051808303816000875af11580156110ce573d6000803e3d6000fd5b505050506040513d601f19601f820116820180604052508101906110f291906129f5565b506111088460055461253d90919063ffffffff16565b6005819055503373ffffffffffffffffffffffffffffffffffffffff167f7084f5476618d8e60b11ef0d7d3f06914655adb8793e28ff7f018d4c76d505d58560405161115491906125f8565b60405180910390a25050505050565b600c81565b60055481565b60045481565b6000600160009054906101000a900473ffffffffffffffffffffffffffffffffffffffff1673ffffffffffffffffffffffffffffffffffffffff163373ffffffffffffffffffffffffffffffffffffffff1614611206576040517f08c379a00000000000000000000000000000000000000000000000000000000081526004016111fd90612a6e565b60405180910390fd5b7f8be0079c531659141344cd1fd0a4f28419497f9722a3daafe3b4186f6b6457e060008054906101000a900473ffffffffffffffffffffffffffffffffffffffff16600160009054906101000a900473ffffffffffffffffffffffffffffffffffffffff16604051611279929190612aed565b60405180910390a1600160009054906101000a900473ffffffffffffffffffffffffffffffffffffffff166000806101000a81548173ffffffffffffffffffffffffffffffffffffffff021916908373ffffffffffffffffffffffffffffffffffffffff1602179055506000600160006101000a81548173ffffffffffffffffffffffffffffffffffffffff021916908373ffffffffffffffffffffffffffffffffffffffff16021790555060008054906101000a900473ffffffffffffffffffffffffffffffffffffffff16905090565b60065481565b600080600760008473ffffffffffffffffffffffffffffffffffffffff1673ffffffffffffffffffffffffffffffffffffffff1681526020019081526020016000209050600080600090505b82600001805490508110156113fb576113e68360000182815481106113c5576113c461283b565b5b9060005260206000209060030201600001548361253d90919063ffffffff16565b915080806113f390612899565b91505061139d565b508092505050919050565b60008054906101000a900473ffffffffffffffffffffffffffffffffffffffff1681565b600080600760008473ffffffffffffffffffffffffffffffffffffffff1673ffffffffffffffffffffffffffffffffffffffff168152602001908152602001600020905060008160000180549050111561152c576114e060646114d261016d84600001600186600001805490506114a19190612b16565b815481106114b2576114b161283b565b5b90600052602060002090600302016000015461240690919063ffffffff16565b61248090919063ffffffff16565b81600001600183600001805490506114f89190612b16565b815481106115095761150861283b565b5b906000526020600020906003020160010154101561152b57600191505061152e565b5b505b919050565b6000600760008373ffffffffffffffffffffffffffffffffffffffff1673ffffffffffffffffffffffffffffffffffffffff168152602001908152602001600020600001805490509050919050565b600f81565b600260009054906101000a900473ffffffffffffffffffffffffffffffffffffffff1673ffffffffffffffffffffffffffffffffffffffff166323b872dd3330846040518463ffffffff1660e01b81526004016115e693929190612b4a565b6020604051808303816000875af1158015611605573d6000803e3d6000fd5b505050506040513d601f19601f8201168201806040525081019061162991906129f5565b506000600760003373ffffffffffffffffffffffffffffffffffffffff1673ffffffffffffffffffffffffffffffffffffffff1681526020019081526020016000209050600073ffffffffffffffffffffffffffffffffffffffff168160030160009054906101000a900473ffffffffffffffffffffffffffffffffffffffff1673ffffffffffffffffffffffffffffffffffffffff1614801561171257506000600760008573ffffffffffffffffffffffffffffffffffffffff1673ffffffffffffffffffffffffffffffffffffffff16815260200190815260200160002060000180549050115b801561174a57503373ffffffffffffffffffffffffffffffffffffffff168373ffffffffffffffffffffffffffffffffffffffff1614155b1561179357828160030160006101000a81548173ffffffffffffffffffffffffffffffffffffffff021916908373ffffffffffffffffffffffffffffffffffffffff1602179055505b600073ffffffffffffffffffffffffffffffffffffffff168160030160009054906101000a900473ffffffffffffffffffffffffffffffffffffffff1673ffffffffffffffffffffffffffffffffffffffff16146119ce5760008160030160009054906101000a900473ffffffffffffffffffffffffffffffffffffffff169050600073ffffffffffffffffffffffffffffffffffffffff168173ffffffffffffffffffffffffffffffffffffffff16146119cc5760006118716064611863600c8761240690919063ffffffff16565b61248090919063ffffffff16565b90506118c881600760008573ffffffffffffffffffffffffffffffffffffffff1673ffffffffffffffffffffffffffffffffffffffff1681526020019081526020016000206002015461253d90919063ffffffff16565b600760008473ffffffffffffffffffffffffffffffffffffffff1673ffffffffffffffffffffffffffffffffffffffff168152602001908152602001600020600201819055506119646001600760008573ffffffffffffffffffffffffffffffffffffffff1673ffffffffffffffffffffffffffffffffffffffff1681526020019081526020016000206004015461253d90919063ffffffff16565b503373ffffffffffffffffffffffffffffffffffffffff168273ffffffffffffffffffffffffffffffffffffffff167f328838ddfc48ad5ae5531b1ad95dfb22b42ff1866853e474375ffef2c63d8e50836040516119c291906125f8565b60405180910390a3505b505b6000816000018054905003611a3a574281600101819055506119fc600160035461253d90919063ffffffff16565b6003819055507f9fd565cd14c3c391679eb0cad12a14dcf7534e9d3462bcb9b67a098a9bbbc24a33604051611a3191906126b2565b60405180910390a15b806000016040518060600160405280848152602001600081526020014281525090806001815401808255809150506001900390600052602060002090600302016000909190919091506000820151816000015560208201518160010155604082015181600201555050611ab88260045461253d90919063ffffffff16565b600481905550611ad4600160065461253d90919063ffffffff16565b6006819055503373ffffffffffffffffffffffffffffffffffffffff167f2cb77763bc1e8490c1a904905c4d74b4269919aca114464f4bb4d911e60de36483604051611b2091906125f8565b60405180910390a2505050565b60035481565b600080600080600760008773ffffffffffffffffffffffffffffffffffffffff1673ffffffffffffffffffffffffffffffffffffffff1681526020019081526020016000209050806000018581548110611b9057611b8f61283b565b5b906000526020600020906003020160000154816000018681548110611bb857611bb761283b565b5b906000526020600020906003020160010154826000018781548110611be057611bdf61283b565b5b906000526020600020906003020160020154935093509350509250925092565b6000600760008373ffffffffffffffffffffffffffffffffffffffff1673ffffffffffffffffffffffffffffffffffffffff168152602001908152602001600020600401549050919050565b6000600760008373ffffffffffffffffffffffffffffffffffffffff1673ffffffffffffffffffffffffffffffffffffffff168152602001908152602001600020600101549050919050565b6000600760008373ffffffffffffffffffffffffffffffffffffffff1673ffffffffffffffffffffffffffffffffffffffff168152602001908152602001600020600201549050919050565b60008054906101000a900473ffffffffffffffffffffffffffffffffffffffff1673ffffffffffffffffffffffffffffffffffffffff163373ffffffffffffffffffffffffffffffffffffffff1614611d72576040517f08c379a0000000000000000000000000000000000000000000000000000000008152600401611d6990612bcd565b60405180910390fd5b600073ffffffffffffffffffffffffffffffffffffffff168173ffffffffffffffffffffffffffffffffffffffff1603611de1576040517f08c379a0000000000000000000000000000000000000000000000000000000008152600401611dd890612c39565b60405180910390fd5b611dea8161259b565b50565b600080600760008473ffffffffffffffffffffffffffffffffffffffff1673ffffffffffffffffffffffffffffffffffffffff1681526020019081526020016000209050600080600090505b8260000180549050811015611e9757611e82836000018281548110611e6157611e6061283b565b5b9060005260206000209060030201600101548361253d90919063ffffffff16565b91508080611e8f90612899565b915050611e39565b508092505050919050565b6000611ead336106d6565b11611eed576040517f08c379a0000000000000000000000000000000000000000000000000000000008152600401611ee490612ca5565b60405180910390fd5b6000600760003373ffffffffffffffffffffffffffffffffffffffff1673ffffffffffffffffffffffffffffffffffffffff16815260200190815260200160002090506000611f3b336106d6565b905060008083600001604051806060016040528085815260200160008152602001428152509080600181540180825580915050600190039060005260206000209060030201600090919091909150600082015181600001556020820151816001015560408201518160020155505060005b84600001805490508110156123565761200a6064611ffc61016d886000018581548110611fdc57611fdb61283b565b5b90600052602060002090600302016000015461240690919063ffffffff16565b61248090919063ffffffff16565b8560000182815481106120205761201f61283b565b5b90600052602060002090600302016001015410156123435784600101548560000182815481106120535761205261283b565b5b9060005260206000209060030201600201541115612120576121196201518061210b6120af88600001858154811061208e5761208d61283b565b5b906000526020600020906003020160020154426124de90919063ffffffff16565b6120fd60646120ef600f8c60000189815481106120cf576120ce61283b565b5b90600052602060002090600302016000015461240690919063ffffffff16565b61248090919063ffffffff16565b61240690919063ffffffff16565b61248090919063ffffffff16565b91506121ae565b6121ab6201518061219d6121418860010154426124de90919063ffffffff16565b61218f6064612181600f8c60000189815481106121615761216061283b565b5b90600052602060002090600302016000015461240690919063ffffffff16565b61248090919063ffffffff16565b61240690919063ffffffff16565b61248090919063ffffffff16565b91505b6121fd60646121ef61016d8860000185815481106121cf576121ce61283b565b5b90600052602060002090600302016000015461240690919063ffffffff16565b61248090919063ffffffff16565b612237838760000184815481106122175761221661283b565b5b90600052602060002090600302016001015461253d90919063ffffffff16565b11156122c8576122c58560000182815481106122565761225561283b565b5b9060005260206000209060030201600101546122b760646122a961016d8a60000187815481106122895761228861283b565b5b90600052602060002090600302016000015461240690919063ffffffff16565b61248090919063ffffffff16565b6124de90919063ffffffff16565b91505b612302828660000183815481106122e2576122e161283b565b5b90600052602060002090600302016001015461253d90919063ffffffff16565b8560000182815481106123185761231761283b565b5b906000526020600020906003020160010181905550612340828461253d90919063ffffffff16565b92505b808061234e90612899565b915050611fac565b504284600101819055506123758360045461253d90919063ffffffff16565b600481905550612391600160065461253d90919063ffffffff16565b6006819055506123ac8260055461253d90919063ffffffff16565b6005819055503373ffffffffffffffffffffffffffffffffffffffff167f5d511c2070e5a2dbcc6fbfbb3fd6704a11ab5fa74b793b81aacece2c7cc29405846040516123f891906125f8565b60405180910390a250505050565b6000808303612418576000905061247a565b600082846124269190612cc5565b90508284826124359190612d4e565b14612475576040517f08c379a000000000000000000000000000000000000000000000000000000000815260040161246c90612df1565b60405180910390fd5b809150505b92915050565b60008082116124c4576040517f08c379a00000000000000000000000000000000000000000000000000000000081526004016124bb90612e5d565b60405180910390fd5b600082846124d29190612d4e565b90508091505092915050565b600082821115612523576040517f08c379a000000000000000000000000000000000000000000000000000000000815260040161251a90612ec9565b60405180910390fd5b600082846125319190612b16565b90508091505092915050565b600080828461254c9190612ee9565b905083811015612591576040517f08c379a000000000000000000000000000000000000000000000000000000000815260040161258890612f8b565b60405180910390fd5b8091505092915050565b80600160006101000a81548173ffffffffffffffffffffffffffffffffffffffff021916908373ffffffffffffffffffffffffffffffffffffffff16021790555050565b6000819050919050565b6125f2816125df565b82525050565b600060208201905061260d60008301846125e9565b92915050565b600080fd5b600073ffffffffffffffffffffffffffffffffffffffff82169050919050565b600061264382612618565b9050919050565b61265381612638565b811461265e57600080fd5b50565b6000813590506126708161264a565b92915050565b60006020828403121561268c5761268b612613565b5b600061269a84828501612661565b91505092915050565b6126ac81612638565b82525050565b60006020820190506126c760008301846126a3565b92915050565b60006126d882612618565b9050919050565b6126e8816126cd565b82525050565b600060208201905061270360008301846126df565b92915050565b60008115159050919050565b61271e81612709565b82525050565b60006020820190506127396000830184612715565b92915050565b612748816125df565b811461275357600080fd5b50565b6000813590506127658161273f565b92915050565b6000806040838503121561278257612781612613565b5b600061279085828601612661565b92505060206127a185828601612756565b9150509250929050565b60006060820190506127c060008301866125e9565b6127cd60208301856125e9565b6127da60408301846125e9565b949350505050565b6127eb816126cd565b81146127f657600080fd5b50565b600081359050612808816127e2565b92915050565b60006020828403121561282457612823612613565b5b6000612832848285016127f9565b91505092915050565b7f4e487b7100000000000000000000000000000000000000000000000000000000600052603260045260246000fd5b7f4e487b7100000000000000000000000000000000000000000000000000000000600052601160045260246000fd5b60006128a4826125df565b91507fffffffffffffffffffffffffffffffffffffffffffffffffffffffffffffffff82036128d6576128d561286a565b5b600182019050919050565b600082825260208201905092915050565b7f5573657220686173206e6f206469766964656e64730000000000000000000000600082015250565b60006129286015836128e1565b9150612933826128f2565b602082019050919050565b600060208201905081810360008301526129578161291b565b9050919050565b60008151905061296d8161273f565b92915050565b60006020828403121561298957612988612613565b5b60006129978482850161295e565b91505092915050565b60006040820190506129b560008301856126a3565b6129c260208301846125e9565b9392505050565b6129d281612709565b81146129dd57600080fd5b50565b6000815190506129ef816129c9565b92915050565b600060208284031215612a0b57612a0a612613565b5b6000612a19848285016129e0565b91505092915050565b7f496e76616c6964206e6577206f776e6572000000000000000000000000000000600082015250565b6000612a586011836128e1565b9150612a6382612a22565b602082019050919050565b60006020820190508181036000830152612a8781612a4b565b9050919050565b6000819050919050565b6000612ab3612aae612aa984612618565b612a8e565b612618565b9050919050565b6000612ac582612a98565b9050919050565b6000612ad782612aba565b9050919050565b612ae781612acc565b82525050565b6000604082019050612b026000830185612ade565b612b0f6020830184612ade565b9392505050565b6000612b21826125df565b9150612b2c836125df565b925082821015612b3f57612b3e61286a565b5b828203905092915050565b6000606082019050612b5f60008301866126a3565b612b6c60208301856126a3565b612b7960408301846125e9565b949350505050565b7f4e6f74204f776e65720000000000000000000000000000000000000000000000600082015250565b6000612bb76009836128e1565b9150612bc282612b81565b602082019050919050565b60006020820190508181036000830152612be681612baa565b9050919050565b7f496e76616c696420416464726573730000000000000000000000000000000000600082015250565b6000612c23600f836128e1565b9150612c2e82612bed565b602082019050919050565b60006020820190508181036000830152612c5281612c16565b9050919050565b7f4e6f7420486f6c64657200000000000000000000000000000000000000000000600082015250565b6000612c8f600a836128e1565b9150612c9a82612c59565b602082019050919050565b60006020820190508181036000830152612cbe81612c82565b9050919050565b6000612cd0826125df565b9150612cdb836125df565b9250817fffffffffffffffffffffffffffffffffffffffffffffffffffffffffffffffff0483118215151615612d1457612d1361286a565b5b828202905092915050565b7f4e487b7100000000000000000000000000000000000000000000000000000000600052601260045260246000fd5b6000612d59826125df565b9150612d64836125df565b925082612d7457612d73612d1f565b5b828204905092915050565b7f536166654d6174683a206d756c7469706c69636174696f6e206f766572666c6f60008201527f7700000000000000000000000000000000000000000000000000000000000000602082015250565b6000612ddb6021836128e1565b9150612de682612d7f565b604082019050919050565b60006020820190508181036000830152612e0a81612dce565b9050919050565b7f536166654d6174683a206469766973696f6e206279207a65726f000000000000600082015250565b6000612e47601a836128e1565b9150612e5282612e11565b602082019050919050565b60006020820190508181036000830152612e7681612e3a565b9050919050565b7f536166654d6174683a207375627472616374696f6e206f766572666c6f770000600082015250565b6000612eb3601e836128e1565b9150612ebe82612e7d565b602082019050919050565b60006020820190508181036000830152612ee281612ea6565b9050919050565b6000612ef4826125df565b9150612eff836125df565b9250827fffffffffffffffffffffffffffffffffffffffffffffffffffffffffffffffff03821115612f3457612f3361286a565b5b828201905092915050565b7f536166654d6174683a206164646974696f6e206f766572666c6f770000000000600082015250565b6000612f75601b836128e1565b9150612f8082612f3f565b602082019050919050565b60006020820190508181036000830152612fa481612f68565b905091905056fea26469706673582212203003d2ce48bb5071469db90bd712090f93481dd37bfe4692c6015ac18397a67164736f6c634300080e0033",
  "immutableReferences": {},
  "source": "// SPDX-License-Identifier: UNLICENSED\r\npragma solidity ^0.8.0;\r\n/**\r\n *Submitted for verification at BscScan.com on 2022-05-10\r\n*/\r\n\r\n\r\nlibrary SafeMath {\r\n\r\n    function add(uint256 a, uint256 b) internal pure returns (uint256) {\r\n        uint256 c = a + b;\r\n        require(c >= a, \"SafeMath: addition overflow\");\r\n\r\n        return c;\r\n    }\r\n\r\n    function sub(uint256 a, uint256 b) internal pure returns (uint256) {\r\n        require(b <= a, \"SafeMath: subtraction overflow\");\r\n        uint256 c = a - b;\r\n\r\n        return c;\r\n    }\r\n\r\n    function mul(uint256 a, uint256 b) internal pure returns (uint256) {\r\n        if (a == 0) {\r\n            return 0;\r\n        }\r\n\r\n        uint256 c = a * b;\r\n        require(c / a == b, \"SafeMath: multiplication overflow\");\r\n\r\n        return c;\r\n    }\r\n\r\n    function div(uint256 a, uint256 b) internal pure returns (uint256) {\r\n        require(b > 0, \"SafeMath: division by zero\");\r\n        uint256 c = a / b;\r\n\r\n        return c;\r\n    }\r\n}\r\n\r\nabstract contract ERC20Interface {\r\n    function totalSupply() \r\n\t\tpublic \r\n\t\tvirtual \r\n\t\treturns (uint256);\r\n\r\n    function balanceOf(address tokenOwner) \r\n\t\tpublic \r\n\t\tvirtual \r\n\t\treturns (uint256 balance);\r\n    \r\n\tfunction allowance\r\n\t\t(address tokenOwner, address spender) \r\n\t\tpublic \r\n\t\tvirtual \r\n\t\treturns (uint256 remaining);\r\n\r\n    function transfer(address to, uint256 tokens) public virtual\r\n\t\treturns (bool success);\r\n    \r\n\tfunction approve(address spender, uint256 tokens) public virtual\r\n\t\treturns (bool success);\r\n\r\n    function transferFrom \r\n\t\t(address from, address to, uint256 tokens) public virtual\r\n\t\treturns (bool success);\r\n\r\n\r\n    event Transfer(address indexed from, address indexed to, uint256 tokens);\r\n    event Approval(address indexed tokenOwner, address indexed spender, uint256 tokens);\r\n}\r\n\r\ncontract Ownable {\r\n\r\n  // Owner of the contract\r\n  address payable public owner;\r\n  address payable internal _newOwner;\r\n\r\n    constructor() {\r\n        owner = payable(address(msg.sender));\r\n    }\r\n\r\n  /**\r\n  * @dev Event to show ownership has been transferred\r\n  * @param previousOwner representing the address of the previous owner\r\n  * @param newOwner representing the address of the new owner\r\n  */\r\n  event OwnershipTransferred(address previousOwner, address newOwner);\r\n\r\n\r\n  /**\r\n   * @dev Sets a new owner address\r\n   */\r\n  function setOwner(address payable newOwner) internal {\r\n    _newOwner = newOwner;\r\n  }\r\n\r\n  /**\r\n  * @dev Throws if called by any account other than the owner.\r\n  */\r\n  modifier onlyOwner() {\r\n    require(msg.sender == owner, \"Not Owner\");\r\n    _;\r\n  }\r\n\r\n  /**\r\n   * @dev Allows the current owner to transfer control of the contract to a newOwner.\r\n   * @param newOwner The address to transfer ownership to.\r\n   */\r\n  function transferOwnership(address payable newOwner) public onlyOwner {\r\n    require(newOwner != address(0), \"Invalid Address\");\r\n    setOwner(newOwner);\r\n  }\r\n\r\n  //this flow is to prevent transferring ownership to wrong wallet by mistake\r\n  function acceptOwnership() public returns (address){\r\n      require(msg.sender == _newOwner,\"Invalid new owner\");\r\n      emit OwnershipTransferred(owner, _newOwner);\r\n      owner = _newOwner;\r\n      _newOwner = payable(address(0));\r\n      return owner;\r\n  }\r\n}\r\n\r\ncontract ViccStaking is Ownable {\r\n    using SafeMath for uint256;\r\n\r\n    uint256 constant public PERCENTS_DIVIDER = 100;\r\n\tuint256 constant public DAILY_ROI = 15;\r\n    uint256 constant public REFERRAL_PERCENTS = 12; // 12%\r\n    uint256 constant public TIME_STEP = 1 days;\r\n    uint256 constant public MIN_STAKE_AMOUNT = 1000 * (10**18);\r\n\t\r\n\tERC20Interface VictoryCoin;\r\n\r\n    uint256 public totalUsers;\r\n    uint256 public totalInvested;\r\n    uint256 public totalWithdrawn;\r\n    uint256 public totalDeposits;\r\n\r\n    struct Deposit {\r\n        uint256 amount;\r\n        uint256 withdrawn;\r\n        uint256 start;\r\n    }\r\n\r\n    struct User {\r\n        Deposit[] deposits;\r\n        uint256 checkpoint;\r\n        uint256 bonus;\r\n        address referrer;\r\n        uint256 referralCount;\r\n    }\r\n\r\n    mapping (address => User) internal users;\r\n\r\n    modifier onlyhodler() {\r\n        require(getUserDividends(msg.sender) > 0, \"Not Holder\");\r\n        _;\r\n    }\r\n\r\n    event Newbie(address user);\r\n    event NewDeposit(address indexed user, uint256 amount);\r\n    event Withdrawn(address indexed user, uint256 amount);\r\n    event onReinvestment(address indexed user, uint256 reinvestAmount);\r\n    event RefBonus(address indexed referrer, address indexed referral, uint256 amount);\r\n\r\n    constructor(address _VictoryCoin) {\r\n        VictoryCoin = ERC20Interface(_VictoryCoin);\r\n    }\r\n\r\n    receive() external payable {}\r\n\r\n    function invest(address referrer, uint256 amount) public {\r\n\t\tVictoryCoin.transferFrom(msg.sender, address(this), amount);\r\n\t\t\r\n        User storage user = users[msg.sender];\r\n\r\n        if (user.referrer == address(0) && users[referrer].deposits.length > 0 && referrer != msg.sender) {\r\n            user.referrer = referrer;\r\n        }\r\n\r\n        if (user.referrer != address(0)) {\r\n            address upline = user.referrer;\r\n\t\t\tif (upline != address(0)) {\r\n\t\t\t\tuint256 _amount = amount.mul(REFERRAL_PERCENTS).div(PERCENTS_DIVIDER);\r\n\t\t\t\tusers[upline].bonus = users[upline].bonus.add(_amount);\r\n                users[upline].referralCount.add(1);\r\n\t\t\t\temit RefBonus(upline, msg.sender, _amount);\r\n\t\t\t}\r\n        }\r\n\r\n        if (user.deposits.length == 0) {\r\n            user.checkpoint = block.timestamp;\r\n            totalUsers = totalUsers.add(1);\r\n            emit Newbie(msg.sender);\r\n        }\r\n\r\n        user.deposits.push(Deposit(amount, 0, block.timestamp));\r\n\r\n        totalInvested = totalInvested.add(amount);\r\n        totalDeposits = totalDeposits.add(1);\r\n\r\n        emit NewDeposit(msg.sender, amount);\r\n    }\r\n\r\n    function withdraw() public {\r\n        User storage user = users[msg.sender];\r\n\r\n        uint256 totalAmount;\r\n        uint256 dividends;\r\n\r\n        for (uint256 i = 0; i < user.deposits.length; i++) {\r\n            if (user.deposits[i].withdrawn < user.deposits[i].amount.mul(365).div(100)) {\r\n                if (user.deposits[i].start > user.checkpoint) {\r\n                    dividends = (user.deposits[i].amount.mul(DAILY_ROI).div(PERCENTS_DIVIDER))\r\n\t\t\t\t\t\t.mul(block.timestamp.sub(user.deposits[i].start))\r\n\t\t\t\t\t\t.div(TIME_STEP);\r\n                } else {\r\n                    dividends = (user.deposits[i].amount.mul(DAILY_ROI).div(PERCENTS_DIVIDER))\r\n                        .mul(block.timestamp.sub(user.checkpoint))\r\n                        .div(TIME_STEP);\r\n                }\r\n\r\n                if (user.deposits[i].withdrawn.add(dividends) > user.deposits[i].amount.mul(365).div(100)) {\r\n                    dividends = (user.deposits[i].amount.mul(365).div(100)).sub(user.deposits[i].withdrawn);\r\n                }\r\n\r\n                user.deposits[i].withdrawn = user.deposits[i].withdrawn.add(dividends); /// changing of storage data\r\n                totalAmount = totalAmount.add(dividends);\r\n            }\r\n        }\r\n\r\n        uint256 referralBonus = getUserReferralBonus(msg.sender);\r\n        if (referralBonus > 0) {\r\n            totalAmount = totalAmount.add(referralBonus);\r\n            user.bonus = 0;\r\n        }\r\n\r\n        require(totalAmount > 0, \"User has no dividends\");\r\n\r\n        uint256 contractBalance = VictoryCoin.balanceOf(address(this));\r\n        if (contractBalance < totalAmount) {\r\n            totalAmount = contractBalance;\r\n        }\r\n\r\n        user.checkpoint = block.timestamp;\r\n\t\t\r\n\t\tVictoryCoin.transfer(msg.sender, totalAmount);\r\n\r\n        totalWithdrawn = totalWithdrawn.add(totalAmount);\r\n\r\n        emit Withdrawn(msg.sender, totalAmount);\r\n    }\r\n\r\n    function reinvest() onlyhodler() public\r\n    {\r\n        User storage user = users[msg.sender];\r\n        // fetch dividends\r\n        uint256 _dividends = getUserDividends(msg.sender); // retrieve ref. bonus later in the code\r\n        uint256 totalAmount;\r\n        uint256 dividends;\r\n\r\n        user.deposits.push(Deposit(_dividends, 0, block.timestamp));\r\n\r\n        for (uint256 i = 0; i < user.deposits.length; i++) {\r\n            if (user.deposits[i].withdrawn < user.deposits[i].amount.mul(365).div(100)) {\r\n                if (user.deposits[i].start > user.checkpoint) {\r\n                    dividends = (user.deposits[i].amount.mul(DAILY_ROI).div(PERCENTS_DIVIDER))\r\n\t\t\t\t\t\t.mul(block.timestamp.sub(user.deposits[i].start))\r\n\t\t\t\t\t\t.div(TIME_STEP);\r\n                } else {\r\n                    dividends = (user.deposits[i].amount.mul(DAILY_ROI).div(PERCENTS_DIVIDER))\r\n                        .mul(block.timestamp.sub(user.checkpoint))\r\n                        .div(TIME_STEP);\r\n                }\r\n\r\n                if (user.deposits[i].withdrawn.add(dividends) > user.deposits[i].amount.mul(365).div(100)) {\r\n                    dividends = (user.deposits[i].amount.mul(365).div(100)).sub(user.deposits[i].withdrawn);\r\n                }\r\n\r\n                user.deposits[i].withdrawn = user.deposits[i].withdrawn.add(dividends); /// changing of storage data\r\n                totalAmount = totalAmount.add(dividends);\r\n            }\r\n        }\r\n\r\n        user.checkpoint = block.timestamp;\r\n\r\n        totalInvested = totalInvested.add(_dividends);\r\n        totalDeposits = totalDeposits.add(1);\r\n        totalWithdrawn = totalWithdrawn.add(totalAmount);\r\n        // fire event\r\n        emit onReinvestment(msg.sender, _dividends);\r\n    }\r\n\r\n\r\n    function getUserDividends(address userAddress) public view returns (uint256) {\r\n        User storage user = users[userAddress];\r\n\r\n        uint256 totalDividends;\r\n        uint256 dividends;\r\n\r\n        for (uint256 i = 0; i < user.deposits.length; i++) {\r\n\r\n            if (user.deposits[i].withdrawn < user.deposits[i].amount.mul(365).div(100)) {\r\n\r\n                if (user.deposits[i].start > user.checkpoint) {\r\n\r\n                    dividends = (user.deposits[i].amount.mul(DAILY_ROI).div(PERCENTS_DIVIDER))\r\n\t\t\t\t\t\t.mul(block.timestamp.sub(user.deposits[i].start))\r\n\t\t\t\t\t\t.div(TIME_STEP);\r\n\r\n                } else {\r\n\r\n                    dividends = (user.deposits[i].amount.mul(DAILY_ROI).div(PERCENTS_DIVIDER))\r\n\t\t\t\t\t\t.mul(block.timestamp.sub(user.checkpoint))\r\n\t\t\t\t\t\t.div(TIME_STEP);\r\n                }\r\n\r\n                if (user.deposits[i].withdrawn.add(dividends) > user.deposits[i].amount.mul(365).div(100)) {\r\n                    dividends = (user.deposits[i].amount.mul(365).div(100)).sub(user.deposits[i].withdrawn);\r\n                }\r\n\r\n                totalDividends = totalDividends.add(dividends);\r\n            }\r\n        }\r\n\r\n        return totalDividends;\r\n    }\r\n\r\n    function minimumStakeValue() public view returns(uint256) {\r\n        return MIN_STAKE_AMOUNT;\r\n    }\r\n\r\n    function getUserReferralBonus(address userAddress) public view returns(uint256) {\r\n        return users[userAddress].bonus;\r\n    }\r\n\r\n    function getUserReferralCount(address referrer) public view returns(uint256) {\r\n        return users[referrer].referralCount;\r\n    }\r\n\r\n    function getUserReferrer(address userAddress) public view returns(address) {\r\n        return users[userAddress].referrer;\r\n    }\r\n\r\n    function getUserCheckpoint(address userAddress) public view returns(uint256) {\r\n        return users[userAddress].checkpoint;\r\n    }\r\n\r\n    function getUserAvailable(address userAddress) public view returns(uint256) {\r\n        return getUserReferralBonus(userAddress).add(getUserDividends(userAddress));\r\n    }\r\n\r\n    function isActive(address userAddress) public view returns (bool) {\r\n        User storage user = users[userAddress];\r\n\r\n        if (user.deposits.length > 0) {\r\n            if (user.deposits[user.deposits.length-1].withdrawn < user.deposits[user.deposits.length-1].amount.mul(365).div(100)) {\r\n                return true;\r\n            }\r\n        }\r\n    }\r\n\r\n    function getUserDepositInfo(address userAddress, uint256 index) public view returns(uint256, uint256, uint256) {\r\n        User storage user = users[userAddress];\r\n\r\n        return (user.deposits[index].amount, user.deposits[index].withdrawn, user.deposits[index].start);\r\n    }\r\n\r\n    function getUserAmountOfDeposits(address userAddress) public view returns(uint256) {\r\n        return users[userAddress].deposits.length;\r\n    }\r\n\r\n    function getUserTotalDeposits(address userAddress) public view returns(uint256) {\r\n        User storage user = users[userAddress];\r\n\r\n        uint256 amount;\r\n\r\n        for (uint256 i = 0; i < user.deposits.length; i++) {\r\n            amount = amount.add(user.deposits[i].amount);\r\n        }\r\n\r\n        return amount;\r\n    }\r\n\r\n    function getUserTotalWithdrawn(address userAddress) public view returns(uint256) {\r\n        User storage user = users[userAddress];\r\n\r\n        uint256 amount;\r\n\r\n        for (uint256 i = 0; i < user.deposits.length; i++) {\r\n            amount = amount.add(user.deposits[i].withdrawn);\r\n        }\r\n\r\n        return amount;\r\n    }\r\n}",
  "sourcePath": "D:\\Work\\VictoryCoinStake\\src\\Contract\\contracts\\ViccStaking.sol",
  "compiler": {
    "name": "solc",
    "version": "0.8.14+commit.80d49f37.Emscripten.clang"
  },
  "schemaVersion": "3.4.7",
  "updatedAt": "2022-06-16T02:19:28.305Z",
  "networkType": "ethereum",
  "devdoc": {
    "kind": "dev",
    "methods": {
      "transferOwnership(address)": {
        "details": "Allows the current owner to transfer control of the contract to a newOwner.",
        "params": {
          "newOwner": "The address to transfer ownership to."
        }
      }
    },
    "version": 1
  },
  "userdoc": {
    "kind": "user",
    "methods": {},
    "version": 1
  }
}